{
  "_format": "hh-sol-artifact-1",
  "contractName": "Mutants",
  "sourceName": "contracts/Mutants.sol",
  "abi": [
    {
      "inputs": [],
      "stateMutability": "nonpayable",
      "type": "constructor"
    },
    {
      "anonymous": false,
      "inputs": [
        {
          "indexed": true,
          "internalType": "address",
          "name": "owner",
          "type": "address"
        },
        {
          "indexed": true,
          "internalType": "address",
          "name": "approved",
          "type": "address"
        },
        {
          "indexed": true,
          "internalType": "uint256",
          "name": "tokenId",
          "type": "uint256"
        }
      ],
      "name": "Approval",
      "type": "event"
    },
    {
      "anonymous": false,
      "inputs": [
        {
          "indexed": true,
          "internalType": "address",
          "name": "owner",
          "type": "address"
        },
        {
          "indexed": true,
          "internalType": "address",
          "name": "operator",
          "type": "address"
        },
        {
          "indexed": false,
          "internalType": "bool",
          "name": "approved",
          "type": "bool"
        }
      ],
      "name": "ApprovalForAll",
      "type": "event"
    },
    {
      "anonymous": false,
      "inputs": [
        {
          "indexed": true,
          "internalType": "address",
          "name": "previousOwner",
          "type": "address"
        },
        {
          "indexed": true,
          "internalType": "address",
          "name": "newOwner",
          "type": "address"
        }
      ],
      "name": "OwnershipTransferred",
      "type": "event"
    },
    {
      "anonymous": false,
      "inputs": [
        {
          "indexed": true,
          "internalType": "address",
          "name": "from",
          "type": "address"
        },
        {
          "indexed": true,
          "internalType": "address",
          "name": "to",
          "type": "address"
        },
        {
          "indexed": true,
          "internalType": "uint256",
          "name": "tokenId",
          "type": "uint256"
        }
      ],
      "name": "Transfer",
      "type": "event"
    },
    {
      "inputs": [],
      "name": "MAX_SUPPLY_M",
      "outputs": [
        {
          "internalType": "uint256",
          "name": "",
          "type": "uint256"
        }
      ],
      "stateMutability": "view",
      "type": "function"
    },
    {
      "inputs": [],
      "name": "MAX_SUPPLY_M3",
      "outputs": [
        {
          "internalType": "uint256",
          "name": "",
          "type": "uint256"
        }
      ],
      "stateMutability": "view",
      "type": "function"
    },
    {
      "inputs": [],
      "name": "MAX_SUPPLY_PUBLIC",
      "outputs": [
        {
          "internalType": "uint256",
          "name": "",
          "type": "uint256"
        }
      ],
      "stateMutability": "view",
      "type": "function"
    },
    {
      "inputs": [
        {
          "internalType": "address",
          "name": "to",
          "type": "address"
        },
        {
          "internalType": "uint256",
          "name": "tokenId",
          "type": "uint256"
        }
      ],
      "name": "approve",
      "outputs": [],
      "stateMutability": "nonpayable",
      "type": "function"
    },
    {
      "inputs": [
        {
          "internalType": "address",
          "name": "owner",
          "type": "address"
        }
      ],
      "name": "balanceOf",
      "outputs": [
        {
          "internalType": "uint256",
          "name": "",
          "type": "uint256"
        }
      ],
      "stateMutability": "view",
      "type": "function"
    },
    {
      "inputs": [
        {
          "internalType": "address",
          "name": "owner",
          "type": "address"
        }
      ],
      "name": "balanceOfM0",
      "outputs": [
        {
          "internalType": "uint256",
          "name": "",
          "type": "uint256"
        }
      ],
      "stateMutability": "view",
      "type": "function"
    },
    {
      "inputs": [
        {
          "internalType": "address",
          "name": "owner",
          "type": "address"
        }
      ],
      "name": "balanceOfM1",
      "outputs": [
        {
          "internalType": "uint256",
          "name": "",
          "type": "uint256"
        }
      ],
      "stateMutability": "view",
      "type": "function"
    },
    {
      "inputs": [
        {
          "internalType": "address",
          "name": "owner",
          "type": "address"
        }
      ],
      "name": "balanceOfM2",
      "outputs": [
        {
          "internalType": "uint256",
          "name": "",
          "type": "uint256"
        }
      ],
      "stateMutability": "view",
      "type": "function"
    },
    {
      "inputs": [
        {
          "internalType": "address",
          "name": "owner",
          "type": "address"
        }
      ],
      "name": "balanceOfM3",
      "outputs": [
        {
          "internalType": "uint256",
          "name": "",
          "type": "uint256"
        }
      ],
      "stateMutability": "view",
      "type": "function"
    },
    {
      "inputs": [],
      "name": "baseURI",
      "outputs": [
        {
          "internalType": "string",
          "name": "",
          "type": "string"
        }
      ],
      "stateMutability": "view",
      "type": "function"
    },
    {
      "inputs": [
        {
          "internalType": "uint256",
          "name": "nftId",
          "type": "uint256"
        },
        {
          "internalType": "uint256",
          "name": "serumType",
          "type": "uint256"
        }
      ],
      "name": "canMutate",
      "outputs": [
        {
          "internalType": "bool",
          "name": "",
          "type": "bool"
        }
      ],
      "stateMutability": "view",
      "type": "function"
    },
    {
      "inputs": [
        {
          "internalType": "uint256",
          "name": "mutantId",
          "type": "uint256"
        }
      ],
      "name": "forceFulfillRandomMegaMutant",
      "outputs": [],
      "stateMutability": "nonpayable",
      "type": "function"
    },
    {
      "inputs": [],
      "name": "forceFulfillRandomness",
      "outputs": [],
      "stateMutability": "nonpayable",
      "type": "function"
    },
    {
      "inputs": [
        {
          "internalType": "uint256",
          "name": "tokenId",
          "type": "uint256"
        }
      ],
      "name": "getApproved",
      "outputs": [
        {
          "internalType": "address",
          "name": "",
          "type": "address"
        }
      ],
      "stateMutability": "view",
      "type": "function"
    },
    {
      "inputs": [
        {
          "internalType": "address",
          "name": "owner",
          "type": "address"
        },
        {
          "internalType": "address",
          "name": "operator",
          "type": "address"
        }
      ],
      "name": "isApprovedForAll",
      "outputs": [
        {
          "internalType": "bool",
          "name": "",
          "type": "bool"
        }
      ],
      "stateMutability": "view",
      "type": "function"
    },
    {
      "inputs": [
        {
          "internalType": "uint256",
          "name": "amount",
          "type": "uint256"
        }
      ],
      "name": "mint",
      "outputs": [],
      "stateMutability": "payable",
      "type": "function"
    },
    {
      "inputs": [
        {
          "internalType": "uint256",
          "name": "nftId",
          "type": "uint256"
        },
        {
          "internalType": "uint256",
          "name": "serumType",
          "type": "uint256"
        }
      ],
      "name": "mutate",
      "outputs": [],
      "stateMutability": "nonpayable",
      "type": "function"
    },
    {
      "inputs": [],
      "name": "mutationsActive",
      "outputs": [
        {
          "internalType": "bool",
          "name": "",
          "type": "bool"
        }
      ],
      "stateMutability": "view",
      "type": "function"
    },
    {
      "inputs": [],
      "name": "name",
      "outputs": [
        {
          "internalType": "string",
          "name": "",
          "type": "string"
        }
      ],
      "stateMutability": "view",
      "type": "function"
    },
    {
      "inputs": [],
      "name": "numMegaMutants",
      "outputs": [
        {
          "internalType": "uint256",
          "name": "",
          "type": "uint256"
        }
      ],
      "stateMutability": "view",
      "type": "function"
    },
    {
      "inputs": [],
      "name": "numPublicMinted",
      "outputs": [
        {
          "internalType": "uint256",
          "name": "",
          "type": "uint256"
        }
      ],
      "stateMutability": "view",
      "type": "function"
    },
    {
      "inputs": [],
      "name": "owner",
      "outputs": [
        {
          "internalType": "address",
          "name": "",
          "type": "address"
        }
      ],
      "stateMutability": "view",
      "type": "function"
    },
    {
      "inputs": [
        {
          "internalType": "uint256",
          "name": "tokenId",
          "type": "uint256"
        }
      ],
      "name": "ownerOf",
      "outputs": [
        {
          "internalType": "address",
          "name": "",
          "type": "address"
        }
      ],
      "stateMutability": "view",
      "type": "function"
    },
    {
      "inputs": [],
      "name": "price",
      "outputs": [
        {
          "internalType": "uint256",
          "name": "",
          "type": "uint256"
        }
      ],
      "stateMutability": "view",
      "type": "function"
    },
    {
      "inputs": [],
      "name": "publicSaleActive",
      "outputs": [
        {
          "internalType": "bool",
          "name": "",
          "type": "bool"
        }
      ],
      "stateMutability": "view",
      "type": "function"
    },
    {
      "inputs": [],
      "name": "purchaseLimit",
      "outputs": [
        {
          "internalType": "uint256",
          "name": "",
          "type": "uint256"
        }
      ],
      "stateMutability": "view",
      "type": "function"
    },
    {
      "inputs": [],
      "name": "randomSeedSet",
      "outputs": [
        {
          "internalType": "bool",
          "name": "",
          "type": "bool"
        }
      ],
      "stateMutability": "view",
      "type": "function"
    },
    {
      "inputs": [
        {
          "internalType": "bytes32",
          "name": "requestId",
          "type": "bytes32"
        },
        {
          "internalType": "uint256",
          "name": "randomness",
          "type": "uint256"
        }
      ],
      "name": "rawFulfillRandomness",
      "outputs": [],
      "stateMutability": "nonpayable",
      "type": "function"
    },
    {
      "inputs": [
        {
          "internalType": "contract IERC20",
          "name": "_token",
          "type": "address"
        }
      ],
      "name": "recoverToken",
      "outputs": [],
      "stateMutability": "nonpayable",
      "type": "function"
    },
    {
      "inputs": [],
      "name": "renounceOwnership",
      "outputs": [],
      "stateMutability": "nonpayable",
      "type": "function"
    },
    {
      "inputs": [],
      "name": "requestRandomSeed",
      "outputs": [],
      "stateMutability": "nonpayable",
      "type": "function"
    },
    {
      "inputs": [
        {
          "internalType": "address",
          "name": "from",
          "type": "address"
        },
        {
          "internalType": "address",
          "name": "to",
          "type": "address"
        },
        {
          "internalType": "uint256",
          "name": "tokenId",
          "type": "uint256"
        }
      ],
      "name": "safeTransferFrom",
      "outputs": [],
      "stateMutability": "nonpayable",
      "type": "function"
    },
    {
      "inputs": [
        {
          "internalType": "address",
          "name": "from",
          "type": "address"
        },
        {
          "internalType": "address",
          "name": "to",
          "type": "address"
        },
        {
          "internalType": "uint256",
          "name": "tokenId",
          "type": "uint256"
        },
        {
          "internalType": "bytes",
          "name": "_data",
          "type": "bytes"
        }
      ],
      "name": "safeTransferFrom",
      "outputs": [],
      "stateMutability": "nonpayable",
      "type": "function"
    },
    {
      "inputs": [
        {
          "internalType": "address",
          "name": "operator",
          "type": "address"
        },
        {
          "internalType": "bool",
          "name": "approved",
          "type": "bool"
        }
      ],
      "name": "setApprovalForAll",
      "outputs": [],
      "stateMutability": "nonpayable",
      "type": "function"
    },
    {
      "inputs": [
        {
          "internalType": "string",
          "name": "_baseURI",
          "type": "string"
        }
      ],
      "name": "setBaseURI",
      "outputs": [],
      "stateMutability": "nonpayable",
      "type": "function"
    },
    {
      "inputs": [
        {
          "internalType": "bool",
          "name": "active",
          "type": "bool"
        }
      ],
      "name": "setMutationsActive",
      "outputs": [],
      "stateMutability": "nonpayable",
      "type": "function"
    },
    {
      "inputs": [
        {
          "internalType": "address",
          "name": "_address",
          "type": "address"
        }
      ],
      "name": "setNFTAddress",
      "outputs": [],
      "stateMutability": "nonpayable",
      "type": "function"
    },
    {
      "inputs": [
        {
          "internalType": "bool",
          "name": "active",
          "type": "bool"
        }
      ],
      "name": "setPublicSaleActive",
      "outputs": [],
      "stateMutability": "nonpayable",
      "type": "function"
    },
    {
      "inputs": [
        {
          "internalType": "address",
          "name": "_address",
          "type": "address"
        }
      ],
      "name": "setSerumAddress",
      "outputs": [],
      "stateMutability": "nonpayable",
      "type": "function"
    },
    {
      "inputs": [
        {
          "internalType": "string",
          "name": "_uri",
          "type": "string"
        }
      ],
      "name": "setUnrevealedURI",
      "outputs": [],
      "stateMutability": "nonpayable",
      "type": "function"
    },
    {
      "inputs": [
        {
          "internalType": "bytes4",
          "name": "interfaceId",
          "type": "bytes4"
        }
      ],
      "name": "supportsInterface",
      "outputs": [
        {
          "internalType": "bool",
          "name": "",
          "type": "bool"
        }
      ],
      "stateMutability": "view",
      "type": "function"
    },
    {
      "inputs": [],
      "name": "symbol",
      "outputs": [
        {
          "internalType": "string",
          "name": "",
          "type": "string"
        }
      ],
      "stateMutability": "view",
      "type": "function"
    },
    {
      "inputs": [
        {
          "internalType": "address",
          "name": "owner",
          "type": "address"
        }
      ],
      "name": "tokenIdsOf",
      "outputs": [
        {
          "internalType": "uint256[]",
          "name": "",
          "type": "uint256[]"
        }
      ],
      "stateMutability": "view",
      "type": "function"
    },
    {
      "inputs": [
        {
          "internalType": "uint256",
          "name": "tokenId",
          "type": "uint256"
        }
      ],
      "name": "tokenURI",
      "outputs": [
        {
          "internalType": "string",
          "name": "",
          "type": "string"
        }
      ],
      "stateMutability": "view",
      "type": "function"
    },
    {
      "inputs": [
        {
          "internalType": "address",
          "name": "from",
          "type": "address"
        },
        {
          "internalType": "address",
          "name": "to",
          "type": "address"
        },
        {
          "internalType": "uint256",
          "name": "tokenId",
          "type": "uint256"
        }
      ],
      "name": "transferFrom",
      "outputs": [],
      "stateMutability": "nonpayable",
      "type": "function"
    },
    {
      "inputs": [
        {
          "internalType": "address",
          "name": "newOwner",
          "type": "address"
        }
      ],
      "name": "transferOwnership",
      "outputs": [],
      "stateMutability": "nonpayable",
      "type": "function"
    },
    {
      "inputs": [],
      "name": "unrevealedURI",
      "outputs": [
        {
          "internalType": "string",
          "name": "",
          "type": "string"
        }
      ],
      "stateMutability": "view",
      "type": "function"
    },
    {
      "inputs": [],
      "name": "withdraw",
      "outputs": [],
      "stateMutability": "nonpayable",
      "type": "function"
    }
  ],
  "bytecode": "0x7f2ed0feb3e7fd2022120aa84fab1945545a9f2ffc9076fd6156fa96eaff4c131160075567016345785d8a0000600855620186a0600955610100604052600d60c08190526c756e72657665616c656455524960981b60e09081526200006891600b919062000216565b5060408051808201909152600880825267626173655552492f60c01b60209092019182526200009a91600c9162000216565b50348015620000a857600080fd5b5060408051808201825260078152664d7574616e747360c81b60208083019182528351808501909452600484526309aaaa8b60e31b9084015273b3dccb4cf7a26f6cf6b120cf5a73875b7bbc655b60a0527301be23585060835e02b77ef475b0cc51aa1e07096080528151919291620001249160019162000216565b5080516200013a90600290602084019062000216565b5050506200015762000151620001c060201b60201c565b620001c4565b60005b600a811015620001b9576011816103e8620001768180620002d2565b620001829190620002d2565b6200018e9190620002d2565b8154600181018355600092835260209092209091015580620001b081620002ed565b9150506200015a565b5062000348565b3390565b600680546001600160a01b038381166001600160a01b0319831681179093556040519116919082907f8be0079c531659141344cd1fd0a4f28419497f9722a3daafe3b4186f6b6457e090600090a35050565b82805462000224906200030b565b90600052602060002090601f01602090048101928262000248576000855562000293565b82601f106200026357805160ff191683800117855562000293565b8280016001018555821562000293579182015b828111156200029357825182559160200191906001019062000276565b50620002a1929150620002a5565b5090565b5b80821115620002a15760008155600101620002a6565b634e487b7160e01b600052601160045260246000fd5b60008219821115620002e857620002e8620002bc565b500190565b6000600019821415620003045762000304620002bc565b5060010190565b600181811c908216806200032057607f821691505b602082108114156200034257634e487b7160e01b600052602260045260246000fd5b50919050565b60805160a0516141df62000375600039600081816117620152613718015260006136dc01526141df6000f3fe6080604052600436106103135760003560e01c806395d89b411161019a578063c61a7915116100e1578063e1da26c61161008a578063f2fde38b11610064578063f2fde38b146108a6578063fe2c7fee146108c6578063fe4ce9d7146108e657600080fd5b8063e1da26c61461081b578063e2e06fa314610830578063e985e9c51461085057600080fd5b8063d133a9b8116100bb578063d133a9b814610805578063d264646314610404578063dcafe77d146105d557600080fd5b8063c61a7915146107af578063c7793ff3146107c5578063c87b56dd146107e557600080fd5b8063a3b261f211610143578063b88d4fde1161011d578063b88d4fde1461073d578063bc8893b41461075d578063bf7962731461078f57600080fd5b8063a3b261f2146106d9578063aaab633914610706578063b5a07ef71461071d57600080fd5b8063a035b1fe11610174578063a035b1fe1461068b578063a0712d68146106a6578063a22cb465146106b957600080fd5b806395d89b4114610636578063983f98671461064b5780639be65a601461066b57600080fd5b80636063440b1161025e578063715018a61161020757806382255456116101e157806382255456146105d55780638da5cb5b146105eb57806394985ddd1461061657600080fd5b8063715018a6146105805780637e925db014610595578063801b25c7146105b557600080fd5b80636c0360eb116102385780636c0360eb146105365780637035bf181461054b57806370a082311461056057600080fd5b80636063440b146104c35780636352211e146104f657806369d037381461051657600080fd5b806323b872dd116102c057806342842e0e1161029a57806342842e0e14610463578063447400bf1461048357806355f804b3146104a357600080fd5b806323b872dd146104195780633307dcfe146104395780633ccfd60b1461044e57600080fd5b8063081812fc116102f1578063081812fc1461039d578063095ea7b3146103e2578063188866571461040457600080fd5b806301ffc9a714610318578063045cae671461034d57806306fdde031461037b575b600080fd5b34801561032457600080fd5b506103386103333660046139c2565b610906565b60405190151581526020015b60405180910390f35b34801561035957600080fd5b5061036d610368366004613a08565b6109eb565b604051908152602001610344565b34801561038757600080fd5b50610390610a03565b6040516103449190613a9b565b3480156103a957600080fd5b506103bd6103b8366004613aae565b610a95565b60405173ffffffffffffffffffffffffffffffffffffffff9091168152602001610344565b3480156103ee57600080fd5b506104026103fd366004613ac7565b610b74565b005b34801561041057600080fd5b5061036d600a81565b34801561042557600080fd5b50610402610434366004613af3565b610d01565b34801561044557600080fd5b50610402610da2565b34801561045a57600080fd5b50610402610e3f565b34801561046f57600080fd5b5061040261047e366004613af3565b610f0d565b34801561048f57600080fd5b5061040261049e366004613b34565b610f28565b3480156104af57600080fd5b506104026104be366004613c19565b6112ac565b3480156104cf57600080fd5b50600e54610338907501000000000000000000000000000000000000000000900460ff1681565b34801561050257600080fd5b506103bd610511366004613aae565b611344565b34801561052257600080fd5b50610402610531366004613a08565b6113f6565b34801561054257600080fd5b506103906114be565b34801561055757600080fd5b5061039061154c565b34801561056c57600080fd5b5061036d61057b366004613a08565b611559565b34801561058c57600080fd5b50610402611583565b3480156105a157600080fd5b5061036d6105b0366004613a08565b611610565b3480156105c157600080fd5b506104026105d0366004613aae565b61162f565b3480156105e157600080fd5b5061036d6103e881565b3480156105f757600080fd5b5060065473ffffffffffffffffffffffffffffffffffffffff166103bd565b34801561062257600080fd5b50610402610631366004613b34565b61174a565b34801561064257600080fd5b506103906117f3565b34801561065757600080fd5b5061036d610666366004613a08565b611802565b34801561067757600080fd5b50610402610686366004613a08565b61182e565b34801561069757600080fd5b5061036d666a94d74f43000081565b6104026106b4366004613aae565b6119da565b3480156106c557600080fd5b506104026106d4366004613c70565b611c6b565b3480156106e557600080fd5b506106f96106f4366004613a08565b611c76565b6040516103449190613ca9565b34801561071257600080fd5b50600a541515610338565b34801561072957600080fd5b5061036d610738366004613a08565b611e0d565b34801561074957600080fd5b50610402610758366004613ced565b611e1d565b34801561076957600080fd5b50600e546103389074010000000000000000000000000000000000000000900460ff1681565b34801561079b57600080fd5b506103386107aa366004613b34565b611ebf565b3480156107bb57600080fd5b5061036d60105481565b3480156107d157600080fd5b506104026107e0366004613d6d565b611f4e565b3480156107f157600080fd5b50610390610800366004613aae565b61201a565b34801561081157600080fd5b5061036d600f5481565b34801561082757600080fd5b50610402612299565b34801561083c57600080fd5b5061040261084b366004613d6d565b61238c565b34801561085c57600080fd5b5061033861086b366004613d8a565b73ffffffffffffffffffffffffffffffffffffffff918216600090815260056020908152604080832093909416825291909152205460ff1690565b3480156108b257600080fd5b506104026108c1366004613a08565b612457565b3480156108d257600080fd5b506104026108e1366004613c19565b612584565b3480156108f257600080fd5b50610402610901366004613a08565b612618565b60007fffffffff0000000000000000000000000000000000000000000000000000000082167f80ac58cd00000000000000000000000000000000000000000000000000000000148061099957507fffffffff0000000000000000000000000000000000000000000000000000000082167f5b5e139f00000000000000000000000000000000000000000000000000000000145b806109e557507f01ffc9a7000000000000000000000000000000000000000000000000000000007fffffffff000000000000000000000000000000000000000000000000000000008316145b92915050565b60006109e5826103e86109fe8180613de7565b6126e0565b606060018054610a1290613dff565b80601f0160208091040260200160405190810160405280929190818152602001828054610a3e90613dff565b8015610a8b5780601f10610a6057610100808354040283529160200191610a8b565b820191906000526020600020905b815481529060010190602001808311610a6e57829003601f168201915b5050505050905090565b60008181526003602052604081205473ffffffffffffffffffffffffffffffffffffffff16610b4b576040517f08c379a000000000000000000000000000000000000000000000000000000000815260206004820152602c60248201527f4552433732313a20617070726f76656420717565727920666f72206e6f6e657860448201527f697374656e7420746f6b656e000000000000000000000000000000000000000060648201526084015b60405180910390fd5b5060009081526004602052604090205473ffffffffffffffffffffffffffffffffffffffff1690565b6000610b7f82611344565b90508073ffffffffffffffffffffffffffffffffffffffff168373ffffffffffffffffffffffffffffffffffffffff161415610c3d576040517f08c379a000000000000000000000000000000000000000000000000000000000815260206004820152602160248201527f4552433732313a20617070726f76616c20746f2063757272656e74206f776e6560448201527f72000000000000000000000000000000000000000000000000000000000000006064820152608401610b42565b3373ffffffffffffffffffffffffffffffffffffffff82161480610c665750610c66813361086b565b610cf2576040517f08c379a000000000000000000000000000000000000000000000000000000000815260206004820152603860248201527f4552433732313a20617070726f76652063616c6c6572206973206e6f74206f7760448201527f6e6572206e6f7220617070726f76656420666f7220616c6c00000000000000006064820152608401610b42565b610cfc83836127e9565b505050565b610d0b3382612889565b610d97576040517f08c379a000000000000000000000000000000000000000000000000000000000815260206004820152603160248201527f4552433732313a207472616e736665722063616c6c6572206973206e6f74206f60448201527f776e6572206e6f7220617070726f7665640000000000000000000000000000006064820152608401610b42565b610cfc8383836129f9565b60065473ffffffffffffffffffffffffffffffffffffffff163314610e23576040517f08c379a000000000000000000000000000000000000000000000000000000000815260206004820181905260248201527f4f776e61626c653a2063616c6c6572206973206e6f7420746865206f776e65726044820152606401610b42565b6000610e30600143613e53565b409050610e3c81612bea565b50565b60065473ffffffffffffffffffffffffffffffffffffffff163314610ec0576040517f08c379a000000000000000000000000000000000000000000000000000000000815260206004820181905260248201527f4f776e61626c653a2063616c6c6572206973206e6f7420746865206f776e65726044820152606401610b42565b604051479033908290600081818185875af1925050503d8060008114610f02576040519150601f19603f3d011682016040523d82523d6000602084013e610f07565b606091505b50505050565b610cfc83838360405180602001604052806000815250611e1d565b600e547501000000000000000000000000000000000000000000900460ff16610fad576040517f08c379a000000000000000000000000000000000000000000000000000000000815260206004820152601460248201527f4d55544154494f4e535f4e4f545f4143544956450000000000000000000000006044820152606401610b42565b323314611016576040517f08c379a000000000000000000000000000000000000000000000000000000000815260206004820152600d60248201527f434f4e54524143545f43414c4c000000000000000000000000000000000000006044820152606401610b42565b600d546040517f6352211e00000000000000000000000000000000000000000000000000000000815260048101849052339173ffffffffffffffffffffffffffffffffffffffff1690636352211e90602401602060405180830381865afa158015611085573d6000803e3d6000fd5b505050506040513d601f19601f820116820180604052508101906110a99190613e6a565b73ffffffffffffffffffffffffffffffffffffffff1614611126576040517f08c379a000000000000000000000000000000000000000000000000000000000815260206004820152601160248201527f4e4f545f43414c4c4552535f544f4b454e0000000000000000000000000000006044820152606401610b42565b60038110611190576040517f08c379a000000000000000000000000000000000000000000000000000000000815260206004820152601260248201527f494e56414c49445f534552554d5f5459504500000000000000000000000000006044820152606401610b42565b6000816111aa576111a3836103e8613de7565b9050611206565b81600114156111ca57826111c06103e880613de7565b6111a39190613de7565b6010546103e86111da8180613de7565b6111e49190613de7565b6111ee9190613de7565b60108054919250600061120083613e87565b91905055505b6112103382612c5d565b600e546040517fc6ae087d0000000000000000000000000000000000000000000000000000000081523360048201526024810184905273ffffffffffffffffffffffffffffffffffffffff9091169063c6ae087d90604401600060405180830381600087803b15801561128257600080fd5b505af1158015611296573d6000803e3d6000fd5b505050508160021415610cfc57610cfc81612de4565b60065473ffffffffffffffffffffffffffffffffffffffff16331461132d576040517f08c379a000000000000000000000000000000000000000000000000000000000815260206004820181905260248201527f4f776e61626c653a2063616c6c6572206973206e6f7420746865206f776e65726044820152606401610b42565b805161134090600c9060208401906138fb565b5050565b60008181526003602052604081205473ffffffffffffffffffffffffffffffffffffffff16806109e5576040517f08c379a000000000000000000000000000000000000000000000000000000000815260206004820152602960248201527f4552433732313a206f776e657220717565727920666f72206e6f6e657869737460448201527f656e7420746f6b656e00000000000000000000000000000000000000000000006064820152608401610b42565b60065473ffffffffffffffffffffffffffffffffffffffff163314611477576040517f08c379a000000000000000000000000000000000000000000000000000000000815260206004820181905260248201527f4f776e61626c653a2063616c6c6572206973206e6f7420746865206f776e65726044820152606401610b42565b600d80547fffffffffffffffffffffffff00000000000000000000000000000000000000001673ffffffffffffffffffffffffffffffffffffffff92909216919091179055565b600c80546114cb90613dff565b80601f01602080910402602001604051908101604052809291908181526020018280546114f790613dff565b80156115445780601f1061151957610100808354040283529160200191611544565b820191906000526020600020905b81548152906001019060200180831161152757829003601f168201915b505050505081565b600b80546114cb90613dff565b60006109e58282600a6103e861156f8180613de7565b6115799190613de7565b6109fe9190613de7565b60065473ffffffffffffffffffffffffffffffffffffffff163314611604576040517f08c379a000000000000000000000000000000000000000000000000000000000815260206004820181905260248201527f4f776e61626c653a2063616c6c6572206973206e6f7420746865206f776e65726044820152606401610b42565b61160e6000612e03565b565b60006109e5826116226103e880613de7565b6103e86115798180613de7565b60065473ffffffffffffffffffffffffffffffffffffffff1633146116b0576040517f08c379a000000000000000000000000000000000000000000000000000000000815260206004820181905260248201527f4f776e61626c653a2063616c6c6572206973206e6f7420746865206f776e65726044820152606401610b42565b806103e86116be8180613de7565b6116c89190613de7565b1115611730576040517f08c379a000000000000000000000000000000000000000000000000000000000815260206004820152600f60248201527f494e56414c49445f4d4547415f494400000000000000000000000000000000006044820152606401610b42565b600061173d600143613e53565b4090506113408282612e7a565b3373ffffffffffffffffffffffffffffffffffffffff7f000000000000000000000000000000000000000000000000000000000000000016146117e9576040517f08c379a000000000000000000000000000000000000000000000000000000000815260206004820152601f60248201527f4f6e6c7920565246436f6f7264696e61746f722063616e2066756c66696c6c006044820152606401610b42565b6113408282612f9c565b606060028054610a1290613dff565b60006109e5826103e86118158180613de7565b61181f9190613de7565b600a6103e861156f8180613de7565b60065473ffffffffffffffffffffffffffffffffffffffff1633146118af576040517f08c379a000000000000000000000000000000000000000000000000000000000815260206004820181905260248201527f4f776e61626c653a2063616c6c6572206973206e6f7420746865206f776e65726044820152606401610b42565b6040517f70a0823100000000000000000000000000000000000000000000000000000000815230600482015260009073ffffffffffffffffffffffffffffffffffffffff8316906370a0823190602401602060405180830381865afa15801561191c573d6000803e3d6000fd5b505050506040513d601f19601f820116820180604052508101906119409190613ec0565b6040517fa9059cbb0000000000000000000000000000000000000000000000000000000081523360048201526024810182905290915073ffffffffffffffffffffffffffffffffffffffff83169063a9059cbb906044016020604051808303816000875af11580156119b6573d6000803e3d6000fd5b505050506040513d601f19601f82011682018060405250810190610cfc9190613ed9565b600e5474010000000000000000000000000000000000000000900460ff16611a5e576040517f08c379a000000000000000000000000000000000000000000000000000000000815260206004820152601660248201527f5055424c49435f53414c455f4e4f545f414354495645000000000000000000006044820152606401610b42565b323314611ac7576040517f08c379a000000000000000000000000000000000000000000000000000000000815260206004820152600d60248201527f434f4e54524143545f43414c4c000000000000000000000000000000000000006044820152606401610b42565b600a811115611b32576040517f08c379a000000000000000000000000000000000000000000000000000000000815260206004820152600d60248201527f455843454544535f4c494d4954000000000000000000000000000000000000006044820152606401610b42565b611b4381666a94d74f430000613ef6565b3414611bab576040517f08c379a000000000000000000000000000000000000000000000000000000000815260206004820152600f60248201527f494e434f52524543545f56414c554500000000000000000000000000000000006044820152606401610b42565b600f546103e8611bbb8383613de7565b1115611c23576040517f08c379a000000000000000000000000000000000000000000000000000000000815260206004820152601260248201527f4d41585f535550504c595f5245414348454400000000000000000000000000006044820152606401610b42565b81600f6000828254611c359190613de7565b90915550600090505b82811015610cfc57611c5933611c548385613de7565b612c5d565b80611c6381613e87565b915050611c3e565b611340338383612fc3565b606073ffffffffffffffffffffffffffffffffffffffff8216611d1b576040517f08c379a000000000000000000000000000000000000000000000000000000000815260206004820152602260248201527f4552433732313a20717565727920666f7220746865207a65726f20616464726560448201527f73730000000000000000000000000000000000000000000000000000000000006064820152608401610b42565b6000611d2683611559565b67ffffffffffffffff811115611d3e57611d3e613b56565b604051908082528060200260200182016040528015611d67578160200160208202803683370190505b5090506000805b600a6103e8611d7d8180613de7565b611d879190613de7565b611d919190613de7565b811015611e045760008181526003602052604090205473ffffffffffffffffffffffffffffffffffffffff86811691161415611df257808383611dd381613e87565b945081518110611de557611de5613f33565b6020026020010181815250505b80611dfc81613e87565b915050611d6e565b50909392505050565b60006109e58260006103e86126e0565b611e273383612889565b611eb3576040517f08c379a000000000000000000000000000000000000000000000000000000000815260206004820152603160248201527f4552433732313a207472616e736665722063616c6c6572206973206e6f74206f60448201527f776e6572206e6f7220617070726f7665640000000000000000000000000000006064820152608401610b42565b610f07848484846130f1565b60008082611eda57611ed3846103e8613de7565b9050611f21565b8260011415611efa5783611ef06103e880613de7565b611ed39190613de7565b6010546103e8611f0a8180613de7565b611f149190613de7565b611f1e9190613de7565b90505b60009081526003602052604090205473ffffffffffffffffffffffffffffffffffffffff16159392505050565b60065473ffffffffffffffffffffffffffffffffffffffff163314611fcf576040517f08c379a000000000000000000000000000000000000000000000000000000000815260206004820181905260248201527f4f776e61626c653a2063616c6c6572206973206e6f7420746865206f776e65726044820152606401610b42565b600e80549115157501000000000000000000000000000000000000000000027fffffffffffffffffffff00ffffffffffffffffffffffffffffffffffffffffff909216919091179055565b60008181526003602052604090205460609073ffffffffffffffffffffffffffffffffffffffff166120ce576040517f08c379a000000000000000000000000000000000000000000000000000000000815260206004820152602f60248201527f4552433732314d657461646174613a2055524920717565727920666f72206e6f60448201527f6e6578697374656e7420746f6b656e00000000000000000000000000000000006064820152608401610b42565b600a5415806120e95750600c80546120e590613dff565b1590505b1561218057600b80546120fb90613dff565b80601f016020809104026020016040519081016040528092919081815260200182805461212790613dff565b80156121745780601f1061214957610100808354040283529160200191612174565b820191906000526020600020905b81548152906001019060200180831161215757829003601f168201915b50505050509050919050565b816103e88110156121a15761219a836103e8600a54613194565b9050612266565b6103e86121ae8180613de7565b6121b89190613de7565b831061226657506000828152601260205260409020548061226657600b80546121e090613dff565b80601f016020809104026020016040519081016040528092919081815260200182805461220c90613dff565b80156122595780601f1061222e57610100808354040283529160200191612259565b820191906000526020600020905b81548152906001019060200180831161223c57829003601f168201915b5050505050915050919050565b600c6122718261330d565b604051602001612282929190613f7e565b604051602081830303815290604052915050919050565b60065473ffffffffffffffffffffffffffffffffffffffff16331461231a576040517f08c379a000000000000000000000000000000000000000000000000000000000815260206004820181905260248201527f4f776e61626c653a2063616c6c6572206973206e6f7420746865206f776e65726044820152606401610b42565b600a5415612384576040517f08c379a000000000000000000000000000000000000000000000000000000000815260206004820152600f60248201527f52414e444f4d5f534545445f53455400000000000000000000000000000000006044820152606401610b42565b610e3c61343f565b60065473ffffffffffffffffffffffffffffffffffffffff16331461240d576040517f08c379a000000000000000000000000000000000000000000000000000000000815260206004820181905260248201527f4f776e61626c653a2063616c6c6572206973206e6f7420746865206f776e65726044820152606401610b42565b600e805491151574010000000000000000000000000000000000000000027fffffffffffffffffffffff00ffffffffffffffffffffffffffffffffffffffff909216919091179055565b60065473ffffffffffffffffffffffffffffffffffffffff1633146124d8576040517f08c379a000000000000000000000000000000000000000000000000000000000815260206004820181905260248201527f4f776e61626c653a2063616c6c6572206973206e6f7420746865206f776e65726044820152606401610b42565b73ffffffffffffffffffffffffffffffffffffffff811661257b576040517f08c379a000000000000000000000000000000000000000000000000000000000815260206004820152602660248201527f4f776e61626c653a206e6577206f776e657220697320746865207a65726f206160448201527f64647265737300000000000000000000000000000000000000000000000000006064820152608401610b42565b610e3c81612e03565b60065473ffffffffffffffffffffffffffffffffffffffff163314612605576040517f08c379a000000000000000000000000000000000000000000000000000000000815260206004820181905260248201527f4f776e61626c653a2063616c6c6572206973206e6f7420746865206f776e65726044820152606401610b42565b805161134090600b9060208401906138fb565b60065473ffffffffffffffffffffffffffffffffffffffff163314612699576040517f08c379a000000000000000000000000000000000000000000000000000000000815260206004820181905260248201527f4f776e61626c653a2063616c6c6572206973206e6f7420746865206f776e65726044820152606401610b42565b600e80547fffffffffffffffffffffffff00000000000000000000000000000000000000001673ffffffffffffffffffffffffffffffffffffffff92909216919091179055565b600073ffffffffffffffffffffffffffffffffffffffff8416612785576040517f08c379a000000000000000000000000000000000000000000000000000000000815260206004820152602a60248201527f4552433732313a2062616c616e636520717565727920666f7220746865207a6560448201527f726f2061646472657373000000000000000000000000000000000000000000006064820152608401610b42565b6000835b838110156127e05760008181526003602052604090205473ffffffffffffffffffffffffffffffffffffffff878116911614156127ce57816127ca81613e87565b9250505b806127d881613e87565b915050612789565b50949350505050565b600081815260046020526040902080547fffffffffffffffffffffffff00000000000000000000000000000000000000001673ffffffffffffffffffffffffffffffffffffffff8416908117909155819061284382611344565b73ffffffffffffffffffffffffffffffffffffffff167f8c5be1e5ebec7d5bd14f71427d1e84f3dd0314c0f7b2291e5b200ac8c7c3b92560405160405180910390a45050565b60008181526003602052604081205473ffffffffffffffffffffffffffffffffffffffff1661293a576040517f08c379a000000000000000000000000000000000000000000000000000000000815260206004820152602c60248201527f4552433732313a206f70657261746f7220717565727920666f72206e6f6e657860448201527f697374656e7420746f6b656e00000000000000000000000000000000000000006064820152608401610b42565b600061294583611344565b90508073ffffffffffffffffffffffffffffffffffffffff168473ffffffffffffffffffffffffffffffffffffffff1614806129b457508373ffffffffffffffffffffffffffffffffffffffff1661299c84610a95565b73ffffffffffffffffffffffffffffffffffffffff16145b806129f1575073ffffffffffffffffffffffffffffffffffffffff80821660009081526005602090815260408083209388168352929052205460ff165b949350505050565b8273ffffffffffffffffffffffffffffffffffffffff16612a1982611344565b73ffffffffffffffffffffffffffffffffffffffff1614612abc576040517f08c379a000000000000000000000000000000000000000000000000000000000815260206004820152602960248201527f4552433732313a207472616e73666572206f6620746f6b656e2074686174206960448201527f73206e6f74206f776e00000000000000000000000000000000000000000000006064820152608401610b42565b73ffffffffffffffffffffffffffffffffffffffff8216612b5e576040517f08c379a0000000000000000000000000000000000000000000000000000000008152602060048201526024808201527f4552433732313a207472616e7366657220746f20746865207a65726f2061646460448201527f72657373000000000000000000000000000000000000000000000000000000006064820152608401610b42565b612b696000826127e9565b60008181526003602052604080822080547fffffffffffffffffffffffff00000000000000000000000000000000000000001673ffffffffffffffffffffffffffffffffffffffff86811691821790925591518493918716917fddf252ad1be2c89b69c2b068fc378daa952ba7f163c4a11628f55a4df523b3ef91a4505050565b600a5415612c54576040517f08c379a000000000000000000000000000000000000000000000000000000000815260206004820152600f60248201527f52414e444f4d5f534545445f53455400000000000000000000000000000000006044820152606401610b42565b610e3c81613454565b73ffffffffffffffffffffffffffffffffffffffff8216612cda576040517f08c379a000000000000000000000000000000000000000000000000000000000815260206004820181905260248201527f4552433732313a206d696e7420746f20746865207a65726f20616464726573736044820152606401610b42565b60008181526003602052604090205473ffffffffffffffffffffffffffffffffffffffff1615612d66576040517f08c379a000000000000000000000000000000000000000000000000000000000815260206004820152601c60248201527f4552433732313a20746f6b656e20616c7265616479206d696e746564000000006044820152606401610b42565b60008181526003602052604080822080547fffffffffffffffffffffffff00000000000000000000000000000000000000001673ffffffffffffffffffffffffffffffffffffffff861690811790915590518392907fddf252ad1be2c89b69c2b068fc378daa952ba7f163c4a11628f55a4df523b3ef908290a45050565b6000612dee61343f565b60009081526013602052604090209190915550565b6006805473ffffffffffffffffffffffffffffffffffffffff8381167fffffffffffffffffffffffff0000000000000000000000000000000000000000831681179093556040519116919082907f8be0079c531659141344cd1fd0a4f28419497f9722a3daafe3b4186f6b6457e090600090a35050565b60008281526003602052604090205473ffffffffffffffffffffffffffffffffffffffff16612f05576040517f08c379a000000000000000000000000000000000000000000000000000000000815260206004820152601160248201527f4d4547415f49445f4e4f545f464f554e440000000000000000000000000000006044820152606401610b42565b60008281526012602052604090205415612f7b576040517f08c379a000000000000000000000000000000000000000000000000000000000815260206004820152601360248201527f4d4547415f49445f414c52454144595f534554000000000000000000000000006044820152606401610b42565b612f866011826134cb565b6000928352601260205260409092209190915550565b60008281526013602052604090205480612fb957610cfc82612bea565b610cfc8183612e7a565b8173ffffffffffffffffffffffffffffffffffffffff168373ffffffffffffffffffffffffffffffffffffffff161415613059576040517f08c379a000000000000000000000000000000000000000000000000000000000815260206004820152601960248201527f4552433732313a20617070726f766520746f2063616c6c6572000000000000006044820152606401610b42565b73ffffffffffffffffffffffffffffffffffffffff83811660008181526005602090815260408083209487168084529482529182902080547fffffffffffffffffffffffffffffffffffffffffffffffffffffffffffffff001686151590811790915591519182527f17307eab39ab6107e8899845ad3d59bd9653f200f220920489ca2b5937696c31910160405180910390a3505050565b6130fc8484846129f9565b613108848484846134e8565b610f07576040517f08c379a000000000000000000000000000000000000000000000000000000000815260206004820152603260248201527f4552433732313a207472616e7366657220746f206e6f6e20455243373231526560448201527f63656976657220696d706c656d656e74657200000000000000000000000000006064820152608401610b42565b6000808367ffffffffffffffff8111156131b0576131b0613b56565b6040519080825280602002602001820160405280156131d9578160200160208202803683370190505b50905060005b8481101561321757808282815181106131fa576131fa613f33565b60209081029190910101528061320f81613e87565b9150506131df565b5060005b848110156132e8576000858583604051602001613242929190918252602082015260400190565b6040516020818303038152906040528051906020012060001c61326591906140b7565b905082818151811061327957613279613f33565b602002602001015183838151811061329357613293613f33565b60200260200101518484815181106132ad576132ad613f33565b602002602001018584815181106132c6576132c6613f33565b60209081029190910101919091525250806132e081613e87565b91505061321b565b508085815181106132fb576132fb613f33565b60200260200101519150509392505050565b60608161334d57505060408051808201909152600181527f3000000000000000000000000000000000000000000000000000000000000000602082015290565b8160005b8115613377578061336181613e87565b91506133709050600a836140cb565b9150613351565b60008167ffffffffffffffff81111561339257613392613b56565b6040519080825280601f01601f1916602001820160405280156133bc576020820181803683370190505b5090505b84156129f1576133d1600183613e53565b91506133de600a866140b7565b6133e9906030613de7565b60f81b8183815181106133fe576133fe613f33565b60200101907effffffffffffffffffffffffffffffffffffffffffffffffffffffffffffff1916908160001a905350613438600a866140cb565b94506133c0565b600061344f6007546008546136d8565b905090565b600a5460408051602080820193909352808201939093528051808403820181526060909301905281519101206009546134ad827fffffffffffffffffffffffffffffffffffffffffffffffffffffffffffffffff613e53565b10156134c6576009546134c09082613e53565b600a5550565b600a55565b815460009081906134dc90846140b7565b90506129f1848261385c565b600073ffffffffffffffffffffffffffffffffffffffff84163b156136cd576040517f150b7a0200000000000000000000000000000000000000000000000000000000815273ffffffffffffffffffffffffffffffffffffffff85169063150b7a029061355f9033908990889088906004016140df565b6020604051808303816000875af19250505080156135b8575060408051601f3d9081017fffffffffffffffffffffffffffffffffffffffffffffffffffffffffffffffe01682019092526135b591810190614128565b60015b613682573d8080156135e6576040519150601f19603f3d011682016040523d82523d6000602084013e6135eb565b606091505b50805161367a576040517f08c379a000000000000000000000000000000000000000000000000000000000815260206004820152603260248201527f4552433732313a207472616e7366657220746f206e6f6e20455243373231526560448201527f63656976657220696d706c656d656e74657200000000000000000000000000006064820152608401610b42565b805181602001fd5b7fffffffff00000000000000000000000000000000000000000000000000000000167f150b7a02000000000000000000000000000000000000000000000000000000001490506129f1565b506001949350505050565b60007f000000000000000000000000000000000000000000000000000000000000000073ffffffffffffffffffffffffffffffffffffffff16634000aea07f000000000000000000000000000000000000000000000000000000000000000084866000604051602001613755929190918252602082015260400190565b6040516020818303038152906040526040518463ffffffff1660e01b815260040161378293929190614145565b6020604051808303816000875af11580156137a1573d6000803e3d6000fd5b505050506040513d601f19601f820116820180604052508101906137c59190613ed9565b5060008381526020818152604080832054815180840188905280830185905230606082015260808082018390528351808303909101815260a09091019092528151918301919091208684529290915261381f906001613de7565b60008581526020818152604091829020929092558051808301879052808201849052815180820383018152606090910190915280519101206129f1565b60008083838154811061387157613871613f33565b9060005260206000200154905083600185805490506138909190613e53565b815481106138a0576138a0613f33565b90600052602060002001548484815481106138bd576138bd613f33565b9060005260206000200181905550838054806138db576138db61417a565b600190038181906000526020600020016000905590558091505092915050565b82805461390790613dff565b90600052602060002090601f016020900481019282613929576000855561396f565b82601f1061394257805160ff191683800117855561396f565b8280016001018555821561396f579182015b8281111561396f578251825591602001919060010190613954565b5061397b92915061397f565b5090565b5b8082111561397b5760008155600101613980565b7fffffffff0000000000000000000000000000000000000000000000000000000081168114610e3c57600080fd5b6000602082840312156139d457600080fd5b81356139df81613994565b9392505050565b73ffffffffffffffffffffffffffffffffffffffff81168114610e3c57600080fd5b600060208284031215613a1a57600080fd5b81356139df816139e6565b60005b83811015613a40578181015183820152602001613a28565b83811115610f075750506000910152565b60008151808452613a69816020860160208601613a25565b601f017fffffffffffffffffffffffffffffffffffffffffffffffffffffffffffffffe0169290920160200192915050565b6020815260006139df6020830184613a51565b600060208284031215613ac057600080fd5b5035919050565b60008060408385031215613ada57600080fd5b8235613ae5816139e6565b946020939093013593505050565b600080600060608486031215613b0857600080fd5b8335613b13816139e6565b92506020840135613b23816139e6565b929592945050506040919091013590565b60008060408385031215613b4757600080fd5b50508035926020909101359150565b7f4e487b7100000000000000000000000000000000000000000000000000000000600052604160045260246000fd5b600067ffffffffffffffff80841115613ba057613ba0613b56565b604051601f85017fffffffffffffffffffffffffffffffffffffffffffffffffffffffffffffffe0908116603f01168101908282118183101715613be657613be6613b56565b81604052809350858152868686011115613bff57600080fd5b858560208301376000602087830101525050509392505050565b600060208284031215613c2b57600080fd5b813567ffffffffffffffff811115613c4257600080fd5b8201601f81018413613c5357600080fd5b6129f184823560208401613b85565b8015158114610e3c57600080fd5b60008060408385031215613c8357600080fd5b8235613c8e816139e6565b91506020830135613c9e81613c62565b809150509250929050565b6020808252825182820181905260009190848201906040850190845b81811015613ce157835183529284019291840191600101613cc5565b50909695505050505050565b60008060008060808587031215613d0357600080fd5b8435613d0e816139e6565b93506020850135613d1e816139e6565b925060408501359150606085013567ffffffffffffffff811115613d4157600080fd5b8501601f81018713613d5257600080fd5b613d6187823560208401613b85565b91505092959194509250565b600060208284031215613d7f57600080fd5b81356139df81613c62565b60008060408385031215613d9d57600080fd5b8235613da8816139e6565b91506020830135613c9e816139e6565b7f4e487b7100000000000000000000000000000000000000000000000000000000600052601160045260246000fd5b60008219821115613dfa57613dfa613db8565b500190565b600181811c90821680613e1357607f821691505b60208210811415613e4d577f4e487b7100000000000000000000000000000000000000000000000000000000600052602260045260246000fd5b50919050565b600082821015613e6557613e65613db8565b500390565b600060208284031215613e7c57600080fd5b81516139df816139e6565b60007fffffffffffffffffffffffffffffffffffffffffffffffffffffffffffffffff821415613eb957613eb9613db8565b5060010190565b600060208284031215613ed257600080fd5b5051919050565b600060208284031215613eeb57600080fd5b81516139df81613c62565b6000817fffffffffffffffffffffffffffffffffffffffffffffffffffffffffffffffff0483118215151615613f2e57613f2e613db8565b500290565b7f4e487b7100000000000000000000000000000000000000000000000000000000600052603260045260246000fd5b60008151613f74818560208601613a25565b9290920192915050565b600080845481600182811c915080831680613f9a57607f831692505b6020808410821415613fd3577f4e487b710000000000000000000000000000000000000000000000000000000086526022600452602486fd5b818015613fe7576001811461401657614043565b7fffffffffffffffffffffffffffffffffffffffffffffffffffffffffffffff00861689528489019650614043565b60008b81526020902060005b8681101561403b5781548b820152908501908301614022565b505084890196505b50505050505061407f6140568286613f62565b7f2e6a736f6e000000000000000000000000000000000000000000000000000000815260050190565b95945050505050565b7f4e487b7100000000000000000000000000000000000000000000000000000000600052601260045260246000fd5b6000826140c6576140c6614088565b500690565b6000826140da576140da614088565b500490565b600073ffffffffffffffffffffffffffffffffffffffff80871683528086166020840152508360408301526080606083015261411e6080830184613a51565b9695505050505050565b60006020828403121561413a57600080fd5b81516139df81613994565b73ffffffffffffffffffffffffffffffffffffffff8416815282602082015260606040820152600061407f6060830184613a51565b7f4e487b7100000000000000000000000000000000000000000000000000000000600052603160045260246000fdfea2646970667358221220fdd97e249893a154505f031dea44a126201b69a7c9262a94b437f8c4c1791f7564736f6c634300080b0033",
  "linkReferences": {},
  "deployedLinkReferences": {}
}