{
  "_format": "hh-sol-artifact-1",
  "contractName": "Mutants",
  "sourceName": "contracts/Mutants.sol",
  "abi": [
    {
      "inputs": [],
      "stateMutability": "nonpayable",
      "type": "constructor"
    },
    {
      "anonymous": false,
      "inputs": [
        {
          "indexed": true,
          "internalType": "address",
          "name": "owner",
          "type": "address"
        },
        {
          "indexed": true,
          "internalType": "address",
          "name": "approved",
          "type": "address"
        },
        {
          "indexed": true,
          "internalType": "uint256",
          "name": "tokenId",
          "type": "uint256"
        }
      ],
      "name": "Approval",
      "type": "event"
    },
    {
      "anonymous": false,
      "inputs": [
        {
          "indexed": true,
          "internalType": "address",
          "name": "owner",
          "type": "address"
        },
        {
          "indexed": true,
          "internalType": "address",
          "name": "operator",
          "type": "address"
        },
        {
          "indexed": false,
          "internalType": "bool",
          "name": "approved",
          "type": "bool"
        }
      ],
      "name": "ApprovalForAll",
      "type": "event"
    },
    {
      "anonymous": false,
      "inputs": [
        {
          "indexed": true,
          "internalType": "address",
          "name": "previousOwner",
          "type": "address"
        },
        {
          "indexed": true,
          "internalType": "address",
          "name": "newOwner",
          "type": "address"
        }
      ],
      "name": "OwnershipTransferred",
      "type": "event"
    },
    {
      "anonymous": false,
      "inputs": [
        {
          "indexed": true,
          "internalType": "address",
          "name": "from",
          "type": "address"
        },
        {
          "indexed": true,
          "internalType": "address",
          "name": "to",
          "type": "address"
        },
        {
          "indexed": true,
          "internalType": "uint256",
          "name": "tokenId",
          "type": "uint256"
        }
      ],
      "name": "Transfer",
      "type": "event"
    },
    {
      "inputs": [],
      "name": "MAX_SUPPLY_M",
      "outputs": [
        {
          "internalType": "uint256",
          "name": "",
          "type": "uint256"
        }
      ],
      "stateMutability": "view",
      "type": "function"
    },
    {
      "inputs": [],
      "name": "MAX_SUPPLY_M3",
      "outputs": [
        {
          "internalType": "uint256",
          "name": "",
          "type": "uint256"
        }
      ],
      "stateMutability": "view",
      "type": "function"
    },
    {
      "inputs": [],
      "name": "MAX_SUPPLY_PUBLIC",
      "outputs": [
        {
          "internalType": "uint256",
          "name": "",
          "type": "uint256"
        }
      ],
      "stateMutability": "view",
      "type": "function"
    },
    {
      "inputs": [],
      "name": "PRICE",
      "outputs": [
        {
          "internalType": "uint256",
          "name": "",
          "type": "uint256"
        }
      ],
      "stateMutability": "view",
      "type": "function"
    },
    {
      "inputs": [],
      "name": "PURCHASE_LIMIT",
      "outputs": [
        {
          "internalType": "uint256",
          "name": "",
          "type": "uint256"
        }
      ],
      "stateMutability": "view",
      "type": "function"
    },
    {
      "inputs": [
        {
          "internalType": "address",
          "name": "to",
          "type": "address"
        },
        {
          "internalType": "uint256",
          "name": "tokenId",
          "type": "uint256"
        }
      ],
      "name": "approve",
      "outputs": [],
      "stateMutability": "nonpayable",
      "type": "function"
    },
    {
      "inputs": [
        {
          "internalType": "address",
          "name": "owner",
          "type": "address"
        }
      ],
      "name": "balanceOf",
      "outputs": [
        {
          "internalType": "uint256",
          "name": "",
          "type": "uint256"
        }
      ],
      "stateMutability": "view",
      "type": "function"
    },
    {
      "inputs": [
        {
          "internalType": "address",
          "name": "owner",
          "type": "address"
        }
      ],
      "name": "balanceOfM0",
      "outputs": [
        {
          "internalType": "uint256",
          "name": "",
          "type": "uint256"
        }
      ],
      "stateMutability": "view",
      "type": "function"
    },
    {
      "inputs": [
        {
          "internalType": "address",
          "name": "owner",
          "type": "address"
        }
      ],
      "name": "balanceOfM1",
      "outputs": [
        {
          "internalType": "uint256",
          "name": "",
          "type": "uint256"
        }
      ],
      "stateMutability": "view",
      "type": "function"
    },
    {
      "inputs": [
        {
          "internalType": "address",
          "name": "owner",
          "type": "address"
        }
      ],
      "name": "balanceOfM2",
      "outputs": [
        {
          "internalType": "uint256",
          "name": "",
          "type": "uint256"
        }
      ],
      "stateMutability": "view",
      "type": "function"
    },
    {
      "inputs": [
        {
          "internalType": "address",
          "name": "owner",
          "type": "address"
        }
      ],
      "name": "balanceOfM3",
      "outputs": [
        {
          "internalType": "uint256",
          "name": "",
          "type": "uint256"
        }
      ],
      "stateMutability": "view",
      "type": "function"
    },
    {
      "inputs": [],
      "name": "baseURI",
      "outputs": [
        {
          "internalType": "string",
          "name": "",
          "type": "string"
        }
      ],
      "stateMutability": "view",
      "type": "function"
    },
    {
      "inputs": [
        {
          "internalType": "uint256",
          "name": "nftId",
          "type": "uint256"
        },
        {
          "internalType": "uint256",
          "name": "serumType",
          "type": "uint256"
        }
      ],
      "name": "canMutate",
      "outputs": [
        {
          "internalType": "bool",
          "name": "",
          "type": "bool"
        }
      ],
      "stateMutability": "view",
      "type": "function"
    },
    {
      "inputs": [
        {
          "internalType": "uint256",
          "name": "mutantId",
          "type": "uint256"
        }
      ],
      "name": "forceFulfillRandomMegaMutant",
      "outputs": [],
      "stateMutability": "nonpayable",
      "type": "function"
    },
    {
      "inputs": [],
      "name": "forceFulfillRandomness",
      "outputs": [],
      "stateMutability": "nonpayable",
      "type": "function"
    },
    {
      "inputs": [
        {
          "internalType": "uint256",
          "name": "tokenId",
          "type": "uint256"
        }
      ],
      "name": "getApproved",
      "outputs": [
        {
          "internalType": "address",
          "name": "",
          "type": "address"
        }
      ],
      "stateMutability": "view",
      "type": "function"
    },
    {
      "inputs": [
        {
          "internalType": "address",
          "name": "owner",
          "type": "address"
        },
        {
          "internalType": "address",
          "name": "operator",
          "type": "address"
        }
      ],
      "name": "isApprovedForAll",
      "outputs": [
        {
          "internalType": "bool",
          "name": "",
          "type": "bool"
        }
      ],
      "stateMutability": "view",
      "type": "function"
    },
    {
      "inputs": [
        {
          "internalType": "uint256",
          "name": "amount",
          "type": "uint256"
        }
      ],
      "name": "mint",
      "outputs": [],
      "stateMutability": "payable",
      "type": "function"
    },
    {
      "inputs": [
        {
          "internalType": "uint256",
          "name": "nftId",
          "type": "uint256"
        },
        {
          "internalType": "uint256",
          "name": "serumType",
          "type": "uint256"
        }
      ],
      "name": "mutate",
      "outputs": [],
      "stateMutability": "nonpayable",
      "type": "function"
    },
    {
      "inputs": [],
      "name": "mutationsActive",
      "outputs": [
        {
          "internalType": "bool",
          "name": "",
          "type": "bool"
        }
      ],
      "stateMutability": "view",
      "type": "function"
    },
    {
      "inputs": [],
      "name": "name",
      "outputs": [
        {
          "internalType": "string",
          "name": "",
          "type": "string"
        }
      ],
      "stateMutability": "view",
      "type": "function"
    },
    {
      "inputs": [],
      "name": "numPublicMinted",
      "outputs": [
        {
          "internalType": "uint256",
          "name": "",
          "type": "uint256"
        }
      ],
      "stateMutability": "view",
      "type": "function"
    },
    {
      "inputs": [],
      "name": "owner",
      "outputs": [
        {
          "internalType": "address",
          "name": "",
          "type": "address"
        }
      ],
      "stateMutability": "view",
      "type": "function"
    },
    {
      "inputs": [
        {
          "internalType": "uint256",
          "name": "tokenId",
          "type": "uint256"
        }
      ],
      "name": "ownerOf",
      "outputs": [
        {
          "internalType": "address",
          "name": "",
          "type": "address"
        }
      ],
      "stateMutability": "view",
      "type": "function"
    },
    {
      "inputs": [],
      "name": "publicSaleActive",
      "outputs": [
        {
          "internalType": "bool",
          "name": "",
          "type": "bool"
        }
      ],
      "stateMutability": "view",
      "type": "function"
    },
    {
      "inputs": [],
      "name": "randomSeedSet",
      "outputs": [
        {
          "internalType": "bool",
          "name": "",
          "type": "bool"
        }
      ],
      "stateMutability": "view",
      "type": "function"
    },
    {
      "inputs": [
        {
          "internalType": "bytes32",
          "name": "requestId",
          "type": "bytes32"
        },
        {
          "internalType": "uint256",
          "name": "randomness",
          "type": "uint256"
        }
      ],
      "name": "rawFulfillRandomness",
      "outputs": [],
      "stateMutability": "nonpayable",
      "type": "function"
    },
    {
      "inputs": [
        {
          "internalType": "contract IERC20",
          "name": "_token",
          "type": "address"
        }
      ],
      "name": "recoverToken",
      "outputs": [],
      "stateMutability": "nonpayable",
      "type": "function"
    },
    {
      "inputs": [],
      "name": "renounceOwnership",
      "outputs": [],
      "stateMutability": "nonpayable",
      "type": "function"
    },
    {
      "inputs": [
        {
          "internalType": "address",
          "name": "from",
          "type": "address"
        },
        {
          "internalType": "address",
          "name": "to",
          "type": "address"
        },
        {
          "internalType": "uint256",
          "name": "tokenId",
          "type": "uint256"
        }
      ],
      "name": "safeTransferFrom",
      "outputs": [],
      "stateMutability": "nonpayable",
      "type": "function"
    },
    {
      "inputs": [
        {
          "internalType": "address",
          "name": "from",
          "type": "address"
        },
        {
          "internalType": "address",
          "name": "to",
          "type": "address"
        },
        {
          "internalType": "uint256",
          "name": "tokenId",
          "type": "uint256"
        },
        {
          "internalType": "bytes",
          "name": "_data",
          "type": "bytes"
        }
      ],
      "name": "safeTransferFrom",
      "outputs": [],
      "stateMutability": "nonpayable",
      "type": "function"
    },
    {
      "inputs": [
        {
          "internalType": "address",
          "name": "operator",
          "type": "address"
        },
        {
          "internalType": "bool",
          "name": "approved",
          "type": "bool"
        }
      ],
      "name": "setApprovalForAll",
      "outputs": [],
      "stateMutability": "nonpayable",
      "type": "function"
    },
    {
      "inputs": [
        {
          "internalType": "string",
          "name": "_baseURI",
          "type": "string"
        }
      ],
      "name": "setBaseURI",
      "outputs": [],
      "stateMutability": "nonpayable",
      "type": "function"
    },
    {
      "inputs": [
        {
          "internalType": "bool",
          "name": "active",
          "type": "bool"
        }
      ],
      "name": "setMutationsActive",
      "outputs": [],
      "stateMutability": "nonpayable",
      "type": "function"
    },
    {
      "inputs": [
        {
          "internalType": "address",
          "name": "_address",
          "type": "address"
        }
      ],
      "name": "setNFTAddress",
      "outputs": [],
      "stateMutability": "nonpayable",
      "type": "function"
    },
    {
      "inputs": [
        {
          "internalType": "bool",
          "name": "active",
          "type": "bool"
        }
      ],
      "name": "setPublicSaleActive",
      "outputs": [],
      "stateMutability": "nonpayable",
      "type": "function"
    },
    {
      "inputs": [
        {
          "internalType": "address",
          "name": "_address",
          "type": "address"
        }
      ],
      "name": "setSerumAddress",
      "outputs": [],
      "stateMutability": "nonpayable",
      "type": "function"
    },
    {
      "inputs": [
        {
          "internalType": "string",
          "name": "_uri",
          "type": "string"
        }
      ],
      "name": "setUnrevealedURI",
      "outputs": [],
      "stateMutability": "nonpayable",
      "type": "function"
    },
    {
      "inputs": [
        {
          "internalType": "bytes4",
          "name": "interfaceId",
          "type": "bytes4"
        }
      ],
      "name": "supportsInterface",
      "outputs": [
        {
          "internalType": "bool",
          "name": "",
          "type": "bool"
        }
      ],
      "stateMutability": "view",
      "type": "function"
    },
    {
      "inputs": [],
      "name": "symbol",
      "outputs": [
        {
          "internalType": "string",
          "name": "",
          "type": "string"
        }
      ],
      "stateMutability": "view",
      "type": "function"
    },
    {
      "inputs": [
        {
          "internalType": "address",
          "name": "owner",
          "type": "address"
        }
      ],
      "name": "tokenIdsOf",
      "outputs": [
        {
          "internalType": "uint256[]",
          "name": "",
          "type": "uint256[]"
        }
      ],
      "stateMutability": "view",
      "type": "function"
    },
    {
      "inputs": [
        {
          "internalType": "uint256",
          "name": "tokenId",
          "type": "uint256"
        }
      ],
      "name": "tokenURI",
      "outputs": [
        {
          "internalType": "string",
          "name": "",
          "type": "string"
        }
      ],
      "stateMutability": "view",
      "type": "function"
    },
    {
      "inputs": [],
      "name": "totalSupply",
      "outputs": [
        {
          "internalType": "uint256",
          "name": "",
          "type": "uint256"
        }
      ],
      "stateMutability": "view",
      "type": "function"
    },
    {
      "inputs": [
        {
          "internalType": "address",
          "name": "from",
          "type": "address"
        },
        {
          "internalType": "address",
          "name": "to",
          "type": "address"
        },
        {
          "internalType": "uint256",
          "name": "tokenId",
          "type": "uint256"
        }
      ],
      "name": "transferFrom",
      "outputs": [],
      "stateMutability": "nonpayable",
      "type": "function"
    },
    {
      "inputs": [
        {
          "internalType": "address",
          "name": "newOwner",
          "type": "address"
        }
      ],
      "name": "transferOwnership",
      "outputs": [],
      "stateMutability": "nonpayable",
      "type": "function"
    },
    {
      "inputs": [],
      "name": "unrevealedURI",
      "outputs": [
        {
          "internalType": "string",
          "name": "",
          "type": "string"
        }
      ],
      "stateMutability": "view",
      "type": "function"
    },
    {
      "inputs": [],
      "name": "withdraw",
      "outputs": [],
      "stateMutability": "nonpayable",
      "type": "function"
    }
  ],
  "bytecode": "0x7f2ed0feb3e7fd2022120aa84fab1945545a9f2ffc9076fd6156fa96eaff4c131160075567016345785d8a0000600855620186a0600955610100604052600d60c08190526c756e72657665616c656455524960981b60e09081526200006891600b919062000216565b5060408051808201909152600880825267626173655552492f60c01b60209092019182526200009a91600c9162000216565b50348015620000a857600080fd5b5060408051808201825260078152664d7574616e747360c81b60208083019182528351808501909452600484526309aaaa8b60e31b9084015273dd3782915140c8f3b190b5d67eac6dc5760c46e960a0527301be23585060835e02b77ef475b0cc51aa1e07096080528151919291620001249160019162000216565b5080516200013a90600290602084019062000216565b5050506200015762000151620001c060201b60201c565b620001c4565b60005b600a811015620001b9576012816103e8620001768180620002d2565b620001829190620002d2565b6200018e9190620002d2565b8154600181018355600092835260209092209091015580620001b081620002ed565b9150506200015a565b5062000348565b3390565b600680546001600160a01b038381166001600160a01b0319831681179093556040519116919082907f8be0079c531659141344cd1fd0a4f28419497f9722a3daafe3b4186f6b6457e090600090a35050565b82805462000224906200030b565b90600052602060002090601f01602090048101928262000248576000855562000293565b82601f106200026357805160ff191683800117855562000293565b8280016001018555821562000293579182015b828111156200029357825182559160200191906001019062000276565b50620002a1929150620002a5565b5090565b5b80821115620002a15760008155600101620002a6565b634e487b7160e01b600052601160045260246000fd5b60008219821115620002e857620002e8620002bc565b500190565b6000600019821415620003045762000304620002bc565b5060010190565b600181811c908216806200032057607f821691505b602082108114156200034257634e487b7160e01b600052602260045260246000fd5b50919050565b60805160a051613ed962000375600039600081816116dc015261341b015260006133df0152613ed96000f3fe6080604052600436106103085760003560e01c80638da5cb5b1161019a578063bf796273116100e1578063dcafe77d1161008a578063f2fde38b11610064578063f2fde38b14610885578063fe2c7fee146108a5578063fe4ce9d7146108c557600080fd5b8063dcafe77d146105ca578063e2e06fa31461080f578063e985e9c51461082f57600080fd5b8063d133a9b8116100bb578063d133a9b8146107e4578063d2646463146107fa578063d75e6110146107fa57600080fd5b8063bf79627314610784578063c7793ff3146107a4578063c87b56dd146107c457600080fd5b8063a22cb46511610143578063b5a07ef71161011d578063b5a07ef714610712578063b88d4fde14610732578063bc8893b41461075257600080fd5b8063a22cb465146106ae578063a3b261f2146106ce578063aaab6339146106fb57600080fd5b8063983f986711610174578063983f98671461065b5780639be65a601461067b578063a0712d681461069b57600080fd5b80638da5cb5b146105fb57806394985ddd1461062657806395d89b411461064657600080fd5b806355f804b31161025e57806370a0823111610207578063801b25c7116101e1578063801b25c7146105aa57806382255456146105ca5780638d859f3e146105e057600080fd5b806370a0823114610555578063715018a6146105755780637e925db01461058a57600080fd5b806369d037381161023857806369d037381461050b5780636c0360eb1461052b5780637035bf181461054057600080fd5b806355f804b3146104985780636063440b146104b85780636352211e146104eb57600080fd5b806318160ddd116102c05780633ccfd60b1161029a5780633ccfd60b1461044357806342842e0e14610458578063447400bf1461047857600080fd5b806318160ddd146103f957806323b872dd1461040e5780633307dcfe1461042e57600080fd5b806306fdde03116102f157806306fdde0314610370578063081812fc14610392578063095ea7b3146103d757600080fd5b806301ffc9a71461030d578063045cae6714610342575b600080fd5b34801561031957600080fd5b5061032d6103283660046136bc565b6108e5565b60405190151581526020015b60405180910390f35b34801561034e57600080fd5b5061036261035d366004613702565b6109ca565b604051908152602001610339565b34801561037c57600080fd5b506103856109e2565b6040516103399190613795565b34801561039e57600080fd5b506103b26103ad3660046137a8565b610a74565b60405173ffffffffffffffffffffffffffffffffffffffff9091168152602001610339565b3480156103e357600080fd5b506103f76103f23660046137c1565b610b53565b005b34801561040557600080fd5b50610362610ce0565b34801561041a57600080fd5b506103f76104293660046137ed565b610d04565b34801561043a57600080fd5b506103f7610da5565b34801561044f57600080fd5b506103f7610e42565b34801561046457600080fd5b506103f76104733660046137ed565b610ef6565b34801561048457600080fd5b506103f761049336600461382e565b610f11565b3480156104a457600080fd5b506103f76104b3366004613913565b6112aa565b3480156104c457600080fd5b50600e5461032d907501000000000000000000000000000000000000000000900460ff1681565b3480156104f757600080fd5b506103b26105063660046137a8565b61133e565b34801561051757600080fd5b506103f7610526366004613702565b6113f0565b34801561053757600080fd5b506103856114b8565b34801561054c57600080fd5b50610385611546565b34801561056157600080fd5b50610362610570366004613702565b611553565b34801561058157600080fd5b506103f761157d565b34801561059657600080fd5b506103626105a5366004613702565b61160a565b3480156105b657600080fd5b506103f76105c53660046137a8565b611629565b3480156105d657600080fd5b506103626103e881565b3480156105ec57600080fd5b50610362666a94d74f43000081565b34801561060757600080fd5b5060065473ffffffffffffffffffffffffffffffffffffffff166103b2565b34801561063257600080fd5b506103f761064136600461382e565b6116c4565b34801561065257600080fd5b5061038561176d565b34801561066757600080fd5b50610362610676366004613702565b61177c565b34801561068757600080fd5b506103f7610696366004613702565b6117a8565b6103f76106a93660046137a8565b6119f8565b3480156106ba57600080fd5b506103f76106c936600461396a565b611c89565b3480156106da57600080fd5b506106ee6106e9366004613702565b611c94565b60405161033991906139a3565b34801561070757600080fd5b50600a54151561032d565b34801561071e57600080fd5b5061036261072d366004613702565b611d7a565b34801561073e57600080fd5b506103f761074d3660046139e7565b611d8a565b34801561075e57600080fd5b50600e5461032d9074010000000000000000000000000000000000000000900460ff1681565b34801561079057600080fd5b5061032d61079f36600461382e565b611e32565b3480156107b057600080fd5b506103f76107bf366004613a67565b611ec1565b3480156107d057600080fd5b506103856107df3660046137a8565b611f8d565b3480156107f057600080fd5b50610362600f5481565b34801561080657600080fd5b50610362600a81565b34801561081b57600080fd5b506103f761082a366004613a67565b61211a565b34801561083b57600080fd5b5061032d61084a366004613a84565b73ffffffffffffffffffffffffffffffffffffffff918216600090815260056020908152604080832093909416825291909152205460ff1690565b34801561089157600080fd5b506103f76108a0366004613702565b6121e5565b3480156108b157600080fd5b506103f76108c0366004613913565b612312565b3480156108d157600080fd5b506103f76108e0366004613702565b6123a6565b60007fffffffff0000000000000000000000000000000000000000000000000000000082167f80ac58cd00000000000000000000000000000000000000000000000000000000148061097857507fffffffff0000000000000000000000000000000000000000000000000000000082167f5b5e139f00000000000000000000000000000000000000000000000000000000145b806109c457507f01ffc9a7000000000000000000000000000000000000000000000000000000007fffffffff000000000000000000000000000000000000000000000000000000008316145b92915050565b60006109c4826103e86109dd8180613ae1565b61246e565b6060600180546109f190613af9565b80601f0160208091040260200160405190810160405280929190818152602001828054610a1d90613af9565b8015610a6a5780601f10610a3f57610100808354040283529160200191610a6a565b820191906000526020600020905b815481529060010190602001808311610a4d57829003601f168201915b5050505050905090565b60008181526003602052604081205473ffffffffffffffffffffffffffffffffffffffff16610b2a576040517f08c379a000000000000000000000000000000000000000000000000000000000815260206004820152602c60248201527f4552433732313a20617070726f76656420717565727920666f72206e6f6e657860448201527f697374656e7420746f6b656e000000000000000000000000000000000000000060648201526084015b60405180910390fd5b5060009081526004602052604090205473ffffffffffffffffffffffffffffffffffffffff1690565b6000610b5e8261133e565b90508073ffffffffffffffffffffffffffffffffffffffff168373ffffffffffffffffffffffffffffffffffffffff161415610c1c576040517f08c379a000000000000000000000000000000000000000000000000000000000815260206004820152602160248201527f4552433732313a20617070726f76616c20746f2063757272656e74206f776e6560448201527f72000000000000000000000000000000000000000000000000000000000000006064820152608401610b21565b3373ffffffffffffffffffffffffffffffffffffffff82161480610c455750610c45813361084a565b610cd1576040517f08c379a000000000000000000000000000000000000000000000000000000000815260206004820152603860248201527f4552433732313a20617070726f76652063616c6c6572206973206e6f74206f7760448201527f6e6572206e6f7220617070726f76656420666f7220616c6c00000000000000006064820152608401610b21565b610cdb8383612577565b505050565b6000601154601054600f54610cf59190613ae1565b610cff9190613ae1565b905090565b610d0e3382612617565b610d9a576040517f08c379a000000000000000000000000000000000000000000000000000000000815260206004820152603160248201527f4552433732313a207472616e736665722063616c6c6572206973206e6f74206f60448201527f776e6572206e6f7220617070726f7665640000000000000000000000000000006064820152608401610b21565b610cdb838383612787565b60065473ffffffffffffffffffffffffffffffffffffffff163314610e26576040517f08c379a000000000000000000000000000000000000000000000000000000000815260206004820181905260248201527f4f776e61626c653a2063616c6c6572206973206e6f7420746865206f776e65726044820152606401610b21565b6000610e33600143613b4d565b409050610e3f81612978565b50565b60065473ffffffffffffffffffffffffffffffffffffffff163314610ec3576040517f08c379a000000000000000000000000000000000000000000000000000000000815260206004820181905260248201527f4f776e61626c653a2063616c6c6572206973206e6f7420746865206f776e65726044820152606401610b21565b6040514790339082156108fc029083906000818181858888f19350505050158015610ef2573d6000803e3d6000fd5b5050565b610cdb83838360405180602001604052806000815250611d8a565b600e547501000000000000000000000000000000000000000000900460ff16610f96576040517f08c379a000000000000000000000000000000000000000000000000000000000815260206004820152601460248201527f4d55544154494f4e535f4e4f545f4143544956450000000000000000000000006044820152606401610b21565b323314610fff576040517f08c379a000000000000000000000000000000000000000000000000000000000815260206004820152600d60248201527f434f4e54524143545f43414c4c000000000000000000000000000000000000006044820152606401610b21565b600d546040517f6352211e00000000000000000000000000000000000000000000000000000000815260048101849052339173ffffffffffffffffffffffffffffffffffffffff1690636352211e90602401602060405180830381865afa15801561106e573d6000803e3d6000fd5b505050506040513d601f19601f820116820180604052508101906110929190613b64565b73ffffffffffffffffffffffffffffffffffffffff161461110f576040517f08c379a000000000000000000000000000000000000000000000000000000000815260206004820152601160248201527f4e4f545f43414c4c4552535f544f4b454e0000000000000000000000000000006044820152606401610b21565b60038110611179576040517f08c379a000000000000000000000000000000000000000000000000000000000815260206004820152601260248201527f494e56414c49445f534552554d5f5459504500000000000000000000000000006044820152606401610b21565b6000816111a85761118c836103e8613ae1565b60108054919250600061119e83613b81565b9190505550611204565b81600114156111c857826111be6103e880613ae1565b61118c9190613ae1565b6011546103e86111d88180613ae1565b6111e29190613ae1565b6111ec9190613ae1565b6011805491925060006111fe83613b81565b91905055505b61120e3382612a2d565b600e546040517fc6ae087d0000000000000000000000000000000000000000000000000000000081523360048201526024810184905273ffffffffffffffffffffffffffffffffffffffff9091169063c6ae087d90604401600060405180830381600087803b15801561128057600080fd5b505af1158015611294573d6000803e3d6000fd5b505050508160021415610cdb57610cdb81612bb4565b60065473ffffffffffffffffffffffffffffffffffffffff16331461132b576040517f08c379a000000000000000000000000000000000000000000000000000000000815260206004820181905260248201527f4f776e61626c653a2063616c6c6572206973206e6f7420746865206f776e65726044820152606401610b21565b8051610ef290600c9060208401906135fe565b60008181526003602052604081205473ffffffffffffffffffffffffffffffffffffffff16806109c4576040517f08c379a000000000000000000000000000000000000000000000000000000000815260206004820152602960248201527f4552433732313a206f776e657220717565727920666f72206e6f6e657869737460448201527f656e7420746f6b656e00000000000000000000000000000000000000000000006064820152608401610b21565b60065473ffffffffffffffffffffffffffffffffffffffff163314611471576040517f08c379a000000000000000000000000000000000000000000000000000000000815260206004820181905260248201527f4f776e61626c653a2063616c6c6572206973206e6f7420746865206f776e65726044820152606401610b21565b600d80547fffffffffffffffffffffffff00000000000000000000000000000000000000001673ffffffffffffffffffffffffffffffffffffffff92909216919091179055565b600c80546114c590613af9565b80601f01602080910402602001604051908101604052809291908181526020018280546114f190613af9565b801561153e5780601f106115135761010080835404028352916020019161153e565b820191906000526020600020905b81548152906001019060200180831161152157829003601f168201915b505050505081565b600b80546114c590613af9565b60006109c48282600a6103e86115698180613ae1565b6115739190613ae1565b6109dd9190613ae1565b60065473ffffffffffffffffffffffffffffffffffffffff1633146115fe576040517f08c379a000000000000000000000000000000000000000000000000000000000815260206004820181905260248201527f4f776e61626c653a2063616c6c6572206973206e6f7420746865206f776e65726044820152606401610b21565b6116086000612bd3565b565b60006109c48261161c6103e880613ae1565b6103e86115738180613ae1565b60065473ffffffffffffffffffffffffffffffffffffffff1633146116aa576040517f08c379a000000000000000000000000000000000000000000000000000000000815260206004820181905260248201527f4f776e61626c653a2063616c6c6572206973206e6f7420746865206f776e65726044820152606401610b21565b60006116b7600143613b4d565b409050610ef28282612c4a565b3373ffffffffffffffffffffffffffffffffffffffff7f00000000000000000000000000000000000000000000000000000000000000001614611763576040517f08c379a000000000000000000000000000000000000000000000000000000000815260206004820152601f60248201527f4f6e6c7920565246436f6f7264696e61746f722063616e2066756c66696c6c006044820152606401610b21565b610ef28282612d6c565b6060600280546109f190613af9565b60006109c4826103e861178f8180613ae1565b6117999190613ae1565b600a6103e86115698180613ae1565b60065473ffffffffffffffffffffffffffffffffffffffff163314611829576040517f08c379a000000000000000000000000000000000000000000000000000000000815260206004820181905260248201527f4f776e61626c653a2063616c6c6572206973206e6f7420746865206f776e65726044820152606401610b21565b6040517f70a0823100000000000000000000000000000000000000000000000000000000815230600482015260009073ffffffffffffffffffffffffffffffffffffffff8316906370a0823190602401602060405180830381865afa158015611896573d6000803e3d6000fd5b505050506040513d601f19601f820116820180604052508101906118ba9190613bba565b905060008273ffffffffffffffffffffffffffffffffffffffff1663a9059cbb6118f960065473ffffffffffffffffffffffffffffffffffffffff1690565b6040517fffffffff0000000000000000000000000000000000000000000000000000000060e084901b16815273ffffffffffffffffffffffffffffffffffffffff9091166004820152602481018590526044016020604051808303816000875af115801561196b573d6000803e3d6000fd5b505050506040513d601f19601f8201168201806040525081019061198f9190613bd3565b905080610cdb576040517f08c379a000000000000000000000000000000000000000000000000000000000815260206004820152601560248201527f544f4b454e5f5452414e534645525f4641494c454400000000000000000000006044820152606401610b21565b600e5474010000000000000000000000000000000000000000900460ff16611a7c576040517f08c379a000000000000000000000000000000000000000000000000000000000815260206004820152601660248201527f5055424c49435f53414c455f4e4f545f414354495645000000000000000000006044820152606401610b21565b323314611ae5576040517f08c379a000000000000000000000000000000000000000000000000000000000815260206004820152600d60248201527f434f4e54524143545f43414c4c000000000000000000000000000000000000006044820152606401610b21565b600a811115611b50576040517f08c379a000000000000000000000000000000000000000000000000000000000815260206004820152600d60248201527f455843454544535f4c494d4954000000000000000000000000000000000000006044820152606401610b21565b611b6181666a94d74f430000613bf0565b3414611bc9576040517f08c379a000000000000000000000000000000000000000000000000000000000815260206004820152600f60248201527f494e434f52524543545f56414c554500000000000000000000000000000000006044820152606401610b21565b600f546103e8611bd98383613ae1565b1115611c41576040517f08c379a000000000000000000000000000000000000000000000000000000000815260206004820152601260248201527f4d41585f535550504c595f5245414348454400000000000000000000000000006044820152606401610b21565b81600f6000828254611c539190613ae1565b90915550600090505b82811015610cdb57611c7733611c728385613ae1565b612a2d565b80611c8181613b81565b915050611c5c565b610ef2338383612dfd565b60606000611ca183611553565b67ffffffffffffffff811115611cb957611cb9613850565b604051908082528060200260200182016040528015611ce2578160200160208202803683370190505b50905060005b600a6103e8611cf78180613ae1565b611d019190613ae1565b611d0b9190613ae1565b811015611d735760008181526003602052604090205473ffffffffffffffffffffffffffffffffffffffff85811691161415611d615780828281518110611d5457611d54613c2d565b6020026020010181815250505b80611d6b81613b81565b915050611ce8565b5092915050565b60006109c48260006103e861246e565b611d943383612617565b611e20576040517f08c379a000000000000000000000000000000000000000000000000000000000815260206004820152603160248201527f4552433732313a207472616e736665722063616c6c6572206973206e6f74206f60448201527f776e6572206e6f7220617070726f7665640000000000000000000000000000006064820152608401610b21565b611e2c84848484612f2b565b50505050565b60008082611e4d57611e46846103e8613ae1565b9050611e94565b8260011415611e6d5783611e636103e880613ae1565b611e469190613ae1565b6011546103e8611e7d8180613ae1565b611e879190613ae1565b611e919190613ae1565b90505b60009081526003602052604090205473ffffffffffffffffffffffffffffffffffffffff16159392505050565b60065473ffffffffffffffffffffffffffffffffffffffff163314611f42576040517f08c379a000000000000000000000000000000000000000000000000000000000815260206004820181905260248201527f4f776e61626c653a2063616c6c6572206973206e6f7420746865206f776e65726044820152606401610b21565b600e80549115157501000000000000000000000000000000000000000000027fffffffffffffffffffff00ffffffffffffffffffffffffffffffffffffffffff909216919091179055565b60008181526003602052604090205460609073ffffffffffffffffffffffffffffffffffffffff16612041576040517f08c379a000000000000000000000000000000000000000000000000000000000815260206004820152602f60248201527f4552433732314d657461646174613a2055524920717565727920666f72206e6f60448201527f6e6578697374656e7420746f6b656e00000000000000000000000000000000006064820152608401610b21565b600a546120da57600b805461205590613af9565b80601f016020809104026020016040519081016040528092919081815260200182805461208190613af9565b80156120ce5780601f106120a3576101008083540402835291602001916120ce565b820191906000526020600020905b8154815290600101906020018083116120b157829003601f168201915b50505050509050919050565b60006120e583612fce565b9050600c6120f28261308c565b604051602001612103929190613c78565b604051602081830303815290604052915050919050565b60065473ffffffffffffffffffffffffffffffffffffffff16331461219b576040517f08c379a000000000000000000000000000000000000000000000000000000000815260206004820181905260248201527f4f776e61626c653a2063616c6c6572206973206e6f7420746865206f776e65726044820152606401610b21565b600e805491151574010000000000000000000000000000000000000000027fffffffffffffffffffffff00ffffffffffffffffffffffffffffffffffffffff909216919091179055565b60065473ffffffffffffffffffffffffffffffffffffffff163314612266576040517f08c379a000000000000000000000000000000000000000000000000000000000815260206004820181905260248201527f4f776e61626c653a2063616c6c6572206973206e6f7420746865206f776e65726044820152606401610b21565b73ffffffffffffffffffffffffffffffffffffffff8116612309576040517f08c379a000000000000000000000000000000000000000000000000000000000815260206004820152602660248201527f4f776e61626c653a206e6577206f776e657220697320746865207a65726f206160448201527f64647265737300000000000000000000000000000000000000000000000000006064820152608401610b21565b610e3f81612bd3565b60065473ffffffffffffffffffffffffffffffffffffffff163314612393576040517f08c379a000000000000000000000000000000000000000000000000000000000815260206004820181905260248201527f4f776e61626c653a2063616c6c6572206973206e6f7420746865206f776e65726044820152606401610b21565b8051610ef290600b9060208401906135fe565b60065473ffffffffffffffffffffffffffffffffffffffff163314612427576040517f08c379a000000000000000000000000000000000000000000000000000000000815260206004820181905260248201527f4f776e61626c653a2063616c6c6572206973206e6f7420746865206f776e65726044820152606401610b21565b600e80547fffffffffffffffffffffffff00000000000000000000000000000000000000001673ffffffffffffffffffffffffffffffffffffffff92909216919091179055565b600073ffffffffffffffffffffffffffffffffffffffff8416612513576040517f08c379a000000000000000000000000000000000000000000000000000000000815260206004820152602a60248201527f4552433732313a2062616c616e636520717565727920666f7220746865207a6560448201527f726f2061646472657373000000000000000000000000000000000000000000006064820152608401610b21565b6000835b8381101561256e5760008181526003602052604090205473ffffffffffffffffffffffffffffffffffffffff8781169116141561255c578161255881613b81565b9250505b8061256681613b81565b915050612517565b50949350505050565b600081815260046020526040902080547fffffffffffffffffffffffff00000000000000000000000000000000000000001673ffffffffffffffffffffffffffffffffffffffff841690811790915581906125d18261133e565b73ffffffffffffffffffffffffffffffffffffffff167f8c5be1e5ebec7d5bd14f71427d1e84f3dd0314c0f7b2291e5b200ac8c7c3b92560405160405180910390a45050565b60008181526003602052604081205473ffffffffffffffffffffffffffffffffffffffff166126c8576040517f08c379a000000000000000000000000000000000000000000000000000000000815260206004820152602c60248201527f4552433732313a206f70657261746f7220717565727920666f72206e6f6e657860448201527f697374656e7420746f6b656e00000000000000000000000000000000000000006064820152608401610b21565b60006126d38361133e565b90508073ffffffffffffffffffffffffffffffffffffffff168473ffffffffffffffffffffffffffffffffffffffff16148061274257508373ffffffffffffffffffffffffffffffffffffffff1661272a84610a74565b73ffffffffffffffffffffffffffffffffffffffff16145b8061277f575073ffffffffffffffffffffffffffffffffffffffff80821660009081526005602090815260408083209388168352929052205460ff165b949350505050565b8273ffffffffffffffffffffffffffffffffffffffff166127a78261133e565b73ffffffffffffffffffffffffffffffffffffffff161461284a576040517f08c379a000000000000000000000000000000000000000000000000000000000815260206004820152602960248201527f4552433732313a207472616e73666572206f6620746f6b656e2074686174206960448201527f73206e6f74206f776e00000000000000000000000000000000000000000000006064820152608401610b21565b73ffffffffffffffffffffffffffffffffffffffff82166128ec576040517f08c379a0000000000000000000000000000000000000000000000000000000008152602060048201526024808201527f4552433732313a207472616e7366657220746f20746865207a65726f2061646460448201527f72657373000000000000000000000000000000000000000000000000000000006064820152608401610b21565b6128f7600082612577565b60008181526003602052604080822080547fffffffffffffffffffffffff00000000000000000000000000000000000000001673ffffffffffffffffffffffffffffffffffffffff86811691821790925591518493918716917fddf252ad1be2c89b69c2b068fc378daa952ba7f163c4a11628f55a4df523b3ef91a4505050565b600a54156129e2576040517f08c379a000000000000000000000000000000000000000000000000000000000815260206004820152600f60248201527f52414e444f4d5f534545445f53455400000000000000000000000000000000006044820152606401610b21565b600954612a0f827fffffffffffffffffffffffffffffffffffffffffffffffffffffffffffffffff613b4d565b1015612a2857600954612a229082613b4d565b600a5550565b600a55565b73ffffffffffffffffffffffffffffffffffffffff8216612aaa576040517f08c379a000000000000000000000000000000000000000000000000000000000815260206004820181905260248201527f4552433732313a206d696e7420746f20746865207a65726f20616464726573736044820152606401610b21565b60008181526003602052604090205473ffffffffffffffffffffffffffffffffffffffff1615612b36576040517f08c379a000000000000000000000000000000000000000000000000000000000815260206004820152601c60248201527f4552433732313a20746f6b656e20616c7265616479206d696e746564000000006044820152606401610b21565b60008181526003602052604080822080547fffffffffffffffffffffffff00000000000000000000000000000000000000001673ffffffffffffffffffffffffffffffffffffffff861690811790915590518392907fddf252ad1be2c89b69c2b068fc378daa952ba7f163c4a11628f55a4df523b3ef908290a45050565b6000612bbe6131be565b60009081526014602052604090209190915550565b6006805473ffffffffffffffffffffffffffffffffffffffff8381167fffffffffffffffffffffffff0000000000000000000000000000000000000000831681179093556040519116919082907f8be0079c531659141344cd1fd0a4f28419497f9722a3daafe3b4186f6b6457e090600090a35050565b60008281526003602052604090205473ffffffffffffffffffffffffffffffffffffffff16612cd5576040517f08c379a000000000000000000000000000000000000000000000000000000000815260206004820152601160248201527f4d4547415f49445f4e4f545f464f554e440000000000000000000000000000006044820152606401610b21565b60008281526013602052604090205415612d4b576040517f08c379a000000000000000000000000000000000000000000000000000000000815260206004820152601360248201527f4d4547415f49445f414c52454144595f534554000000000000000000000000006044820152606401610b21565b612d566012826131ce565b6000928352601360205260409092209190915550565b600a5415612dd6576040517f08c379a000000000000000000000000000000000000000000000000000000000815260206004820152600f60248201527f52414e444f4d5f534545445f53455400000000000000000000000000000000006044820152606401610b21565b60008281526014602052604090205480612df357610cdb82612978565b610cdb8183612c4a565b8173ffffffffffffffffffffffffffffffffffffffff168373ffffffffffffffffffffffffffffffffffffffff161415612e93576040517f08c379a000000000000000000000000000000000000000000000000000000000815260206004820152601960248201527f4552433732313a20617070726f766520746f2063616c6c6572000000000000006044820152606401610b21565b73ffffffffffffffffffffffffffffffffffffffff83811660008181526005602090815260408083209487168084529482529182902080547fffffffffffffffffffffffffffffffffffffffffffffffffffffffffffffff001686151590811790915591519182527f17307eab39ab6107e8899845ad3d59bd9653f200f220920489ca2b5937696c31910160405180910390a3505050565b612f36848484612787565b612f42848484846131eb565b611e2c576040517f08c379a000000000000000000000000000000000000000000000000000000000815260206004820152603260248201527f4552433732313a207472616e7366657220746f206e6f6e20455243373231526560448201527f63656976657220696d706c656d656e74657200000000000000000000000000006064820152608401610b21565b60006103e8821015612ff5576103e8600a5483612feb9190613ae1565b6109c49190613db1565b6103e86130028180613ae1565b61300c9190613ae1565b821061308857600082815260136020526040902054806109c4576040517f08c379a000000000000000000000000000000000000000000000000000000000815260206004820152601360248201527f4d455441444154415f49445f4e4f545f534554000000000000000000000000006044820152606401610b21565b5090565b6060816130cc57505060408051808201909152600181527f3000000000000000000000000000000000000000000000000000000000000000602082015290565b8160005b81156130f657806130e081613b81565b91506130ef9050600a83613dc5565b91506130d0565b60008167ffffffffffffffff81111561311157613111613850565b6040519080825280601f01601f19166020018201604052801561313b576020820181803683370190505b5090505b841561277f57613150600183613b4d565b915061315d600a86613db1565b613168906030613ae1565b60f81b81838151811061317d5761317d613c2d565b60200101907effffffffffffffffffffffffffffffffffffffffffffffffffffffffffffff1916908160001a9053506131b7600a86613dc5565b945061313f565b6000610cff6007546008546133db565b815460009081906131df9084613db1565b905061277f848261355f565b600073ffffffffffffffffffffffffffffffffffffffff84163b156133d0576040517f150b7a0200000000000000000000000000000000000000000000000000000000815273ffffffffffffffffffffffffffffffffffffffff85169063150b7a0290613262903390899088908890600401613dd9565b6020604051808303816000875af19250505080156132bb575060408051601f3d9081017fffffffffffffffffffffffffffffffffffffffffffffffffffffffffffffffe01682019092526132b891810190613e22565b60015b613385573d8080156132e9576040519150601f19603f3d011682016040523d82523d6000602084013e6132ee565b606091505b50805161337d576040517f08c379a000000000000000000000000000000000000000000000000000000000815260206004820152603260248201527f4552433732313a207472616e7366657220746f206e6f6e20455243373231526560448201527f63656976657220696d706c656d656e74657200000000000000000000000000006064820152608401610b21565b805181602001fd5b7fffffffff00000000000000000000000000000000000000000000000000000000167f150b7a020000000000000000000000000000000000000000000000000000000014905061277f565b506001949350505050565b60007f000000000000000000000000000000000000000000000000000000000000000073ffffffffffffffffffffffffffffffffffffffff16634000aea07f000000000000000000000000000000000000000000000000000000000000000084866000604051602001613458929190918252602082015260400190565b6040516020818303038152906040526040518463ffffffff1660e01b815260040161348593929190613e3f565b6020604051808303816000875af11580156134a4573d6000803e3d6000fd5b505050506040513d601f19601f820116820180604052508101906134c89190613bd3565b5060008381526020818152604080832054815180840188905280830185905230606082015260808082018390528351808303909101815260a090910190925281519183019190912086845292909152613522906001613ae1565b600085815260208181526040918290209290925580518083018790528082018490528151808203830181526060909101909152805191012061277f565b60008083838154811061357457613574613c2d565b9060005260206000200154905083600185805490506135939190613b4d565b815481106135a3576135a3613c2d565b90600052602060002001548484815481106135c0576135c0613c2d565b9060005260206000200181905550838054806135de576135de613e74565b600190038181906000526020600020016000905590558091505092915050565b82805461360a90613af9565b90600052602060002090601f01602090048101928261362c5760008555613672565b82601f1061364557805160ff1916838001178555613672565b82800160010185558215613672579182015b82811115613672578251825591602001919060010190613657565b506130889291505b80821115613088576000815560010161367a565b7fffffffff0000000000000000000000000000000000000000000000000000000081168114610e3f57600080fd5b6000602082840312156136ce57600080fd5b81356136d98161368e565b9392505050565b73ffffffffffffffffffffffffffffffffffffffff81168114610e3f57600080fd5b60006020828403121561371457600080fd5b81356136d9816136e0565b60005b8381101561373a578181015183820152602001613722565b83811115611e2c5750506000910152565b6000815180845261376381602086016020860161371f565b601f017fffffffffffffffffffffffffffffffffffffffffffffffffffffffffffffffe0169290920160200192915050565b6020815260006136d9602083018461374b565b6000602082840312156137ba57600080fd5b5035919050565b600080604083850312156137d457600080fd5b82356137df816136e0565b946020939093013593505050565b60008060006060848603121561380257600080fd5b833561380d816136e0565b9250602084013561381d816136e0565b929592945050506040919091013590565b6000806040838503121561384157600080fd5b50508035926020909101359150565b7f4e487b7100000000000000000000000000000000000000000000000000000000600052604160045260246000fd5b600067ffffffffffffffff8084111561389a5761389a613850565b604051601f85017fffffffffffffffffffffffffffffffffffffffffffffffffffffffffffffffe0908116603f011681019082821181831017156138e0576138e0613850565b816040528093508581528686860111156138f957600080fd5b858560208301376000602087830101525050509392505050565b60006020828403121561392557600080fd5b813567ffffffffffffffff81111561393c57600080fd5b8201601f8101841361394d57600080fd5b61277f8482356020840161387f565b8015158114610e3f57600080fd5b6000806040838503121561397d57600080fd5b8235613988816136e0565b915060208301356139988161395c565b809150509250929050565b6020808252825182820181905260009190848201906040850190845b818110156139db578351835292840192918401916001016139bf565b50909695505050505050565b600080600080608085870312156139fd57600080fd5b8435613a08816136e0565b93506020850135613a18816136e0565b925060408501359150606085013567ffffffffffffffff811115613a3b57600080fd5b8501601f81018713613a4c57600080fd5b613a5b8782356020840161387f565b91505092959194509250565b600060208284031215613a7957600080fd5b81356136d98161395c565b60008060408385031215613a9757600080fd5b8235613aa2816136e0565b91506020830135613998816136e0565b7f4e487b7100000000000000000000000000000000000000000000000000000000600052601160045260246000fd5b60008219821115613af457613af4613ab2565b500190565b600181811c90821680613b0d57607f821691505b60208210811415613b47577f4e487b7100000000000000000000000000000000000000000000000000000000600052602260045260246000fd5b50919050565b600082821015613b5f57613b5f613ab2565b500390565b600060208284031215613b7657600080fd5b81516136d9816136e0565b60007fffffffffffffffffffffffffffffffffffffffffffffffffffffffffffffffff821415613bb357613bb3613ab2565b5060010190565b600060208284031215613bcc57600080fd5b5051919050565b600060208284031215613be557600080fd5b81516136d98161395c565b6000817fffffffffffffffffffffffffffffffffffffffffffffffffffffffffffffffff0483118215151615613c2857613c28613ab2565b500290565b7f4e487b7100000000000000000000000000000000000000000000000000000000600052603260045260246000fd5b60008151613c6e81856020860161371f565b9290920192915050565b600080845481600182811c915080831680613c9457607f831692505b6020808410821415613ccd577f4e487b710000000000000000000000000000000000000000000000000000000086526022600452602486fd5b818015613ce15760018114613d1057613d3d565b7fffffffffffffffffffffffffffffffffffffffffffffffffffffffffffffff00861689528489019650613d3d565b60008b81526020902060005b86811015613d355781548b820152908501908301613d1c565b505084890196505b505050505050613d79613d508286613c5c565b7f2e6a736f6e000000000000000000000000000000000000000000000000000000815260050190565b95945050505050565b7f4e487b7100000000000000000000000000000000000000000000000000000000600052601260045260246000fd5b600082613dc057613dc0613d82565b500690565b600082613dd457613dd4613d82565b500490565b600073ffffffffffffffffffffffffffffffffffffffff808716835280861660208401525083604083015260806060830152613e18608083018461374b565b9695505050505050565b600060208284031215613e3457600080fd5b81516136d98161368e565b73ffffffffffffffffffffffffffffffffffffffff84168152826020820152606060408201526000613d79606083018461374b565b7f4e487b7100000000000000000000000000000000000000000000000000000000600052603160045260246000fdfea26469706673582212202414279d949a51e86cc37e7051c841c37e57460d1bff185d97e671bf23ad59c564736f6c634300080b0033",
  "linkReferences": {},
  "deployedLinkReferences": {}
}