{
  "_format": "hh-sol-artifact-1",
  "contractName": "Mutants",
  "sourceName": "contracts/Mutants.sol",
  "abi": [
    {
      "inputs": [
        {
          "internalType": "bytes32",
          "name": "secretHash_",
          "type": "bytes32"
        }
      ],
      "stateMutability": "nonpayable",
      "type": "constructor"
    },
    {
      "anonymous": false,
      "inputs": [
        {
          "indexed": true,
          "internalType": "address",
          "name": "owner",
          "type": "address"
        },
        {
          "indexed": true,
          "internalType": "address",
          "name": "approved",
          "type": "address"
        },
        {
          "indexed": true,
          "internalType": "uint256",
          "name": "tokenId",
          "type": "uint256"
        }
      ],
      "name": "Approval",
      "type": "event"
    },
    {
      "anonymous": false,
      "inputs": [
        {
          "indexed": true,
          "internalType": "address",
          "name": "owner",
          "type": "address"
        },
        {
          "indexed": true,
          "internalType": "address",
          "name": "operator",
          "type": "address"
        },
        {
          "indexed": false,
          "internalType": "bool",
          "name": "approved",
          "type": "bool"
        }
      ],
      "name": "ApprovalForAll",
      "type": "event"
    },
    {
      "anonymous": false,
      "inputs": [
        {
          "indexed": true,
          "internalType": "address",
          "name": "previousOwner",
          "type": "address"
        },
        {
          "indexed": true,
          "internalType": "address",
          "name": "newOwner",
          "type": "address"
        }
      ],
      "name": "OwnershipTransferred",
      "type": "event"
    },
    {
      "anonymous": false,
      "inputs": [
        {
          "indexed": true,
          "internalType": "address",
          "name": "from",
          "type": "address"
        },
        {
          "indexed": true,
          "internalType": "address",
          "name": "to",
          "type": "address"
        },
        {
          "indexed": true,
          "internalType": "uint256",
          "name": "tokenId",
          "type": "uint256"
        }
      ],
      "name": "Transfer",
      "type": "event"
    },
    {
      "inputs": [],
      "name": "MAX_SUPPLY_M",
      "outputs": [
        {
          "internalType": "uint256",
          "name": "",
          "type": "uint256"
        }
      ],
      "stateMutability": "view",
      "type": "function"
    },
    {
      "inputs": [],
      "name": "MAX_SUPPLY_M3",
      "outputs": [
        {
          "internalType": "uint256",
          "name": "",
          "type": "uint256"
        }
      ],
      "stateMutability": "view",
      "type": "function"
    },
    {
      "inputs": [],
      "name": "MAX_SUPPLY_PUBLIC",
      "outputs": [
        {
          "internalType": "uint256",
          "name": "",
          "type": "uint256"
        }
      ],
      "stateMutability": "view",
      "type": "function"
    },
    {
      "inputs": [],
      "name": "PRICE",
      "outputs": [
        {
          "internalType": "uint256",
          "name": "",
          "type": "uint256"
        }
      ],
      "stateMutability": "view",
      "type": "function"
    },
    {
      "inputs": [],
      "name": "PURCHASE_LIMIT",
      "outputs": [
        {
          "internalType": "uint256",
          "name": "",
          "type": "uint256"
        }
      ],
      "stateMutability": "view",
      "type": "function"
    },
    {
      "inputs": [
        {
          "internalType": "address",
          "name": "to",
          "type": "address"
        },
        {
          "internalType": "uint256",
          "name": "tokenId",
          "type": "uint256"
        }
      ],
      "name": "approve",
      "outputs": [],
      "stateMutability": "nonpayable",
      "type": "function"
    },
    {
      "inputs": [
        {
          "internalType": "address",
          "name": "owner",
          "type": "address"
        }
      ],
      "name": "balanceOf",
      "outputs": [
        {
          "internalType": "uint256",
          "name": "",
          "type": "uint256"
        }
      ],
      "stateMutability": "view",
      "type": "function"
    },
    {
      "inputs": [
        {
          "internalType": "address",
          "name": "owner",
          "type": "address"
        }
      ],
      "name": "balanceOfM0",
      "outputs": [
        {
          "internalType": "uint256",
          "name": "",
          "type": "uint256"
        }
      ],
      "stateMutability": "view",
      "type": "function"
    },
    {
      "inputs": [
        {
          "internalType": "address",
          "name": "owner",
          "type": "address"
        }
      ],
      "name": "balanceOfM1",
      "outputs": [
        {
          "internalType": "uint256",
          "name": "",
          "type": "uint256"
        }
      ],
      "stateMutability": "view",
      "type": "function"
    },
    {
      "inputs": [
        {
          "internalType": "address",
          "name": "owner",
          "type": "address"
        }
      ],
      "name": "balanceOfM2",
      "outputs": [
        {
          "internalType": "uint256",
          "name": "",
          "type": "uint256"
        }
      ],
      "stateMutability": "view",
      "type": "function"
    },
    {
      "inputs": [
        {
          "internalType": "address",
          "name": "owner",
          "type": "address"
        }
      ],
      "name": "balanceOfM3",
      "outputs": [
        {
          "internalType": "uint256",
          "name": "",
          "type": "uint256"
        }
      ],
      "stateMutability": "view",
      "type": "function"
    },
    {
      "inputs": [],
      "name": "baseURI",
      "outputs": [
        {
          "internalType": "string",
          "name": "",
          "type": "string"
        }
      ],
      "stateMutability": "view",
      "type": "function"
    },
    {
      "inputs": [
        {
          "internalType": "uint256",
          "name": "nftId",
          "type": "uint256"
        },
        {
          "internalType": "uint256",
          "name": "serumType",
          "type": "uint256"
        }
      ],
      "name": "canMutate",
      "outputs": [
        {
          "internalType": "bool",
          "name": "",
          "type": "bool"
        }
      ],
      "stateMutability": "view",
      "type": "function"
    },
    {
      "inputs": [
        {
          "internalType": "uint256",
          "name": "mutantId",
          "type": "uint256"
        }
      ],
      "name": "forceFulfillRandomMegaMutant",
      "outputs": [],
      "stateMutability": "nonpayable",
      "type": "function"
    },
    {
      "inputs": [],
      "name": "forceFulfillRandomness",
      "outputs": [],
      "stateMutability": "nonpayable",
      "type": "function"
    },
    {
      "inputs": [
        {
          "internalType": "uint256",
          "name": "tokenId",
          "type": "uint256"
        }
      ],
      "name": "getApproved",
      "outputs": [
        {
          "internalType": "address",
          "name": "",
          "type": "address"
        }
      ],
      "stateMutability": "view",
      "type": "function"
    },
    {
      "inputs": [
        {
          "internalType": "address",
          "name": "owner",
          "type": "address"
        },
        {
          "internalType": "address",
          "name": "operator",
          "type": "address"
        }
      ],
      "name": "isApprovedForAll",
      "outputs": [
        {
          "internalType": "bool",
          "name": "",
          "type": "bool"
        }
      ],
      "stateMutability": "view",
      "type": "function"
    },
    {
      "inputs": [
        {
          "internalType": "uint256",
          "name": "amount",
          "type": "uint256"
        }
      ],
      "name": "mint",
      "outputs": [],
      "stateMutability": "payable",
      "type": "function"
    },
    {
      "inputs": [],
      "name": "mintRevealed",
      "outputs": [
        {
          "internalType": "bool",
          "name": "",
          "type": "bool"
        }
      ],
      "stateMutability": "view",
      "type": "function"
    },
    {
      "inputs": [
        {
          "internalType": "uint256",
          "name": "nftId",
          "type": "uint256"
        },
        {
          "internalType": "uint256",
          "name": "serumType",
          "type": "uint256"
        }
      ],
      "name": "mutate",
      "outputs": [],
      "stateMutability": "nonpayable",
      "type": "function"
    },
    {
      "inputs": [],
      "name": "mutationsActive",
      "outputs": [
        {
          "internalType": "bool",
          "name": "",
          "type": "bool"
        }
      ],
      "stateMutability": "view",
      "type": "function"
    },
    {
      "inputs": [],
      "name": "name",
      "outputs": [
        {
          "internalType": "string",
          "name": "",
          "type": "string"
        }
      ],
      "stateMutability": "view",
      "type": "function"
    },
    {
      "inputs": [],
      "name": "numMegaMutants",
      "outputs": [
        {
          "internalType": "uint256",
          "name": "",
          "type": "uint256"
        }
      ],
      "stateMutability": "view",
      "type": "function"
    },
    {
      "inputs": [],
      "name": "numPublicMinted",
      "outputs": [
        {
          "internalType": "uint256",
          "name": "",
          "type": "uint256"
        }
      ],
      "stateMutability": "view",
      "type": "function"
    },
    {
      "inputs": [],
      "name": "owner",
      "outputs": [
        {
          "internalType": "address",
          "name": "",
          "type": "address"
        }
      ],
      "stateMutability": "view",
      "type": "function"
    },
    {
      "inputs": [
        {
          "internalType": "uint256",
          "name": "tokenId",
          "type": "uint256"
        }
      ],
      "name": "ownerOf",
      "outputs": [
        {
          "internalType": "address",
          "name": "",
          "type": "address"
        }
      ],
      "stateMutability": "view",
      "type": "function"
    },
    {
      "inputs": [],
      "name": "publicSaleActive",
      "outputs": [
        {
          "internalType": "bool",
          "name": "",
          "type": "bool"
        }
      ],
      "stateMutability": "view",
      "type": "function"
    },
    {
      "inputs": [],
      "name": "randomSeedSet",
      "outputs": [
        {
          "internalType": "bool",
          "name": "",
          "type": "bool"
        }
      ],
      "stateMutability": "view",
      "type": "function"
    },
    {
      "inputs": [
        {
          "internalType": "bytes32",
          "name": "requestId",
          "type": "bytes32"
        },
        {
          "internalType": "uint256",
          "name": "randomness",
          "type": "uint256"
        }
      ],
      "name": "rawFulfillRandomness",
      "outputs": [],
      "stateMutability": "nonpayable",
      "type": "function"
    },
    {
      "inputs": [
        {
          "internalType": "contract IERC20",
          "name": "_token",
          "type": "address"
        }
      ],
      "name": "recoverToken",
      "outputs": [],
      "stateMutability": "nonpayable",
      "type": "function"
    },
    {
      "inputs": [],
      "name": "renounceOwnership",
      "outputs": [],
      "stateMutability": "nonpayable",
      "type": "function"
    },
    {
      "inputs": [],
      "name": "requestRandomSeed",
      "outputs": [],
      "stateMutability": "nonpayable",
      "type": "function"
    },
    {
      "inputs": [
        {
          "internalType": "string",
          "name": "_baseURI",
          "type": "string"
        },
        {
          "internalType": "bytes32",
          "name": "secretSeed_",
          "type": "bytes32"
        }
      ],
      "name": "reveal",
      "outputs": [],
      "stateMutability": "nonpayable",
      "type": "function"
    },
    {
      "inputs": [],
      "name": "revealed",
      "outputs": [
        {
          "internalType": "bool",
          "name": "",
          "type": "bool"
        }
      ],
      "stateMutability": "view",
      "type": "function"
    },
    {
      "inputs": [
        {
          "internalType": "address",
          "name": "from",
          "type": "address"
        },
        {
          "internalType": "address",
          "name": "to",
          "type": "address"
        },
        {
          "internalType": "uint256",
          "name": "tokenId",
          "type": "uint256"
        }
      ],
      "name": "safeTransferFrom",
      "outputs": [],
      "stateMutability": "nonpayable",
      "type": "function"
    },
    {
      "inputs": [
        {
          "internalType": "address",
          "name": "from",
          "type": "address"
        },
        {
          "internalType": "address",
          "name": "to",
          "type": "address"
        },
        {
          "internalType": "uint256",
          "name": "tokenId",
          "type": "uint256"
        },
        {
          "internalType": "bytes",
          "name": "_data",
          "type": "bytes"
        }
      ],
      "name": "safeTransferFrom",
      "outputs": [],
      "stateMutability": "nonpayable",
      "type": "function"
    },
    {
      "inputs": [
        {
          "internalType": "address",
          "name": "operator",
          "type": "address"
        },
        {
          "internalType": "bool",
          "name": "approved",
          "type": "bool"
        }
      ],
      "name": "setApprovalForAll",
      "outputs": [],
      "stateMutability": "nonpayable",
      "type": "function"
    },
    {
      "inputs": [
        {
          "internalType": "string",
          "name": "_baseURI",
          "type": "string"
        }
      ],
      "name": "setBaseURI",
      "outputs": [],
      "stateMutability": "nonpayable",
      "type": "function"
    },
    {
      "inputs": [
        {
          "internalType": "bool",
          "name": "active",
          "type": "bool"
        }
      ],
      "name": "setMutationsActive",
      "outputs": [],
      "stateMutability": "nonpayable",
      "type": "function"
    },
    {
      "inputs": [
        {
          "internalType": "address",
          "name": "_address",
          "type": "address"
        }
      ],
      "name": "setNFTAddress",
      "outputs": [],
      "stateMutability": "nonpayable",
      "type": "function"
    },
    {
      "inputs": [
        {
          "internalType": "bool",
          "name": "active",
          "type": "bool"
        }
      ],
      "name": "setPublicSaleActive",
      "outputs": [],
      "stateMutability": "nonpayable",
      "type": "function"
    },
    {
      "inputs": [
        {
          "internalType": "address",
          "name": "_address",
          "type": "address"
        }
      ],
      "name": "setSerumAddress",
      "outputs": [],
      "stateMutability": "nonpayable",
      "type": "function"
    },
    {
      "inputs": [
        {
          "internalType": "string",
          "name": "_uri",
          "type": "string"
        }
      ],
      "name": "setUnrevealedURI",
      "outputs": [],
      "stateMutability": "nonpayable",
      "type": "function"
    },
    {
      "inputs": [
        {
          "internalType": "bytes4",
          "name": "interfaceId",
          "type": "bytes4"
        }
      ],
      "name": "supportsInterface",
      "outputs": [
        {
          "internalType": "bool",
          "name": "",
          "type": "bool"
        }
      ],
      "stateMutability": "view",
      "type": "function"
    },
    {
      "inputs": [],
      "name": "symbol",
      "outputs": [
        {
          "internalType": "string",
          "name": "",
          "type": "string"
        }
      ],
      "stateMutability": "view",
      "type": "function"
    },
    {
      "inputs": [
        {
          "internalType": "address",
          "name": "owner",
          "type": "address"
        }
      ],
      "name": "tokenIdsOf",
      "outputs": [
        {
          "internalType": "uint256[]",
          "name": "",
          "type": "uint256[]"
        }
      ],
      "stateMutability": "view",
      "type": "function"
    },
    {
      "inputs": [
        {
          "internalType": "uint256",
          "name": "tokenId",
          "type": "uint256"
        }
      ],
      "name": "tokenURI",
      "outputs": [
        {
          "internalType": "string",
          "name": "",
          "type": "string"
        }
      ],
      "stateMutability": "view",
      "type": "function"
    },
    {
      "inputs": [
        {
          "internalType": "address",
          "name": "from",
          "type": "address"
        },
        {
          "internalType": "address",
          "name": "to",
          "type": "address"
        },
        {
          "internalType": "uint256",
          "name": "tokenId",
          "type": "uint256"
        }
      ],
      "name": "transferFrom",
      "outputs": [],
      "stateMutability": "nonpayable",
      "type": "function"
    },
    {
      "inputs": [
        {
          "internalType": "address",
          "name": "newOwner",
          "type": "address"
        }
      ],
      "name": "transferOwnership",
      "outputs": [],
      "stateMutability": "nonpayable",
      "type": "function"
    },
    {
      "inputs": [],
      "name": "unrevealedURI",
      "outputs": [
        {
          "internalType": "string",
          "name": "",
          "type": "string"
        }
      ],
      "stateMutability": "view",
      "type": "function"
    },
    {
      "inputs": [],
      "name": "withdraw",
      "outputs": [],
      "stateMutability": "nonpayable",
      "type": "function"
    }
  ],
  "bytecode": "0x7f2ed0feb3e7fd2022120aa84fab1945545a9f2ffc9076fd6156fa96eaff4c131160075567016345785d8a0000600855620186a0600955610100604052600d60c08190526c756e72657665616c656455524960981b60e09081526200006891600b91906200023b565b5060408051808201909152600880825267626173655552492f60c01b60209092019182526200009a91600c916200023b565b50348015620000a857600080fd5b50604051620046f4380380620046f4833981016040819052620000cb91620002e1565b60408051808201825260078152664d7574616e747360c81b60208083019182528351808501909452600484526309aaaa8b60e31b9084015273b3dccb4cf7a26f6cf6b120cf5a73875b7bbc655b60a0527301be23585060835e02b77ef475b0cc51aa1e0709608052815191929162000146916001916200023b565b5080516200015c9060029060208401906200023b565b5050506200017962000173620001e560201b60201c565b620001e9565b60005b600a811015620001db576013816103e862000198818062000311565b620001a4919062000311565b620001b0919062000311565b8154600181018355600092835260209092209091015580620001d2816200032c565b9150506200017c565b50600f5562000387565b3390565b600680546001600160a01b038381166001600160a01b0319831681179093556040519116919082907f8be0079c531659141344cd1fd0a4f28419497f9722a3daafe3b4186f6b6457e090600090a35050565b82805462000249906200034a565b90600052602060002090601f0160209004810192826200026d5760008555620002b8565b82601f106200028857805160ff1916838001178555620002b8565b82800160010185558215620002b8579182015b82811115620002b85782518255916020019190600101906200029b565b50620002c6929150620002ca565b5090565b5b80821115620002c65760008155600101620002cb565b600060208284031215620002f457600080fd5b5051919050565b634e487b7160e01b600052601160045260246000fd5b60008219821115620003275762000327620002fb565b500190565b6000600019821415620003435762000343620002fb565b5060010190565b600181811c908216806200035f57607f821691505b602082108114156200038157634e487b7160e01b600052602260045260246000fd5b50919050565b60805160a051614340620003b46000396000818161183f0152613828015260006137ec01526143406000f3fe6080604052600436106103345760003560e01c806394985ddd116101b0578063c7793ff3116100ec578063e1da26c611610095578063ea9384fa1161006f578063ea9384fa14610915578063f2fde38b14610935578063fe2c7fee14610955578063fe4ce9d71461097557600080fd5b8063e1da26c61461088a578063e2e06fa31461089f578063e985e9c5146108bf57600080fd5b8063d2646463116100c6578063d264646314610875578063d75e611014610875578063dcafe77d146105fb57600080fd5b8063c7793ff31461081f578063c87b56dd1461083f578063d133a9b81461085f57600080fd5b8063a3b261f211610159578063b88d4fde11610133578063b88d4fde14610797578063bc8893b4146107b7578063bf796273146107e9578063c61a79151461080957600080fd5b8063a3b261f214610733578063aaab633914610760578063b5a07ef71461077757600080fd5b80639be65a601161018a5780639be65a60146106e0578063a0712d6814610700578063a22cb4651461071357600080fd5b806394985ddd1461068b57806395d89b41146106ab578063983f9867146106c057600080fd5b80636063440b1161027f578063715018a611610228578063822554561161020257806382255456146105fb5780638acb4aa3146106115780638d859f3e146106455780638da5cb5b1461066057600080fd5b8063715018a6146105a65780637e925db0146105bb578063801b25c7146105db57600080fd5b80636c0360eb116102595780636c0360eb1461055c5780637035bf181461057157806370a082311461058657600080fd5b80636063440b146104e95780636352211e1461051c57806369d037381461053c57600080fd5b80633307dcfe116102e1578063447400bf116102bb578063447400bf1461048f57806351830227146104af57806355f804b3146104c957600080fd5b80633307dcfe146104455780633ccfd60b1461045a57806342842e0e1461046f57600080fd5b8063081812fc11610312578063081812fc146103be578063095ea7b31461040357806323b872dd1461042557600080fd5b806301ffc9a714610339578063045cae671461036e57806306fdde031461039c575b600080fd5b34801561034557600080fd5b50610359610354366004613ad2565b610995565b60405190151581526020015b60405180910390f35b34801561037a57600080fd5b5061038e610389366004613b18565b610a7a565b604051908152602001610365565b3480156103a857600080fd5b506103b1610a92565b6040516103659190613bab565b3480156103ca57600080fd5b506103de6103d9366004613bbe565b610b24565b60405173ffffffffffffffffffffffffffffffffffffffff9091168152602001610365565b34801561040f57600080fd5b5061042361041e366004613bd7565b610c03565b005b34801561043157600080fd5b50610423610440366004613c03565b610d90565b34801561045157600080fd5b50610423610e31565b34801561046657600080fd5b50610423610ece565b34801561047b57600080fd5b5061042361048a366004613c03565b610f82565b34801561049b57600080fd5b506104236104aa366004613c44565b610f9d565b3480156104bb57600080fd5b506010546103599060ff1681565b3480156104d557600080fd5b506104236104e4366004613d49565b611321565b3480156104f557600080fd5b50600e54610359907501000000000000000000000000000000000000000000900460ff1681565b34801561052857600080fd5b506103de610537366004613bbe565b611421565b34801561054857600080fd5b50610423610557366004613b18565b6114d3565b34801561056857600080fd5b506103b161159b565b34801561057d57600080fd5b506103b1611629565b34801561059257600080fd5b5061038e6105a1366004613b18565b611636565b3480156105b257600080fd5b50610423611660565b3480156105c757600080fd5b5061038e6105d6366004613b18565b6116ed565b3480156105e757600080fd5b506104236105f6366004613bbe565b61170c565b34801561060757600080fd5b5061038e6103e881565b34801561061d57600080fd5b50600e5461035990760100000000000000000000000000000000000000000000900460ff1681565b34801561065157600080fd5b5061038e666a94d74f43000081565b34801561066c57600080fd5b5060065473ffffffffffffffffffffffffffffffffffffffff166103de565b34801561069757600080fd5b506104236106a6366004613c44565b611827565b3480156106b757600080fd5b506103b16118d0565b3480156106cc57600080fd5b5061038e6106db366004613b18565b6118df565b3480156106ec57600080fd5b506104236106fb366004613b18565b61190b565b61042361070e366004613bbe565b611b5b565b34801561071f57600080fd5b5061042361072e366004613d8c565b611dec565b34801561073f57600080fd5b5061075361074e366004613b18565b611df7565b6040516103659190613dc5565b34801561076c57600080fd5b50600a541515610359565b34801561078357600080fd5b5061038e610792366004613b18565b611edd565b3480156107a357600080fd5b506104236107b2366004613e09565b611eed565b3480156107c357600080fd5b50600e546103599074010000000000000000000000000000000000000000900460ff1681565b3480156107f557600080fd5b50610359610804366004613c44565b611f95565b34801561081557600080fd5b5061038e60125481565b34801561082b57600080fd5b5061042361083a366004613e89565b612024565b34801561084b57600080fd5b506103b161085a366004613bbe565b6120f0565b34801561086b57600080fd5b5061038e60115481565b34801561088157600080fd5b5061038e600a81565b34801561089657600080fd5b506104236122e0565b3480156108ab57600080fd5b506104236108ba366004613e89565b6123d3565b3480156108cb57600080fd5b506103596108da366004613ea6565b73ffffffffffffffffffffffffffffffffffffffff918216600090815260056020908152604080832093909416825291909152205460ff1690565b34801561092157600080fd5b50610423610930366004613ed4565b61249e565b34801561094157600080fd5b50610423610950366004613b18565b612715565b34801561096157600080fd5b50610423610970366004613d49565b612842565b34801561098157600080fd5b50610423610990366004613b18565b6128d6565b60007fffffffff0000000000000000000000000000000000000000000000000000000082167f80ac58cd000000000000000000000000000000000000000000000000000000001480610a2857507fffffffff0000000000000000000000000000000000000000000000000000000082167f5b5e139f00000000000000000000000000000000000000000000000000000000145b80610a7457507f01ffc9a7000000000000000000000000000000000000000000000000000000007fffffffff000000000000000000000000000000000000000000000000000000008316145b92915050565b6000610a74826103e8610a8d8180613f48565b61299e565b606060018054610aa190613f60565b80601f0160208091040260200160405190810160405280929190818152602001828054610acd90613f60565b8015610b1a5780601f10610aef57610100808354040283529160200191610b1a565b820191906000526020600020905b815481529060010190602001808311610afd57829003601f168201915b5050505050905090565b60008181526003602052604081205473ffffffffffffffffffffffffffffffffffffffff16610bda576040517f08c379a000000000000000000000000000000000000000000000000000000000815260206004820152602c60248201527f4552433732313a20617070726f76656420717565727920666f72206e6f6e657860448201527f697374656e7420746f6b656e000000000000000000000000000000000000000060648201526084015b60405180910390fd5b5060009081526004602052604090205473ffffffffffffffffffffffffffffffffffffffff1690565b6000610c0e82611421565b90508073ffffffffffffffffffffffffffffffffffffffff168373ffffffffffffffffffffffffffffffffffffffff161415610ccc576040517f08c379a000000000000000000000000000000000000000000000000000000000815260206004820152602160248201527f4552433732313a20617070726f76616c20746f2063757272656e74206f776e6560448201527f72000000000000000000000000000000000000000000000000000000000000006064820152608401610bd1565b3373ffffffffffffffffffffffffffffffffffffffff82161480610cf55750610cf581336108da565b610d81576040517f08c379a000000000000000000000000000000000000000000000000000000000815260206004820152603860248201527f4552433732313a20617070726f76652063616c6c6572206973206e6f74206f7760448201527f6e6572206e6f7220617070726f76656420666f7220616c6c00000000000000006064820152608401610bd1565b610d8b8383612aa7565b505050565b610d9a3382612b47565b610e26576040517f08c379a000000000000000000000000000000000000000000000000000000000815260206004820152603160248201527f4552433732313a207472616e736665722063616c6c6572206973206e6f74206f60448201527f776e6572206e6f7220617070726f7665640000000000000000000000000000006064820152608401610bd1565b610d8b838383612cb7565b60065473ffffffffffffffffffffffffffffffffffffffff163314610eb2576040517f08c379a000000000000000000000000000000000000000000000000000000000815260206004820181905260248201527f4f776e61626c653a2063616c6c6572206973206e6f7420746865206f776e65726044820152606401610bd1565b6000610ebf600143613fb4565b409050610ecb81612ea8565b50565b60065473ffffffffffffffffffffffffffffffffffffffff163314610f4f576040517f08c379a000000000000000000000000000000000000000000000000000000000815260206004820181905260248201527f4f776e61626c653a2063616c6c6572206973206e6f7420746865206f776e65726044820152606401610bd1565b6040514790339082156108fc029083906000818181858888f19350505050158015610f7e573d6000803e3d6000fd5b5050565b610d8b83838360405180602001604052806000815250611eed565b600e547501000000000000000000000000000000000000000000900460ff16611022576040517f08c379a000000000000000000000000000000000000000000000000000000000815260206004820152601460248201527f4d55544154494f4e535f4e4f545f4143544956450000000000000000000000006044820152606401610bd1565b32331461108b576040517f08c379a000000000000000000000000000000000000000000000000000000000815260206004820152600d60248201527f434f4e54524143545f43414c4c000000000000000000000000000000000000006044820152606401610bd1565b600d546040517f6352211e00000000000000000000000000000000000000000000000000000000815260048101849052339173ffffffffffffffffffffffffffffffffffffffff1690636352211e90602401602060405180830381865afa1580156110fa573d6000803e3d6000fd5b505050506040513d601f19601f8201168201806040525081019061111e9190613fcb565b73ffffffffffffffffffffffffffffffffffffffff161461119b576040517f08c379a000000000000000000000000000000000000000000000000000000000815260206004820152601160248201527f4e4f545f43414c4c4552535f544f4b454e0000000000000000000000000000006044820152606401610bd1565b60038110611205576040517f08c379a000000000000000000000000000000000000000000000000000000000815260206004820152601260248201527f494e56414c49445f534552554d5f5459504500000000000000000000000000006044820152606401610bd1565b60008161121f57611218836103e8613f48565b905061127b565b816001141561123f57826112356103e880613f48565b6112189190613f48565b6012546103e861124f8180613f48565b6112599190613f48565b6112639190613f48565b60128054919250600061127583613fe8565b91905055505b6112853382612f5d565b600e546040517fc6ae087d0000000000000000000000000000000000000000000000000000000081523360048201526024810184905273ffffffffffffffffffffffffffffffffffffffff9091169063c6ae087d90604401600060405180830381600087803b1580156112f757600080fd5b505af115801561130b573d6000803e3d6000fd5b505050508160021415610d8b57610d8b816130e4565b60065473ffffffffffffffffffffffffffffffffffffffff1633146113a2576040517f08c379a000000000000000000000000000000000000000000000000000000000815260206004820181905260248201527f4f776e61626c653a2063616c6c6572206973206e6f7420746865206f776e65726044820152606401610bd1565b60105460ff1661140e576040517f08c379a000000000000000000000000000000000000000000000000000000000815260206004820152601060248201527f4e4f545f52455645414c45445f594554000000000000000000000000000000006044820152606401610bd1565b8051610f7e90600c906020840190613a0b565b60008181526003602052604081205473ffffffffffffffffffffffffffffffffffffffff1680610a74576040517f08c379a000000000000000000000000000000000000000000000000000000000815260206004820152602960248201527f4552433732313a206f776e657220717565727920666f72206e6f6e657869737460448201527f656e7420746f6b656e00000000000000000000000000000000000000000000006064820152608401610bd1565b60065473ffffffffffffffffffffffffffffffffffffffff163314611554576040517f08c379a000000000000000000000000000000000000000000000000000000000815260206004820181905260248201527f4f776e61626c653a2063616c6c6572206973206e6f7420746865206f776e65726044820152606401610bd1565b600d80547fffffffffffffffffffffffff00000000000000000000000000000000000000001673ffffffffffffffffffffffffffffffffffffffff92909216919091179055565b600c80546115a890613f60565b80601f01602080910402602001604051908101604052809291908181526020018280546115d490613f60565b80156116215780601f106115f657610100808354040283529160200191611621565b820191906000526020600020905b81548152906001019060200180831161160457829003601f168201915b505050505081565b600b80546115a890613f60565b6000610a748282600a6103e861164c8180613f48565b6116569190613f48565b610a8d9190613f48565b60065473ffffffffffffffffffffffffffffffffffffffff1633146116e1576040517f08c379a000000000000000000000000000000000000000000000000000000000815260206004820181905260248201527f4f776e61626c653a2063616c6c6572206973206e6f7420746865206f776e65726044820152606401610bd1565b6116eb6000613103565b565b6000610a74826116ff6103e880613f48565b6103e86116568180613f48565b60065473ffffffffffffffffffffffffffffffffffffffff16331461178d576040517f08c379a000000000000000000000000000000000000000000000000000000000815260206004820181905260248201527f4f776e61626c653a2063616c6c6572206973206e6f7420746865206f776e65726044820152606401610bd1565b806103e861179b8180613f48565b6117a59190613f48565b111561180d576040517f08c379a000000000000000000000000000000000000000000000000000000000815260206004820152600f60248201527f494e56414c49445f4d4547415f494400000000000000000000000000000000006044820152606401610bd1565b600061181a600143613fb4565b409050610f7e828261317a565b3373ffffffffffffffffffffffffffffffffffffffff7f000000000000000000000000000000000000000000000000000000000000000016146118c6576040517f08c379a000000000000000000000000000000000000000000000000000000000815260206004820152601f60248201527f4f6e6c7920565246436f6f7264696e61746f722063616e2066756c66696c6c006044820152606401610bd1565b610f7e828261329c565b606060028054610aa190613f60565b6000610a74826103e86118f28180613f48565b6118fc9190613f48565b600a6103e861164c8180613f48565b60065473ffffffffffffffffffffffffffffffffffffffff16331461198c576040517f08c379a000000000000000000000000000000000000000000000000000000000815260206004820181905260248201527f4f776e61626c653a2063616c6c6572206973206e6f7420746865206f776e65726044820152606401610bd1565b6040517f70a0823100000000000000000000000000000000000000000000000000000000815230600482015260009073ffffffffffffffffffffffffffffffffffffffff8316906370a0823190602401602060405180830381865afa1580156119f9573d6000803e3d6000fd5b505050506040513d601f19601f82011682018060405250810190611a1d9190614021565b905060008273ffffffffffffffffffffffffffffffffffffffff1663a9059cbb611a5c60065473ffffffffffffffffffffffffffffffffffffffff1690565b6040517fffffffff0000000000000000000000000000000000000000000000000000000060e084901b16815273ffffffffffffffffffffffffffffffffffffffff9091166004820152602481018590526044016020604051808303816000875af1158015611ace573d6000803e3d6000fd5b505050506040513d601f19601f82011682018060405250810190611af2919061403a565b905080610d8b576040517f08c379a000000000000000000000000000000000000000000000000000000000815260206004820152601560248201527f544f4b454e5f5452414e534645525f4641494c454400000000000000000000006044820152606401610bd1565b600e5474010000000000000000000000000000000000000000900460ff16611bdf576040517f08c379a000000000000000000000000000000000000000000000000000000000815260206004820152601660248201527f5055424c49435f53414c455f4e4f545f414354495645000000000000000000006044820152606401610bd1565b323314611c48576040517f08c379a000000000000000000000000000000000000000000000000000000000815260206004820152600d60248201527f434f4e54524143545f43414c4c000000000000000000000000000000000000006044820152606401610bd1565b600a811115611cb3576040517f08c379a000000000000000000000000000000000000000000000000000000000815260206004820152600d60248201527f455843454544535f4c494d4954000000000000000000000000000000000000006044820152606401610bd1565b611cc481666a94d74f430000614057565b3414611d2c576040517f08c379a000000000000000000000000000000000000000000000000000000000815260206004820152600f60248201527f494e434f52524543545f56414c554500000000000000000000000000000000006044820152606401610bd1565b6011546103e8611d3c8383613f48565b1115611da4576040517f08c379a000000000000000000000000000000000000000000000000000000000815260206004820152601260248201527f4d41585f535550504c595f5245414348454400000000000000000000000000006044820152606401610bd1565b8160116000828254611db69190613f48565b90915550600090505b82811015610d8b57611dda33611dd58385613f48565b612f5d565b80611de481613fe8565b915050611dbf565b610f7e3383836132c3565b60606000611e0483611636565b67ffffffffffffffff811115611e1c57611e1c613c66565b604051908082528060200260200182016040528015611e45578160200160208202803683370190505b50905060005b600a6103e8611e5a8180613f48565b611e649190613f48565b611e6e9190613f48565b811015611ed65760008181526003602052604090205473ffffffffffffffffffffffffffffffffffffffff85811691161415611ec45780828281518110611eb757611eb7614094565b6020026020010181815250505b80611ece81613fe8565b915050611e4b565b5092915050565b6000610a748260006103e861299e565b611ef73383612b47565b611f83576040517f08c379a000000000000000000000000000000000000000000000000000000000815260206004820152603160248201527f4552433732313a207472616e736665722063616c6c6572206973206e6f74206f60448201527f776e6572206e6f7220617070726f7665640000000000000000000000000000006064820152608401610bd1565b611f8f848484846133f1565b50505050565b60008082611fb057611fa9846103e8613f48565b9050611ff7565b8260011415611fd05783611fc66103e880613f48565b611fa99190613f48565b6012546103e8611fe08180613f48565b611fea9190613f48565b611ff49190613f48565b90505b60009081526003602052604090205473ffffffffffffffffffffffffffffffffffffffff16159392505050565b60065473ffffffffffffffffffffffffffffffffffffffff1633146120a5576040517f08c379a000000000000000000000000000000000000000000000000000000000815260206004820181905260248201527f4f776e61626c653a2063616c6c6572206973206e6f7420746865206f776e65726044820152606401610bd1565b600e80549115157501000000000000000000000000000000000000000000027fffffffffffffffffffff00ffffffffffffffffffffffffffffffffffffffffff909216919091179055565b60008181526003602052604090205460609073ffffffffffffffffffffffffffffffffffffffff166121a4576040517f08c379a000000000000000000000000000000000000000000000000000000000815260206004820152602f60248201527f4552433732314d657461646174613a2055524920717565727920666f72206e6f60448201527f6e6578697374656e7420746f6b656e00000000000000000000000000000000006064820152608401610bd1565b816103e881101561226e5760105460ff1661224c57600b80546121c690613f60565b80601f01602080910402602001604051908101604052809291908181526020018280546121f290613f60565b801561223f5780601f106122145761010080835404028352916020019161223f565b820191906000526020600020905b81548152906001019060200180831161222257829003601f168201915b5050505050915050919050565b6103e8600a548461225d9190613f48565b61226791906140f2565b90506122ad565b6103e861227b8180613f48565b6122859190613f48565b83106122ad5750600082815260146020526040902054806122ad57600b80546121c690613f60565b600c6122b882613494565b6040516020016122c9929190614122565b604051602081830303815290604052915050919050565b60065473ffffffffffffffffffffffffffffffffffffffff163314612361576040517f08c379a000000000000000000000000000000000000000000000000000000000815260206004820181905260248201527f4f776e61626c653a2063616c6c6572206973206e6f7420746865206f776e65726044820152606401610bd1565b600a54156123cb576040517f08c379a000000000000000000000000000000000000000000000000000000000815260206004820152600f60248201527f52414e444f4d5f534545445f53455400000000000000000000000000000000006044820152606401610bd1565b610ecb6135c6565b60065473ffffffffffffffffffffffffffffffffffffffff163314612454576040517f08c379a000000000000000000000000000000000000000000000000000000000815260206004820181905260248201527f4f776e61626c653a2063616c6c6572206973206e6f7420746865206f776e65726044820152606401610bd1565b600e805491151574010000000000000000000000000000000000000000027fffffffffffffffffffffff00ffffffffffffffffffffffffffffffffffffffff909216919091179055565b60065473ffffffffffffffffffffffffffffffffffffffff16331461251f576040517f08c379a000000000000000000000000000000000000000000000000000000000815260206004820181905260248201527f4f776e61626c653a2063616c6c6572206973206e6f7420746865206f776e65726044820152606401610bd1565b600a54612588576040517f08c379a000000000000000000000000000000000000000000000000000000000815260206004820152601360248201527f52414e444f4d5f534545445f4e4f545f534554000000000000000000000000006044820152606401610bd1565b60105460ff16156125f5576040517f08c379a000000000000000000000000000000000000000000000000000000000815260206004820152601060248201527f414c52454144595f52455645414c4544000000000000000000000000000000006044820152606401610bd1565b60408051602081018390520160405160208183030381529060405280519060200120600f5414612681576040517f08c379a000000000000000000000000000000000000000000000000000000000815260206004820152601a60248201527f5345435245545f484153485f444f45535f4e4f545f4d415443480000000000006044820152606401610bd1565b601080547fffffffffffffffffffffffffffffffffffffffffffffffffffffffffffffff00166001179055600a546040516126ca91908390602001918252602082015260400190565b604080517fffffffffffffffffffffffffffffffffffffffffffffffffffffffffffffffe08184030181529190528051602091820120600a558251610d8b91600c9190850190613a0b565b60065473ffffffffffffffffffffffffffffffffffffffff163314612796576040517f08c379a000000000000000000000000000000000000000000000000000000000815260206004820181905260248201527f4f776e61626c653a2063616c6c6572206973206e6f7420746865206f776e65726044820152606401610bd1565b73ffffffffffffffffffffffffffffffffffffffff8116612839576040517f08c379a000000000000000000000000000000000000000000000000000000000815260206004820152602660248201527f4f776e61626c653a206e6577206f776e657220697320746865207a65726f206160448201527f64647265737300000000000000000000000000000000000000000000000000006064820152608401610bd1565b610ecb81613103565b60065473ffffffffffffffffffffffffffffffffffffffff1633146128c3576040517f08c379a000000000000000000000000000000000000000000000000000000000815260206004820181905260248201527f4f776e61626c653a2063616c6c6572206973206e6f7420746865206f776e65726044820152606401610bd1565b8051610f7e90600b906020840190613a0b565b60065473ffffffffffffffffffffffffffffffffffffffff163314612957576040517f08c379a000000000000000000000000000000000000000000000000000000000815260206004820181905260248201527f4f776e61626c653a2063616c6c6572206973206e6f7420746865206f776e65726044820152606401610bd1565b600e80547fffffffffffffffffffffffff00000000000000000000000000000000000000001673ffffffffffffffffffffffffffffffffffffffff92909216919091179055565b600073ffffffffffffffffffffffffffffffffffffffff8416612a43576040517f08c379a000000000000000000000000000000000000000000000000000000000815260206004820152602a60248201527f4552433732313a2062616c616e636520717565727920666f7220746865207a6560448201527f726f2061646472657373000000000000000000000000000000000000000000006064820152608401610bd1565b6000835b83811015612a9e5760008181526003602052604090205473ffffffffffffffffffffffffffffffffffffffff87811691161415612a8c5781612a8881613fe8565b9250505b80612a9681613fe8565b915050612a47565b50949350505050565b600081815260046020526040902080547fffffffffffffffffffffffff00000000000000000000000000000000000000001673ffffffffffffffffffffffffffffffffffffffff84169081179091558190612b0182611421565b73ffffffffffffffffffffffffffffffffffffffff167f8c5be1e5ebec7d5bd14f71427d1e84f3dd0314c0f7b2291e5b200ac8c7c3b92560405160405180910390a45050565b60008181526003602052604081205473ffffffffffffffffffffffffffffffffffffffff16612bf8576040517f08c379a000000000000000000000000000000000000000000000000000000000815260206004820152602c60248201527f4552433732313a206f70657261746f7220717565727920666f72206e6f6e657860448201527f697374656e7420746f6b656e00000000000000000000000000000000000000006064820152608401610bd1565b6000612c0383611421565b90508073ffffffffffffffffffffffffffffffffffffffff168473ffffffffffffffffffffffffffffffffffffffff161480612c7257508373ffffffffffffffffffffffffffffffffffffffff16612c5a84610b24565b73ffffffffffffffffffffffffffffffffffffffff16145b80612caf575073ffffffffffffffffffffffffffffffffffffffff80821660009081526005602090815260408083209388168352929052205460ff165b949350505050565b8273ffffffffffffffffffffffffffffffffffffffff16612cd782611421565b73ffffffffffffffffffffffffffffffffffffffff1614612d7a576040517f08c379a000000000000000000000000000000000000000000000000000000000815260206004820152602960248201527f4552433732313a207472616e73666572206f6620746f6b656e2074686174206960448201527f73206e6f74206f776e00000000000000000000000000000000000000000000006064820152608401610bd1565b73ffffffffffffffffffffffffffffffffffffffff8216612e1c576040517f08c379a0000000000000000000000000000000000000000000000000000000008152602060048201526024808201527f4552433732313a207472616e7366657220746f20746865207a65726f2061646460448201527f72657373000000000000000000000000000000000000000000000000000000006064820152608401610bd1565b612e27600082612aa7565b60008181526003602052604080822080547fffffffffffffffffffffffff00000000000000000000000000000000000000001673ffffffffffffffffffffffffffffffffffffffff86811691821790925591518493918716917fddf252ad1be2c89b69c2b068fc378daa952ba7f163c4a11628f55a4df523b3ef91a4505050565b600a5415612f12576040517f08c379a000000000000000000000000000000000000000000000000000000000815260206004820152600f60248201527f52414e444f4d5f534545445f53455400000000000000000000000000000000006044820152606401610bd1565b600954612f3f827fffffffffffffffffffffffffffffffffffffffffffffffffffffffffffffffff613fb4565b1015612f5857600954612f529082613fb4565b600a5550565b600a55565b73ffffffffffffffffffffffffffffffffffffffff8216612fda576040517f08c379a000000000000000000000000000000000000000000000000000000000815260206004820181905260248201527f4552433732313a206d696e7420746f20746865207a65726f20616464726573736044820152606401610bd1565b60008181526003602052604090205473ffffffffffffffffffffffffffffffffffffffff1615613066576040517f08c379a000000000000000000000000000000000000000000000000000000000815260206004820152601c60248201527f4552433732313a20746f6b656e20616c7265616479206d696e746564000000006044820152606401610bd1565b60008181526003602052604080822080547fffffffffffffffffffffffff00000000000000000000000000000000000000001673ffffffffffffffffffffffffffffffffffffffff861690811790915590518392907fddf252ad1be2c89b69c2b068fc378daa952ba7f163c4a11628f55a4df523b3ef908290a45050565b60006130ee6135c6565b60009081526015602052604090209190915550565b6006805473ffffffffffffffffffffffffffffffffffffffff8381167fffffffffffffffffffffffff0000000000000000000000000000000000000000831681179093556040519116919082907f8be0079c531659141344cd1fd0a4f28419497f9722a3daafe3b4186f6b6457e090600090a35050565b60008281526003602052604090205473ffffffffffffffffffffffffffffffffffffffff16613205576040517f08c379a000000000000000000000000000000000000000000000000000000000815260206004820152601160248201527f4d4547415f49445f4e4f545f464f554e440000000000000000000000000000006044820152606401610bd1565b6000828152601460205260409020541561327b576040517f08c379a000000000000000000000000000000000000000000000000000000000815260206004820152601360248201527f4d4547415f49445f414c52454144595f534554000000000000000000000000006044820152606401610bd1565b6132866013826135db565b6000928352601460205260409092209190915550565b600082815260156020526040902054806132b957610d8b82612ea8565b610d8b818361317a565b8173ffffffffffffffffffffffffffffffffffffffff168373ffffffffffffffffffffffffffffffffffffffff161415613359576040517f08c379a000000000000000000000000000000000000000000000000000000000815260206004820152601960248201527f4552433732313a20617070726f766520746f2063616c6c6572000000000000006044820152606401610bd1565b73ffffffffffffffffffffffffffffffffffffffff83811660008181526005602090815260408083209487168084529482529182902080547fffffffffffffffffffffffffffffffffffffffffffffffffffffffffffffff001686151590811790915591519182527f17307eab39ab6107e8899845ad3d59bd9653f200f220920489ca2b5937696c31910160405180910390a3505050565b6133fc848484612cb7565b613408848484846135f8565b611f8f576040517f08c379a000000000000000000000000000000000000000000000000000000000815260206004820152603260248201527f4552433732313a207472616e7366657220746f206e6f6e20455243373231526560448201527f63656976657220696d706c656d656e74657200000000000000000000000000006064820152608401610bd1565b6060816134d457505060408051808201909152600181527f3000000000000000000000000000000000000000000000000000000000000000602082015290565b8160005b81156134fe57806134e881613fe8565b91506134f79050600a8361422c565b91506134d8565b60008167ffffffffffffffff81111561351957613519613c66565b6040519080825280601f01601f191660200182016040528015613543576020820181803683370190505b5090505b8415612caf57613558600183613fb4565b9150613565600a866140f2565b613570906030613f48565b60f81b81838151811061358557613585614094565b60200101907effffffffffffffffffffffffffffffffffffffffffffffffffffffffffffff1916908160001a9053506135bf600a8661422c565b9450613547565b60006135d66007546008546137e8565b905090565b815460009081906135ec90846140f2565b9050612caf848261396c565b600073ffffffffffffffffffffffffffffffffffffffff84163b156137dd576040517f150b7a0200000000000000000000000000000000000000000000000000000000815273ffffffffffffffffffffffffffffffffffffffff85169063150b7a029061366f903390899088908890600401614240565b6020604051808303816000875af19250505080156136c8575060408051601f3d9081017fffffffffffffffffffffffffffffffffffffffffffffffffffffffffffffffe01682019092526136c591810190614289565b60015b613792573d8080156136f6576040519150601f19603f3d011682016040523d82523d6000602084013e6136fb565b606091505b50805161378a576040517f08c379a000000000000000000000000000000000000000000000000000000000815260206004820152603260248201527f4552433732313a207472616e7366657220746f206e6f6e20455243373231526560448201527f63656976657220696d706c656d656e74657200000000000000000000000000006064820152608401610bd1565b805181602001fd5b7fffffffff00000000000000000000000000000000000000000000000000000000167f150b7a0200000000000000000000000000000000000000000000000000000000149050612caf565b506001949350505050565b60007f000000000000000000000000000000000000000000000000000000000000000073ffffffffffffffffffffffffffffffffffffffff16634000aea07f000000000000000000000000000000000000000000000000000000000000000084866000604051602001613865929190918252602082015260400190565b6040516020818303038152906040526040518463ffffffff1660e01b8152600401613892939291906142a6565b6020604051808303816000875af11580156138b1573d6000803e3d6000fd5b505050506040513d601f19601f820116820180604052508101906138d5919061403a565b5060008381526020818152604080832054815180840188905280830185905230606082015260808082018390528351808303909101815260a09091019092528151918301919091208684529290915261392f906001613f48565b6000858152602081815260409182902092909255805180830187905280820184905281518082038301815260609091019091528051910120612caf565b60008083838154811061398157613981614094565b9060005260206000200154905083600185805490506139a09190613fb4565b815481106139b0576139b0614094565b90600052602060002001548484815481106139cd576139cd614094565b9060005260206000200181905550838054806139eb576139eb6142db565b600190038181906000526020600020016000905590558091505092915050565b828054613a1790613f60565b90600052602060002090601f016020900481019282613a395760008555613a7f565b82601f10613a5257805160ff1916838001178555613a7f565b82800160010185558215613a7f579182015b82811115613a7f578251825591602001919060010190613a64565b50613a8b929150613a8f565b5090565b5b80821115613a8b5760008155600101613a90565b7fffffffff0000000000000000000000000000000000000000000000000000000081168114610ecb57600080fd5b600060208284031215613ae457600080fd5b8135613aef81613aa4565b9392505050565b73ffffffffffffffffffffffffffffffffffffffff81168114610ecb57600080fd5b600060208284031215613b2a57600080fd5b8135613aef81613af6565b60005b83811015613b50578181015183820152602001613b38565b83811115611f8f5750506000910152565b60008151808452613b79816020860160208601613b35565b601f017fffffffffffffffffffffffffffffffffffffffffffffffffffffffffffffffe0169290920160200192915050565b602081526000613aef6020830184613b61565b600060208284031215613bd057600080fd5b5035919050565b60008060408385031215613bea57600080fd5b8235613bf581613af6565b946020939093013593505050565b600080600060608486031215613c1857600080fd5b8335613c2381613af6565b92506020840135613c3381613af6565b929592945050506040919091013590565b60008060408385031215613c5757600080fd5b50508035926020909101359150565b7f4e487b7100000000000000000000000000000000000000000000000000000000600052604160045260246000fd5b600067ffffffffffffffff80841115613cb057613cb0613c66565b604051601f85017fffffffffffffffffffffffffffffffffffffffffffffffffffffffffffffffe0908116603f01168101908282118183101715613cf657613cf6613c66565b81604052809350858152868686011115613d0f57600080fd5b858560208301376000602087830101525050509392505050565b600082601f830112613d3a57600080fd5b613aef83833560208501613c95565b600060208284031215613d5b57600080fd5b813567ffffffffffffffff811115613d7257600080fd5b612caf84828501613d29565b8015158114610ecb57600080fd5b60008060408385031215613d9f57600080fd5b8235613daa81613af6565b91506020830135613dba81613d7e565b809150509250929050565b6020808252825182820181905260009190848201906040850190845b81811015613dfd57835183529284019291840191600101613de1565b50909695505050505050565b60008060008060808587031215613e1f57600080fd5b8435613e2a81613af6565b93506020850135613e3a81613af6565b925060408501359150606085013567ffffffffffffffff811115613e5d57600080fd5b8501601f81018713613e6e57600080fd5b613e7d87823560208401613c95565b91505092959194509250565b600060208284031215613e9b57600080fd5b8135613aef81613d7e565b60008060408385031215613eb957600080fd5b8235613ec481613af6565b91506020830135613dba81613af6565b60008060408385031215613ee757600080fd5b823567ffffffffffffffff811115613efe57600080fd5b613f0a85828601613d29565b95602094909401359450505050565b7f4e487b7100000000000000000000000000000000000000000000000000000000600052601160045260246000fd5b60008219821115613f5b57613f5b613f19565b500190565b600181811c90821680613f7457607f821691505b60208210811415613fae577f4e487b7100000000000000000000000000000000000000000000000000000000600052602260045260246000fd5b50919050565b600082821015613fc657613fc6613f19565b500390565b600060208284031215613fdd57600080fd5b8151613aef81613af6565b60007fffffffffffffffffffffffffffffffffffffffffffffffffffffffffffffffff82141561401a5761401a613f19565b5060010190565b60006020828403121561403357600080fd5b5051919050565b60006020828403121561404c57600080fd5b8151613aef81613d7e565b6000817fffffffffffffffffffffffffffffffffffffffffffffffffffffffffffffffff048311821515161561408f5761408f613f19565b500290565b7f4e487b7100000000000000000000000000000000000000000000000000000000600052603260045260246000fd5b7f4e487b7100000000000000000000000000000000000000000000000000000000600052601260045260246000fd5b600082614101576141016140c3565b500690565b60008151614118818560208601613b35565b9290920192915050565b600080845481600182811c91508083168061413e57607f831692505b6020808410821415614177577f4e487b710000000000000000000000000000000000000000000000000000000086526022600452602486fd5b81801561418b57600181146141ba576141e7565b7fffffffffffffffffffffffffffffffffffffffffffffffffffffffffffffff008616895284890196506141e7565b60008b81526020902060005b868110156141df5781548b8201529085019083016141c6565b505084890196505b5050505050506142236141fa8286614106565b7f2e6a736f6e000000000000000000000000000000000000000000000000000000815260050190565b95945050505050565b60008261423b5761423b6140c3565b500490565b600073ffffffffffffffffffffffffffffffffffffffff80871683528086166020840152508360408301526080606083015261427f6080830184613b61565b9695505050505050565b60006020828403121561429b57600080fd5b8151613aef81613aa4565b73ffffffffffffffffffffffffffffffffffffffff841681528260208201526060604082015260006142236060830184613b61565b7f4e487b7100000000000000000000000000000000000000000000000000000000600052603160045260246000fdfea264697066735822122029ce4750f15805e188180863a8a519d91230df258085edfeb2355af321faea7664736f6c634300080b0033",
  "linkReferences": {},
  "deployedLinkReferences": {}
}