{
  "_format": "hh-sol-artifact-1",
  "contractName": "Mutants",
  "sourceName": "contracts/Mutants.sol",
  "abi": [
    {
      "inputs": [],
      "stateMutability": "nonpayable",
      "type": "constructor"
    },
    {
      "anonymous": false,
      "inputs": [
        {
          "indexed": true,
          "internalType": "address",
          "name": "owner",
          "type": "address"
        },
        {
          "indexed": true,
          "internalType": "address",
          "name": "approved",
          "type": "address"
        },
        {
          "indexed": true,
          "internalType": "uint256",
          "name": "tokenId",
          "type": "uint256"
        }
      ],
      "name": "Approval",
      "type": "event"
    },
    {
      "anonymous": false,
      "inputs": [
        {
          "indexed": true,
          "internalType": "address",
          "name": "owner",
          "type": "address"
        },
        {
          "indexed": true,
          "internalType": "address",
          "name": "operator",
          "type": "address"
        },
        {
          "indexed": false,
          "internalType": "bool",
          "name": "approved",
          "type": "bool"
        }
      ],
      "name": "ApprovalForAll",
      "type": "event"
    },
    {
      "anonymous": false,
      "inputs": [
        {
          "indexed": true,
          "internalType": "address",
          "name": "previousOwner",
          "type": "address"
        },
        {
          "indexed": true,
          "internalType": "address",
          "name": "newOwner",
          "type": "address"
        }
      ],
      "name": "OwnershipTransferred",
      "type": "event"
    },
    {
      "anonymous": false,
      "inputs": [
        {
          "indexed": true,
          "internalType": "address",
          "name": "from",
          "type": "address"
        },
        {
          "indexed": true,
          "internalType": "address",
          "name": "to",
          "type": "address"
        },
        {
          "indexed": true,
          "internalType": "uint256",
          "name": "tokenId",
          "type": "uint256"
        }
      ],
      "name": "Transfer",
      "type": "event"
    },
    {
      "inputs": [],
      "name": "MAX_SUPPLY_M",
      "outputs": [
        {
          "internalType": "uint256",
          "name": "",
          "type": "uint256"
        }
      ],
      "stateMutability": "view",
      "type": "function"
    },
    {
      "inputs": [],
      "name": "MAX_SUPPLY_M3",
      "outputs": [
        {
          "internalType": "uint256",
          "name": "",
          "type": "uint256"
        }
      ],
      "stateMutability": "view",
      "type": "function"
    },
    {
      "inputs": [],
      "name": "MAX_SUPPLY_PUBLIC",
      "outputs": [
        {
          "internalType": "uint256",
          "name": "",
          "type": "uint256"
        }
      ],
      "stateMutability": "view",
      "type": "function"
    },
    {
      "inputs": [],
      "name": "PRICE",
      "outputs": [
        {
          "internalType": "uint256",
          "name": "",
          "type": "uint256"
        }
      ],
      "stateMutability": "view",
      "type": "function"
    },
    {
      "inputs": [],
      "name": "PURCHASE_LIMIT",
      "outputs": [
        {
          "internalType": "uint256",
          "name": "",
          "type": "uint256"
        }
      ],
      "stateMutability": "view",
      "type": "function"
    },
    {
      "inputs": [
        {
          "internalType": "address",
          "name": "to",
          "type": "address"
        },
        {
          "internalType": "uint256",
          "name": "tokenId",
          "type": "uint256"
        }
      ],
      "name": "approve",
      "outputs": [],
      "stateMutability": "nonpayable",
      "type": "function"
    },
    {
      "inputs": [
        {
          "internalType": "address",
          "name": "owner",
          "type": "address"
        }
      ],
      "name": "balanceOf",
      "outputs": [
        {
          "internalType": "uint256",
          "name": "",
          "type": "uint256"
        }
      ],
      "stateMutability": "view",
      "type": "function"
    },
    {
      "inputs": [
        {
          "internalType": "address",
          "name": "owner",
          "type": "address"
        }
      ],
      "name": "balanceOfM0",
      "outputs": [
        {
          "internalType": "uint256",
          "name": "",
          "type": "uint256"
        }
      ],
      "stateMutability": "view",
      "type": "function"
    },
    {
      "inputs": [
        {
          "internalType": "address",
          "name": "owner",
          "type": "address"
        }
      ],
      "name": "balanceOfM1",
      "outputs": [
        {
          "internalType": "uint256",
          "name": "",
          "type": "uint256"
        }
      ],
      "stateMutability": "view",
      "type": "function"
    },
    {
      "inputs": [
        {
          "internalType": "address",
          "name": "owner",
          "type": "address"
        }
      ],
      "name": "balanceOfM2",
      "outputs": [
        {
          "internalType": "uint256",
          "name": "",
          "type": "uint256"
        }
      ],
      "stateMutability": "view",
      "type": "function"
    },
    {
      "inputs": [
        {
          "internalType": "address",
          "name": "owner",
          "type": "address"
        }
      ],
      "name": "balanceOfM3",
      "outputs": [
        {
          "internalType": "uint256",
          "name": "",
          "type": "uint256"
        }
      ],
      "stateMutability": "view",
      "type": "function"
    },
    {
      "inputs": [],
      "name": "baseURI",
      "outputs": [
        {
          "internalType": "string",
          "name": "",
          "type": "string"
        }
      ],
      "stateMutability": "view",
      "type": "function"
    },
    {
      "inputs": [
        {
          "internalType": "uint256",
          "name": "mutantId",
          "type": "uint256"
        }
      ],
      "name": "forceFulfillRandomMegaMutant",
      "outputs": [],
      "stateMutability": "nonpayable",
      "type": "function"
    },
    {
      "inputs": [],
      "name": "forceFulfillRandomness",
      "outputs": [],
      "stateMutability": "nonpayable",
      "type": "function"
    },
    {
      "inputs": [
        {
          "internalType": "uint256",
          "name": "tokenId",
          "type": "uint256"
        }
      ],
      "name": "getApproved",
      "outputs": [
        {
          "internalType": "address",
          "name": "",
          "type": "address"
        }
      ],
      "stateMutability": "view",
      "type": "function"
    },
    {
      "inputs": [
        {
          "internalType": "address",
          "name": "owner",
          "type": "address"
        },
        {
          "internalType": "address",
          "name": "operator",
          "type": "address"
        }
      ],
      "name": "isApprovedForAll",
      "outputs": [
        {
          "internalType": "bool",
          "name": "",
          "type": "bool"
        }
      ],
      "stateMutability": "view",
      "type": "function"
    },
    {
      "inputs": [
        {
          "internalType": "uint256",
          "name": "amount",
          "type": "uint256"
        }
      ],
      "name": "mint",
      "outputs": [],
      "stateMutability": "payable",
      "type": "function"
    },
    {
      "inputs": [
        {
          "internalType": "uint256",
          "name": "nftId",
          "type": "uint256"
        },
        {
          "internalType": "uint256",
          "name": "serumType",
          "type": "uint256"
        }
      ],
      "name": "mutate",
      "outputs": [],
      "stateMutability": "nonpayable",
      "type": "function"
    },
    {
      "inputs": [],
      "name": "mutationsActive",
      "outputs": [
        {
          "internalType": "bool",
          "name": "",
          "type": "bool"
        }
      ],
      "stateMutability": "view",
      "type": "function"
    },
    {
      "inputs": [],
      "name": "name",
      "outputs": [
        {
          "internalType": "string",
          "name": "",
          "type": "string"
        }
      ],
      "stateMutability": "view",
      "type": "function"
    },
    {
      "inputs": [],
      "name": "owner",
      "outputs": [
        {
          "internalType": "address",
          "name": "",
          "type": "address"
        }
      ],
      "stateMutability": "view",
      "type": "function"
    },
    {
      "inputs": [
        {
          "internalType": "uint256",
          "name": "tokenId",
          "type": "uint256"
        }
      ],
      "name": "ownerOf",
      "outputs": [
        {
          "internalType": "address",
          "name": "",
          "type": "address"
        }
      ],
      "stateMutability": "view",
      "type": "function"
    },
    {
      "inputs": [],
      "name": "publicSaleActive",
      "outputs": [
        {
          "internalType": "bool",
          "name": "",
          "type": "bool"
        }
      ],
      "stateMutability": "view",
      "type": "function"
    },
    {
      "inputs": [
        {
          "internalType": "bytes32",
          "name": "requestId",
          "type": "bytes32"
        },
        {
          "internalType": "uint256",
          "name": "randomness",
          "type": "uint256"
        }
      ],
      "name": "rawFulfillRandomness",
      "outputs": [],
      "stateMutability": "nonpayable",
      "type": "function"
    },
    {
      "inputs": [
        {
          "internalType": "contract IERC20",
          "name": "_token",
          "type": "address"
        }
      ],
      "name": "recoverToken",
      "outputs": [],
      "stateMutability": "nonpayable",
      "type": "function"
    },
    {
      "inputs": [],
      "name": "renounceOwnership",
      "outputs": [],
      "stateMutability": "nonpayable",
      "type": "function"
    },
    {
      "inputs": [
        {
          "internalType": "address",
          "name": "from",
          "type": "address"
        },
        {
          "internalType": "address",
          "name": "to",
          "type": "address"
        },
        {
          "internalType": "uint256",
          "name": "tokenId",
          "type": "uint256"
        }
      ],
      "name": "safeTransferFrom",
      "outputs": [],
      "stateMutability": "nonpayable",
      "type": "function"
    },
    {
      "inputs": [
        {
          "internalType": "address",
          "name": "from",
          "type": "address"
        },
        {
          "internalType": "address",
          "name": "to",
          "type": "address"
        },
        {
          "internalType": "uint256",
          "name": "tokenId",
          "type": "uint256"
        },
        {
          "internalType": "bytes",
          "name": "_data",
          "type": "bytes"
        }
      ],
      "name": "safeTransferFrom",
      "outputs": [],
      "stateMutability": "nonpayable",
      "type": "function"
    },
    {
      "inputs": [
        {
          "internalType": "address",
          "name": "operator",
          "type": "address"
        },
        {
          "internalType": "bool",
          "name": "approved",
          "type": "bool"
        }
      ],
      "name": "setApprovalForAll",
      "outputs": [],
      "stateMutability": "nonpayable",
      "type": "function"
    },
    {
      "inputs": [
        {
          "internalType": "string",
          "name": "_baseURI",
          "type": "string"
        }
      ],
      "name": "setBaseURI",
      "outputs": [],
      "stateMutability": "nonpayable",
      "type": "function"
    },
    {
      "inputs": [
        {
          "internalType": "bool",
          "name": "state",
          "type": "bool"
        }
      ],
      "name": "setMutationsActiveState",
      "outputs": [],
      "stateMutability": "nonpayable",
      "type": "function"
    },
    {
      "inputs": [
        {
          "internalType": "address",
          "name": "_address",
          "type": "address"
        }
      ],
      "name": "setNFTAddress",
      "outputs": [],
      "stateMutability": "nonpayable",
      "type": "function"
    },
    {
      "inputs": [
        {
          "internalType": "bool",
          "name": "state",
          "type": "bool"
        }
      ],
      "name": "setPublicSaleState",
      "outputs": [],
      "stateMutability": "nonpayable",
      "type": "function"
    },
    {
      "inputs": [
        {
          "internalType": "address",
          "name": "_address",
          "type": "address"
        }
      ],
      "name": "setSerumAddress",
      "outputs": [],
      "stateMutability": "nonpayable",
      "type": "function"
    },
    {
      "inputs": [
        {
          "internalType": "string",
          "name": "_uri",
          "type": "string"
        }
      ],
      "name": "setUnrevealedURI",
      "outputs": [],
      "stateMutability": "nonpayable",
      "type": "function"
    },
    {
      "inputs": [
        {
          "internalType": "bytes4",
          "name": "interfaceId",
          "type": "bytes4"
        }
      ],
      "name": "supportsInterface",
      "outputs": [
        {
          "internalType": "bool",
          "name": "",
          "type": "bool"
        }
      ],
      "stateMutability": "view",
      "type": "function"
    },
    {
      "inputs": [],
      "name": "symbol",
      "outputs": [
        {
          "internalType": "string",
          "name": "",
          "type": "string"
        }
      ],
      "stateMutability": "view",
      "type": "function"
    },
    {
      "inputs": [
        {
          "internalType": "address",
          "name": "owner",
          "type": "address"
        }
      ],
      "name": "tokenIdsOf",
      "outputs": [
        {
          "internalType": "uint256[]",
          "name": "",
          "type": "uint256[]"
        }
      ],
      "stateMutability": "view",
      "type": "function"
    },
    {
      "inputs": [
        {
          "internalType": "uint256",
          "name": "tokenId",
          "type": "uint256"
        }
      ],
      "name": "tokenURI",
      "outputs": [
        {
          "internalType": "string",
          "name": "",
          "type": "string"
        }
      ],
      "stateMutability": "view",
      "type": "function"
    },
    {
      "inputs": [],
      "name": "totalSupply",
      "outputs": [
        {
          "internalType": "uint256",
          "name": "",
          "type": "uint256"
        }
      ],
      "stateMutability": "view",
      "type": "function"
    },
    {
      "inputs": [
        {
          "internalType": "address",
          "name": "from",
          "type": "address"
        },
        {
          "internalType": "address",
          "name": "to",
          "type": "address"
        },
        {
          "internalType": "uint256",
          "name": "tokenId",
          "type": "uint256"
        }
      ],
      "name": "transferFrom",
      "outputs": [],
      "stateMutability": "nonpayable",
      "type": "function"
    },
    {
      "inputs": [
        {
          "internalType": "address",
          "name": "newOwner",
          "type": "address"
        }
      ],
      "name": "transferOwnership",
      "outputs": [],
      "stateMutability": "nonpayable",
      "type": "function"
    },
    {
      "inputs": [],
      "name": "unrevealedURI",
      "outputs": [
        {
          "internalType": "string",
          "name": "",
          "type": "string"
        }
      ],
      "stateMutability": "view",
      "type": "function"
    },
    {
      "inputs": [],
      "name": "withdraw",
      "outputs": [],
      "stateMutability": "nonpayable",
      "type": "function"
    }
  ],
  "bytecode": "0x7f2ed0feb3e7fd2022120aa84fab1945545a9f2ffc9076fd6156fa96eaff4c131160075567016345785d8a0000600855620186a0600955610100604052600d60c08190526c756e72657665616c656455524960981b60e09081526200006891600b919062000216565b5060408051808201909152600880825267626173655552492f60c01b60209092019182526200009a91600c9162000216565b50348015620000a857600080fd5b5060408051808201825260078152664d7574616e747360c81b60208083019182528351808501909452600484526309aaaa8b60e31b9084015273dd3782915140c8f3b190b5d67eac6dc5760c46e960a0527301be23585060835e02b77ef475b0cc51aa1e07096080528151919291620001249160019162000216565b5080516200013a90600290602084019062000216565b5050506200015762000151620001c060201b60201c565b620001c4565b60005b600a811015620001b9576012816103e8620001768180620002d2565b620001829190620002d2565b6200018e9190620002d2565b8154600181018355600092835260209092209091015580620001b081620002ed565b9150506200015a565b5062000348565b3390565b600680546001600160a01b038381166001600160a01b0319831681179093556040519116919082907f8be0079c531659141344cd1fd0a4f28419497f9722a3daafe3b4186f6b6457e090600090a35050565b82805462000224906200030b565b90600052602060002090601f01602090048101928262000248576000855562000293565b82601f106200026357805160ff191683800117855562000293565b8280016001018555821562000293579182015b828111156200029357825182559160200191906001019062000276565b50620002a1929150620002a5565b5090565b5b80821115620002a15760008155600101620002a6565b634e487b7160e01b600052601160045260246000fd5b60008219821115620002e857620002e8620002bc565b500190565b6000600019821415620003045762000304620002bc565b5060010190565b600181811c908216806200032057607f821691505b602082108114156200034257634e487b7160e01b600052602260045260246000fd5b50919050565b60805160a0516134526200036b60003960006115290152600050506134526000f3fe6080604052600436106102e75760003560e01c80638225545611610184578063b5a07ef7116100d6578063d75e61101161008a578063f2fde38b11610064578063f2fde38b146107f0578063fe2c7fee14610810578063fe4ce9d71461083057600080fd5b8063d75e611014610792578063dcafe77d146105bc578063e985e9c5146107a757600080fd5b8063bc8893b4116100bb578063bc8893b414610740578063c87b56dd14610772578063d26464631461079257600080fd5b8063b5a07ef714610700578063b88d4fde1461072057600080fd5b806395d89b4111610138578063a0712d6811610112578063a0712d68146106a0578063a22cb465146106b3578063a3b261f2146106d357600080fd5b806395d89b411461064b578063983f9867146106605780639be65a601461068057600080fd5b80638da5cb5b116101695780638da5cb5b146105ed5780639293a5c71461060b57806394985ddd1461062b57600080fd5b806382255456146105bc5780638d859f3e146105d257600080fd5b806355f804b31161023d5780637035bf18116101f15780637e925db0116101cb5780637e925db01461055c578063801b25c71461057c57806381b372d91461059c57600080fd5b80637035bf181461051257806370a0823114610527578063715018a61461054757600080fd5b80636352211e116102225780636352211e146104bd57806369d03738146104dd5780636c0360eb146104fd57600080fd5b806355f804b31461046a5780636063440b1461048a57600080fd5b806318160ddd1161029f5780633ccfd60b116102795780633ccfd60b1461041557806342842e0e1461042a578063447400bf1461044a57600080fd5b806318160ddd146103cb57806323b872dd146103e05780633307dcfe1461040057600080fd5b806306fdde03116102d057806306fdde031461034f578063081812fc14610371578063095ea7b3146103a957600080fd5b806301ffc9a7146102ec578063045cae6714610321575b600080fd5b3480156102f857600080fd5b5061030c610307366004612c84565b610850565b60405190151581526020015b60405180910390f35b34801561032d57600080fd5b5061034161033c366004612cbd565b610935565b604051908152602001610318565b34801561035b57600080fd5b5061036461094d565b6040516103189190612d50565b34801561037d57600080fd5b5061039161038c366004612d63565b6109df565b6040516001600160a01b039091168152602001610318565b3480156103b557600080fd5b506103c96103c4366004612d7c565b610a8a565b005b3480156103d757600080fd5b50610341610bbc565b3480156103ec57600080fd5b506103c96103fb366004612da8565b610be0565b34801561040c57600080fd5b506103c9610c67565b34801561042157600080fd5b506103c9610cdd565b34801561043657600080fd5b506103c9610445366004612da8565b610d6a565b34801561045657600080fd5b506103c9610465366004612de9565b610d85565b34801561047657600080fd5b506103c9610485366004612ece565b61108b565b34801561049657600080fd5b50600e5461030c907501000000000000000000000000000000000000000000900460ff1681565b3480156104c957600080fd5b506103916104d8366004612d63565b6110f8565b3480156104e957600080fd5b506103c96104f8366004612cbd565b611183565b34801561050957600080fd5b50610364611217565b34801561051e57600080fd5b506103646112a5565b34801561053357600080fd5b50610341610542366004612cbd565b6112b2565b34801561055357600080fd5b506103c96112dc565b34801561056857600080fd5b50610341610577366004612cbd565b611342565b34801561058857600080fd5b506103c9610597366004612d63565b611361565b3480156105a857600080fd5b506103c96105b7366004612f25565b6113d5565b3480156105c857600080fd5b506103416103e881565b3480156105de57600080fd5b50610341666a94d74f43000081565b3480156105f957600080fd5b506006546001600160a01b0316610391565b34801561061757600080fd5b506103c9610626366004612f25565b61147a565b34801561063757600080fd5b506103c9610646366004612de9565b61151e565b34801561065757600080fd5b506103646115a0565b34801561066c57600080fd5b5061034161067b366004612cbd565b6115af565b34801561068c57600080fd5b506103c961069b366004612cbd565b6115db565b6103c96106ae366004612d63565b6117b6565b3480156106bf57600080fd5b506103c96106ce366004612f42565b6119c5565b3480156106df57600080fd5b506106f36106ee366004612cbd565b6119d0565b6040516103189190612f7b565b34801561070c57600080fd5b5061034161071b366004612cbd565b611aa9565b34801561072c57600080fd5b506103c961073b366004612fbf565b611ab9565b34801561074c57600080fd5b50600e5461030c9074010000000000000000000000000000000000000000900460ff1681565b34801561077e57600080fd5b5061036461078d366004612d63565b611b47565b34801561079e57600080fd5b50610341600a81565b3480156107b357600080fd5b5061030c6107c236600461303f565b6001600160a01b03918216600090815260056020908152604080832093909416825291909152205460ff1690565b3480156107fc57600080fd5b506103c961080b366004612cbd565b611cad565b34801561081c57600080fd5b506103c961082b366004612ece565b611d8c565b34801561083c57600080fd5b506103c961084b366004612cbd565b611df9565b60007fffffffff0000000000000000000000000000000000000000000000000000000082167f80ac58cd0000000000000000000000000000000000000000000000000000000014806108e357507fffffffff0000000000000000000000000000000000000000000000000000000082167f5b5e139f00000000000000000000000000000000000000000000000000000000145b8061092f57507f01ffc9a7000000000000000000000000000000000000000000000000000000007fffffffff000000000000000000000000000000000000000000000000000000008316145b92915050565b600061092f826103e8610948818061309c565b611e8d565b60606001805461095c906130b4565b80601f0160208091040260200160405190810160405280929190818152602001828054610988906130b4565b80156109d55780601f106109aa576101008083540402835291602001916109d5565b820191906000526020600020905b8154815290600101906020018083116109b857829003601f168201915b5050505050905090565b6000818152600360205260408120546001600160a01b0316610a6e5760405162461bcd60e51b815260206004820152602c60248201527f4552433732313a20617070726f76656420717565727920666f72206e6f6e657860448201527f697374656e7420746f6b656e000000000000000000000000000000000000000060648201526084015b60405180910390fd5b506000908152600460205260409020546001600160a01b031690565b6000610a95826110f8565b9050806001600160a01b0316836001600160a01b03161415610b1f5760405162461bcd60e51b815260206004820152602160248201527f4552433732313a20617070726f76616c20746f2063757272656e74206f776e6560448201527f72000000000000000000000000000000000000000000000000000000000000006064820152608401610a65565b336001600160a01b0382161480610b3b5750610b3b81336107c2565b610bad5760405162461bcd60e51b815260206004820152603860248201527f4552433732313a20617070726f76652063616c6c6572206973206e6f74206f7760448201527f6e6572206e6f7220617070726f76656420666f7220616c6c00000000000000006064820152608401610a65565b610bb78383611f62565b505050565b6000601154601054600f54610bd1919061309c565b610bdb919061309c565b905090565b610bea3382611fe8565b610c5c5760405162461bcd60e51b815260206004820152603160248201527f4552433732313a207472616e736665722063616c6c6572206973206e6f74206f60448201527f776e6572206e6f7220617070726f7665640000000000000000000000000000006064820152608401610a65565b610bb78383836120f0565b6006546001600160a01b03163314610cc15760405162461bcd60e51b815260206004820181905260248201527f4f776e61626c653a2063616c6c6572206973206e6f7420746865206f776e65726044820152606401610a65565b6000610cce600143613108565b409050610cda81612279565b50565b6006546001600160a01b03163314610d375760405162461bcd60e51b815260206004820181905260248201527f4f776e61626c653a2063616c6c6572206973206e6f7420746865206f776e65726044820152606401610a65565b6040514790339082156108fc029083906000818181858888f19350505050158015610d66573d6000803e3d6000fd5b5050565b610bb783838360405180602001604052806000815250611ab9565b600e547501000000000000000000000000000000000000000000900460ff16610df05760405162461bcd60e51b815260206004820152601460248201527f4d55544154494f4e535f4e4f545f4143544956450000000000000000000000006044820152606401610a65565b323314610e3f5760405162461bcd60e51b815260206004820152600d60248201527f434f4e54524143545f43414c4c000000000000000000000000000000000000006044820152606401610a65565b600d546040517f6352211e0000000000000000000000000000000000000000000000000000000081526004810184905233916001600160a01b031690636352211e90602401602060405180830381865afa158015610ea1573d6000803e3d6000fd5b505050506040513d601f19601f82011682018060405250810190610ec5919061311f565b6001600160a01b031614610f1b5760405162461bcd60e51b815260206004820152601160248201527f4e4f545f43414c4c4552535f544f4b454e0000000000000000000000000000006044820152606401610a65565b60038110610f6b5760405162461bcd60e51b815260206004820152601260248201527f494e56414c49445f534552554d5f5459504500000000000000000000000000006044820152606401610a65565b600081610f9a57610f7e836103e861309c565b601080549192506000610f908361313c565b9190505550610ff6565b8160011415610fba5782610fb06103e88061309c565b610f7e919061309c565b6011546103e8610fca818061309c565b610fd4919061309c565b610fde919061309c565b601180549192506000610ff08361313c565b91905055505b6110003382612314565b600e546040517fc6ae087d000000000000000000000000000000000000000000000000000000008152336004820152602481018490526001600160a01b039091169063c6ae087d90604401600060405180830381600087803b15801561106557600080fd5b505af1158015611079573d6000803e3d6000fd5b505050508160021415610bb757505050565b6006546001600160a01b031633146110e55760405162461bcd60e51b815260206004820181905260248201527f4f776e61626c653a2063616c6c6572206973206e6f7420746865206f776e65726044820152606401610a65565b8051610d6690600c906020840190612bc6565b6000818152600360205260408120546001600160a01b03168061092f5760405162461bcd60e51b815260206004820152602960248201527f4552433732313a206f776e657220717565727920666f72206e6f6e657869737460448201527f656e7420746f6b656e00000000000000000000000000000000000000000000006064820152608401610a65565b6006546001600160a01b031633146111dd5760405162461bcd60e51b815260206004820181905260248201527f4f776e61626c653a2063616c6c6572206973206e6f7420746865206f776e65726044820152606401610a65565b600d80547fffffffffffffffffffffffff0000000000000000000000000000000000000000166001600160a01b0392909216919091179055565b600c8054611224906130b4565b80601f0160208091040260200160405190810160405280929190818152602001828054611250906130b4565b801561129d5780601f106112725761010080835404028352916020019161129d565b820191906000526020600020905b81548152906001019060200180831161128057829003601f168201915b505050505081565b600b8054611224906130b4565b600061092f8282600a6103e86112c8818061309c565b6112d2919061309c565b610948919061309c565b6006546001600160a01b031633146113365760405162461bcd60e51b815260206004820181905260248201527f4f776e61626c653a2063616c6c6572206973206e6f7420746865206f776e65726044820152606401610a65565b6113406000612440565b565b600061092f826113546103e88061309c565b6103e86112d2818061309c565b6006546001600160a01b031633146113bb5760405162461bcd60e51b815260206004820181905260248201527f4f776e61626c653a2063616c6c6572206973206e6f7420746865206f776e65726044820152606401610a65565b60006113c8600143613108565b409050610d6682826124aa565b6006546001600160a01b0316331461142f5760405162461bcd60e51b815260206004820181905260248201527f4f776e61626c653a2063616c6c6572206973206e6f7420746865206f776e65726044820152606401610a65565b600e80549115157501000000000000000000000000000000000000000000027fffffffffffffffffffff00ffffffffffffffffffffffffffffffffffffffffff909216919091179055565b6006546001600160a01b031633146114d45760405162461bcd60e51b815260206004820181905260248201527f4f776e61626c653a2063616c6c6572206973206e6f7420746865206f776e65726044820152606401610a65565b600e805491151574010000000000000000000000000000000000000000027fffffffffffffffffffffff00ffffffffffffffffffffffffffffffffffffffff909216919091179055565b336001600160a01b037f000000000000000000000000000000000000000000000000000000000000000016146115965760405162461bcd60e51b815260206004820152601f60248201527f4f6e6c7920565246436f6f7264696e61746f722063616e2066756c66696c6c006044820152606401610a65565b610d66828261258b565b60606002805461095c906130b4565b600061092f826103e86115c2818061309c565b6115cc919061309c565b600a6103e86112c8818061309c565b6006546001600160a01b031633146116355760405162461bcd60e51b815260206004820181905260248201527f4f776e61626c653a2063616c6c6572206973206e6f7420746865206f776e65726044820152606401610a65565b6040517f70a082310000000000000000000000000000000000000000000000000000000081523060048201526000906001600160a01b038316906370a0823190602401602060405180830381865afa158015611695573d6000803e3d6000fd5b505050506040513d601f19601f820116820180604052508101906116b99190613175565b90506000826001600160a01b031663a9059cbb6116de6006546001600160a01b031690565b6040517fffffffff0000000000000000000000000000000000000000000000000000000060e084901b1681526001600160a01b039091166004820152602481018590526044016020604051808303816000875af1158015611743573d6000803e3d6000fd5b505050506040513d601f19601f82011682018060405250810190611767919061318e565b905080610bb75760405162461bcd60e51b815260206004820152601560248201527f544f4b454e5f5452414e534645525f4641494c454400000000000000000000006044820152606401610a65565b600e5474010000000000000000000000000000000000000000900460ff166118205760405162461bcd60e51b815260206004820152601660248201527f5055424c49435f53414c455f4e4f545f414354495645000000000000000000006044820152606401610a65565b32331461186f5760405162461bcd60e51b815260206004820152600d60248201527f434f4e54524143545f43414c4c000000000000000000000000000000000000006044820152606401610a65565b600a8111156118c05760405162461bcd60e51b815260206004820152600d60248201527f455843454544535f4c494d4954000000000000000000000000000000000000006044820152606401610a65565b6118d181666a94d74f4300006131ab565b341461191f5760405162461bcd60e51b815260206004820152600f60248201527f494e434f52524543545f56414c554500000000000000000000000000000000006044820152606401610a65565b600f546103e861192f838361309c565b111561197d5760405162461bcd60e51b815260206004820152601260248201527f4d41585f535550504c595f5245414348454400000000000000000000000000006044820152606401610a65565b81600f600082825461198f919061309c565b90915550600090505b82811015610bb7576119b3336119ae838561309c565b612314565b806119bd8161313c565b915050611998565b610d66338383612602565b606060006119dd836112b2565b67ffffffffffffffff8111156119f5576119f5612e0b565b604051908082528060200260200182016040528015611a1e578160200160208202803683370190505b50905060005b600a6103e8611a33818061309c565b611a3d919061309c565b611a47919061309c565b811015611aa2576000818152600360205260409020546001600160a01b0385811691161415611a905780828281518110611a8357611a836131e8565b6020026020010181815250505b80611a9a8161313c565b915050611a24565b5092915050565b600061092f8260006103e8611e8d565b611ac33383611fe8565b611b355760405162461bcd60e51b815260206004820152603160248201527f4552433732313a207472616e736665722063616c6c6572206973206e6f74206f60448201527f776e6572206e6f7220617070726f7665640000000000000000000000000000006064820152608401610a65565b611b41848484846126ef565b50505050565b6000818152600360205260409020546060906001600160a01b0316611bd45760405162461bcd60e51b815260206004820152602f60248201527f4552433732314d657461646174613a2055524920717565727920666f72206e6f60448201527f6e6578697374656e7420746f6b656e00000000000000000000000000000000006064820152608401610a65565b600a54611c6d57600b8054611be8906130b4565b80601f0160208091040260200160405190810160405280929190818152602001828054611c14906130b4565b8015611c615780601f10611c3657610100808354040283529160200191611c61565b820191906000526020600020905b815481529060010190602001808311611c4457829003601f168201915b50505050509050919050565b6000611c7883612778565b9050600c611c858261281c565b604051602001611c96929190613233565b604051602081830303815290604052915050919050565b6006546001600160a01b03163314611d075760405162461bcd60e51b815260206004820181905260248201527f4f776e61626c653a2063616c6c6572206973206e6f7420746865206f776e65726044820152606401610a65565b6001600160a01b038116611d835760405162461bcd60e51b815260206004820152602660248201527f4f776e61626c653a206e6577206f776e657220697320746865207a65726f206160448201527f64647265737300000000000000000000000000000000000000000000000000006064820152608401610a65565b610cda81612440565b6006546001600160a01b03163314611de65760405162461bcd60e51b815260206004820181905260248201527f4f776e61626c653a2063616c6c6572206973206e6f7420746865206f776e65726044820152606401610a65565b8051610d6690600b906020840190612bc6565b6006546001600160a01b03163314611e535760405162461bcd60e51b815260206004820181905260248201527f4f776e61626c653a2063616c6c6572206973206e6f7420746865206f776e65726044820152606401610a65565b600e80547fffffffffffffffffffffffff0000000000000000000000000000000000000000166001600160a01b0392909216919091179055565b60006001600160a01b038416611f0b5760405162461bcd60e51b815260206004820152602a60248201527f4552433732313a2062616c616e636520717565727920666f7220746865207a6560448201527f726f2061646472657373000000000000000000000000000000000000000000006064820152608401610a65565b6000835b83811015611f59576000818152600360205260409020546001600160a01b0387811691161415611f475781611f438161313c565b9250505b80611f518161313c565b915050611f0f565b50949350505050565b600081815260046020526040902080547fffffffffffffffffffffffff0000000000000000000000000000000000000000166001600160a01b0384169081179091558190611faf826110f8565b6001600160a01b03167f8c5be1e5ebec7d5bd14f71427d1e84f3dd0314c0f7b2291e5b200ac8c7c3b92560405160405180910390a45050565b6000818152600360205260408120546001600160a01b03166120725760405162461bcd60e51b815260206004820152602c60248201527f4552433732313a206f70657261746f7220717565727920666f72206e6f6e657860448201527f697374656e7420746f6b656e00000000000000000000000000000000000000006064820152608401610a65565b600061207d836110f8565b9050806001600160a01b0316846001600160a01b031614806120b85750836001600160a01b03166120ad846109df565b6001600160a01b0316145b806120e857506001600160a01b0380821660009081526005602090815260408083209388168352929052205460ff165b949350505050565b826001600160a01b0316612103826110f8565b6001600160a01b03161461217f5760405162461bcd60e51b815260206004820152602960248201527f4552433732313a207472616e73666572206f6620746f6b656e2074686174206960448201527f73206e6f74206f776e00000000000000000000000000000000000000000000006064820152608401610a65565b6001600160a01b0382166121fa5760405162461bcd60e51b8152602060048201526024808201527f4552433732313a207472616e7366657220746f20746865207a65726f2061646460448201527f72657373000000000000000000000000000000000000000000000000000000006064820152608401610a65565b612205600082611f62565b60008181526003602052604080822080547fffffffffffffffffffffffff0000000000000000000000000000000000000000166001600160a01b0386811691821790925591518493918716917fddf252ad1be2c89b69c2b068fc378daa952ba7f163c4a11628f55a4df523b3ef91a4505050565b600a54156122c95760405162461bcd60e51b815260206004820152600f60248201527f52414e444f4d5f534545445f53455400000000000000000000000000000000006044820152606401610a65565b6009546122f6827fffffffffffffffffffffffffffffffffffffffffffffffffffffffffffffffff613108565b101561230f576009546123099082613108565b600a5550565b600a55565b6001600160a01b03821661236a5760405162461bcd60e51b815260206004820181905260248201527f4552433732313a206d696e7420746f20746865207a65726f20616464726573736044820152606401610a65565b6000818152600360205260409020546001600160a01b0316156123cf5760405162461bcd60e51b815260206004820152601c60248201527f4552433732313a20746f6b656e20616c7265616479206d696e746564000000006044820152606401610a65565b60008181526003602052604080822080547fffffffffffffffffffffffff0000000000000000000000000000000000000000166001600160a01b03861690811790915590518392907fddf252ad1be2c89b69c2b068fc378daa952ba7f163c4a11628f55a4df523b3ef908290a45050565b600680546001600160a01b038381167fffffffffffffffffffffffff0000000000000000000000000000000000000000831681179093556040519116919082907f8be0079c531659141344cd1fd0a4f28419497f9722a3daafe3b4186f6b6457e090600090a35050565b6000828152600360205260409020546001600160a01b031661250e5760405162461bcd60e51b815260206004820152601160248201527f4d4547415f49445f4e4f545f464f554e440000000000000000000000000000006044820152606401610a65565b6000828152601360205260409020541561256a5760405162461bcd60e51b815260206004820152601360248201527f4d4547415f49445f414c52454144595f534554000000000000000000000000006044820152606401610a65565b61257560128261294e565b6000928352601360205260409092209190915550565b600a54156125db5760405162461bcd60e51b815260206004820152600f60248201527f52414e444f4d5f534545445f53455400000000000000000000000000000000006044820152606401610a65565b600082815260146020526040902054806125f857610bb782612279565b610bb781836124aa565b816001600160a01b0316836001600160a01b031614156126645760405162461bcd60e51b815260206004820152601960248201527f4552433732313a20617070726f766520746f2063616c6c6572000000000000006044820152606401610a65565b6001600160a01b0383811660008181526005602090815260408083209487168084529482529182902080547fffffffffffffffffffffffffffffffffffffffffffffffffffffffffffffff001686151590811790915591519182527f17307eab39ab6107e8899845ad3d59bd9653f200f220920489ca2b5937696c31910160405180910390a3505050565b6126fa8484846120f0565b6127068484848461296b565b611b415760405162461bcd60e51b815260206004820152603260248201527f4552433732313a207472616e7366657220746f206e6f6e20455243373231526560448201527f63656976657220696d706c656d656e74657200000000000000000000000000006064820152608401610a65565b60006103e882101561279f576103e8600a5483612795919061309c565b61092f919061336c565b6103e86127ac818061309c565b6127b6919061309c565b8210612818576000828152601360205260409020548061092f5760405162461bcd60e51b815260206004820152601360248201527f4d455441444154415f49445f4e4f545f534554000000000000000000000000006044820152606401610a65565b5090565b60608161285c57505060408051808201909152600181527f3000000000000000000000000000000000000000000000000000000000000000602082015290565b8160005b811561288657806128708161313c565b915061287f9050600a83613380565b9150612860565b60008167ffffffffffffffff8111156128a1576128a1612e0b565b6040519080825280601f01601f1916602001820160405280156128cb576020820181803683370190505b5090505b84156120e8576128e0600183613108565b91506128ed600a8661336c565b6128f890603061309c565b60f81b81838151811061290d5761290d6131e8565b60200101907effffffffffffffffffffffffffffffffffffffffffffffffffffffffffffff1916908160001a905350612947600a86613380565b94506128cf565b8154600090819061295f908461336c565b90506120e88482612b27565b60006001600160a01b0384163b15612b1c576040517f150b7a020000000000000000000000000000000000000000000000000000000081526001600160a01b0385169063150b7a02906129c8903390899088908890600401613394565b6020604051808303816000875af1925050508015612a21575060408051601f3d9081017fffffffffffffffffffffffffffffffffffffffffffffffffffffffffffffffe0168201909252612a1e918101906133d0565b60015b612ad1573d808015612a4f576040519150601f19603f3d011682016040523d82523d6000602084013e612a54565b606091505b508051612ac95760405162461bcd60e51b815260206004820152603260248201527f4552433732313a207472616e7366657220746f206e6f6e20455243373231526560448201527f63656976657220696d706c656d656e74657200000000000000000000000000006064820152608401610a65565b805181602001fd5b7fffffffff00000000000000000000000000000000000000000000000000000000167f150b7a02000000000000000000000000000000000000000000000000000000001490506120e8565b506001949350505050565b600080838381548110612b3c57612b3c6131e8565b906000526020600020015490508360018580549050612b5b9190613108565b81548110612b6b57612b6b6131e8565b9060005260206000200154848481548110612b8857612b886131e8565b906000526020600020018190555083805480612ba657612ba66133ed565b600190038181906000526020600020016000905590558091505092915050565b828054612bd2906130b4565b90600052602060002090601f016020900481019282612bf45760008555612c3a565b82601f10612c0d57805160ff1916838001178555612c3a565b82800160010185558215612c3a579182015b82811115612c3a578251825591602001919060010190612c1f565b506128189291505b808211156128185760008155600101612c42565b7fffffffff0000000000000000000000000000000000000000000000000000000081168114610cda57600080fd5b600060208284031215612c9657600080fd5b8135612ca181612c56565b9392505050565b6001600160a01b0381168114610cda57600080fd5b600060208284031215612ccf57600080fd5b8135612ca181612ca8565b60005b83811015612cf5578181015183820152602001612cdd565b83811115611b415750506000910152565b60008151808452612d1e816020860160208601612cda565b601f017fffffffffffffffffffffffffffffffffffffffffffffffffffffffffffffffe0169290920160200192915050565b602081526000612ca16020830184612d06565b600060208284031215612d7557600080fd5b5035919050565b60008060408385031215612d8f57600080fd5b8235612d9a81612ca8565b946020939093013593505050565b600080600060608486031215612dbd57600080fd5b8335612dc881612ca8565b92506020840135612dd881612ca8565b929592945050506040919091013590565b60008060408385031215612dfc57600080fd5b50508035926020909101359150565b7f4e487b7100000000000000000000000000000000000000000000000000000000600052604160045260246000fd5b600067ffffffffffffffff80841115612e5557612e55612e0b565b604051601f85017fffffffffffffffffffffffffffffffffffffffffffffffffffffffffffffffe0908116603f01168101908282118183101715612e9b57612e9b612e0b565b81604052809350858152868686011115612eb457600080fd5b858560208301376000602087830101525050509392505050565b600060208284031215612ee057600080fd5b813567ffffffffffffffff811115612ef757600080fd5b8201601f81018413612f0857600080fd5b6120e884823560208401612e3a565b8015158114610cda57600080fd5b600060208284031215612f3757600080fd5b8135612ca181612f17565b60008060408385031215612f5557600080fd5b8235612f6081612ca8565b91506020830135612f7081612f17565b809150509250929050565b6020808252825182820181905260009190848201906040850190845b81811015612fb357835183529284019291840191600101612f97565b50909695505050505050565b60008060008060808587031215612fd557600080fd5b8435612fe081612ca8565b93506020850135612ff081612ca8565b925060408501359150606085013567ffffffffffffffff81111561301357600080fd5b8501601f8101871361302457600080fd5b61303387823560208401612e3a565b91505092959194509250565b6000806040838503121561305257600080fd5b823561305d81612ca8565b91506020830135612f7081612ca8565b7f4e487b7100000000000000000000000000000000000000000000000000000000600052601160045260246000fd5b600082198211156130af576130af61306d565b500190565b600181811c908216806130c857607f821691505b60208210811415613102577f4e487b7100000000000000000000000000000000000000000000000000000000600052602260045260246000fd5b50919050565b60008282101561311a5761311a61306d565b500390565b60006020828403121561313157600080fd5b8151612ca181612ca8565b60007fffffffffffffffffffffffffffffffffffffffffffffffffffffffffffffffff82141561316e5761316e61306d565b5060010190565b60006020828403121561318757600080fd5b5051919050565b6000602082840312156131a057600080fd5b8151612ca181612f17565b6000817fffffffffffffffffffffffffffffffffffffffffffffffffffffffffffffffff04831182151516156131e3576131e361306d565b500290565b7f4e487b7100000000000000000000000000000000000000000000000000000000600052603260045260246000fd5b60008151613229818560208601612cda565b9290920192915050565b600080845481600182811c91508083168061324f57607f831692505b6020808410821415613288577f4e487b710000000000000000000000000000000000000000000000000000000086526022600452602486fd5b81801561329c57600181146132cb576132f8565b7fffffffffffffffffffffffffffffffffffffffffffffffffffffffffffffff008616895284890196506132f8565b60008b81526020902060005b868110156132f05781548b8201529085019083016132d7565b505084890196505b50505050505061333461330b8286613217565b7f2e6a736f6e000000000000000000000000000000000000000000000000000000815260050190565b95945050505050565b7f4e487b7100000000000000000000000000000000000000000000000000000000600052601260045260246000fd5b60008261337b5761337b61333d565b500690565b60008261338f5761338f61333d565b500490565b60006001600160a01b038087168352808616602084015250836040830152608060608301526133c66080830184612d06565b9695505050505050565b6000602082840312156133e257600080fd5b8151612ca181612c56565b7f4e487b7100000000000000000000000000000000000000000000000000000000600052603160045260246000fdfea264697066735822122012dab96b6f90e84433c4947c3d4732559092dec102b6083cc63db8e7a2dffd0f64736f6c634300080a0033",
  "linkReferences": {},
  "deployedLinkReferences": {}
}