{
  "_format": "hh-sol-artifact-1",
  "contractName": "Mutants",
  "sourceName": "contracts/Mutants.sol",
  "abi": [
    {
      "inputs": [],
      "stateMutability": "nonpayable",
      "type": "constructor"
    },
    {
      "anonymous": false,
      "inputs": [
        {
          "indexed": true,
          "internalType": "address",
          "name": "owner",
          "type": "address"
        },
        {
          "indexed": true,
          "internalType": "address",
          "name": "approved",
          "type": "address"
        },
        {
          "indexed": true,
          "internalType": "uint256",
          "name": "tokenId",
          "type": "uint256"
        }
      ],
      "name": "Approval",
      "type": "event"
    },
    {
      "anonymous": false,
      "inputs": [
        {
          "indexed": true,
          "internalType": "address",
          "name": "owner",
          "type": "address"
        },
        {
          "indexed": true,
          "internalType": "address",
          "name": "operator",
          "type": "address"
        },
        {
          "indexed": false,
          "internalType": "bool",
          "name": "approved",
          "type": "bool"
        }
      ],
      "name": "ApprovalForAll",
      "type": "event"
    },
    {
      "anonymous": false,
      "inputs": [
        {
          "indexed": true,
          "internalType": "address",
          "name": "previousOwner",
          "type": "address"
        },
        {
          "indexed": true,
          "internalType": "address",
          "name": "newOwner",
          "type": "address"
        }
      ],
      "name": "OwnershipTransferred",
      "type": "event"
    },
    {
      "anonymous": false,
      "inputs": [
        {
          "indexed": true,
          "internalType": "address",
          "name": "from",
          "type": "address"
        },
        {
          "indexed": true,
          "internalType": "address",
          "name": "to",
          "type": "address"
        },
        {
          "indexed": true,
          "internalType": "uint256",
          "name": "tokenId",
          "type": "uint256"
        }
      ],
      "name": "Transfer",
      "type": "event"
    },
    {
      "inputs": [],
      "name": "MAX_SUPPLY_M",
      "outputs": [
        {
          "internalType": "uint256",
          "name": "",
          "type": "uint256"
        }
      ],
      "stateMutability": "view",
      "type": "function"
    },
    {
      "inputs": [],
      "name": "MAX_SUPPLY_M3",
      "outputs": [
        {
          "internalType": "uint256",
          "name": "",
          "type": "uint256"
        }
      ],
      "stateMutability": "view",
      "type": "function"
    },
    {
      "inputs": [],
      "name": "MAX_SUPPLY_PUBLIC",
      "outputs": [
        {
          "internalType": "uint256",
          "name": "",
          "type": "uint256"
        }
      ],
      "stateMutability": "view",
      "type": "function"
    },
    {
      "inputs": [],
      "name": "PRICE",
      "outputs": [
        {
          "internalType": "uint256",
          "name": "",
          "type": "uint256"
        }
      ],
      "stateMutability": "view",
      "type": "function"
    },
    {
      "inputs": [],
      "name": "PURCHASE_LIMIT",
      "outputs": [
        {
          "internalType": "uint256",
          "name": "",
          "type": "uint256"
        }
      ],
      "stateMutability": "view",
      "type": "function"
    },
    {
      "inputs": [
        {
          "internalType": "address",
          "name": "to",
          "type": "address"
        },
        {
          "internalType": "uint256",
          "name": "tokenId",
          "type": "uint256"
        }
      ],
      "name": "approve",
      "outputs": [],
      "stateMutability": "nonpayable",
      "type": "function"
    },
    {
      "inputs": [
        {
          "internalType": "address",
          "name": "owner",
          "type": "address"
        }
      ],
      "name": "balanceOf",
      "outputs": [
        {
          "internalType": "uint256",
          "name": "",
          "type": "uint256"
        }
      ],
      "stateMutability": "view",
      "type": "function"
    },
    {
      "inputs": [
        {
          "internalType": "address",
          "name": "owner",
          "type": "address"
        }
      ],
      "name": "balanceOfM0",
      "outputs": [
        {
          "internalType": "uint256",
          "name": "",
          "type": "uint256"
        }
      ],
      "stateMutability": "view",
      "type": "function"
    },
    {
      "inputs": [
        {
          "internalType": "address",
          "name": "owner",
          "type": "address"
        }
      ],
      "name": "balanceOfM1",
      "outputs": [
        {
          "internalType": "uint256",
          "name": "",
          "type": "uint256"
        }
      ],
      "stateMutability": "view",
      "type": "function"
    },
    {
      "inputs": [
        {
          "internalType": "address",
          "name": "owner",
          "type": "address"
        }
      ],
      "name": "balanceOfM2",
      "outputs": [
        {
          "internalType": "uint256",
          "name": "",
          "type": "uint256"
        }
      ],
      "stateMutability": "view",
      "type": "function"
    },
    {
      "inputs": [
        {
          "internalType": "address",
          "name": "owner",
          "type": "address"
        }
      ],
      "name": "balanceOfM3",
      "outputs": [
        {
          "internalType": "uint256",
          "name": "",
          "type": "uint256"
        }
      ],
      "stateMutability": "view",
      "type": "function"
    },
    {
      "inputs": [],
      "name": "baseURI",
      "outputs": [
        {
          "internalType": "string",
          "name": "",
          "type": "string"
        }
      ],
      "stateMutability": "view",
      "type": "function"
    },
    {
      "inputs": [
        {
          "internalType": "uint256",
          "name": "nftId",
          "type": "uint256"
        },
        {
          "internalType": "uint256",
          "name": "serumType",
          "type": "uint256"
        }
      ],
      "name": "canMutate",
      "outputs": [
        {
          "internalType": "bool",
          "name": "",
          "type": "bool"
        }
      ],
      "stateMutability": "view",
      "type": "function"
    },
    {
      "inputs": [
        {
          "internalType": "uint256",
          "name": "mutantId",
          "type": "uint256"
        }
      ],
      "name": "forceFulfillRandomMegaMutant",
      "outputs": [],
      "stateMutability": "nonpayable",
      "type": "function"
    },
    {
      "inputs": [],
      "name": "forceFulfillRandomness",
      "outputs": [],
      "stateMutability": "nonpayable",
      "type": "function"
    },
    {
      "inputs": [
        {
          "internalType": "uint256",
          "name": "tokenId",
          "type": "uint256"
        }
      ],
      "name": "getApproved",
      "outputs": [
        {
          "internalType": "address",
          "name": "",
          "type": "address"
        }
      ],
      "stateMutability": "view",
      "type": "function"
    },
    {
      "inputs": [
        {
          "internalType": "address",
          "name": "owner",
          "type": "address"
        },
        {
          "internalType": "address",
          "name": "operator",
          "type": "address"
        }
      ],
      "name": "isApprovedForAll",
      "outputs": [
        {
          "internalType": "bool",
          "name": "",
          "type": "bool"
        }
      ],
      "stateMutability": "view",
      "type": "function"
    },
    {
      "inputs": [
        {
          "internalType": "uint256",
          "name": "amount",
          "type": "uint256"
        }
      ],
      "name": "mint",
      "outputs": [],
      "stateMutability": "payable",
      "type": "function"
    },
    {
      "inputs": [
        {
          "internalType": "uint256",
          "name": "nftId",
          "type": "uint256"
        },
        {
          "internalType": "uint256",
          "name": "serumType",
          "type": "uint256"
        }
      ],
      "name": "mutate",
      "outputs": [],
      "stateMutability": "nonpayable",
      "type": "function"
    },
    {
      "inputs": [],
      "name": "mutationsActive",
      "outputs": [
        {
          "internalType": "bool",
          "name": "",
          "type": "bool"
        }
      ],
      "stateMutability": "view",
      "type": "function"
    },
    {
      "inputs": [],
      "name": "name",
      "outputs": [
        {
          "internalType": "string",
          "name": "",
          "type": "string"
        }
      ],
      "stateMutability": "view",
      "type": "function"
    },
    {
      "inputs": [],
      "name": "numPublicMinted",
      "outputs": [
        {
          "internalType": "uint256",
          "name": "",
          "type": "uint256"
        }
      ],
      "stateMutability": "view",
      "type": "function"
    },
    {
      "inputs": [],
      "name": "owner",
      "outputs": [
        {
          "internalType": "address",
          "name": "",
          "type": "address"
        }
      ],
      "stateMutability": "view",
      "type": "function"
    },
    {
      "inputs": [
        {
          "internalType": "uint256",
          "name": "tokenId",
          "type": "uint256"
        }
      ],
      "name": "ownerOf",
      "outputs": [
        {
          "internalType": "address",
          "name": "",
          "type": "address"
        }
      ],
      "stateMutability": "view",
      "type": "function"
    },
    {
      "inputs": [],
      "name": "publicSaleActive",
      "outputs": [
        {
          "internalType": "bool",
          "name": "",
          "type": "bool"
        }
      ],
      "stateMutability": "view",
      "type": "function"
    },
    {
      "inputs": [],
      "name": "randomSeedSet",
      "outputs": [
        {
          "internalType": "bool",
          "name": "",
          "type": "bool"
        }
      ],
      "stateMutability": "view",
      "type": "function"
    },
    {
      "inputs": [
        {
          "internalType": "bytes32",
          "name": "requestId",
          "type": "bytes32"
        },
        {
          "internalType": "uint256",
          "name": "randomness",
          "type": "uint256"
        }
      ],
      "name": "rawFulfillRandomness",
      "outputs": [],
      "stateMutability": "nonpayable",
      "type": "function"
    },
    {
      "inputs": [
        {
          "internalType": "contract IERC20",
          "name": "_token",
          "type": "address"
        }
      ],
      "name": "recoverToken",
      "outputs": [],
      "stateMutability": "nonpayable",
      "type": "function"
    },
    {
      "inputs": [],
      "name": "renounceOwnership",
      "outputs": [],
      "stateMutability": "nonpayable",
      "type": "function"
    },
    {
      "inputs": [],
      "name": "requestRandomSeed",
      "outputs": [],
      "stateMutability": "nonpayable",
      "type": "function"
    },
    {
      "inputs": [
        {
          "internalType": "address",
          "name": "from",
          "type": "address"
        },
        {
          "internalType": "address",
          "name": "to",
          "type": "address"
        },
        {
          "internalType": "uint256",
          "name": "tokenId",
          "type": "uint256"
        }
      ],
      "name": "safeTransferFrom",
      "outputs": [],
      "stateMutability": "nonpayable",
      "type": "function"
    },
    {
      "inputs": [
        {
          "internalType": "address",
          "name": "from",
          "type": "address"
        },
        {
          "internalType": "address",
          "name": "to",
          "type": "address"
        },
        {
          "internalType": "uint256",
          "name": "tokenId",
          "type": "uint256"
        },
        {
          "internalType": "bytes",
          "name": "_data",
          "type": "bytes"
        }
      ],
      "name": "safeTransferFrom",
      "outputs": [],
      "stateMutability": "nonpayable",
      "type": "function"
    },
    {
      "inputs": [
        {
          "internalType": "address",
          "name": "operator",
          "type": "address"
        },
        {
          "internalType": "bool",
          "name": "approved",
          "type": "bool"
        }
      ],
      "name": "setApprovalForAll",
      "outputs": [],
      "stateMutability": "nonpayable",
      "type": "function"
    },
    {
      "inputs": [
        {
          "internalType": "string",
          "name": "_baseURI",
          "type": "string"
        }
      ],
      "name": "setBaseURI",
      "outputs": [],
      "stateMutability": "nonpayable",
      "type": "function"
    },
    {
      "inputs": [
        {
          "internalType": "bool",
          "name": "active",
          "type": "bool"
        }
      ],
      "name": "setMutationsActive",
      "outputs": [],
      "stateMutability": "nonpayable",
      "type": "function"
    },
    {
      "inputs": [
        {
          "internalType": "address",
          "name": "_address",
          "type": "address"
        }
      ],
      "name": "setNFTAddress",
      "outputs": [],
      "stateMutability": "nonpayable",
      "type": "function"
    },
    {
      "inputs": [
        {
          "internalType": "bool",
          "name": "active",
          "type": "bool"
        }
      ],
      "name": "setPublicSaleActive",
      "outputs": [],
      "stateMutability": "nonpayable",
      "type": "function"
    },
    {
      "inputs": [
        {
          "internalType": "address",
          "name": "_address",
          "type": "address"
        }
      ],
      "name": "setSerumAddress",
      "outputs": [],
      "stateMutability": "nonpayable",
      "type": "function"
    },
    {
      "inputs": [
        {
          "internalType": "string",
          "name": "_uri",
          "type": "string"
        }
      ],
      "name": "setUnrevealedURI",
      "outputs": [],
      "stateMutability": "nonpayable",
      "type": "function"
    },
    {
      "inputs": [
        {
          "internalType": "bytes4",
          "name": "interfaceId",
          "type": "bytes4"
        }
      ],
      "name": "supportsInterface",
      "outputs": [
        {
          "internalType": "bool",
          "name": "",
          "type": "bool"
        }
      ],
      "stateMutability": "view",
      "type": "function"
    },
    {
      "inputs": [],
      "name": "symbol",
      "outputs": [
        {
          "internalType": "string",
          "name": "",
          "type": "string"
        }
      ],
      "stateMutability": "view",
      "type": "function"
    },
    {
      "inputs": [
        {
          "internalType": "address",
          "name": "owner",
          "type": "address"
        }
      ],
      "name": "tokenIdsOf",
      "outputs": [
        {
          "internalType": "uint256[]",
          "name": "",
          "type": "uint256[]"
        }
      ],
      "stateMutability": "view",
      "type": "function"
    },
    {
      "inputs": [
        {
          "internalType": "uint256",
          "name": "tokenId",
          "type": "uint256"
        }
      ],
      "name": "tokenURI",
      "outputs": [
        {
          "internalType": "string",
          "name": "",
          "type": "string"
        }
      ],
      "stateMutability": "view",
      "type": "function"
    },
    {
      "inputs": [],
      "name": "totalSupply",
      "outputs": [
        {
          "internalType": "uint256",
          "name": "",
          "type": "uint256"
        }
      ],
      "stateMutability": "view",
      "type": "function"
    },
    {
      "inputs": [
        {
          "internalType": "address",
          "name": "from",
          "type": "address"
        },
        {
          "internalType": "address",
          "name": "to",
          "type": "address"
        },
        {
          "internalType": "uint256",
          "name": "tokenId",
          "type": "uint256"
        }
      ],
      "name": "transferFrom",
      "outputs": [],
      "stateMutability": "nonpayable",
      "type": "function"
    },
    {
      "inputs": [
        {
          "internalType": "address",
          "name": "newOwner",
          "type": "address"
        }
      ],
      "name": "transferOwnership",
      "outputs": [],
      "stateMutability": "nonpayable",
      "type": "function"
    },
    {
      "inputs": [],
      "name": "unrevealedURI",
      "outputs": [
        {
          "internalType": "string",
          "name": "",
          "type": "string"
        }
      ],
      "stateMutability": "view",
      "type": "function"
    },
    {
      "inputs": [],
      "name": "withdraw",
      "outputs": [],
      "stateMutability": "nonpayable",
      "type": "function"
    }
  ],
  "bytecode": "0x7f2ed0feb3e7fd2022120aa84fab1945545a9f2ffc9076fd6156fa96eaff4c131160075567016345785d8a0000600855620186a0600955610100604052600d60c08190526c756e72657665616c656455524960981b60e09081526200006891600b919062000216565b5060408051808201909152600880825267626173655552492f60c01b60209092019182526200009a91600c9162000216565b50348015620000a857600080fd5b5060408051808201825260078152664d7574616e747360c81b60208083019182528351808501909452600484526309aaaa8b60e31b9084015273b3dccb4cf7a26f6cf6b120cf5a73875b7bbc655b60a0527301be23585060835e02b77ef475b0cc51aa1e07096080528151919291620001249160019162000216565b5080516200013a90600290602084019062000216565b5050506200015762000151620001c060201b60201c565b620001c4565b60005b600a811015620001b9576012816103e8620001768180620002d2565b620001829190620002d2565b6200018e9190620002d2565b8154600181018355600092835260209092209091015580620001b081620002ed565b9150506200015a565b5062000348565b3390565b600680546001600160a01b038381166001600160a01b0319831681179093556040519116919082907f8be0079c531659141344cd1fd0a4f28419497f9722a3daafe3b4186f6b6457e090600090a35050565b82805462000224906200030b565b90600052602060002090601f01602090048101928262000248576000855562000293565b82601f106200026357805160ff191683800117855562000293565b8280016001018555821562000293579182015b828111156200029357825182559160200191906001019062000276565b50620002a1929150620002a5565b5090565b5b80821115620002a15760008155600101620002a6565b634e487b7160e01b600052601160045260246000fd5b60008219821115620002e857620002e8620002bc565b500190565b6000600019821415620003045762000304620002bc565b5060010190565b600181811c908216806200032057607f821691505b602082108114156200034257634e487b7160e01b600052602260045260246000fd5b50919050565b60805160a051614002620003756000396000818161177c01526135440152600061350801526140026000f3fe6080604052600436106103135760003560e01c806394985ddd1161019a578063c7793ff3116100e1578063e1da26c61161008a578063f2fde38b11610064578063f2fde38b146108a5578063fe2c7fee146108c5578063fe4ce9d7146108e557600080fd5b8063e1da26c61461081a578063e2e06fa31461082f578063e985e9c51461084f57600080fd5b8063d2646463116100bb578063d264646314610805578063d75e611014610805578063dcafe77d146105d557600080fd5b8063c7793ff3146107af578063c87b56dd146107cf578063d133a9b8146107ef57600080fd5b8063a3b261f211610143578063b88d4fde1161011d578063b88d4fde1461073d578063bc8893b41461075d578063bf7962731461078f57600080fd5b8063a3b261f2146106d9578063aaab633914610706578063b5a07ef71461071d57600080fd5b80639be65a60116101745780639be65a6014610686578063a0712d68146106a6578063a22cb465146106b957600080fd5b806394985ddd1461063157806395d89b4114610651578063983f98671461066657600080fd5b80636063440b1161025e578063715018a61161020757806382255456116101e157806382255456146105d55780638d859f3e146105eb5780638da5cb5b1461060657600080fd5b8063715018a6146105805780637e925db014610595578063801b25c7146105b557600080fd5b80636c0360eb116102385780636c0360eb146105365780637035bf181461054b57806370a082311461056057600080fd5b80636063440b146104c35780636352211e146104f657806369d037381461051657600080fd5b806323b872dd116102c057806342842e0e1161029a57806342842e0e14610463578063447400bf1461048357806355f804b3146104a357600080fd5b806323b872dd146104195780633307dcfe146104395780633ccfd60b1461044e57600080fd5b8063081812fc116102f1578063081812fc1461039d578063095ea7b3146103e257806318160ddd1461040457600080fd5b806301ffc9a714610318578063045cae671461034d57806306fdde031461037b575b600080fd5b34801561032457600080fd5b506103386103333660046137e5565b610905565b60405190151581526020015b60405180910390f35b34801561035957600080fd5b5061036d61036836600461382b565b6109ea565b604051908152602001610344565b34801561038757600080fd5b50610390610a02565b60405161034491906138be565b3480156103a957600080fd5b506103bd6103b83660046138d1565b610a94565b60405173ffffffffffffffffffffffffffffffffffffffff9091168152602001610344565b3480156103ee57600080fd5b506104026103fd3660046138ea565b610b73565b005b34801561041057600080fd5b5061036d610d00565b34801561042557600080fd5b50610402610434366004613916565b610d24565b34801561044557600080fd5b50610402610dc5565b34801561045a57600080fd5b50610402610e62565b34801561046f57600080fd5b5061040261047e366004613916565b610f16565b34801561048f57600080fd5b5061040261049e366004613957565b610f31565b3480156104af57600080fd5b506104026104be366004613a3c565b6112ca565b3480156104cf57600080fd5b50600e54610338907501000000000000000000000000000000000000000000900460ff1681565b34801561050257600080fd5b506103bd6105113660046138d1565b61135e565b34801561052257600080fd5b5061040261053136600461382b565b611410565b34801561054257600080fd5b506103906114d8565b34801561055757600080fd5b50610390611566565b34801561056c57600080fd5b5061036d61057b36600461382b565b611573565b34801561058c57600080fd5b5061040261159d565b3480156105a157600080fd5b5061036d6105b036600461382b565b61162a565b3480156105c157600080fd5b506104026105d03660046138d1565b611649565b3480156105e157600080fd5b5061036d6103e881565b3480156105f757600080fd5b5061036d666a94d74f43000081565b34801561061257600080fd5b5060065473ffffffffffffffffffffffffffffffffffffffff166103bd565b34801561063d57600080fd5b5061040261064c366004613957565b611764565b34801561065d57600080fd5b5061039061180d565b34801561067257600080fd5b5061036d61068136600461382b565b61181c565b34801561069257600080fd5b506104026106a136600461382b565b611848565b6104026106b43660046138d1565b611a98565b3480156106c557600080fd5b506104026106d4366004613a93565b611d29565b3480156106e557600080fd5b506106f96106f436600461382b565b611d34565b6040516103449190613acc565b34801561071257600080fd5b50600a541515610338565b34801561072957600080fd5b5061036d61073836600461382b565b611e1a565b34801561074957600080fd5b50610402610758366004613b10565b611e2a565b34801561076957600080fd5b50600e546103389074010000000000000000000000000000000000000000900460ff1681565b34801561079b57600080fd5b506103386107aa366004613957565b611ed2565b3480156107bb57600080fd5b506104026107ca366004613b90565b611f61565b3480156107db57600080fd5b506103906107ea3660046138d1565b61202d565b3480156107fb57600080fd5b5061036d600f5481565b34801561081157600080fd5b5061036d600a81565b34801561082657600080fd5b506104026121ba565b34801561083b57600080fd5b5061040261084a366004613b90565b6122ad565b34801561085b57600080fd5b5061033861086a366004613bad565b73ffffffffffffffffffffffffffffffffffffffff918216600090815260056020908152604080832093909416825291909152205460ff1690565b3480156108b157600080fd5b506104026108c036600461382b565b612378565b3480156108d157600080fd5b506104026108e0366004613a3c565b6124a5565b3480156108f157600080fd5b5061040261090036600461382b565b612539565b60007fffffffff0000000000000000000000000000000000000000000000000000000082167f80ac58cd00000000000000000000000000000000000000000000000000000000148061099857507fffffffff0000000000000000000000000000000000000000000000000000000082167f5b5e139f00000000000000000000000000000000000000000000000000000000145b806109e457507f01ffc9a7000000000000000000000000000000000000000000000000000000007fffffffff000000000000000000000000000000000000000000000000000000008316145b92915050565b60006109e4826103e86109fd8180613c0a565b612601565b606060018054610a1190613c22565b80601f0160208091040260200160405190810160405280929190818152602001828054610a3d90613c22565b8015610a8a5780601f10610a5f57610100808354040283529160200191610a8a565b820191906000526020600020905b815481529060010190602001808311610a6d57829003601f168201915b5050505050905090565b60008181526003602052604081205473ffffffffffffffffffffffffffffffffffffffff16610b4a576040517f08c379a000000000000000000000000000000000000000000000000000000000815260206004820152602c60248201527f4552433732313a20617070726f76656420717565727920666f72206e6f6e657860448201527f697374656e7420746f6b656e000000000000000000000000000000000000000060648201526084015b60405180910390fd5b5060009081526004602052604090205473ffffffffffffffffffffffffffffffffffffffff1690565b6000610b7e8261135e565b90508073ffffffffffffffffffffffffffffffffffffffff168373ffffffffffffffffffffffffffffffffffffffff161415610c3c576040517f08c379a000000000000000000000000000000000000000000000000000000000815260206004820152602160248201527f4552433732313a20617070726f76616c20746f2063757272656e74206f776e6560448201527f72000000000000000000000000000000000000000000000000000000000000006064820152608401610b41565b3373ffffffffffffffffffffffffffffffffffffffff82161480610c655750610c65813361086a565b610cf1576040517f08c379a000000000000000000000000000000000000000000000000000000000815260206004820152603860248201527f4552433732313a20617070726f76652063616c6c6572206973206e6f74206f7760448201527f6e6572206e6f7220617070726f76656420666f7220616c6c00000000000000006064820152608401610b41565b610cfb838361270a565b505050565b6000601154601054600f54610d159190613c0a565b610d1f9190613c0a565b905090565b610d2e33826127aa565b610dba576040517f08c379a000000000000000000000000000000000000000000000000000000000815260206004820152603160248201527f4552433732313a207472616e736665722063616c6c6572206973206e6f74206f60448201527f776e6572206e6f7220617070726f7665640000000000000000000000000000006064820152608401610b41565b610cfb83838361291a565b60065473ffffffffffffffffffffffffffffffffffffffff163314610e46576040517f08c379a000000000000000000000000000000000000000000000000000000000815260206004820181905260248201527f4f776e61626c653a2063616c6c6572206973206e6f7420746865206f776e65726044820152606401610b41565b6000610e53600143613c76565b409050610e5f81612b0b565b50565b60065473ffffffffffffffffffffffffffffffffffffffff163314610ee3576040517f08c379a000000000000000000000000000000000000000000000000000000000815260206004820181905260248201527f4f776e61626c653a2063616c6c6572206973206e6f7420746865206f776e65726044820152606401610b41565b6040514790339082156108fc029083906000818181858888f19350505050158015610f12573d6000803e3d6000fd5b5050565b610cfb83838360405180602001604052806000815250611e2a565b600e547501000000000000000000000000000000000000000000900460ff16610fb6576040517f08c379a000000000000000000000000000000000000000000000000000000000815260206004820152601460248201527f4d55544154494f4e535f4e4f545f4143544956450000000000000000000000006044820152606401610b41565b32331461101f576040517f08c379a000000000000000000000000000000000000000000000000000000000815260206004820152600d60248201527f434f4e54524143545f43414c4c000000000000000000000000000000000000006044820152606401610b41565b600d546040517f6352211e00000000000000000000000000000000000000000000000000000000815260048101849052339173ffffffffffffffffffffffffffffffffffffffff1690636352211e90602401602060405180830381865afa15801561108e573d6000803e3d6000fd5b505050506040513d601f19601f820116820180604052508101906110b29190613c8d565b73ffffffffffffffffffffffffffffffffffffffff161461112f576040517f08c379a000000000000000000000000000000000000000000000000000000000815260206004820152601160248201527f4e4f545f43414c4c4552535f544f4b454e0000000000000000000000000000006044820152606401610b41565b60038110611199576040517f08c379a000000000000000000000000000000000000000000000000000000000815260206004820152601260248201527f494e56414c49445f534552554d5f5459504500000000000000000000000000006044820152606401610b41565b6000816111c8576111ac836103e8613c0a565b6010805491925060006111be83613caa565b9190505550611224565b81600114156111e857826111de6103e880613c0a565b6111ac9190613c0a565b6011546103e86111f88180613c0a565b6112029190613c0a565b61120c9190613c0a565b60118054919250600061121e83613caa565b91905055505b61122e3382612bc0565b600e546040517fc6ae087d0000000000000000000000000000000000000000000000000000000081523360048201526024810184905273ffffffffffffffffffffffffffffffffffffffff9091169063c6ae087d90604401600060405180830381600087803b1580156112a057600080fd5b505af11580156112b4573d6000803e3d6000fd5b505050508160021415610cfb57610cfb81612d47565b60065473ffffffffffffffffffffffffffffffffffffffff16331461134b576040517f08c379a000000000000000000000000000000000000000000000000000000000815260206004820181905260248201527f4f776e61626c653a2063616c6c6572206973206e6f7420746865206f776e65726044820152606401610b41565b8051610f1290600c906020840190613727565b60008181526003602052604081205473ffffffffffffffffffffffffffffffffffffffff16806109e4576040517f08c379a000000000000000000000000000000000000000000000000000000000815260206004820152602960248201527f4552433732313a206f776e657220717565727920666f72206e6f6e657869737460448201527f656e7420746f6b656e00000000000000000000000000000000000000000000006064820152608401610b41565b60065473ffffffffffffffffffffffffffffffffffffffff163314611491576040517f08c379a000000000000000000000000000000000000000000000000000000000815260206004820181905260248201527f4f776e61626c653a2063616c6c6572206973206e6f7420746865206f776e65726044820152606401610b41565b600d80547fffffffffffffffffffffffff00000000000000000000000000000000000000001673ffffffffffffffffffffffffffffffffffffffff92909216919091179055565b600c80546114e590613c22565b80601f016020809104026020016040519081016040528092919081815260200182805461151190613c22565b801561155e5780601f106115335761010080835404028352916020019161155e565b820191906000526020600020905b81548152906001019060200180831161154157829003601f168201915b505050505081565b600b80546114e590613c22565b60006109e48282600a6103e86115898180613c0a565b6115939190613c0a565b6109fd9190613c0a565b60065473ffffffffffffffffffffffffffffffffffffffff16331461161e576040517f08c379a000000000000000000000000000000000000000000000000000000000815260206004820181905260248201527f4f776e61626c653a2063616c6c6572206973206e6f7420746865206f776e65726044820152606401610b41565b6116286000612d66565b565b60006109e48261163c6103e880613c0a565b6103e86115938180613c0a565b60065473ffffffffffffffffffffffffffffffffffffffff1633146116ca576040517f08c379a000000000000000000000000000000000000000000000000000000000815260206004820181905260248201527f4f776e61626c653a2063616c6c6572206973206e6f7420746865206f776e65726044820152606401610b41565b806103e86116d88180613c0a565b6116e29190613c0a565b111561174a576040517f08c379a000000000000000000000000000000000000000000000000000000000815260206004820152600f60248201527f494e56414c49445f4d4547415f494400000000000000000000000000000000006044820152606401610b41565b6000611757600143613c76565b409050610f128282612ddd565b3373ffffffffffffffffffffffffffffffffffffffff7f00000000000000000000000000000000000000000000000000000000000000001614611803576040517f08c379a000000000000000000000000000000000000000000000000000000000815260206004820152601f60248201527f4f6e6c7920565246436f6f7264696e61746f722063616e2066756c66696c6c006044820152606401610b41565b610f128282612eff565b606060028054610a1190613c22565b60006109e4826103e861182f8180613c0a565b6118399190613c0a565b600a6103e86115898180613c0a565b60065473ffffffffffffffffffffffffffffffffffffffff1633146118c9576040517f08c379a000000000000000000000000000000000000000000000000000000000815260206004820181905260248201527f4f776e61626c653a2063616c6c6572206973206e6f7420746865206f776e65726044820152606401610b41565b6040517f70a0823100000000000000000000000000000000000000000000000000000000815230600482015260009073ffffffffffffffffffffffffffffffffffffffff8316906370a0823190602401602060405180830381865afa158015611936573d6000803e3d6000fd5b505050506040513d601f19601f8201168201806040525081019061195a9190613ce3565b905060008273ffffffffffffffffffffffffffffffffffffffff1663a9059cbb61199960065473ffffffffffffffffffffffffffffffffffffffff1690565b6040517fffffffff0000000000000000000000000000000000000000000000000000000060e084901b16815273ffffffffffffffffffffffffffffffffffffffff9091166004820152602481018590526044016020604051808303816000875af1158015611a0b573d6000803e3d6000fd5b505050506040513d601f19601f82011682018060405250810190611a2f9190613cfc565b905080610cfb576040517f08c379a000000000000000000000000000000000000000000000000000000000815260206004820152601560248201527f544f4b454e5f5452414e534645525f4641494c454400000000000000000000006044820152606401610b41565b600e5474010000000000000000000000000000000000000000900460ff16611b1c576040517f08c379a000000000000000000000000000000000000000000000000000000000815260206004820152601660248201527f5055424c49435f53414c455f4e4f545f414354495645000000000000000000006044820152606401610b41565b323314611b85576040517f08c379a000000000000000000000000000000000000000000000000000000000815260206004820152600d60248201527f434f4e54524143545f43414c4c000000000000000000000000000000000000006044820152606401610b41565b600a811115611bf0576040517f08c379a000000000000000000000000000000000000000000000000000000000815260206004820152600d60248201527f455843454544535f4c494d4954000000000000000000000000000000000000006044820152606401610b41565b611c0181666a94d74f430000613d19565b3414611c69576040517f08c379a000000000000000000000000000000000000000000000000000000000815260206004820152600f60248201527f494e434f52524543545f56414c554500000000000000000000000000000000006044820152606401610b41565b600f546103e8611c798383613c0a565b1115611ce1576040517f08c379a000000000000000000000000000000000000000000000000000000000815260206004820152601260248201527f4d41585f535550504c595f5245414348454400000000000000000000000000006044820152606401610b41565b81600f6000828254611cf39190613c0a565b90915550600090505b82811015610cfb57611d1733611d128385613c0a565b612bc0565b80611d2181613caa565b915050611cfc565b610f12338383612f26565b60606000611d4183611573565b67ffffffffffffffff811115611d5957611d59613979565b604051908082528060200260200182016040528015611d82578160200160208202803683370190505b50905060005b600a6103e8611d978180613c0a565b611da19190613c0a565b611dab9190613c0a565b811015611e135760008181526003602052604090205473ffffffffffffffffffffffffffffffffffffffff85811691161415611e015780828281518110611df457611df4613d56565b6020026020010181815250505b80611e0b81613caa565b915050611d88565b5092915050565b60006109e48260006103e8612601565b611e3433836127aa565b611ec0576040517f08c379a000000000000000000000000000000000000000000000000000000000815260206004820152603160248201527f4552433732313a207472616e736665722063616c6c6572206973206e6f74206f60448201527f776e6572206e6f7220617070726f7665640000000000000000000000000000006064820152608401610b41565b611ecc84848484613054565b50505050565b60008082611eed57611ee6846103e8613c0a565b9050611f34565b8260011415611f0d5783611f036103e880613c0a565b611ee69190613c0a565b6011546103e8611f1d8180613c0a565b611f279190613c0a565b611f319190613c0a565b90505b60009081526003602052604090205473ffffffffffffffffffffffffffffffffffffffff16159392505050565b60065473ffffffffffffffffffffffffffffffffffffffff163314611fe2576040517f08c379a000000000000000000000000000000000000000000000000000000000815260206004820181905260248201527f4f776e61626c653a2063616c6c6572206973206e6f7420746865206f776e65726044820152606401610b41565b600e80549115157501000000000000000000000000000000000000000000027fffffffffffffffffffff00ffffffffffffffffffffffffffffffffffffffffff909216919091179055565b60008181526003602052604090205460609073ffffffffffffffffffffffffffffffffffffffff166120e1576040517f08c379a000000000000000000000000000000000000000000000000000000000815260206004820152602f60248201527f4552433732314d657461646174613a2055524920717565727920666f72206e6f60448201527f6e6578697374656e7420746f6b656e00000000000000000000000000000000006064820152608401610b41565b600a5461217a57600b80546120f590613c22565b80601f016020809104026020016040519081016040528092919081815260200182805461212190613c22565b801561216e5780601f106121435761010080835404028352916020019161216e565b820191906000526020600020905b81548152906001019060200180831161215157829003601f168201915b50505050509050919050565b6000612185836130f7565b9050600c612192826131b5565b6040516020016121a3929190613da1565b604051602081830303815290604052915050919050565b60065473ffffffffffffffffffffffffffffffffffffffff16331461223b576040517f08c379a000000000000000000000000000000000000000000000000000000000815260206004820181905260248201527f4f776e61626c653a2063616c6c6572206973206e6f7420746865206f776e65726044820152606401610b41565b600a54156122a5576040517f08c379a000000000000000000000000000000000000000000000000000000000815260206004820152600f60248201527f52414e444f4d5f534545445f53455400000000000000000000000000000000006044820152606401610b41565b610e5f6132e7565b60065473ffffffffffffffffffffffffffffffffffffffff16331461232e576040517f08c379a000000000000000000000000000000000000000000000000000000000815260206004820181905260248201527f4f776e61626c653a2063616c6c6572206973206e6f7420746865206f776e65726044820152606401610b41565b600e805491151574010000000000000000000000000000000000000000027fffffffffffffffffffffff00ffffffffffffffffffffffffffffffffffffffff909216919091179055565b60065473ffffffffffffffffffffffffffffffffffffffff1633146123f9576040517f08c379a000000000000000000000000000000000000000000000000000000000815260206004820181905260248201527f4f776e61626c653a2063616c6c6572206973206e6f7420746865206f776e65726044820152606401610b41565b73ffffffffffffffffffffffffffffffffffffffff811661249c576040517f08c379a000000000000000000000000000000000000000000000000000000000815260206004820152602660248201527f4f776e61626c653a206e6577206f776e657220697320746865207a65726f206160448201527f64647265737300000000000000000000000000000000000000000000000000006064820152608401610b41565b610e5f81612d66565b60065473ffffffffffffffffffffffffffffffffffffffff163314612526576040517f08c379a000000000000000000000000000000000000000000000000000000000815260206004820181905260248201527f4f776e61626c653a2063616c6c6572206973206e6f7420746865206f776e65726044820152606401610b41565b8051610f1290600b906020840190613727565b60065473ffffffffffffffffffffffffffffffffffffffff1633146125ba576040517f08c379a000000000000000000000000000000000000000000000000000000000815260206004820181905260248201527f4f776e61626c653a2063616c6c6572206973206e6f7420746865206f776e65726044820152606401610b41565b600e80547fffffffffffffffffffffffff00000000000000000000000000000000000000001673ffffffffffffffffffffffffffffffffffffffff92909216919091179055565b600073ffffffffffffffffffffffffffffffffffffffff84166126a6576040517f08c379a000000000000000000000000000000000000000000000000000000000815260206004820152602a60248201527f4552433732313a2062616c616e636520717565727920666f7220746865207a6560448201527f726f2061646472657373000000000000000000000000000000000000000000006064820152608401610b41565b6000835b838110156127015760008181526003602052604090205473ffffffffffffffffffffffffffffffffffffffff878116911614156126ef57816126eb81613caa565b9250505b806126f981613caa565b9150506126aa565b50949350505050565b600081815260046020526040902080547fffffffffffffffffffffffff00000000000000000000000000000000000000001673ffffffffffffffffffffffffffffffffffffffff841690811790915581906127648261135e565b73ffffffffffffffffffffffffffffffffffffffff167f8c5be1e5ebec7d5bd14f71427d1e84f3dd0314c0f7b2291e5b200ac8c7c3b92560405160405180910390a45050565b60008181526003602052604081205473ffffffffffffffffffffffffffffffffffffffff1661285b576040517f08c379a000000000000000000000000000000000000000000000000000000000815260206004820152602c60248201527f4552433732313a206f70657261746f7220717565727920666f72206e6f6e657860448201527f697374656e7420746f6b656e00000000000000000000000000000000000000006064820152608401610b41565b60006128668361135e565b90508073ffffffffffffffffffffffffffffffffffffffff168473ffffffffffffffffffffffffffffffffffffffff1614806128d557508373ffffffffffffffffffffffffffffffffffffffff166128bd84610a94565b73ffffffffffffffffffffffffffffffffffffffff16145b80612912575073ffffffffffffffffffffffffffffffffffffffff80821660009081526005602090815260408083209388168352929052205460ff165b949350505050565b8273ffffffffffffffffffffffffffffffffffffffff1661293a8261135e565b73ffffffffffffffffffffffffffffffffffffffff16146129dd576040517f08c379a000000000000000000000000000000000000000000000000000000000815260206004820152602960248201527f4552433732313a207472616e73666572206f6620746f6b656e2074686174206960448201527f73206e6f74206f776e00000000000000000000000000000000000000000000006064820152608401610b41565b73ffffffffffffffffffffffffffffffffffffffff8216612a7f576040517f08c379a0000000000000000000000000000000000000000000000000000000008152602060048201526024808201527f4552433732313a207472616e7366657220746f20746865207a65726f2061646460448201527f72657373000000000000000000000000000000000000000000000000000000006064820152608401610b41565b612a8a60008261270a565b60008181526003602052604080822080547fffffffffffffffffffffffff00000000000000000000000000000000000000001673ffffffffffffffffffffffffffffffffffffffff86811691821790925591518493918716917fddf252ad1be2c89b69c2b068fc378daa952ba7f163c4a11628f55a4df523b3ef91a4505050565b600a5415612b75576040517f08c379a000000000000000000000000000000000000000000000000000000000815260206004820152600f60248201527f52414e444f4d5f534545445f53455400000000000000000000000000000000006044820152606401610b41565b600954612ba2827fffffffffffffffffffffffffffffffffffffffffffffffffffffffffffffffff613c76565b1015612bbb57600954612bb59082613c76565b600a5550565b600a55565b73ffffffffffffffffffffffffffffffffffffffff8216612c3d576040517f08c379a000000000000000000000000000000000000000000000000000000000815260206004820181905260248201527f4552433732313a206d696e7420746f20746865207a65726f20616464726573736044820152606401610b41565b60008181526003602052604090205473ffffffffffffffffffffffffffffffffffffffff1615612cc9576040517f08c379a000000000000000000000000000000000000000000000000000000000815260206004820152601c60248201527f4552433732313a20746f6b656e20616c7265616479206d696e746564000000006044820152606401610b41565b60008181526003602052604080822080547fffffffffffffffffffffffff00000000000000000000000000000000000000001673ffffffffffffffffffffffffffffffffffffffff861690811790915590518392907fddf252ad1be2c89b69c2b068fc378daa952ba7f163c4a11628f55a4df523b3ef908290a45050565b6000612d516132e7565b60009081526014602052604090209190915550565b6006805473ffffffffffffffffffffffffffffffffffffffff8381167fffffffffffffffffffffffff0000000000000000000000000000000000000000831681179093556040519116919082907f8be0079c531659141344cd1fd0a4f28419497f9722a3daafe3b4186f6b6457e090600090a35050565b60008281526003602052604090205473ffffffffffffffffffffffffffffffffffffffff16612e68576040517f08c379a000000000000000000000000000000000000000000000000000000000815260206004820152601160248201527f4d4547415f49445f4e4f545f464f554e440000000000000000000000000000006044820152606401610b41565b60008281526013602052604090205415612ede576040517f08c379a000000000000000000000000000000000000000000000000000000000815260206004820152601360248201527f4d4547415f49445f414c52454144595f534554000000000000000000000000006044820152606401610b41565b612ee96012826132f7565b6000928352601360205260409092209190915550565b60008281526014602052604090205480612f1c57610cfb82612b0b565b610cfb8183612ddd565b8173ffffffffffffffffffffffffffffffffffffffff168373ffffffffffffffffffffffffffffffffffffffff161415612fbc576040517f08c379a000000000000000000000000000000000000000000000000000000000815260206004820152601960248201527f4552433732313a20617070726f766520746f2063616c6c6572000000000000006044820152606401610b41565b73ffffffffffffffffffffffffffffffffffffffff83811660008181526005602090815260408083209487168084529482529182902080547fffffffffffffffffffffffffffffffffffffffffffffffffffffffffffffff001686151590811790915591519182527f17307eab39ab6107e8899845ad3d59bd9653f200f220920489ca2b5937696c31910160405180910390a3505050565b61305f84848461291a565b61306b84848484613314565b611ecc576040517f08c379a000000000000000000000000000000000000000000000000000000000815260206004820152603260248201527f4552433732313a207472616e7366657220746f206e6f6e20455243373231526560448201527f63656976657220696d706c656d656e74657200000000000000000000000000006064820152608401610b41565b60006103e882101561311e576103e8600a54836131149190613c0a565b6109e49190613eda565b6103e861312b8180613c0a565b6131359190613c0a565b82106131b157600082815260136020526040902054806109e4576040517f08c379a000000000000000000000000000000000000000000000000000000000815260206004820152601360248201527f4d455441444154415f49445f4e4f545f534554000000000000000000000000006044820152606401610b41565b5090565b6060816131f557505060408051808201909152600181527f3000000000000000000000000000000000000000000000000000000000000000602082015290565b8160005b811561321f578061320981613caa565b91506132189050600a83613eee565b91506131f9565b60008167ffffffffffffffff81111561323a5761323a613979565b6040519080825280601f01601f191660200182016040528015613264576020820181803683370190505b5090505b841561291257613279600183613c76565b9150613286600a86613eda565b613291906030613c0a565b60f81b8183815181106132a6576132a6613d56565b60200101907effffffffffffffffffffffffffffffffffffffffffffffffffffffffffffff1916908160001a9053506132e0600a86613eee565b9450613268565b6000610d1f600754600854613504565b815460009081906133089084613eda565b90506129128482613688565b600073ffffffffffffffffffffffffffffffffffffffff84163b156134f9576040517f150b7a0200000000000000000000000000000000000000000000000000000000815273ffffffffffffffffffffffffffffffffffffffff85169063150b7a029061338b903390899088908890600401613f02565b6020604051808303816000875af19250505080156133e4575060408051601f3d9081017fffffffffffffffffffffffffffffffffffffffffffffffffffffffffffffffe01682019092526133e191810190613f4b565b60015b6134ae573d808015613412576040519150601f19603f3d011682016040523d82523d6000602084013e613417565b606091505b5080516134a6576040517f08c379a000000000000000000000000000000000000000000000000000000000815260206004820152603260248201527f4552433732313a207472616e7366657220746f206e6f6e20455243373231526560448201527f63656976657220696d706c656d656e74657200000000000000000000000000006064820152608401610b41565b805181602001fd5b7fffffffff00000000000000000000000000000000000000000000000000000000167f150b7a0200000000000000000000000000000000000000000000000000000000149050612912565b506001949350505050565b60007f000000000000000000000000000000000000000000000000000000000000000073ffffffffffffffffffffffffffffffffffffffff16634000aea07f000000000000000000000000000000000000000000000000000000000000000084866000604051602001613581929190918252602082015260400190565b6040516020818303038152906040526040518463ffffffff1660e01b81526004016135ae93929190613f68565b6020604051808303816000875af11580156135cd573d6000803e3d6000fd5b505050506040513d601f19601f820116820180604052508101906135f19190613cfc565b5060008381526020818152604080832054815180840188905280830185905230606082015260808082018390528351808303909101815260a09091019092528151918301919091208684529290915261364b906001613c0a565b6000858152602081815260409182902092909255805180830187905280820184905281518082038301815260609091019091528051910120612912565b60008083838154811061369d5761369d613d56565b9060005260206000200154905083600185805490506136bc9190613c76565b815481106136cc576136cc613d56565b90600052602060002001548484815481106136e9576136e9613d56565b90600052602060002001819055508380548061370757613707613f9d565b600190038181906000526020600020016000905590558091505092915050565b82805461373390613c22565b90600052602060002090601f016020900481019282613755576000855561379b565b82601f1061376e57805160ff191683800117855561379b565b8280016001018555821561379b579182015b8281111561379b578251825591602001919060010190613780565b506131b19291505b808211156131b157600081556001016137a3565b7fffffffff0000000000000000000000000000000000000000000000000000000081168114610e5f57600080fd5b6000602082840312156137f757600080fd5b8135613802816137b7565b9392505050565b73ffffffffffffffffffffffffffffffffffffffff81168114610e5f57600080fd5b60006020828403121561383d57600080fd5b813561380281613809565b60005b8381101561386357818101518382015260200161384b565b83811115611ecc5750506000910152565b6000815180845261388c816020860160208601613848565b601f017fffffffffffffffffffffffffffffffffffffffffffffffffffffffffffffffe0169290920160200192915050565b6020815260006138026020830184613874565b6000602082840312156138e357600080fd5b5035919050565b600080604083850312156138fd57600080fd5b823561390881613809565b946020939093013593505050565b60008060006060848603121561392b57600080fd5b833561393681613809565b9250602084013561394681613809565b929592945050506040919091013590565b6000806040838503121561396a57600080fd5b50508035926020909101359150565b7f4e487b7100000000000000000000000000000000000000000000000000000000600052604160045260246000fd5b600067ffffffffffffffff808411156139c3576139c3613979565b604051601f85017fffffffffffffffffffffffffffffffffffffffffffffffffffffffffffffffe0908116603f01168101908282118183101715613a0957613a09613979565b81604052809350858152868686011115613a2257600080fd5b858560208301376000602087830101525050509392505050565b600060208284031215613a4e57600080fd5b813567ffffffffffffffff811115613a6557600080fd5b8201601f81018413613a7657600080fd5b612912848235602084016139a8565b8015158114610e5f57600080fd5b60008060408385031215613aa657600080fd5b8235613ab181613809565b91506020830135613ac181613a85565b809150509250929050565b6020808252825182820181905260009190848201906040850190845b81811015613b0457835183529284019291840191600101613ae8565b50909695505050505050565b60008060008060808587031215613b2657600080fd5b8435613b3181613809565b93506020850135613b4181613809565b925060408501359150606085013567ffffffffffffffff811115613b6457600080fd5b8501601f81018713613b7557600080fd5b613b84878235602084016139a8565b91505092959194509250565b600060208284031215613ba257600080fd5b813561380281613a85565b60008060408385031215613bc057600080fd5b8235613bcb81613809565b91506020830135613ac181613809565b7f4e487b7100000000000000000000000000000000000000000000000000000000600052601160045260246000fd5b60008219821115613c1d57613c1d613bdb565b500190565b600181811c90821680613c3657607f821691505b60208210811415613c70577f4e487b7100000000000000000000000000000000000000000000000000000000600052602260045260246000fd5b50919050565b600082821015613c8857613c88613bdb565b500390565b600060208284031215613c9f57600080fd5b815161380281613809565b60007fffffffffffffffffffffffffffffffffffffffffffffffffffffffffffffffff821415613cdc57613cdc613bdb565b5060010190565b600060208284031215613cf557600080fd5b5051919050565b600060208284031215613d0e57600080fd5b815161380281613a85565b6000817fffffffffffffffffffffffffffffffffffffffffffffffffffffffffffffffff0483118215151615613d5157613d51613bdb565b500290565b7f4e487b7100000000000000000000000000000000000000000000000000000000600052603260045260246000fd5b60008151613d97818560208601613848565b9290920192915050565b600080845481600182811c915080831680613dbd57607f831692505b6020808410821415613df6577f4e487b710000000000000000000000000000000000000000000000000000000086526022600452602486fd5b818015613e0a5760018114613e3957613e66565b7fffffffffffffffffffffffffffffffffffffffffffffffffffffffffffffff00861689528489019650613e66565b60008b81526020902060005b86811015613e5e5781548b820152908501908301613e45565b505084890196505b505050505050613ea2613e798286613d85565b7f2e6a736f6e000000000000000000000000000000000000000000000000000000815260050190565b95945050505050565b7f4e487b7100000000000000000000000000000000000000000000000000000000600052601260045260246000fd5b600082613ee957613ee9613eab565b500690565b600082613efd57613efd613eab565b500490565b600073ffffffffffffffffffffffffffffffffffffffff808716835280861660208401525083604083015260806060830152613f416080830184613874565b9695505050505050565b600060208284031215613f5d57600080fd5b8151613802816137b7565b73ffffffffffffffffffffffffffffffffffffffff84168152826020820152606060408201526000613ea26060830184613874565b7f4e487b7100000000000000000000000000000000000000000000000000000000600052603160045260246000fdfea2646970667358221220dfc024cb9d55da7e4eae0564dfc3664b5d5c6b251f8362f092c03c6aeff1579164736f6c634300080b0033",
  "linkReferences": {},
  "deployedLinkReferences": {}
}