{
  "_format": "hh-sol-artifact-1",
  "contractName": "NFT",
  "sourceName": "contracts/NFT.sol",
  "abi": [
    {
      "inputs": [],
      "stateMutability": "nonpayable",
      "type": "constructor"
    },
    {
      "anonymous": false,
      "inputs": [
        {
          "indexed": true,
          "internalType": "address",
          "name": "owner",
          "type": "address"
        },
        {
          "indexed": true,
          "internalType": "address",
          "name": "approved",
          "type": "address"
        },
        {
          "indexed": true,
          "internalType": "uint256",
          "name": "tokenId",
          "type": "uint256"
        }
      ],
      "name": "Approval",
      "type": "event"
    },
    {
      "anonymous": false,
      "inputs": [
        {
          "indexed": true,
          "internalType": "address",
          "name": "owner",
          "type": "address"
        },
        {
          "indexed": true,
          "internalType": "address",
          "name": "operator",
          "type": "address"
        },
        {
          "indexed": false,
          "internalType": "bool",
          "name": "approved",
          "type": "bool"
        }
      ],
      "name": "ApprovalForAll",
      "type": "event"
    },
    {
      "anonymous": false,
      "inputs": [
        {
          "indexed": true,
          "internalType": "address",
          "name": "previousOwner",
          "type": "address"
        },
        {
          "indexed": true,
          "internalType": "address",
          "name": "newOwner",
          "type": "address"
        }
      ],
      "name": "OwnershipTransferred",
      "type": "event"
    },
    {
      "anonymous": false,
      "inputs": [
        {
          "indexed": false,
          "internalType": "uint256",
          "name": "state",
          "type": "uint256"
        }
      ],
      "name": "StateUpdate",
      "type": "event"
    },
    {
      "anonymous": false,
      "inputs": [
        {
          "indexed": true,
          "internalType": "address",
          "name": "from",
          "type": "address"
        },
        {
          "indexed": true,
          "internalType": "address",
          "name": "to",
          "type": "address"
        },
        {
          "indexed": true,
          "internalType": "uint256",
          "name": "tokenId",
          "type": "uint256"
        }
      ],
      "name": "Transfer",
      "type": "event"
    },
    {
      "inputs": [],
      "name": "MAX_SUPPLY",
      "outputs": [
        {
          "internalType": "uint256",
          "name": "",
          "type": "uint256"
        }
      ],
      "stateMutability": "view",
      "type": "function"
    },
    {
      "inputs": [],
      "name": "PRICE",
      "outputs": [
        {
          "internalType": "uint256",
          "name": "",
          "type": "uint256"
        }
      ],
      "stateMutability": "view",
      "type": "function"
    },
    {
      "inputs": [],
      "name": "PURCHASE_LIMIT",
      "outputs": [
        {
          "internalType": "uint256",
          "name": "",
          "type": "uint256"
        }
      ],
      "stateMutability": "view",
      "type": "function"
    },
    {
      "inputs": [],
      "name": "WHITELIST_PRICE",
      "outputs": [
        {
          "internalType": "uint256",
          "name": "",
          "type": "uint256"
        }
      ],
      "stateMutability": "view",
      "type": "function"
    },
    {
      "inputs": [],
      "name": "WHITELIST_PURCHASE_LIMIT",
      "outputs": [
        {
          "internalType": "uint256",
          "name": "",
          "type": "uint256"
        }
      ],
      "stateMutability": "view",
      "type": "function"
    },
    {
      "inputs": [
        {
          "internalType": "address",
          "name": "to",
          "type": "address"
        },
        {
          "internalType": "uint256",
          "name": "tokenId",
          "type": "uint256"
        }
      ],
      "name": "approve",
      "outputs": [],
      "stateMutability": "nonpayable",
      "type": "function"
    },
    {
      "inputs": [
        {
          "internalType": "address",
          "name": "owner",
          "type": "address"
        }
      ],
      "name": "balanceOf",
      "outputs": [
        {
          "internalType": "uint256",
          "name": "",
          "type": "uint256"
        }
      ],
      "stateMutability": "view",
      "type": "function"
    },
    {
      "inputs": [],
      "name": "baseURI",
      "outputs": [
        {
          "internalType": "string",
          "name": "",
          "type": "string"
        }
      ],
      "stateMutability": "view",
      "type": "function"
    },
    {
      "inputs": [
        {
          "internalType": "bytes",
          "name": "signature",
          "type": "bytes"
        }
      ],
      "name": "diamondMint",
      "outputs": [],
      "stateMutability": "payable",
      "type": "function"
    },
    {
      "inputs": [
        {
          "internalType": "uint256",
          "name": "tokenId",
          "type": "uint256"
        }
      ],
      "name": "getApproved",
      "outputs": [
        {
          "internalType": "address",
          "name": "",
          "type": "address"
        }
      ],
      "stateMutability": "view",
      "type": "function"
    },
    {
      "inputs": [
        {
          "internalType": "address",
          "name": "to",
          "type": "address"
        },
        {
          "internalType": "uint256",
          "name": "amount",
          "type": "uint256"
        }
      ],
      "name": "giveAway",
      "outputs": [],
      "stateMutability": "nonpayable",
      "type": "function"
    },
    {
      "inputs": [
        {
          "internalType": "address",
          "name": "owner",
          "type": "address"
        },
        {
          "internalType": "address",
          "name": "operator",
          "type": "address"
        }
      ],
      "name": "isApprovedForAll",
      "outputs": [
        {
          "internalType": "bool",
          "name": "",
          "type": "bool"
        }
      ],
      "stateMutability": "view",
      "type": "function"
    },
    {
      "inputs": [
        {
          "internalType": "uint256",
          "name": "amount",
          "type": "uint256"
        }
      ],
      "name": "mint",
      "outputs": [],
      "stateMutability": "payable",
      "type": "function"
    },
    {
      "inputs": [],
      "name": "name",
      "outputs": [
        {
          "internalType": "string",
          "name": "",
          "type": "string"
        }
      ],
      "stateMutability": "view",
      "type": "function"
    },
    {
      "inputs": [],
      "name": "owner",
      "outputs": [
        {
          "internalType": "address",
          "name": "",
          "type": "address"
        }
      ],
      "stateMutability": "view",
      "type": "function"
    },
    {
      "inputs": [
        {
          "internalType": "uint256",
          "name": "tokenId",
          "type": "uint256"
        }
      ],
      "name": "ownerOf",
      "outputs": [
        {
          "internalType": "address",
          "name": "",
          "type": "address"
        }
      ],
      "stateMutability": "view",
      "type": "function"
    },
    {
      "inputs": [],
      "name": "presaleActive",
      "outputs": [
        {
          "internalType": "bool",
          "name": "",
          "type": "bool"
        }
      ],
      "stateMutability": "view",
      "type": "function"
    },
    {
      "inputs": [],
      "name": "publicSaleActive",
      "outputs": [
        {
          "internalType": "bool",
          "name": "",
          "type": "bool"
        }
      ],
      "stateMutability": "view",
      "type": "function"
    },
    {
      "inputs": [
        {
          "internalType": "contract IERC20",
          "name": "_token",
          "type": "address"
        }
      ],
      "name": "recoverToken",
      "outputs": [],
      "stateMutability": "nonpayable",
      "type": "function"
    },
    {
      "inputs": [],
      "name": "renounceOwnership",
      "outputs": [],
      "stateMutability": "nonpayable",
      "type": "function"
    },
    {
      "inputs": [
        {
          "internalType": "address",
          "name": "from",
          "type": "address"
        },
        {
          "internalType": "address",
          "name": "to",
          "type": "address"
        },
        {
          "internalType": "uint256",
          "name": "tokenId",
          "type": "uint256"
        }
      ],
      "name": "safeTransferFrom",
      "outputs": [],
      "stateMutability": "nonpayable",
      "type": "function"
    },
    {
      "inputs": [
        {
          "internalType": "address",
          "name": "from",
          "type": "address"
        },
        {
          "internalType": "address",
          "name": "to",
          "type": "address"
        },
        {
          "internalType": "uint256",
          "name": "tokenId",
          "type": "uint256"
        },
        {
          "internalType": "bytes",
          "name": "_data",
          "type": "bytes"
        }
      ],
      "name": "safeTransferFrom",
      "outputs": [],
      "stateMutability": "nonpayable",
      "type": "function"
    },
    {
      "inputs": [
        {
          "internalType": "address",
          "name": "operator",
          "type": "address"
        },
        {
          "internalType": "bool",
          "name": "approved",
          "type": "bool"
        }
      ],
      "name": "setApprovalForAll",
      "outputs": [],
      "stateMutability": "nonpayable",
      "type": "function"
    },
    {
      "inputs": [
        {
          "internalType": "string",
          "name": "_baseURI",
          "type": "string"
        }
      ],
      "name": "setBaseURI",
      "outputs": [],
      "stateMutability": "nonpayable",
      "type": "function"
    },
    {
      "inputs": [
        {
          "internalType": "uint256",
          "name": "_state",
          "type": "uint256"
        }
      ],
      "name": "setSaleState",
      "outputs": [],
      "stateMutability": "nonpayable",
      "type": "function"
    },
    {
      "inputs": [
        {
          "internalType": "address",
          "name": "_address",
          "type": "address"
        }
      ],
      "name": "setSignerAddress",
      "outputs": [],
      "stateMutability": "nonpayable",
      "type": "function"
    },
    {
      "inputs": [
        {
          "internalType": "string",
          "name": "_uri",
          "type": "string"
        }
      ],
      "name": "setUnrevealedURI",
      "outputs": [],
      "stateMutability": "nonpayable",
      "type": "function"
    },
    {
      "inputs": [],
      "name": "state",
      "outputs": [
        {
          "internalType": "uint256",
          "name": "",
          "type": "uint256"
        }
      ],
      "stateMutability": "view",
      "type": "function"
    },
    {
      "inputs": [
        {
          "internalType": "bytes4",
          "name": "interfaceId",
          "type": "bytes4"
        }
      ],
      "name": "supportsInterface",
      "outputs": [
        {
          "internalType": "bool",
          "name": "",
          "type": "bool"
        }
      ],
      "stateMutability": "view",
      "type": "function"
    },
    {
      "inputs": [],
      "name": "symbol",
      "outputs": [
        {
          "internalType": "string",
          "name": "",
          "type": "string"
        }
      ],
      "stateMutability": "view",
      "type": "function"
    },
    {
      "inputs": [
        {
          "internalType": "uint256",
          "name": "tokenId",
          "type": "uint256"
        }
      ],
      "name": "tokenURI",
      "outputs": [
        {
          "internalType": "string",
          "name": "",
          "type": "string"
        }
      ],
      "stateMutability": "view",
      "type": "function"
    },
    {
      "inputs": [],
      "name": "totalSupply",
      "outputs": [
        {
          "internalType": "uint256",
          "name": "",
          "type": "uint256"
        }
      ],
      "stateMutability": "view",
      "type": "function"
    },
    {
      "inputs": [
        {
          "internalType": "address",
          "name": "from",
          "type": "address"
        },
        {
          "internalType": "address",
          "name": "to",
          "type": "address"
        },
        {
          "internalType": "uint256",
          "name": "tokenId",
          "type": "uint256"
        }
      ],
      "name": "transferFrom",
      "outputs": [],
      "stateMutability": "nonpayable",
      "type": "function"
    },
    {
      "inputs": [
        {
          "internalType": "address",
          "name": "newOwner",
          "type": "address"
        }
      ],
      "name": "transferOwnership",
      "outputs": [],
      "stateMutability": "nonpayable",
      "type": "function"
    },
    {
      "inputs": [],
      "name": "unrevealedURI",
      "outputs": [
        {
          "internalType": "string",
          "name": "",
          "type": "string"
        }
      ],
      "stateMutability": "view",
      "type": "function"
    },
    {
      "inputs": [
        {
          "internalType": "uint256",
          "name": "amount",
          "type": "uint256"
        },
        {
          "internalType": "bytes",
          "name": "signature",
          "type": "bytes"
        }
      ],
      "name": "whitelistMint",
      "outputs": [],
      "stateMutability": "payable",
      "type": "function"
    },
    {
      "inputs": [],
      "name": "withdraw",
      "outputs": [],
      "stateMutability": "nonpayable",
      "type": "function"
    }
  ],
  "bytecode": "0x600780546001600160a01b0319167368442589f40e8fc3a9679de62884c85c6e52488817905560c0604052600a6080819052690d2e0cce6745e5eb0b0b60b31b60a09081526200005391600891906200013f565b503480156200006157600080fd5b50604080518082018252600881526709af29c8ca8b0b0b60c31b60208083019182528351808501909452600684526509c8ca8b0b0b60d31b908401528151919291620000b0916000916200013f565b508051620000c69060019060208401906200013f565b505050620000e3620000dd620000e960201b60201c565b620000ed565b62000222565b3390565b600580546001600160a01b038381166001600160a01b0319831681179093556040519116919082907f8be0079c531659141344cd1fd0a4f28419497f9722a3daafe3b4186f6b6457e090600090a35050565b8280546200014d90620001e5565b90600052602060002090601f016020900481019282620001715760008555620001bc565b82601f106200018c57805160ff1916838001178555620001bc565b82800160010185558215620001bc579182015b82811115620001bc5782518255916020019190600101906200019f565b50620001ca929150620001ce565b5090565b5b80821115620001ca5760008155600101620001cf565b600181811c90821680620001fa57607f821691505b602082108114156200021c57634e487b7160e01b600052602260045260246000fd5b50919050565b61310880620002326000396000f3fe60806040526004361061026a5760003560e01c8063715018a611610153578063a22cb465116100cb578063ca8001441161007f578063e985e9c511610064578063e985e9c514610626578063f2fde38b1461066f578063fe2c7fee1461068f57600080fd5b8063ca800144146105f1578063d75e61101461061157600080fd5b8063bc8893b4116100b0578063bc8893b4146105a3578063c19d93fb146105bb578063c87b56dd146105d157600080fd5b8063a22cb46514610563578063b88d4fde1461058357600080fd5b8063937a0075116101225780639be65a60116101075780639be65a601461051d5780639e852f751461053d578063a0712d681461055057600080fd5b8063937a0075146104f357806395d89b411461050857600080fd5b8063715018a6146104ad5780637de093f2146104c25780638d859f3e146103605780638da5cb5b146104d557600080fd5b806332cb6b0c116101e657806355f804b3116101b55780636c0360eb1161019a5780636c0360eb146104625780637035bf181461047757806370a082311461048c57600080fd5b806355f804b3146104225780636352211e1461044257600080fd5b806332cb6b0c146103bf5780633ccfd60b146103d557806342842e0e146103ea57806353135ca01461040a57600080fd5b8063084c40881161023d57806317e7f2951161022257806317e7f2951461036057806318160ddd1461038957806323b872dd1461039f57600080fd5b8063084c408814610320578063095ea7b31461034057600080fd5b806301ffc9a71461026f578063046dc166146102a457806306fdde03146102c6578063081812fc146102e8575b600080fd5b34801561027b57600080fd5b5061028f61028a366004612926565b6106af565b60405190151581526020015b60405180910390f35b3480156102b057600080fd5b506102c46102bf36600461295f565b610794565b005b3480156102d257600080fd5b506102db61082d565b60405161029b91906129f2565b3480156102f457600080fd5b50610308610303366004612a05565b6108bf565b6040516001600160a01b03909116815260200161029b565b34801561032c57600080fd5b506102c461033b366004612a05565b610965565b34801561034c57600080fd5b506102c461035b366004612a1e565b6109fa565b34801561036c57600080fd5b5061037b666a94d74f43000081565b60405190815260200161029b565b34801561039557600080fd5b5061037b600a5481565b3480156103ab57600080fd5b506102c46103ba366004612a4a565b610b2c565b3480156103cb57600080fd5b5061037b6103e881565b3480156103e157600080fd5b506102c4610bb3565b3480156103f657600080fd5b506102c4610405366004612a4a565b610c40565b34801561041657600080fd5b5060065460011461028f565b34801561042e57600080fd5b506102c461043d366004612b4e565b610c5b565b34801561044e57600080fd5b5061030861045d366004612a05565b610cc8565b34801561046e57600080fd5b506102db610d53565b34801561048357600080fd5b506102db610de1565b34801561049857600080fd5b5061037b6104a736600461295f565b50600090565b3480156104b957600080fd5b506102c4610dee565b6102c46104d0366004612bb7565b610e54565b3480156104e157600080fd5b506005546001600160a01b0316610308565b3480156104ff57600080fd5b5061037b600281565b34801561051457600080fd5b506102db61103f565b34801561052957600080fd5b506102c461053836600461295f565b61104e565b6102c461054b366004612bec565b611229565b6102c461055e366004612a05565b611473565b34801561056f57600080fd5b506102c461057e366004612c41565b6115d1565b34801561058f57600080fd5b506102c461059e366004612c7a565b6115dc565b3480156105af57600080fd5b5060065460021461028f565b3480156105c757600080fd5b5061037b60065481565b3480156105dd57600080fd5b506102db6105ec366004612a05565b61166a565b3480156105fd57600080fd5b506102c461060c366004612a1e565b6117ce565b34801561061d57600080fd5b5061037b600a81565b34801561063257600080fd5b5061028f610641366004612ce6565b6001600160a01b03918216600090815260046020908152604080832093909416825291909152205460ff1690565b34801561067b57600080fd5b506102c461068a36600461295f565b611832565b34801561069b57600080fd5b506102c46106aa366004612b4e565b611911565b60007fffffffff0000000000000000000000000000000000000000000000000000000082167f80ac58cd00000000000000000000000000000000000000000000000000000000148061074257507fffffffff0000000000000000000000000000000000000000000000000000000082167f5b5e139f00000000000000000000000000000000000000000000000000000000145b8061078e57507f01ffc9a7000000000000000000000000000000000000000000000000000000007fffffffff000000000000000000000000000000000000000000000000000000008316145b92915050565b6005546001600160a01b031633146107f35760405162461bcd60e51b815260206004820181905260248201527f4f776e61626c653a2063616c6c6572206973206e6f7420746865206f776e657260448201526064015b60405180910390fd5b600780547fffffffffffffffffffffffff0000000000000000000000000000000000000000166001600160a01b0392909216919091179055565b60606000805461083c90612d14565b80601f016020809104026020016040519081016040528092919081815260200182805461086890612d14565b80156108b55780601f1061088a576101008083540402835291602001916108b5565b820191906000526020600020905b81548152906001019060200180831161089857829003601f168201915b5050505050905090565b6000818152600260205260408120546001600160a01b03166109495760405162461bcd60e51b815260206004820152602c60248201527f4552433732313a20617070726f76656420717565727920666f72206e6f6e657860448201527f697374656e7420746f6b656e000000000000000000000000000000000000000060648201526084016107ea565b506000908152600360205260409020546001600160a01b031690565b6005546001600160a01b031633146109bf5760405162461bcd60e51b815260206004820181905260248201527f4f776e61626c653a2063616c6c6572206973206e6f7420746865206f776e657260448201526064016107ea565b60068190556040518181527f960805e7dfc5cc387e0db0b8f6b4a6a3fafbe87a9e0669d505558889762b00b39060200160405180910390a150565b6000610a0582610cc8565b9050806001600160a01b0316836001600160a01b03161415610a8f5760405162461bcd60e51b815260206004820152602160248201527f4552433732313a20617070726f76616c20746f2063757272656e74206f776e6560448201527f720000000000000000000000000000000000000000000000000000000000000060648201526084016107ea565b336001600160a01b0382161480610aab5750610aab8133610641565b610b1d5760405162461bcd60e51b815260206004820152603860248201527f4552433732313a20617070726f76652063616c6c6572206973206e6f74206f7760448201527f6e6572206e6f7220617070726f76656420666f7220616c6c000000000000000060648201526084016107ea565b610b27838361197e565b505050565b610b363382611a04565b610ba85760405162461bcd60e51b815260206004820152603160248201527f4552433732313a207472616e736665722063616c6c6572206973206e6f74206f60448201527f776e6572206e6f7220617070726f76656400000000000000000000000000000060648201526084016107ea565b610b27838383611b0c565b6005546001600160a01b03163314610c0d5760405162461bcd60e51b815260206004820181905260248201527f4f776e61626c653a2063616c6c6572206973206e6f7420746865206f776e657260448201526064016107ea565b6040514790339082156108fc029083906000818181858888f19350505050158015610c3c573d6000803e3d6000fd5b5050565b610b27838383604051806020016040528060008152506115dc565b6005546001600160a01b03163314610cb55760405162461bcd60e51b815260206004820181905260248201527f4f776e61626c653a2063616c6c6572206973206e6f7420746865206f776e657260448201526064016107ea565b8051610c3c90600990602084019061285f565b6000818152600260205260408120546001600160a01b03168061078e5760405162461bcd60e51b815260206004820152602960248201527f4552433732313a206f776e657220717565727920666f72206e6f6e657869737460448201527f656e7420746f6b656e000000000000000000000000000000000000000000000060648201526084016107ea565b60098054610d6090612d14565b80601f0160208091040260200160405190810160405280929190818152602001828054610d8c90612d14565b8015610dd95780601f10610dae57610100808354040283529160200191610dd9565b820191906000526020600020905b815481529060010190602001808311610dbc57829003601f168201915b505050505081565b60088054610d6090612d14565b6005546001600160a01b03163314610e485760405162461bcd60e51b815260206004820181905260248201527f4f776e61626c653a2063616c6c6572206973206e6f7420746865206f776e657260448201526064016107ea565b610e526000611c95565b565b60065415610ea45760405162461bcd60e51b815260206004820152601860248201527f494e495449414c5f53544154455f4e4f545f414354495645000000000000000060448201526064016107ea565b80610eb0816000611cff565b610efc5760405162461bcd60e51b815260206004820152600f60248201527f4e4f545f57484954454c4953544544000000000000000000000000000000000060448201526064016107ea565b336000908152600c602052604090205460ff1615610f5c5760405162461bcd60e51b815260206004820152600e60248201527f57484954454c4953545f5553454400000000000000000000000000000000000060448201526064016107ea565b336000818152600c6020526040902080547fffffffffffffffffffffffffffffffffffffffffffffffffffffffffffffff001660011790553214610fe25760405162461bcd60e51b815260206004820152600d60248201527f434f4e54524143545f43414c4c0000000000000000000000000000000000000060448201526064016107ea565b600a546103e881106110365760405162461bcd60e51b815260206004820152601260248201527f4d41585f535550504c595f52454143484544000000000000000000000000000060448201526064016107ea565b610b2733611dd5565b60606001805461083c90612d14565b6005546001600160a01b031633146110a85760405162461bcd60e51b815260206004820181905260248201527f4f776e61626c653a2063616c6c6572206973206e6f7420746865206f776e657260448201526064016107ea565b6040517f70a082310000000000000000000000000000000000000000000000000000000081523060048201526000906001600160a01b038316906370a0823190602401602060405180830381865afa158015611108573d6000803e3d6000fd5b505050506040513d601f19601f8201168201806040525081019061112c9190612d68565b90506000826001600160a01b031663a9059cbb6111516005546001600160a01b031690565b6040517fffffffff0000000000000000000000000000000000000000000000000000000060e084901b1681526001600160a01b039091166004820152602481018590526044016020604051808303816000875af11580156111b6573d6000803e3d6000fd5b505050506040513d601f19601f820116820180604052508101906111da9190612d81565b905080610b275760405162461bcd60e51b815260206004820152601560248201527f544f4b454e5f5452414e534645525f4641494c4544000000000000000000000060448201526064016107ea565b60016006541461127b5760405162461bcd60e51b815260206004820152601260248201527f50524553414c455f4e4f545f414354495645000000000000000000000000000060448201526064016107ea565b80611287816001611cff565b6112d35760405162461bcd60e51b815260206004820152600f60248201527f4e4f545f57484954454c4953544544000000000000000000000000000000000060448201526064016107ea565b336000908152600b602052604090205460ff16156113335760405162461bcd60e51b815260206004820152600e60248201527f57484954454c4953545f5553454400000000000000000000000000000000000060448201526064016107ea565b336000818152600b6020526040902080547fffffffffffffffffffffffffffffffffffffffffffffffffffffffffffffff0016600117905532146113b95760405162461bcd60e51b815260206004820152600d60248201527f434f4e54524143545f43414c4c0000000000000000000000000000000000000060448201526064016107ea565b600283111561140a5760405162461bcd60e51b815260206004820152600d60248201527f455843454544535f4c494d49540000000000000000000000000000000000000060448201526064016107ea565b61141b83666a94d74f430000612dcd565b34146114695760405162461bcd60e51b815260206004820152600f60248201527f494e434f52524543545f56414c5545000000000000000000000000000000000060448201526064016107ea565b610b273384611e4c565b6002600654146114c55760405162461bcd60e51b815260206004820152601660248201527f5055424c49435f53414c455f4e4f545f4143544956450000000000000000000060448201526064016107ea565b3233146115145760405162461bcd60e51b815260206004820152600d60248201527f434f4e54524143545f43414c4c0000000000000000000000000000000000000060448201526064016107ea565b600a8111156115655760405162461bcd60e51b815260206004820152600d60248201527f455843454544535f4c494d49540000000000000000000000000000000000000060448201526064016107ea565b61157681666a94d74f430000612dcd565b34146115c45760405162461bcd60e51b815260206004820152600f60248201527f494e434f52524543545f56414c5545000000000000000000000000000000000060448201526064016107ea565b6115ce3382611e4c565b50565b610c3c338383611ef7565b6115e63383611a04565b6116585760405162461bcd60e51b815260206004820152603160248201527f4552433732313a207472616e736665722063616c6c6572206973206e6f74206f60448201527f776e6572206e6f7220617070726f76656400000000000000000000000000000060648201526084016107ea565b61166484848484611fe4565b50505050565b6000818152600260205260409020546060906001600160a01b03166116f75760405162461bcd60e51b815260206004820152602f60248201527f4552433732314d657461646174613a2055524920717565727920666f72206e6f60448201527f6e6578697374656e7420746f6b656e000000000000000000000000000000000060648201526084016107ea565b60006009805461170690612d14565b90501161179d576008805461171a90612d14565b80601f016020809104026020016040519081016040528092919081815260200182805461174690612d14565b80156117935780601f1061176857610100808354040283529160200191611793565b820191906000526020600020905b81548152906001019060200180831161177657829003601f168201915b505050505061078e565b60096117a88361206d565b6040516020016117b9929190612e26565b60405160208183030381529060405292915050565b6005546001600160a01b031633146118285760405162461bcd60e51b815260206004820181905260248201527f4f776e61626c653a2063616c6c6572206973206e6f7420746865206f776e657260448201526064016107ea565b610c3c8282611e4c565b6005546001600160a01b0316331461188c5760405162461bcd60e51b815260206004820181905260248201527f4f776e61626c653a2063616c6c6572206973206e6f7420746865206f776e657260448201526064016107ea565b6001600160a01b0381166119085760405162461bcd60e51b815260206004820152602660248201527f4f776e61626c653a206e6577206f776e657220697320746865207a65726f206160448201527f646472657373000000000000000000000000000000000000000000000000000060648201526084016107ea565b6115ce81611c95565b6005546001600160a01b0316331461196b5760405162461bcd60e51b815260206004820181905260248201527f4f776e61626c653a2063616c6c6572206973206e6f7420746865206f776e657260448201526064016107ea565b8051610c3c90600890602084019061285f565b600081815260036020526040902080547fffffffffffffffffffffffff0000000000000000000000000000000000000000166001600160a01b03841690811790915581906119cb82610cc8565b6001600160a01b03167f8c5be1e5ebec7d5bd14f71427d1e84f3dd0314c0f7b2291e5b200ac8c7c3b92560405160405180910390a45050565b6000818152600260205260408120546001600160a01b0316611a8e5760405162461bcd60e51b815260206004820152602c60248201527f4552433732313a206f70657261746f7220717565727920666f72206e6f6e657860448201527f697374656e7420746f6b656e000000000000000000000000000000000000000060648201526084016107ea565b6000611a9983610cc8565b9050806001600160a01b0316846001600160a01b03161480611ad45750836001600160a01b0316611ac9846108bf565b6001600160a01b0316145b80611b0457506001600160a01b0380821660009081526004602090815260408083209388168352929052205460ff165b949350505050565b826001600160a01b0316611b1f82610cc8565b6001600160a01b031614611b9b5760405162461bcd60e51b815260206004820152602960248201527f4552433732313a207472616e73666572206f6620746f6b656e2074686174206960448201527f73206e6f74206f776e000000000000000000000000000000000000000000000060648201526084016107ea565b6001600160a01b038216611c165760405162461bcd60e51b8152602060048201526024808201527f4552433732313a207472616e7366657220746f20746865207a65726f2061646460448201527f726573730000000000000000000000000000000000000000000000000000000060648201526084016107ea565b611c2160008261197e565b60008181526002602052604080822080547fffffffffffffffffffffffff0000000000000000000000000000000000000000166001600160a01b0386811691821790925591518493918716917fddf252ad1be2c89b69c2b068fc378daa952ba7f163c4a11628f55a4df523b3ef91a4505050565b600580546001600160a01b038381167fffffffffffffffffffffffff0000000000000000000000000000000000000000831681179093556040519116919082907f8be0079c531659141344cd1fd0a4f28419497f9722a3daafe3b4186f6b6457e090600090a35050565b604080513060208201529081018290523360608201526000908190608001604080517fffffffffffffffffffffffffffffffffffffffffffffffffffffffffffffffe081840301815291905280516020909101206007549091506001600160a01b0316611dc385611dbd846040517f19457468657265756d205369676e6564204d6573736167653a0a3332000000006020820152603c8101829052600090605c01604051602081830303815290604052805190602001209050919050565b9061219f565b6001600160a01b031614949350505050565b600a546103e88110611e295760405162461bcd60e51b815260206004820152601260248201527f4d41585f535550504c595f52454143484544000000000000000000000000000060448201526064016107ea565b611e3382826121c3565b600a8054906000611e4383612f5c565b91905055505050565b600a546103e8611e5c8383612f95565b1115611eaa5760405162461bcd60e51b815260206004820152601260248201527f4d41585f535550504c595f52454143484544000000000000000000000000000060448201526064016107ea565b60005b82811015611eda57611ec884611ec38385612f95565b6121c3565b80611ed281612f5c565b915050611ead565b5081600a6000828254611eed9190612f95565b9091555050505050565b816001600160a01b0316836001600160a01b03161415611f595760405162461bcd60e51b815260206004820152601960248201527f4552433732313a20617070726f766520746f2063616c6c65720000000000000060448201526064016107ea565b6001600160a01b0383811660008181526004602090815260408083209487168084529482529182902080547fffffffffffffffffffffffffffffffffffffffffffffffffffffffffffffff001686151590811790915591519182527f17307eab39ab6107e8899845ad3d59bd9653f200f220920489ca2b5937696c31910160405180910390a3505050565b611fef848484611b0c565b611ffb848484846122ef565b6116645760405162461bcd60e51b815260206004820152603260248201527f4552433732313a207472616e7366657220746f206e6f6e20455243373231526560448201527f63656976657220696d706c656d656e746572000000000000000000000000000060648201526084016107ea565b6060816120ad57505060408051808201909152600181527f3000000000000000000000000000000000000000000000000000000000000000602082015290565b8160005b81156120d757806120c181612f5c565b91506120d09050600a83612fdc565b91506120b1565b60008167ffffffffffffffff8111156120f2576120f2612a8b565b6040519080825280601f01601f19166020018201604052801561211c576020820181803683370190505b5090505b8415611b0457612131600183612ff0565b915061213e600a86613007565b612149906030612f95565b60f81b81838151811061215e5761215e61301b565b60200101907effffffffffffffffffffffffffffffffffffffffffffffffffffffffffffff1916908160001a905350612198600a86612fdc565b9450612120565b60008060006121ae85856124ab565b915091506121bb8161251b565b509392505050565b6001600160a01b0382166122195760405162461bcd60e51b815260206004820181905260248201527f4552433732313a206d696e7420746f20746865207a65726f206164647265737360448201526064016107ea565b6000818152600260205260409020546001600160a01b03161561227e5760405162461bcd60e51b815260206004820152601c60248201527f4552433732313a20746f6b656e20616c7265616479206d696e7465640000000060448201526064016107ea565b60008181526002602052604080822080547fffffffffffffffffffffffff0000000000000000000000000000000000000000166001600160a01b03861690811790915590518392907fddf252ad1be2c89b69c2b068fc378daa952ba7f163c4a11628f55a4df523b3ef908290a45050565b60006001600160a01b0384163b156124a0576040517f150b7a020000000000000000000000000000000000000000000000000000000081526001600160a01b0385169063150b7a029061234c90339089908890889060040161304a565b6020604051808303816000875af19250505080156123a5575060408051601f3d9081017fffffffffffffffffffffffffffffffffffffffffffffffffffffffffffffffe01682019092526123a291810190613086565b60015b612455573d8080156123d3576040519150601f19603f3d011682016040523d82523d6000602084013e6123d8565b606091505b50805161244d5760405162461bcd60e51b815260206004820152603260248201527f4552433732313a207472616e7366657220746f206e6f6e20455243373231526560448201527f63656976657220696d706c656d656e746572000000000000000000000000000060648201526084016107ea565b805181602001fd5b7fffffffff00000000000000000000000000000000000000000000000000000000167f150b7a0200000000000000000000000000000000000000000000000000000000149050611b04565b506001949350505050565b6000808251604114156124e25760208301516040840151606085015160001a6124d68782858561270c565b94509450505050612514565b82516040141561250c5760208301516040840151612501868383612817565b935093505050612514565b506000905060025b9250929050565b600081600481111561252f5761252f6130a3565b14156125385750565b600181600481111561254c5761254c6130a3565b141561259a5760405162461bcd60e51b815260206004820152601860248201527f45434453413a20696e76616c6964207369676e6174757265000000000000000060448201526064016107ea565b60028160048111156125ae576125ae6130a3565b14156125fc5760405162461bcd60e51b815260206004820152601f60248201527f45434453413a20696e76616c6964207369676e6174757265206c656e6774680060448201526064016107ea565b6003816004811115612610576126106130a3565b14156126845760405162461bcd60e51b815260206004820152602260248201527f45434453413a20696e76616c6964207369676e6174757265202773272076616c60448201527f756500000000000000000000000000000000000000000000000000000000000060648201526084016107ea565b6004816004811115612698576126986130a3565b14156115ce5760405162461bcd60e51b815260206004820152602260248201527f45434453413a20696e76616c6964207369676e6174757265202776272076616c60448201527f756500000000000000000000000000000000000000000000000000000000000060648201526084016107ea565b6000807f7fffffffffffffffffffffffffffffff5d576e7357a4501ddfe92f46681b20a0831115612743575060009050600361280e565b8460ff16601b1415801561275b57508460ff16601c14155b1561276c575060009050600461280e565b6040805160008082526020820180845289905260ff881692820192909252606081018690526080810185905260019060a0016020604051602081039080840390855afa1580156127c0573d6000803e3d6000fd5b50506040517fffffffffffffffffffffffffffffffffffffffffffffffffffffffffffffffe001519150506001600160a01b0381166128075760006001925092505061280e565b9150600090505b94509492505050565b6000807f7fffffffffffffffffffffffffffffffffffffffffffffffffffffffffffffff831660ff84901c601b016128518782888561270c565b935093505050935093915050565b82805461286b90612d14565b90600052602060002090601f01602090048101928261288d57600085556128d3565b82601f106128a657805160ff19168380011785556128d3565b828001600101855582156128d3579182015b828111156128d35782518255916020019190600101906128b8565b506128df9291506128e3565b5090565b5b808211156128df57600081556001016128e4565b7fffffffff00000000000000000000000000000000000000000000000000000000811681146115ce57600080fd5b60006020828403121561293857600080fd5b8135612943816128f8565b9392505050565b6001600160a01b03811681146115ce57600080fd5b60006020828403121561297157600080fd5b81356129438161294a565b60005b8381101561299757818101518382015260200161297f565b838111156116645750506000910152565b600081518084526129c081602086016020860161297c565b601f017fffffffffffffffffffffffffffffffffffffffffffffffffffffffffffffffe0169290920160200192915050565b60208152600061294360208301846129a8565b600060208284031215612a1757600080fd5b5035919050565b60008060408385031215612a3157600080fd5b8235612a3c8161294a565b946020939093013593505050565b600080600060608486031215612a5f57600080fd5b8335612a6a8161294a565b92506020840135612a7a8161294a565b929592945050506040919091013590565b7f4e487b7100000000000000000000000000000000000000000000000000000000600052604160045260246000fd5b600067ffffffffffffffff80841115612ad557612ad5612a8b565b604051601f85017fffffffffffffffffffffffffffffffffffffffffffffffffffffffffffffffe0908116603f01168101908282118183101715612b1b57612b1b612a8b565b81604052809350858152868686011115612b3457600080fd5b858560208301376000602087830101525050509392505050565b600060208284031215612b6057600080fd5b813567ffffffffffffffff811115612b7757600080fd5b8201601f81018413612b8857600080fd5b611b0484823560208401612aba565b600082601f830112612ba857600080fd5b61294383833560208501612aba565b600060208284031215612bc957600080fd5b813567ffffffffffffffff811115612be057600080fd5b611b0484828501612b97565b60008060408385031215612bff57600080fd5b82359150602083013567ffffffffffffffff811115612c1d57600080fd5b612c2985828601612b97565b9150509250929050565b80151581146115ce57600080fd5b60008060408385031215612c5457600080fd5b8235612c5f8161294a565b91506020830135612c6f81612c33565b809150509250929050565b60008060008060808587031215612c9057600080fd5b8435612c9b8161294a565b93506020850135612cab8161294a565b925060408501359150606085013567ffffffffffffffff811115612cce57600080fd5b612cda87828801612b97565b91505092959194509250565b60008060408385031215612cf957600080fd5b8235612d048161294a565b91506020830135612c6f8161294a565b600181811c90821680612d2857607f821691505b60208210811415612d62577f4e487b7100000000000000000000000000000000000000000000000000000000600052602260045260246000fd5b50919050565b600060208284031215612d7a57600080fd5b5051919050565b600060208284031215612d9357600080fd5b815161294381612c33565b7f4e487b7100000000000000000000000000000000000000000000000000000000600052601160045260246000fd5b6000817fffffffffffffffffffffffffffffffffffffffffffffffffffffffffffffffff0483118215151615612e0557612e05612d9e565b500290565b60008151612e1c81856020860161297c565b9290920192915050565b600080845481600182811c915080831680612e4257607f831692505b6020808410821415612e7b577f4e487b710000000000000000000000000000000000000000000000000000000086526022600452602486fd5b818015612e8f5760018114612ebe57612eeb565b7fffffffffffffffffffffffffffffffffffffffffffffffffffffffffffffff00861689528489019650612eeb565b60008b81526020902060005b86811015612ee35781548b820152908501908301612eca565b505084890196505b505050505050612f53612f2a612f24837f2f00000000000000000000000000000000000000000000000000000000000000815260010190565b86612e0a565b7f2e6a736f6e000000000000000000000000000000000000000000000000000000815260050190565b95945050505050565b60007fffffffffffffffffffffffffffffffffffffffffffffffffffffffffffffffff821415612f8e57612f8e612d9e565b5060010190565b60008219821115612fa857612fa8612d9e565b500190565b7f4e487b7100000000000000000000000000000000000000000000000000000000600052601260045260246000fd5b600082612feb57612feb612fad565b500490565b60008282101561300257613002612d9e565b500390565b60008261301657613016612fad565b500690565b7f4e487b7100000000000000000000000000000000000000000000000000000000600052603260045260246000fd5b60006001600160a01b0380871683528086166020840152508360408301526080606083015261307c60808301846129a8565b9695505050505050565b60006020828403121561309857600080fd5b8151612943816128f8565b7f4e487b7100000000000000000000000000000000000000000000000000000000600052602160045260246000fdfea2646970667358221220444f7fcb3126f8a09bfb9aa96573082d19036b81603594d40f1fce810ef2c20064736f6c634300080a0033",
  "linkReferences": {},
  "deployedLinkReferences": {}
}