{
  "_format": "hh-sol-artifact-1",
  "contractName": "NFT",
  "sourceName": "contracts/NFT.sol",
  "abi": [
    {
      "inputs": [],
      "stateMutability": "nonpayable",
      "type": "constructor"
    },
    {
      "anonymous": false,
      "inputs": [
        {
          "indexed": true,
          "internalType": "address",
          "name": "owner",
          "type": "address"
        },
        {
          "indexed": true,
          "internalType": "address",
          "name": "approved",
          "type": "address"
        },
        {
          "indexed": true,
          "internalType": "uint256",
          "name": "tokenId",
          "type": "uint256"
        }
      ],
      "name": "Approval",
      "type": "event"
    },
    {
      "anonymous": false,
      "inputs": [
        {
          "indexed": true,
          "internalType": "address",
          "name": "owner",
          "type": "address"
        },
        {
          "indexed": true,
          "internalType": "address",
          "name": "operator",
          "type": "address"
        },
        {
          "indexed": false,
          "internalType": "bool",
          "name": "approved",
          "type": "bool"
        }
      ],
      "name": "ApprovalForAll",
      "type": "event"
    },
    {
      "anonymous": false,
      "inputs": [
        {
          "indexed": true,
          "internalType": "address",
          "name": "previousOwner",
          "type": "address"
        },
        {
          "indexed": true,
          "internalType": "address",
          "name": "newOwner",
          "type": "address"
        }
      ],
      "name": "OwnershipTransferred",
      "type": "event"
    },
    {
      "anonymous": false,
      "inputs": [
        {
          "indexed": false,
          "internalType": "bool",
          "name": "active",
          "type": "bool"
        }
      ],
      "name": "PublicSaleStateUpdate",
      "type": "event"
    },
    {
      "anonymous": false,
      "inputs": [
        {
          "indexed": true,
          "internalType": "address",
          "name": "from",
          "type": "address"
        },
        {
          "indexed": true,
          "internalType": "address",
          "name": "to",
          "type": "address"
        },
        {
          "indexed": true,
          "internalType": "uint256",
          "name": "tokenId",
          "type": "uint256"
        }
      ],
      "name": "Transfer",
      "type": "event"
    },
    {
      "inputs": [],
      "name": "MAX_SUPPLY",
      "outputs": [
        {
          "internalType": "uint256",
          "name": "",
          "type": "uint256"
        }
      ],
      "stateMutability": "view",
      "type": "function"
    },
    {
      "inputs": [],
      "name": "PRICE",
      "outputs": [
        {
          "internalType": "uint256",
          "name": "",
          "type": "uint256"
        }
      ],
      "stateMutability": "view",
      "type": "function"
    },
    {
      "inputs": [],
      "name": "PURCHASE_LIMIT",
      "outputs": [
        {
          "internalType": "uint256",
          "name": "",
          "type": "uint256"
        }
      ],
      "stateMutability": "view",
      "type": "function"
    },
    {
      "inputs": [],
      "name": "WHITELIST_PRICE",
      "outputs": [
        {
          "internalType": "uint256",
          "name": "",
          "type": "uint256"
        }
      ],
      "stateMutability": "view",
      "type": "function"
    },
    {
      "inputs": [],
      "name": "WHITELIST_PURCHASE_LIMIT",
      "outputs": [
        {
          "internalType": "uint256",
          "name": "",
          "type": "uint256"
        }
      ],
      "stateMutability": "view",
      "type": "function"
    },
    {
      "inputs": [
        {
          "internalType": "address",
          "name": "to",
          "type": "address"
        },
        {
          "internalType": "uint256",
          "name": "tokenId",
          "type": "uint256"
        }
      ],
      "name": "approve",
      "outputs": [],
      "stateMutability": "nonpayable",
      "type": "function"
    },
    {
      "inputs": [
        {
          "internalType": "address",
          "name": "owner",
          "type": "address"
        }
      ],
      "name": "balanceOf",
      "outputs": [
        {
          "internalType": "uint256",
          "name": "",
          "type": "uint256"
        }
      ],
      "stateMutability": "view",
      "type": "function"
    },
    {
      "inputs": [],
      "name": "baseURI",
      "outputs": [
        {
          "internalType": "string",
          "name": "",
          "type": "string"
        }
      ],
      "stateMutability": "view",
      "type": "function"
    },
    {
      "inputs": [],
      "name": "diamondlistActive",
      "outputs": [
        {
          "internalType": "bool",
          "name": "",
          "type": "bool"
        }
      ],
      "stateMutability": "view",
      "type": "function"
    },
    {
      "inputs": [
        {
          "internalType": "bytes",
          "name": "signature",
          "type": "bytes"
        }
      ],
      "name": "diamondlistMint",
      "outputs": [],
      "stateMutability": "payable",
      "type": "function"
    },
    {
      "inputs": [
        {
          "internalType": "uint256",
          "name": "tokenId",
          "type": "uint256"
        }
      ],
      "name": "getApproved",
      "outputs": [
        {
          "internalType": "address",
          "name": "",
          "type": "address"
        }
      ],
      "stateMutability": "view",
      "type": "function"
    },
    {
      "inputs": [
        {
          "internalType": "address",
          "name": "to",
          "type": "address"
        },
        {
          "internalType": "uint256",
          "name": "amount",
          "type": "uint256"
        }
      ],
      "name": "giveAway",
      "outputs": [],
      "stateMutability": "nonpayable",
      "type": "function"
    },
    {
      "inputs": [
        {
          "internalType": "address",
          "name": "owner",
          "type": "address"
        },
        {
          "internalType": "address",
          "name": "operator",
          "type": "address"
        }
      ],
      "name": "isApprovedForAll",
      "outputs": [
        {
          "internalType": "bool",
          "name": "",
          "type": "bool"
        }
      ],
      "stateMutability": "view",
      "type": "function"
    },
    {
      "inputs": [
        {
          "internalType": "uint256",
          "name": "amount",
          "type": "uint256"
        }
      ],
      "name": "mint",
      "outputs": [],
      "stateMutability": "payable",
      "type": "function"
    },
    {
      "inputs": [],
      "name": "name",
      "outputs": [
        {
          "internalType": "string",
          "name": "",
          "type": "string"
        }
      ],
      "stateMutability": "view",
      "type": "function"
    },
    {
      "inputs": [],
      "name": "owner",
      "outputs": [
        {
          "internalType": "address",
          "name": "",
          "type": "address"
        }
      ],
      "stateMutability": "view",
      "type": "function"
    },
    {
      "inputs": [
        {
          "internalType": "uint256",
          "name": "tokenId",
          "type": "uint256"
        }
      ],
      "name": "ownerOf",
      "outputs": [
        {
          "internalType": "address",
          "name": "",
          "type": "address"
        }
      ],
      "stateMutability": "view",
      "type": "function"
    },
    {
      "inputs": [],
      "name": "publicSaleActive",
      "outputs": [
        {
          "internalType": "bool",
          "name": "",
          "type": "bool"
        }
      ],
      "stateMutability": "view",
      "type": "function"
    },
    {
      "inputs": [
        {
          "internalType": "contract IERC20",
          "name": "_token",
          "type": "address"
        }
      ],
      "name": "recoverToken",
      "outputs": [],
      "stateMutability": "nonpayable",
      "type": "function"
    },
    {
      "inputs": [],
      "name": "renounceOwnership",
      "outputs": [],
      "stateMutability": "nonpayable",
      "type": "function"
    },
    {
      "inputs": [
        {
          "internalType": "address",
          "name": "from",
          "type": "address"
        },
        {
          "internalType": "address",
          "name": "to",
          "type": "address"
        },
        {
          "internalType": "uint256",
          "name": "tokenId",
          "type": "uint256"
        }
      ],
      "name": "safeTransferFrom",
      "outputs": [],
      "stateMutability": "nonpayable",
      "type": "function"
    },
    {
      "inputs": [
        {
          "internalType": "address",
          "name": "from",
          "type": "address"
        },
        {
          "internalType": "address",
          "name": "to",
          "type": "address"
        },
        {
          "internalType": "uint256",
          "name": "tokenId",
          "type": "uint256"
        },
        {
          "internalType": "bytes",
          "name": "_data",
          "type": "bytes"
        }
      ],
      "name": "safeTransferFrom",
      "outputs": [],
      "stateMutability": "nonpayable",
      "type": "function"
    },
    {
      "inputs": [
        {
          "internalType": "address",
          "name": "operator",
          "type": "address"
        },
        {
          "internalType": "bool",
          "name": "approved",
          "type": "bool"
        }
      ],
      "name": "setApprovalForAll",
      "outputs": [],
      "stateMutability": "nonpayable",
      "type": "function"
    },
    {
      "inputs": [
        {
          "internalType": "string",
          "name": "_baseURI",
          "type": "string"
        }
      ],
      "name": "setBaseURI",
      "outputs": [],
      "stateMutability": "nonpayable",
      "type": "function"
    },
    {
      "inputs": [
        {
          "internalType": "bool",
          "name": "active",
          "type": "bool"
        }
      ],
      "name": "setDiamondlistActive",
      "outputs": [],
      "stateMutability": "nonpayable",
      "type": "function"
    },
    {
      "inputs": [
        {
          "internalType": "bool",
          "name": "active",
          "type": "bool"
        }
      ],
      "name": "setPublicSaleActive",
      "outputs": [],
      "stateMutability": "nonpayable",
      "type": "function"
    },
    {
      "inputs": [
        {
          "internalType": "address",
          "name": "_address",
          "type": "address"
        }
      ],
      "name": "setSignerAddress",
      "outputs": [],
      "stateMutability": "nonpayable",
      "type": "function"
    },
    {
      "inputs": [
        {
          "internalType": "string",
          "name": "_uri",
          "type": "string"
        }
      ],
      "name": "setUnrevealedURI",
      "outputs": [],
      "stateMutability": "nonpayable",
      "type": "function"
    },
    {
      "inputs": [
        {
          "internalType": "bool",
          "name": "active",
          "type": "bool"
        }
      ],
      "name": "setWhitelistActive",
      "outputs": [],
      "stateMutability": "nonpayable",
      "type": "function"
    },
    {
      "inputs": [
        {
          "internalType": "bytes4",
          "name": "interfaceId",
          "type": "bytes4"
        }
      ],
      "name": "supportsInterface",
      "outputs": [
        {
          "internalType": "bool",
          "name": "",
          "type": "bool"
        }
      ],
      "stateMutability": "view",
      "type": "function"
    },
    {
      "inputs": [],
      "name": "symbol",
      "outputs": [
        {
          "internalType": "string",
          "name": "",
          "type": "string"
        }
      ],
      "stateMutability": "view",
      "type": "function"
    },
    {
      "inputs": [
        {
          "internalType": "address",
          "name": "owner",
          "type": "address"
        }
      ],
      "name": "tokenIdsOf",
      "outputs": [
        {
          "internalType": "uint256[]",
          "name": "",
          "type": "uint256[]"
        }
      ],
      "stateMutability": "view",
      "type": "function"
    },
    {
      "inputs": [
        {
          "internalType": "uint256",
          "name": "tokenId",
          "type": "uint256"
        }
      ],
      "name": "tokenURI",
      "outputs": [
        {
          "internalType": "string",
          "name": "",
          "type": "string"
        }
      ],
      "stateMutability": "view",
      "type": "function"
    },
    {
      "inputs": [],
      "name": "totalSupply",
      "outputs": [
        {
          "internalType": "uint256",
          "name": "",
          "type": "uint256"
        }
      ],
      "stateMutability": "view",
      "type": "function"
    },
    {
      "inputs": [
        {
          "internalType": "address",
          "name": "from",
          "type": "address"
        },
        {
          "internalType": "address",
          "name": "to",
          "type": "address"
        },
        {
          "internalType": "uint256",
          "name": "tokenId",
          "type": "uint256"
        }
      ],
      "name": "transferFrom",
      "outputs": [],
      "stateMutability": "nonpayable",
      "type": "function"
    },
    {
      "inputs": [
        {
          "internalType": "address",
          "name": "newOwner",
          "type": "address"
        }
      ],
      "name": "transferOwnership",
      "outputs": [],
      "stateMutability": "nonpayable",
      "type": "function"
    },
    {
      "inputs": [],
      "name": "unrevealedURI",
      "outputs": [
        {
          "internalType": "string",
          "name": "",
          "type": "string"
        }
      ],
      "stateMutability": "view",
      "type": "function"
    },
    {
      "inputs": [],
      "name": "whitelistActive",
      "outputs": [
        {
          "internalType": "bool",
          "name": "",
          "type": "bool"
        }
      ],
      "stateMutability": "view",
      "type": "function"
    },
    {
      "inputs": [
        {
          "internalType": "uint256",
          "name": "amount",
          "type": "uint256"
        },
        {
          "internalType": "bytes",
          "name": "signature",
          "type": "bytes"
        }
      ],
      "name": "whitelistMint",
      "outputs": [],
      "stateMutability": "payable",
      "type": "function"
    },
    {
      "inputs": [],
      "name": "withdraw",
      "outputs": [],
      "stateMutability": "nonpayable",
      "type": "function"
    }
  ],
  "bytecode": "0x60c0604052600a6080819052690d2e0cce6745e5eb0b0b60b31b60a09081526200002d91600791906200013f565b50600c80546001600160a01b0319167368442589f40e8fc3a9679de62884c85c6e5248881790553480156200006157600080fd5b50604080518082018252600881526709af29c8ca8b0b0b60c31b60208083019182528351808501909452600684526509c8ca8b0b0b60d31b908401528151919291620000b0916000916200013f565b508051620000c69060019060208401906200013f565b505050620000e3620000dd620000e960201b60201c565b620000ed565b62000222565b3390565b600580546001600160a01b038381166001600160a01b0319831681179093556040519116919082907f8be0079c531659141344cd1fd0a4f28419497f9722a3daafe3b4186f6b6457e090600090a35050565b8280546200014d90620001e5565b90600052602060002090601f016020900481019282620001715760008555620001bc565b82601f106200018c57805160ff1916838001178555620001bc565b82800160010185558215620001bc579182015b82811115620001bc5782518255916020019190600101906200019f565b50620001ca929150620001ce565b5090565b5b80821115620001ca5760008155600101620001cf565b600181811c90821680620001fa57607f821691505b602082108114156200021c57634e487b7160e01b600052602260045260246000fd5b50919050565b613d0380620002326000396000f3fe6080604052600436106102bb5760003560e01c80638da5cb5b1161016e578063bc8893b4116100cb578063e2e06fa31161007f578063eb418b7311610064578063eb418b7314610746578063f2fde38b14610766578063fe2c7fee1461078657600080fd5b8063e2e06fa3146106d0578063e985e9c5146106f057600080fd5b8063c87b56dd116100b0578063c87b56dd1461067b578063ca8001441461069b578063d75e6110146106bb57600080fd5b8063bc8893b414610641578063c3b754dc1461065b57600080fd5b8063a0712d6811610122578063a3b261f211610107578063a3b261f2146105d4578063ab9a067d14610601578063b88d4fde1461062157600080fd5b8063a0712d68146105a1578063a22cb465146105b457600080fd5b806395d89b411161015357806395d89b41146105595780639be65a601461056e5780639e852f751461058e57600080fd5b80638da5cb5b14610519578063937a00751461054457600080fd5b806332cb6b0c1161021c5780636c0360eb116101d057806370a08231116101b557806370a08231146104e4578063715018a6146105045780638d859f3e146103bd57600080fd5b80636c0360eb146104ba5780637035bf18146104cf57600080fd5b806342842e0e1161020157806342842e0e1461045a57806355f804b31461047a5780636352211e1461049a57600080fd5b806332cb6b0c1461042f5780633ccfd60b1461044557600080fd5b8063095ea7b31161027357806318160ddd1161025857806318160ddd146103e657806323b872dd146103fc5780632e4ad4d51461041c57600080fd5b8063095ea7b31461039d57806317e7f295146103bd57600080fd5b8063046dc166116102a4578063046dc1661461031457806306fdde0314610336578063081812fc1461035857600080fd5b806301ffc9a7146102c057806302ce5813146102f5575b600080fd5b3480156102cc57600080fd5b506102e06102db3660046134a6565b6107a6565b60405190151581526020015b60405180910390f35b34801561030157600080fd5b506008546102e090610100900460ff1681565b34801561032057600080fd5b5061033461032f3660046134ec565b61088b565b005b34801561034257600080fd5b5061034b610958565b6040516102ec919061357f565b34801561036457600080fd5b50610378610373366004613592565b6109ea565b60405173ffffffffffffffffffffffffffffffffffffffff90911681526020016102ec565b3480156103a957600080fd5b506103346103b83660046135ab565b610ac4565b3480156103c957600080fd5b506103d8666a94d74f43000081565b6040519081526020016102ec565b3480156103f257600080fd5b506103d860095481565b34801561040857600080fd5b506103346104173660046135d7565b610c51565b61033461042a3660046136fb565b610cf2565b34801561043b57600080fd5b506103d86103e881565b34801561045157600080fd5b50610334610f68565b34801561046657600080fd5b506103346104753660046135d7565b61101c565b34801561048657600080fd5b50610334610495366004613730565b611037565b3480156104a657600080fd5b506103786104b5366004613592565b6110cb565b3480156104c657600080fd5b5061034b61117d565b3480156104db57600080fd5b5061034b61120b565b3480156104f057600080fd5b506103d86104ff3660046134ec565b611218565b34801561051057600080fd5b5061033461131f565b34801561052557600080fd5b5060055473ffffffffffffffffffffffffffffffffffffffff16610378565b34801561055057600080fd5b506103d8600281565b34801561056557600080fd5b5061034b6113ac565b34801561057a57600080fd5b506103346105893660046134ec565b6113bb565b61033461059c366004613779565b61160b565b6103346105af366004613592565b6118f6565b3480156105c057600080fd5b506103346105cf3660046137ce565b611abc565b3480156105e057600080fd5b506105f46105ef3660046134ec565b611ac7565b6040516102ec9190613807565b34801561060d57600080fd5b5061033461061c36600461384b565b611b84565b34801561062d57600080fd5b5061033461063c366004613868565b611c3d565b34801561064d57600080fd5b506008546102e09060ff1681565b34801561066757600080fd5b5061033461067636600461384b565b611ce5565b34801561068757600080fd5b5061034b610696366004613592565b611d9d565b3480156106a757600080fd5b506103346106b63660046135ab565b611f28565b3480156106c757600080fd5b506103d8600a81565b3480156106dc57600080fd5b506103346106eb36600461384b565b611fb3565b3480156106fc57600080fd5b506102e061070b3660046138d4565b73ffffffffffffffffffffffffffffffffffffffff918216600090815260046020908152604080832093909416825291909152205460ff1690565b34801561075257600080fd5b506008546102e09062010000900460ff1681565b34801561077257600080fd5b506103346107813660046134ec565b612099565b34801561079257600080fd5b506103346107a1366004613730565b6121c6565b60007fffffffff0000000000000000000000000000000000000000000000000000000082167f80ac58cd00000000000000000000000000000000000000000000000000000000148061083957507fffffffff0000000000000000000000000000000000000000000000000000000082167f5b5e139f00000000000000000000000000000000000000000000000000000000145b8061088557507f01ffc9a7000000000000000000000000000000000000000000000000000000007fffffffff000000000000000000000000000000000000000000000000000000008316145b92915050565b60055473ffffffffffffffffffffffffffffffffffffffff163314610911576040517f08c379a000000000000000000000000000000000000000000000000000000000815260206004820181905260248201527f4f776e61626c653a2063616c6c6572206973206e6f7420746865206f776e657260448201526064015b60405180910390fd5b600c80547fffffffffffffffffffffffff00000000000000000000000000000000000000001673ffffffffffffffffffffffffffffffffffffffff92909216919091179055565b60606000805461096790613902565b80601f016020809104026020016040519081016040528092919081815260200182805461099390613902565b80156109e05780601f106109b5576101008083540402835291602001916109e0565b820191906000526020600020905b8154815290600101906020018083116109c357829003601f168201915b5050505050905090565b60008181526002602052604081205473ffffffffffffffffffffffffffffffffffffffff16610a9b576040517f08c379a000000000000000000000000000000000000000000000000000000000815260206004820152602c60248201527f4552433732313a20617070726f76656420717565727920666f72206e6f6e657860448201527f697374656e7420746f6b656e00000000000000000000000000000000000000006064820152608401610908565b5060009081526003602052604090205473ffffffffffffffffffffffffffffffffffffffff1690565b6000610acf826110cb565b90508073ffffffffffffffffffffffffffffffffffffffff168373ffffffffffffffffffffffffffffffffffffffff161415610b8d576040517f08c379a000000000000000000000000000000000000000000000000000000000815260206004820152602160248201527f4552433732313a20617070726f76616c20746f2063757272656e74206f776e6560448201527f72000000000000000000000000000000000000000000000000000000000000006064820152608401610908565b3373ffffffffffffffffffffffffffffffffffffffff82161480610bb65750610bb6813361070b565b610c42576040517f08c379a000000000000000000000000000000000000000000000000000000000815260206004820152603860248201527f4552433732313a20617070726f76652063616c6c6572206973206e6f74206f7760448201527f6e6572206e6f7220617070726f76656420666f7220616c6c00000000000000006064820152608401610908565b610c4c838361225a565b505050565b610c5b33826122fa565b610ce7576040517f08c379a000000000000000000000000000000000000000000000000000000000815260206004820152603160248201527f4552433732313a207472616e736665722063616c6c6572206973206e6f74206f60448201527f776e6572206e6f7220617070726f7665640000000000000000000000000000006064820152608401610908565b610c4c83838361246a565b60085462010000900460ff16610d64576040517f08c379a000000000000000000000000000000000000000000000000000000000815260206004820152601660248201527f4449414d4f4e444c4953545f4e4f545f414354495645000000000000000000006044820152606401610908565b80610d718161053961265b565b610dd7576040517f08c379a000000000000000000000000000000000000000000000000000000000815260206004820152600f60248201527f4e4f545f57484954454c495354454400000000000000000000000000000000006044820152606401610908565b336000908152600b602052604090205460ff1615610e51576040517f08c379a000000000000000000000000000000000000000000000000000000000815260206004820152600e60248201527f57484954454c4953545f555345440000000000000000000000000000000000006044820152606401610908565b336000818152600b6020526040902080547fffffffffffffffffffffffffffffffffffffffffffffffffffffffffffffff001660011790553214610ef1576040517f08c379a000000000000000000000000000000000000000000000000000000000815260206004820152600d60248201527f434f4e54524143545f43414c4c000000000000000000000000000000000000006044820152606401610908565b6009546103e88110610f5f576040517f08c379a000000000000000000000000000000000000000000000000000000000815260206004820152601260248201527f4d41585f535550504c595f5245414348454400000000000000000000000000006044820152606401610908565b610c4c3361274b565b60055473ffffffffffffffffffffffffffffffffffffffff163314610fe9576040517f08c379a000000000000000000000000000000000000000000000000000000000815260206004820181905260248201527f4f776e61626c653a2063616c6c6572206973206e6f7420746865206f776e65726044820152606401610908565b6040514790339082156108fc029083906000818181858888f19350505050158015611018573d6000803e3d6000fd5b5050565b610c4c83838360405180602001604052806000815250611c3d565b60055473ffffffffffffffffffffffffffffffffffffffff1633146110b8576040517f08c379a000000000000000000000000000000000000000000000000000000000815260206004820181905260248201527f4f776e61626c653a2063616c6c6572206973206e6f7420746865206f776e65726044820152606401610908565b80516110189060069060208401906133df565b60008181526002602052604081205473ffffffffffffffffffffffffffffffffffffffff1680610885576040517f08c379a000000000000000000000000000000000000000000000000000000000815260206004820152602960248201527f4552433732313a206f776e657220717565727920666f72206e6f6e657869737460448201527f656e7420746f6b656e00000000000000000000000000000000000000000000006064820152608401610908565b6006805461118a90613902565b80601f01602080910402602001604051908101604052809291908181526020018280546111b690613902565b80156112035780601f106111d857610100808354040283529160200191611203565b820191906000526020600020905b8154815290600101906020018083116111e657829003601f168201915b505050505081565b6007805461118a90613902565b600073ffffffffffffffffffffffffffffffffffffffff82166112bd576040517f08c379a000000000000000000000000000000000000000000000000000000000815260206004820152602a60248201527f4552433732313a2062616c616e636520717565727920666f7220746865207a6560448201527f726f2061646472657373000000000000000000000000000000000000000000006064820152608401610908565b6000805b6009548110156113185760008181526002602052604090205473ffffffffffffffffffffffffffffffffffffffff85811691161415611308578161130481613985565b9250505b61131181613985565b90506112c1565b5092915050565b60055473ffffffffffffffffffffffffffffffffffffffff1633146113a0576040517f08c379a000000000000000000000000000000000000000000000000000000000815260206004820181905260248201527f4f776e61626c653a2063616c6c6572206973206e6f7420746865206f776e65726044820152606401610908565b6113aa60006127dc565b565b60606001805461096790613902565b60055473ffffffffffffffffffffffffffffffffffffffff16331461143c576040517f08c379a000000000000000000000000000000000000000000000000000000000815260206004820181905260248201527f4f776e61626c653a2063616c6c6572206973206e6f7420746865206f776e65726044820152606401610908565b6040517f70a0823100000000000000000000000000000000000000000000000000000000815230600482015260009073ffffffffffffffffffffffffffffffffffffffff8316906370a0823190602401602060405180830381865afa1580156114a9573d6000803e3d6000fd5b505050506040513d601f19601f820116820180604052508101906114cd91906139be565b905060008273ffffffffffffffffffffffffffffffffffffffff1663a9059cbb61150c60055473ffffffffffffffffffffffffffffffffffffffff1690565b6040517fffffffff0000000000000000000000000000000000000000000000000000000060e084901b16815273ffffffffffffffffffffffffffffffffffffffff9091166004820152602481018590526044016020604051808303816000875af115801561157e573d6000803e3d6000fd5b505050506040513d601f19601f820116820180604052508101906115a291906139d7565b905080610c4c576040517f08c379a000000000000000000000000000000000000000000000000000000000815260206004820152601560248201527f544f4b454e5f5452414e534645525f4641494c454400000000000000000000006044820152606401610908565b600854610100900460ff1661167c576040517f08c379a000000000000000000000000000000000000000000000000000000000815260206004820152601460248201527f57484954454c4953545f4e4f545f4143544956450000000000000000000000006044820152606401610908565b8061168881604561265b565b6116ee576040517f08c379a000000000000000000000000000000000000000000000000000000000815260206004820152600f60248201527f4e4f545f57484954454c495354454400000000000000000000000000000000006044820152606401610908565b336000908152600a602052604090205460ff1615611768576040517f08c379a000000000000000000000000000000000000000000000000000000000815260206004820152600e60248201527f57484954454c4953545f555345440000000000000000000000000000000000006044820152606401610908565b336000818152600a6020526040902080547fffffffffffffffffffffffffffffffffffffffffffffffffffffffffffffff001660011790553214611808576040517f08c379a000000000000000000000000000000000000000000000000000000000815260206004820152600d60248201527f434f4e54524143545f43414c4c000000000000000000000000000000000000006044820152606401610908565b6002831115611873576040517f08c379a000000000000000000000000000000000000000000000000000000000815260206004820152600d60248201527f455843454544535f4c494d4954000000000000000000000000000000000000006044820152606401610908565b61188483666a94d74f4300006139f4565b34146118ec576040517f08c379a000000000000000000000000000000000000000000000000000000000815260206004820152600f60248201527f494e434f52524543545f56414c554500000000000000000000000000000000006044820152606401610908565b610c4c3384612853565b60085460ff16611962576040517f08c379a000000000000000000000000000000000000000000000000000000000815260206004820152601660248201527f5055424c49435f53414c455f4e4f545f414354495645000000000000000000006044820152606401610908565b3233146119cb576040517f08c379a000000000000000000000000000000000000000000000000000000000815260206004820152600d60248201527f434f4e54524143545f43414c4c000000000000000000000000000000000000006044820152606401610908565b600a811115611a36576040517f08c379a000000000000000000000000000000000000000000000000000000000815260206004820152600d60248201527f455843454544535f4c494d4954000000000000000000000000000000000000006044820152606401610908565b611a4781666a94d74f4300006139f4565b3414611aaf576040517f08c379a000000000000000000000000000000000000000000000000000000000815260206004820152600f60248201527f494e434f52524543545f56414c554500000000000000000000000000000000006044820152606401610908565b611ab93382612853565b50565b611018338383612918565b60606000611ad483611218565b67ffffffffffffffff811115611aec57611aec613618565b604051908082528060200260200182016040528015611b15578160200160208202803683370190505b50905060005b6009548110156113185760008181526002602052604090205473ffffffffffffffffffffffffffffffffffffffff85811691161415611b745780828281518110611b6757611b67613a31565b6020026020010181815250505b611b7d81613985565b9050611b1b565b60055473ffffffffffffffffffffffffffffffffffffffff163314611c05576040517f08c379a000000000000000000000000000000000000000000000000000000000815260206004820181905260248201527f4f776e61626c653a2063616c6c6572206973206e6f7420746865206f776e65726044820152606401610908565b6008805491151562010000027fffffffffffffffffffffffffffffffffffffffffffffffffffffffffff00ffff909216919091179055565b611c4733836122fa565b611cd3576040517f08c379a000000000000000000000000000000000000000000000000000000000815260206004820152603160248201527f4552433732313a207472616e736665722063616c6c6572206973206e6f74206f60448201527f776e6572206e6f7220617070726f7665640000000000000000000000000000006064820152608401610908565b611cdf84848484612a46565b50505050565b60055473ffffffffffffffffffffffffffffffffffffffff163314611d66576040517f08c379a000000000000000000000000000000000000000000000000000000000815260206004820181905260248201527f4f776e61626c653a2063616c6c6572206973206e6f7420746865206f776e65726044820152606401610908565b60088054911515610100027fffffffffffffffffffffffffffffffffffffffffffffffffffffffffffff00ff909216919091179055565b60008181526002602052604090205460609073ffffffffffffffffffffffffffffffffffffffff16611e51576040517f08c379a000000000000000000000000000000000000000000000000000000000815260206004820152602f60248201527f4552433732314d657461646174613a2055524920717565727920666f72206e6f60448201527f6e6578697374656e7420746f6b656e00000000000000000000000000000000006064820152608401610908565b600060068054611e6090613902565b905011611ef75760078054611e7490613902565b80601f0160208091040260200160405190810160405280929190818152602001828054611ea090613902565b8015611eed5780601f10611ec257610100808354040283529160200191611eed565b820191906000526020600020905b815481529060010190602001808311611ed057829003601f168201915b5050505050610885565b6006611f0283612ae9565b604051602001611f13929190613a7c565b60405160208183030381529060405292915050565b60055473ffffffffffffffffffffffffffffffffffffffff163314611fa9576040517f08c379a000000000000000000000000000000000000000000000000000000000815260206004820181905260248201527f4f776e61626c653a2063616c6c6572206973206e6f7420746865206f776e65726044820152606401610908565b6110188282612853565b60055473ffffffffffffffffffffffffffffffffffffffff163314612034576040517f08c379a000000000000000000000000000000000000000000000000000000000815260206004820181905260248201527f4f776e61626c653a2063616c6c6572206973206e6f7420746865206f776e65726044820152606401610908565b600880547fffffffffffffffffffffffffffffffffffffffffffffffffffffffffffffff00168215159081179091556040519081527f336bd9f712073d1a99ab3fa08e5bce6ae97642b94e22632e9de0cf55da0bf2629060200160405180910390a150565b60055473ffffffffffffffffffffffffffffffffffffffff16331461211a576040517f08c379a000000000000000000000000000000000000000000000000000000000815260206004820181905260248201527f4f776e61626c653a2063616c6c6572206973206e6f7420746865206f776e65726044820152606401610908565b73ffffffffffffffffffffffffffffffffffffffff81166121bd576040517f08c379a000000000000000000000000000000000000000000000000000000000815260206004820152602660248201527f4f776e61626c653a206e6577206f776e657220697320746865207a65726f206160448201527f64647265737300000000000000000000000000000000000000000000000000006064820152608401610908565b611ab9816127dc565b60055473ffffffffffffffffffffffffffffffffffffffff163314612247576040517f08c379a000000000000000000000000000000000000000000000000000000000815260206004820181905260248201527f4f776e61626c653a2063616c6c6572206973206e6f7420746865206f776e65726044820152606401610908565b80516110189060079060208401906133df565b600081815260036020526040902080547fffffffffffffffffffffffff00000000000000000000000000000000000000001673ffffffffffffffffffffffffffffffffffffffff841690811790915581906122b4826110cb565b73ffffffffffffffffffffffffffffffffffffffff167f8c5be1e5ebec7d5bd14f71427d1e84f3dd0314c0f7b2291e5b200ac8c7c3b92560405160405180910390a45050565b60008181526002602052604081205473ffffffffffffffffffffffffffffffffffffffff166123ab576040517f08c379a000000000000000000000000000000000000000000000000000000000815260206004820152602c60248201527f4552433732313a206f70657261746f7220717565727920666f72206e6f6e657860448201527f697374656e7420746f6b656e00000000000000000000000000000000000000006064820152608401610908565b60006123b6836110cb565b90508073ffffffffffffffffffffffffffffffffffffffff168473ffffffffffffffffffffffffffffffffffffffff16148061242557508373ffffffffffffffffffffffffffffffffffffffff1661240d846109ea565b73ffffffffffffffffffffffffffffffffffffffff16145b80612462575073ffffffffffffffffffffffffffffffffffffffff80821660009081526004602090815260408083209388168352929052205460ff165b949350505050565b8273ffffffffffffffffffffffffffffffffffffffff1661248a826110cb565b73ffffffffffffffffffffffffffffffffffffffff161461252d576040517f08c379a000000000000000000000000000000000000000000000000000000000815260206004820152602960248201527f4552433732313a207472616e73666572206f6620746f6b656e2074686174206960448201527f73206e6f74206f776e00000000000000000000000000000000000000000000006064820152608401610908565b73ffffffffffffffffffffffffffffffffffffffff82166125cf576040517f08c379a0000000000000000000000000000000000000000000000000000000008152602060048201526024808201527f4552433732313a207472616e7366657220746f20746865207a65726f2061646460448201527f72657373000000000000000000000000000000000000000000000000000000006064820152608401610908565b6125da60008261225a565b60008181526002602052604080822080547fffffffffffffffffffffffff00000000000000000000000000000000000000001673ffffffffffffffffffffffffffffffffffffffff86811691821790925591518493918716917fddf252ad1be2c89b69c2b068fc378daa952ba7f163c4a11628f55a4df523b3ef91a4505050565b604080513060208201529081018290523360608201526000908190608001604080517fffffffffffffffffffffffffffffffffffffffffffffffffffffffffffffffe08184030181529190528051602090910120600c5490915073ffffffffffffffffffffffffffffffffffffffff1661272c85612726846040517f19457468657265756d205369676e6564204d6573736167653a0a3332000000006020820152603c8101829052600090605c01604051602081830303815290604052805190602001209050919050565b90612c1b565b73ffffffffffffffffffffffffffffffffffffffff1614949350505050565b6009546103e881106127b9576040517f08c379a000000000000000000000000000000000000000000000000000000000815260206004820152601260248201527f4d41585f535550504c595f5245414348454400000000000000000000000000006044820152606401610908565b6127c38282612c3f565b600980549060006127d383613985565b91905055505050565b6005805473ffffffffffffffffffffffffffffffffffffffff8381167fffffffffffffffffffffffff0000000000000000000000000000000000000000831681179093556040519116919082907f8be0079c531659141344cd1fd0a4f28419497f9722a3daafe3b4186f6b6457e090600090a35050565b6009546103e86128638383613bb2565b11156128cb576040517f08c379a000000000000000000000000000000000000000000000000000000000815260206004820152601260248201527f4d41585f535550504c595f5245414348454400000000000000000000000000006044820152606401610908565b60005b828110156128fb576128e9846128e48385613bb2565b612c3f565b806128f381613985565b9150506128ce565b50816009600082825461290e9190613bb2565b9091555050505050565b8173ffffffffffffffffffffffffffffffffffffffff168373ffffffffffffffffffffffffffffffffffffffff1614156129ae576040517f08c379a000000000000000000000000000000000000000000000000000000000815260206004820152601960248201527f4552433732313a20617070726f766520746f2063616c6c6572000000000000006044820152606401610908565b73ffffffffffffffffffffffffffffffffffffffff83811660008181526004602090815260408083209487168084529482529182902080547fffffffffffffffffffffffffffffffffffffffffffffffffffffffffffffff001686151590811790915591519182527f17307eab39ab6107e8899845ad3d59bd9653f200f220920489ca2b5937696c31910160405180910390a3505050565b612a5184848461246a565b612a5d84848484612dc6565b611cdf576040517f08c379a000000000000000000000000000000000000000000000000000000000815260206004820152603260248201527f4552433732313a207472616e7366657220746f206e6f6e20455243373231526560448201527f63656976657220696d706c656d656e74657200000000000000000000000000006064820152608401610908565b606081612b2957505060408051808201909152600181527f3000000000000000000000000000000000000000000000000000000000000000602082015290565b8160005b8115612b535780612b3d81613985565b9150612b4c9050600a83613bf9565b9150612b2d565b60008167ffffffffffffffff811115612b6e57612b6e613618565b6040519080825280601f01601f191660200182016040528015612b98576020820181803683370190505b5090505b841561246257612bad600183613c0d565b9150612bba600a86613c24565b612bc5906030613bb2565b60f81b818381518110612bda57612bda613a31565b60200101907effffffffffffffffffffffffffffffffffffffffffffffffffffffffffffff1916908160001a905350612c14600a86613bf9565b9450612b9c565b6000806000612c2a8585612fb6565b91509150612c3781613026565b509392505050565b73ffffffffffffffffffffffffffffffffffffffff8216612cbc576040517f08c379a000000000000000000000000000000000000000000000000000000000815260206004820181905260248201527f4552433732313a206d696e7420746f20746865207a65726f20616464726573736044820152606401610908565b60008181526002602052604090205473ffffffffffffffffffffffffffffffffffffffff1615612d48576040517f08c379a000000000000000000000000000000000000000000000000000000000815260206004820152601c60248201527f4552433732313a20746f6b656e20616c7265616479206d696e746564000000006044820152606401610908565b60008181526002602052604080822080547fffffffffffffffffffffffff00000000000000000000000000000000000000001673ffffffffffffffffffffffffffffffffffffffff861690811790915590518392907fddf252ad1be2c89b69c2b068fc378daa952ba7f163c4a11628f55a4df523b3ef908290a45050565b600073ffffffffffffffffffffffffffffffffffffffff84163b15612fab576040517f150b7a0200000000000000000000000000000000000000000000000000000000815273ffffffffffffffffffffffffffffffffffffffff85169063150b7a0290612e3d903390899088908890600401613c38565b6020604051808303816000875af1925050508015612e96575060408051601f3d9081017fffffffffffffffffffffffffffffffffffffffffffffffffffffffffffffffe0168201909252612e9391810190613c81565b60015b612f60573d808015612ec4576040519150601f19603f3d011682016040523d82523d6000602084013e612ec9565b606091505b508051612f58576040517f08c379a000000000000000000000000000000000000000000000000000000000815260206004820152603260248201527f4552433732313a207472616e7366657220746f206e6f6e20455243373231526560448201527f63656976657220696d706c656d656e74657200000000000000000000000000006064820152608401610908565b805181602001fd5b7fffffffff00000000000000000000000000000000000000000000000000000000167f150b7a0200000000000000000000000000000000000000000000000000000000149050612462565b506001949350505050565b600080825160411415612fed5760208301516040840151606085015160001a612fe18782858561327f565b9450945050505061301f565b825160401415613017576020830151604084015161300c868383613397565b93509350505061301f565b506000905060025b9250929050565b600081600481111561303a5761303a613c9e565b14156130435750565b600181600481111561305757613057613c9e565b14156130bf576040517f08c379a000000000000000000000000000000000000000000000000000000000815260206004820152601860248201527f45434453413a20696e76616c6964207369676e617475726500000000000000006044820152606401610908565b60028160048111156130d3576130d3613c9e565b141561313b576040517f08c379a000000000000000000000000000000000000000000000000000000000815260206004820152601f60248201527f45434453413a20696e76616c6964207369676e6174757265206c656e677468006044820152606401610908565b600381600481111561314f5761314f613c9e565b14156131dd576040517f08c379a000000000000000000000000000000000000000000000000000000000815260206004820152602260248201527f45434453413a20696e76616c6964207369676e6174757265202773272076616c60448201527f75650000000000000000000000000000000000000000000000000000000000006064820152608401610908565b60048160048111156131f1576131f1613c9e565b1415611ab9576040517f08c379a000000000000000000000000000000000000000000000000000000000815260206004820152602260248201527f45434453413a20696e76616c6964207369676e6174757265202776272076616c60448201527f75650000000000000000000000000000000000000000000000000000000000006064820152608401610908565b6000807f7fffffffffffffffffffffffffffffff5d576e7357a4501ddfe92f46681b20a08311156132b6575060009050600361338e565b8460ff16601b141580156132ce57508460ff16601c14155b156132df575060009050600461338e565b6040805160008082526020820180845289905260ff881692820192909252606081018690526080810185905260019060a0016020604051602081039080840390855afa158015613333573d6000803e3d6000fd5b50506040517fffffffffffffffffffffffffffffffffffffffffffffffffffffffffffffffe0015191505073ffffffffffffffffffffffffffffffffffffffff81166133875760006001925092505061338e565b9150600090505b94509492505050565b6000807f7fffffffffffffffffffffffffffffffffffffffffffffffffffffffffffffff831660ff84901c601b016133d18782888561327f565b935093505050935093915050565b8280546133eb90613902565b90600052602060002090601f01602090048101928261340d5760008555613453565b82601f1061342657805160ff1916838001178555613453565b82800160010185558215613453579182015b82811115613453578251825591602001919060010190613438565b5061345f929150613463565b5090565b5b8082111561345f5760008155600101613464565b7fffffffff0000000000000000000000000000000000000000000000000000000081168114611ab957600080fd5b6000602082840312156134b857600080fd5b81356134c381613478565b9392505050565b73ffffffffffffffffffffffffffffffffffffffff81168114611ab957600080fd5b6000602082840312156134fe57600080fd5b81356134c3816134ca565b60005b8381101561352457818101518382015260200161350c565b83811115611cdf5750506000910152565b6000815180845261354d816020860160208601613509565b601f017fffffffffffffffffffffffffffffffffffffffffffffffffffffffffffffffe0169290920160200192915050565b6020815260006134c36020830184613535565b6000602082840312156135a457600080fd5b5035919050565b600080604083850312156135be57600080fd5b82356135c9816134ca565b946020939093013593505050565b6000806000606084860312156135ec57600080fd5b83356135f7816134ca565b92506020840135613607816134ca565b929592945050506040919091013590565b7f4e487b7100000000000000000000000000000000000000000000000000000000600052604160045260246000fd5b600067ffffffffffffffff8084111561366257613662613618565b604051601f85017fffffffffffffffffffffffffffffffffffffffffffffffffffffffffffffffe0908116603f011681019082821181831017156136a8576136a8613618565b816040528093508581528686860111156136c157600080fd5b858560208301376000602087830101525050509392505050565b600082601f8301126136ec57600080fd5b6134c383833560208501613647565b60006020828403121561370d57600080fd5b813567ffffffffffffffff81111561372457600080fd5b612462848285016136db565b60006020828403121561374257600080fd5b813567ffffffffffffffff81111561375957600080fd5b8201601f8101841361376a57600080fd5b61246284823560208401613647565b6000806040838503121561378c57600080fd5b82359150602083013567ffffffffffffffff8111156137aa57600080fd5b6137b6858286016136db565b9150509250929050565b8015158114611ab957600080fd5b600080604083850312156137e157600080fd5b82356137ec816134ca565b915060208301356137fc816137c0565b809150509250929050565b6020808252825182820181905260009190848201906040850190845b8181101561383f57835183529284019291840191600101613823565b50909695505050505050565b60006020828403121561385d57600080fd5b81356134c3816137c0565b6000806000806080858703121561387e57600080fd5b8435613889816134ca565b93506020850135613899816134ca565b925060408501359150606085013567ffffffffffffffff8111156138bc57600080fd5b6138c8878288016136db565b91505092959194509250565b600080604083850312156138e757600080fd5b82356138f2816134ca565b915060208301356137fc816134ca565b600181811c9082168061391657607f821691505b60208210811415613950577f4e487b7100000000000000000000000000000000000000000000000000000000600052602260045260246000fd5b50919050565b7f4e487b7100000000000000000000000000000000000000000000000000000000600052601160045260246000fd5b60007fffffffffffffffffffffffffffffffffffffffffffffffffffffffffffffffff8214156139b7576139b7613956565b5060010190565b6000602082840312156139d057600080fd5b5051919050565b6000602082840312156139e957600080fd5b81516134c3816137c0565b6000817fffffffffffffffffffffffffffffffffffffffffffffffffffffffffffffffff0483118215151615613a2c57613a2c613956565b500290565b7f4e487b7100000000000000000000000000000000000000000000000000000000600052603260045260246000fd5b60008151613a72818560208601613509565b9290920192915050565b600080845481600182811c915080831680613a9857607f831692505b6020808410821415613ad1577f4e487b710000000000000000000000000000000000000000000000000000000086526022600452602486fd5b818015613ae55760018114613b1457613b41565b7fffffffffffffffffffffffffffffffffffffffffffffffffffffffffffffff00861689528489019650613b41565b60008b81526020902060005b86811015613b395781548b820152908501908301613b20565b505084890196505b505050505050613ba9613b80613b7a837f2f00000000000000000000000000000000000000000000000000000000000000815260010190565b86613a60565b7f2e6a736f6e000000000000000000000000000000000000000000000000000000815260050190565b95945050505050565b60008219821115613bc557613bc5613956565b500190565b7f4e487b7100000000000000000000000000000000000000000000000000000000600052601260045260246000fd5b600082613c0857613c08613bca565b500490565b600082821015613c1f57613c1f613956565b500390565b600082613c3357613c33613bca565b500690565b600073ffffffffffffffffffffffffffffffffffffffff808716835280861660208401525083604083015260806060830152613c776080830184613535565b9695505050505050565b600060208284031215613c9357600080fd5b81516134c381613478565b7f4e487b7100000000000000000000000000000000000000000000000000000000600052602160045260246000fdfea26469706673582212209f6db562ef7438869ccad3ec75b55354a936bb23f472aa3aa5dec09b7a8a6f8264736f6c634300080b0033",
  "linkReferences": {},
  "deployedLinkReferences": {}
}