{
  "_format": "hh-sol-artifact-1",
  "contractName": "NFT",
  "sourceName": "contracts/NFT.sol",
  "abi": [
    {
      "inputs": [],
      "stateMutability": "nonpayable",
      "type": "constructor"
    },
    {
      "anonymous": false,
      "inputs": [
        {
          "indexed": true,
          "internalType": "address",
          "name": "owner",
          "type": "address"
        },
        {
          "indexed": true,
          "internalType": "address",
          "name": "approved",
          "type": "address"
        },
        {
          "indexed": true,
          "internalType": "uint256",
          "name": "tokenId",
          "type": "uint256"
        }
      ],
      "name": "Approval",
      "type": "event"
    },
    {
      "anonymous": false,
      "inputs": [
        {
          "indexed": true,
          "internalType": "address",
          "name": "owner",
          "type": "address"
        },
        {
          "indexed": true,
          "internalType": "address",
          "name": "operator",
          "type": "address"
        },
        {
          "indexed": false,
          "internalType": "bool",
          "name": "approved",
          "type": "bool"
        }
      ],
      "name": "ApprovalForAll",
      "type": "event"
    },
    {
      "anonymous": false,
      "inputs": [
        {
          "indexed": true,
          "internalType": "address",
          "name": "previousOwner",
          "type": "address"
        },
        {
          "indexed": true,
          "internalType": "address",
          "name": "newOwner",
          "type": "address"
        }
      ],
      "name": "OwnershipTransferred",
      "type": "event"
    },
    {
      "anonymous": false,
      "inputs": [
        {
          "indexed": false,
          "internalType": "bool",
          "name": "active",
          "type": "bool"
        }
      ],
      "name": "SaleStateUpdate",
      "type": "event"
    },
    {
      "anonymous": false,
      "inputs": [
        {
          "indexed": true,
          "internalType": "address",
          "name": "from",
          "type": "address"
        },
        {
          "indexed": true,
          "internalType": "address",
          "name": "to",
          "type": "address"
        },
        {
          "indexed": true,
          "internalType": "uint256",
          "name": "tokenId",
          "type": "uint256"
        }
      ],
      "name": "Transfer",
      "type": "event"
    },
    {
      "inputs": [],
      "name": "MAX_SUPPLY",
      "outputs": [
        {
          "internalType": "uint256",
          "name": "",
          "type": "uint256"
        }
      ],
      "stateMutability": "view",
      "type": "function"
    },
    {
      "inputs": [
        {
          "internalType": "address",
          "name": "to",
          "type": "address"
        },
        {
          "internalType": "uint256",
          "name": "tokenId",
          "type": "uint256"
        }
      ],
      "name": "approve",
      "outputs": [],
      "stateMutability": "nonpayable",
      "type": "function"
    },
    {
      "inputs": [
        {
          "internalType": "address",
          "name": "owner",
          "type": "address"
        }
      ],
      "name": "balanceOf",
      "outputs": [
        {
          "internalType": "uint256",
          "name": "",
          "type": "uint256"
        }
      ],
      "stateMutability": "view",
      "type": "function"
    },
    {
      "inputs": [],
      "name": "baseURI",
      "outputs": [
        {
          "internalType": "string",
          "name": "",
          "type": "string"
        }
      ],
      "stateMutability": "view",
      "type": "function"
    },
    {
      "inputs": [],
      "name": "diamondlistActive",
      "outputs": [
        {
          "internalType": "bool",
          "name": "",
          "type": "bool"
        }
      ],
      "stateMutability": "view",
      "type": "function"
    },
    {
      "inputs": [
        {
          "internalType": "bytes",
          "name": "signature",
          "type": "bytes"
        }
      ],
      "name": "diamondlistMint",
      "outputs": [],
      "stateMutability": "payable",
      "type": "function"
    },
    {
      "inputs": [],
      "name": "forceFulfillRandomness",
      "outputs": [],
      "stateMutability": "nonpayable",
      "type": "function"
    },
    {
      "inputs": [
        {
          "internalType": "uint256",
          "name": "tokenId",
          "type": "uint256"
        }
      ],
      "name": "getApproved",
      "outputs": [
        {
          "internalType": "address",
          "name": "",
          "type": "address"
        }
      ],
      "stateMutability": "view",
      "type": "function"
    },
    {
      "inputs": [
        {
          "internalType": "address[]",
          "name": "accounts",
          "type": "address[]"
        }
      ],
      "name": "giveAway",
      "outputs": [],
      "stateMutability": "nonpayable",
      "type": "function"
    },
    {
      "inputs": [
        {
          "internalType": "address",
          "name": "owner",
          "type": "address"
        },
        {
          "internalType": "address",
          "name": "operator",
          "type": "address"
        }
      ],
      "name": "isApprovedForAll",
      "outputs": [
        {
          "internalType": "bool",
          "name": "",
          "type": "bool"
        }
      ],
      "stateMutability": "view",
      "type": "function"
    },
    {
      "inputs": [
        {
          "internalType": "uint256",
          "name": "tokenId",
          "type": "uint256"
        }
      ],
      "name": "metadataIdOf",
      "outputs": [
        {
          "internalType": "uint256",
          "name": "",
          "type": "uint256"
        }
      ],
      "stateMutability": "view",
      "type": "function"
    },
    {
      "inputs": [
        {
          "internalType": "uint256",
          "name": "amount",
          "type": "uint256"
        }
      ],
      "name": "mint",
      "outputs": [],
      "stateMutability": "payable",
      "type": "function"
    },
    {
      "inputs": [],
      "name": "name",
      "outputs": [
        {
          "internalType": "string",
          "name": "",
          "type": "string"
        }
      ],
      "stateMutability": "view",
      "type": "function"
    },
    {
      "inputs": [],
      "name": "owner",
      "outputs": [
        {
          "internalType": "address",
          "name": "",
          "type": "address"
        }
      ],
      "stateMutability": "view",
      "type": "function"
    },
    {
      "inputs": [
        {
          "internalType": "uint256",
          "name": "tokenId",
          "type": "uint256"
        }
      ],
      "name": "ownerOf",
      "outputs": [
        {
          "internalType": "address",
          "name": "",
          "type": "address"
        }
      ],
      "stateMutability": "view",
      "type": "function"
    },
    {
      "inputs": [],
      "name": "price",
      "outputs": [
        {
          "internalType": "uint256",
          "name": "",
          "type": "uint256"
        }
      ],
      "stateMutability": "view",
      "type": "function"
    },
    {
      "inputs": [],
      "name": "publicSaleActive",
      "outputs": [
        {
          "internalType": "bool",
          "name": "",
          "type": "bool"
        }
      ],
      "stateMutability": "view",
      "type": "function"
    },
    {
      "inputs": [],
      "name": "purchaseLimit",
      "outputs": [
        {
          "internalType": "uint256",
          "name": "",
          "type": "uint256"
        }
      ],
      "stateMutability": "view",
      "type": "function"
    },
    {
      "inputs": [],
      "name": "randomSeedSet",
      "outputs": [
        {
          "internalType": "bool",
          "name": "",
          "type": "bool"
        }
      ],
      "stateMutability": "view",
      "type": "function"
    },
    {
      "inputs": [
        {
          "internalType": "bytes32",
          "name": "requestId",
          "type": "bytes32"
        },
        {
          "internalType": "uint256",
          "name": "randomness",
          "type": "uint256"
        }
      ],
      "name": "rawFulfillRandomness",
      "outputs": [],
      "stateMutability": "nonpayable",
      "type": "function"
    },
    {
      "inputs": [
        {
          "internalType": "contract IERC20",
          "name": "token",
          "type": "address"
        }
      ],
      "name": "recoverToken",
      "outputs": [],
      "stateMutability": "nonpayable",
      "type": "function"
    },
    {
      "inputs": [],
      "name": "renounceOwnership",
      "outputs": [],
      "stateMutability": "nonpayable",
      "type": "function"
    },
    {
      "inputs": [],
      "name": "requestRandomSeed",
      "outputs": [],
      "stateMutability": "nonpayable",
      "type": "function"
    },
    {
      "inputs": [
        {
          "internalType": "address",
          "name": "from",
          "type": "address"
        },
        {
          "internalType": "address",
          "name": "to",
          "type": "address"
        },
        {
          "internalType": "uint256",
          "name": "tokenId",
          "type": "uint256"
        }
      ],
      "name": "safeTransferFrom",
      "outputs": [],
      "stateMutability": "nonpayable",
      "type": "function"
    },
    {
      "inputs": [
        {
          "internalType": "address",
          "name": "from",
          "type": "address"
        },
        {
          "internalType": "address",
          "name": "to",
          "type": "address"
        },
        {
          "internalType": "uint256",
          "name": "tokenId",
          "type": "uint256"
        },
        {
          "internalType": "bytes",
          "name": "_data",
          "type": "bytes"
        }
      ],
      "name": "safeTransferFrom",
      "outputs": [],
      "stateMutability": "nonpayable",
      "type": "function"
    },
    {
      "inputs": [
        {
          "internalType": "address",
          "name": "operator",
          "type": "address"
        },
        {
          "internalType": "bool",
          "name": "approved",
          "type": "bool"
        }
      ],
      "name": "setApprovalForAll",
      "outputs": [],
      "stateMutability": "nonpayable",
      "type": "function"
    },
    {
      "inputs": [
        {
          "internalType": "string",
          "name": "_baseURI",
          "type": "string"
        }
      ],
      "name": "setBaseURI",
      "outputs": [],
      "stateMutability": "nonpayable",
      "type": "function"
    },
    {
      "inputs": [
        {
          "internalType": "bool",
          "name": "active",
          "type": "bool"
        }
      ],
      "name": "setDiamondlistActive",
      "outputs": [],
      "stateMutability": "nonpayable",
      "type": "function"
    },
    {
      "inputs": [
        {
          "internalType": "uint256",
          "name": "price_",
          "type": "uint256"
        }
      ],
      "name": "setPrice",
      "outputs": [],
      "stateMutability": "nonpayable",
      "type": "function"
    },
    {
      "inputs": [
        {
          "internalType": "bool",
          "name": "active",
          "type": "bool"
        }
      ],
      "name": "setPublicSaleActive",
      "outputs": [],
      "stateMutability": "nonpayable",
      "type": "function"
    },
    {
      "inputs": [
        {
          "internalType": "uint256",
          "name": "limit",
          "type": "uint256"
        }
      ],
      "name": "setPurchaseLimit",
      "outputs": [],
      "stateMutability": "nonpayable",
      "type": "function"
    },
    {
      "inputs": [
        {
          "internalType": "address",
          "name": "address_",
          "type": "address"
        }
      ],
      "name": "setSignerAddress",
      "outputs": [],
      "stateMutability": "nonpayable",
      "type": "function"
    },
    {
      "inputs": [
        {
          "internalType": "string",
          "name": "_uri",
          "type": "string"
        }
      ],
      "name": "setUnrevealedURI",
      "outputs": [],
      "stateMutability": "nonpayable",
      "type": "function"
    },
    {
      "inputs": [
        {
          "internalType": "bool",
          "name": "active",
          "type": "bool"
        }
      ],
      "name": "setWhitelistActive",
      "outputs": [],
      "stateMutability": "nonpayable",
      "type": "function"
    },
    {
      "inputs": [
        {
          "internalType": "uint256",
          "name": "price_",
          "type": "uint256"
        }
      ],
      "name": "setWhitelistPrice",
      "outputs": [],
      "stateMutability": "nonpayable",
      "type": "function"
    },
    {
      "inputs": [
        {
          "internalType": "uint256",
          "name": "limit",
          "type": "uint256"
        }
      ],
      "name": "setWhitelistPurchaseLimit",
      "outputs": [],
      "stateMutability": "nonpayable",
      "type": "function"
    },
    {
      "inputs": [
        {
          "internalType": "bytes4",
          "name": "interfaceId",
          "type": "bytes4"
        }
      ],
      "name": "supportsInterface",
      "outputs": [
        {
          "internalType": "bool",
          "name": "",
          "type": "bool"
        }
      ],
      "stateMutability": "view",
      "type": "function"
    },
    {
      "inputs": [],
      "name": "symbol",
      "outputs": [
        {
          "internalType": "string",
          "name": "",
          "type": "string"
        }
      ],
      "stateMutability": "view",
      "type": "function"
    },
    {
      "inputs": [
        {
          "internalType": "address",
          "name": "owner",
          "type": "address"
        }
      ],
      "name": "tokenIdsOf",
      "outputs": [
        {
          "internalType": "uint256[]",
          "name": "",
          "type": "uint256[]"
        }
      ],
      "stateMutability": "view",
      "type": "function"
    },
    {
      "inputs": [
        {
          "internalType": "uint256",
          "name": "tokenId",
          "type": "uint256"
        }
      ],
      "name": "tokenURI",
      "outputs": [
        {
          "internalType": "string",
          "name": "",
          "type": "string"
        }
      ],
      "stateMutability": "view",
      "type": "function"
    },
    {
      "inputs": [],
      "name": "totalSupply",
      "outputs": [
        {
          "internalType": "uint256",
          "name": "",
          "type": "uint256"
        }
      ],
      "stateMutability": "view",
      "type": "function"
    },
    {
      "inputs": [
        {
          "internalType": "address",
          "name": "from",
          "type": "address"
        },
        {
          "internalType": "address",
          "name": "to",
          "type": "address"
        },
        {
          "internalType": "uint256",
          "name": "tokenId",
          "type": "uint256"
        }
      ],
      "name": "transferFrom",
      "outputs": [],
      "stateMutability": "nonpayable",
      "type": "function"
    },
    {
      "inputs": [
        {
          "internalType": "address",
          "name": "newOwner",
          "type": "address"
        }
      ],
      "name": "transferOwnership",
      "outputs": [],
      "stateMutability": "nonpayable",
      "type": "function"
    },
    {
      "inputs": [],
      "name": "unrevealedURI",
      "outputs": [
        {
          "internalType": "string",
          "name": "",
          "type": "string"
        }
      ],
      "stateMutability": "view",
      "type": "function"
    },
    {
      "inputs": [],
      "name": "whitelistActive",
      "outputs": [
        {
          "internalType": "bool",
          "name": "",
          "type": "bool"
        }
      ],
      "stateMutability": "view",
      "type": "function"
    },
    {
      "inputs": [
        {
          "internalType": "uint256",
          "name": "amount",
          "type": "uint256"
        },
        {
          "internalType": "bytes",
          "name": "signature",
          "type": "bytes"
        }
      ],
      "name": "whitelistMint",
      "outputs": [],
      "stateMutability": "payable",
      "type": "function"
    },
    {
      "inputs": [],
      "name": "whitelistPrice",
      "outputs": [
        {
          "internalType": "uint256",
          "name": "",
          "type": "uint256"
        }
      ],
      "stateMutability": "view",
      "type": "function"
    },
    {
      "inputs": [],
      "name": "whitelistPurchaseLimit",
      "outputs": [
        {
          "internalType": "uint256",
          "name": "",
          "type": "uint256"
        }
      ],
      "stateMutability": "view",
      "type": "function"
    },
    {
      "inputs": [],
      "name": "withdraw",
      "outputs": [],
      "stateMutability": "nonpayable",
      "type": "function"
    }
  ],
  "bytecode": "0x7f2ed0feb3e7fd2022120aa84fab1945545a9f2ffc9076fd6156fa96eaff4c131160075567016345785d8a0000600855610120604052603660c081815290620049b360e03980516200005a91600a91602090910190620001f0565b5060408051808201909152600a808252690d2e0cce6745e5eb0b0b60b31b60209092019182526200008e91600b91620001f0565b50666a94d74f430000600e556003600f5566470de4df8200006010556002601155601480546001600160a01b0319167368442589f40e8fc3a9679de62884c85c6e524888179055348015620000e257600080fd5b50604080518082018252600881526709af29c8ca8b0b0b60c31b60208083019182528351808501909452600684526509c8ca8b0b0b60d31b9084015273b3dccb4cf7a26f6cf6b120cf5a73875b7bbc655b60a0527301be23585060835e02b77ef475b0cc51aa1e070960805281519192916200016191600191620001f0565b50805162000177906002906020840190620001f0565b505050620001946200018e6200019a60201b60201c565b6200019e565b620002d3565b3390565b600680546001600160a01b038381166001600160a01b0319831681179093556040519116919082907f8be0079c531659141344cd1fd0a4f28419497f9722a3daafe3b4186f6b6457e090600090a35050565b828054620001fe9062000296565b90600052602060002090601f0160209004810192826200022257600085556200026d565b82601f106200023d57805160ff19168380011785556200026d565b828001600101855582156200026d579182015b828111156200026d57825182559160200191906001019062000250565b506200027b9291506200027f565b5090565b5b808211156200027b576000815560010162000280565b600181811c90821680620002ab57607f821691505b60208210811415620002cd57634e487b7160e01b600052602260045260246000fd5b50919050565b60805160a0516146b3620003006000396000818161172d01526137ae0152600061377201526146b36000f3fe60806040526004361061031e5760003560e01c80638da5cb5b116101a5578063b88d4fde116100ec578063e1da26c611610095578063eb418b731161006f578063eb418b73146108a7578063f2fde38b146108c7578063fc1a1c36146108e7578063fe2c7fee146108fd57600080fd5b8063e1da26c61461081c578063e2e06fa314610831578063e985e9c51461085157600080fd5b8063c0d4c307116100c6578063c0d4c307146107bc578063c3b754dc146107dc578063c87b56dd146107fc57600080fd5b8063b88d4fde14610762578063b937438114610782578063bc8893b4146107a257600080fd5b8063a035b1fe1161014e578063a3b261f211610128578063a3b261f2146106fe578063aaab63391461072b578063ab9a067d1461074257600080fd5b8063a035b1fe146106b5578063a0712d68146106cb578063a22cb465146106de57600080fd5b806395d89b411161017f57806395d89b411461066d5780639be65a60146106825780639e852f75146106a257600080fd5b80638da5cb5b1461060257806391b7f5ed1461062d57806394985ddd1461064d57600080fd5b80633307dcfe116102695780636edc438811610212578063715018a6116101ec578063715018a6146105ad578063717d57d3146105c257806374dcacfb146105e257600080fd5b80636edc4388146105585780637035bf181461057857806370a082311461058d57600080fd5b806355f804b31161024357806355f804b3146105035780636352211e146105235780636c0360eb1461054357600080fd5b80633307dcfe146104b95780633ccfd60b146104ce57806342842e0e146104e357600080fd5b806318160ddd116102cb5780632618c3ff116102a55780632618c3ff1461047a5780632e4ad4d51461049057806332cb6b0c146104a357600080fd5b806318160ddd14610420578063188866571461044457806323b872dd1461045a57600080fd5b806306fdde03116102fc57806306fdde0314610399578063081812fc146103bb578063095ea7b31461040057600080fd5b806301ffc9a71461032357806302ce581314610358578063046dc16614610377575b600080fd5b34801561032f57600080fd5b5061034361033e366004613de2565b61091d565b60405190151581526020015b60405180910390f35b34801561036457600080fd5b50600c5461034390610100900460ff1681565b34801561038357600080fd5b50610397610392366004613e28565b610a02565b005b3480156103a557600080fd5b506103ae610acf565b60405161034f9190613ebb565b3480156103c757600080fd5b506103db6103d6366004613ece565b610b61565b60405173ffffffffffffffffffffffffffffffffffffffff909116815260200161034f565b34801561040c57600080fd5b5061039761041b366004613ee7565b610c3b565b34801561042c57600080fd5b50610436600d5481565b60405190815260200161034f565b34801561045057600080fd5b50610436600f5481565b34801561046657600080fd5b50610397610475366004613f13565b610dc8565b34801561048657600080fd5b5061043660115481565b61039761049e366004614037565b610e69565b3480156104af57600080fd5b5061043661271081565b3480156104c557600080fd5b50610397611077565b3480156104da57600080fd5b50610397611114565b3480156104ef57600080fd5b506103976104fe366004613f13565b6111e2565b34801561050f57600080fd5b5061039761051e36600461406c565b6111fd565b34801561052f57600080fd5b506103db61053e366004613ece565b611291565b34801561054f57600080fd5b506103ae611343565b34801561056457600080fd5b50610397610573366004613ece565b6113d1565b34801561058457600080fd5b506103ae611457565b34801561059957600080fd5b506104366105a8366004613e28565b611464565b3480156105b957600080fd5b5061039761156b565b3480156105ce57600080fd5b506103976105dd366004613ece565b6115f8565b3480156105ee57600080fd5b506104366105fd366004613ece565b61167e565b34801561060e57600080fd5b5060065473ffffffffffffffffffffffffffffffffffffffff166103db565b34801561063957600080fd5b50610397610648366004613ece565b61168f565b34801561065957600080fd5b506103976106683660046140b5565b611715565b34801561067957600080fd5b506103ae6117be565b34801561068e57600080fd5b5061039761069d366004613e28565b6117cd565b6103976106b03660046140d7565b6119b2565b3480156106c157600080fd5b50610436600e5481565b6103976106d9366004613ece565b611c9b565b3480156106ea57600080fd5b506103976106f936600461412c565b611e5c565b34801561070a57600080fd5b5061071e610719366004613e28565b611e67565b60405161034f9190614165565b34801561073757600080fd5b506009541515610343565b34801561074e57600080fd5b5061039761075d3660046141a9565b611f39565b34801561076e57600080fd5b5061039761077d3660046141c6565b611ff2565b34801561078e57600080fd5b5061039761079d366004613ece565b612094565b3480156107ae57600080fd5b50600c546103439060ff1681565b3480156107c857600080fd5b506103976107d7366004614232565b61211a565b3480156107e857600080fd5b506103976107f73660046141a9565b6121e9565b34801561080857600080fd5b506103ae610817366004613ece565b6122a1565b34801561082857600080fd5b50610397612447565b34801561083d57600080fd5b5061039761084c3660046141a9565b61253a565b34801561085d57600080fd5b5061034361086c3660046142a7565b73ffffffffffffffffffffffffffffffffffffffff918216600090815260056020908152604080832093909416825291909152205460ff1690565b3480156108b357600080fd5b50600c546103439062010000900460ff1681565b3480156108d357600080fd5b506103976108e2366004613e28565b612620565b3480156108f357600080fd5b5061043660105481565b34801561090957600080fd5b5061039761091836600461406c565b61274d565b60007fffffffff0000000000000000000000000000000000000000000000000000000082167f80ac58cd0000000000000000000000000000000000000000000000000000000014806109b057507fffffffff0000000000000000000000000000000000000000000000000000000082167f5b5e139f00000000000000000000000000000000000000000000000000000000145b806109fc57507f01ffc9a7000000000000000000000000000000000000000000000000000000007fffffffff000000000000000000000000000000000000000000000000000000008316145b92915050565b60065473ffffffffffffffffffffffffffffffffffffffff163314610a88576040517f08c379a000000000000000000000000000000000000000000000000000000000815260206004820181905260248201527f4f776e61626c653a2063616c6c6572206973206e6f7420746865206f776e657260448201526064015b60405180910390fd5b601480547fffffffffffffffffffffffff00000000000000000000000000000000000000001673ffffffffffffffffffffffffffffffffffffffff92909216919091179055565b606060018054610ade906142d5565b80601f0160208091040260200160405190810160405280929190818152602001828054610b0a906142d5565b8015610b575780601f10610b2c57610100808354040283529160200191610b57565b820191906000526020600020905b815481529060010190602001808311610b3a57829003601f168201915b5050505050905090565b60008181526003602052604081205473ffffffffffffffffffffffffffffffffffffffff16610c12576040517f08c379a000000000000000000000000000000000000000000000000000000000815260206004820152602c60248201527f4552433732313a20617070726f76656420717565727920666f72206e6f6e657860448201527f697374656e7420746f6b656e00000000000000000000000000000000000000006064820152608401610a7f565b5060009081526004602052604090205473ffffffffffffffffffffffffffffffffffffffff1690565b6000610c4682611291565b90508073ffffffffffffffffffffffffffffffffffffffff168373ffffffffffffffffffffffffffffffffffffffff161415610d04576040517f08c379a000000000000000000000000000000000000000000000000000000000815260206004820152602160248201527f4552433732313a20617070726f76616c20746f2063757272656e74206f776e6560448201527f72000000000000000000000000000000000000000000000000000000000000006064820152608401610a7f565b3373ffffffffffffffffffffffffffffffffffffffff82161480610d2d5750610d2d813361086c565b610db9576040517f08c379a000000000000000000000000000000000000000000000000000000000815260206004820152603860248201527f4552433732313a20617070726f76652063616c6c6572206973206e6f74206f7760448201527f6e6572206e6f7220617070726f76656420666f7220616c6c00000000000000006064820152608401610a7f565b610dc383836127e1565b505050565b610dd23382612881565b610e5e576040517f08c379a000000000000000000000000000000000000000000000000000000000815260206004820152603160248201527f4552433732313a207472616e736665722063616c6c6572206973206e6f74206f60448201527f776e6572206e6f7220617070726f7665640000000000000000000000000000006064820152608401610a7f565b610dc38383836129f1565b600c5462010000900460ff16610edb576040517f08c379a000000000000000000000000000000000000000000000000000000000815260206004820152601660248201527f4449414d4f4e444c4953545f4e4f545f414354495645000000000000000000006044820152606401610a7f565b80610ee881610539612be2565b610f4e576040517f08c379a000000000000000000000000000000000000000000000000000000000815260206004820152600f60248201527f4e4f545f57484954454c495354454400000000000000000000000000000000006044820152606401610a7f565b3360009081526013602052604090205460ff1615610fc8576040517f08c379a000000000000000000000000000000000000000000000000000000000815260206004820152600e60248201527f57484954454c4953545f555345440000000000000000000000000000000000006044820152606401610a7f565b33600081815260136020526040902080547fffffffffffffffffffffffffffffffffffffffffffffffffffffffffffffff001660011790553214611068576040517f08c379a000000000000000000000000000000000000000000000000000000000815260206004820152600d60248201527f434f4e54524143545f43414c4c000000000000000000000000000000000000006044820152606401610a7f565b611073336001612cd2565b5050565b60065473ffffffffffffffffffffffffffffffffffffffff1633146110f8576040517f08c379a000000000000000000000000000000000000000000000000000000000815260206004820181905260248201527f4f776e61626c653a2063616c6c6572206973206e6f7420746865206f776e65726044820152606401610a7f565b6000611105600143614358565b40905061111181612e01565b50565b60065473ffffffffffffffffffffffffffffffffffffffff163314611195576040517f08c379a000000000000000000000000000000000000000000000000000000000815260206004820181905260248201527f4f776e61626c653a2063616c6c6572206973206e6f7420746865206f776e65726044820152606401610a7f565b604051479033908290600081818185875af1925050503d80600081146111d7576040519150601f19603f3d011682016040523d82523d6000602084013e6111dc565b606091505b50505050565b610dc383838360405180602001604052806000815250611ff2565b60065473ffffffffffffffffffffffffffffffffffffffff16331461127e576040517f08c379a000000000000000000000000000000000000000000000000000000000815260206004820181905260248201527f4f776e61626c653a2063616c6c6572206973206e6f7420746865206f776e65726044820152606401610a7f565b805161107390600a906020840190613d1b565b60008181526003602052604081205473ffffffffffffffffffffffffffffffffffffffff16806109fc576040517f08c379a000000000000000000000000000000000000000000000000000000000815260206004820152602960248201527f4552433732313a206f776e657220717565727920666f72206e6f6e657869737460448201527f656e7420746f6b656e00000000000000000000000000000000000000000000006064820152608401610a7f565b600a8054611350906142d5565b80601f016020809104026020016040519081016040528092919081815260200182805461137c906142d5565b80156113c95780601f1061139e576101008083540402835291602001916113c9565b820191906000526020600020905b8154815290600101906020018083116113ac57829003601f168201915b505050505081565b60065473ffffffffffffffffffffffffffffffffffffffff163314611452576040517f08c379a000000000000000000000000000000000000000000000000000000000815260206004820181905260248201527f4f776e61626c653a2063616c6c6572206973206e6f7420746865206f776e65726044820152606401610a7f565b600f55565b600b8054611350906142d5565b600073ffffffffffffffffffffffffffffffffffffffff8216611509576040517f08c379a000000000000000000000000000000000000000000000000000000000815260206004820152602a60248201527f4552433732313a2062616c616e636520717565727920666f7220746865207a6560448201527f726f2061646472657373000000000000000000000000000000000000000000006064820152608401610a7f565b6000805b600d548110156115645760008181526003602052604090205473ffffffffffffffffffffffffffffffffffffffff8581169116141561155457816115508161436f565b9250505b61155d8161436f565b905061150d565b5092915050565b60065473ffffffffffffffffffffffffffffffffffffffff1633146115ec576040517f08c379a000000000000000000000000000000000000000000000000000000000815260206004820181905260248201527f4f776e61626c653a2063616c6c6572206973206e6f7420746865206f776e65726044820152606401610a7f565b6115f66000612ec2565b565b60065473ffffffffffffffffffffffffffffffffffffffff163314611679576040517f08c379a000000000000000000000000000000000000000000000000000000000815260206004820181905260248201527f4f776e61626c653a2063616c6c6572206973206e6f7420746865206f776e65726044820152606401610a7f565b601055565b60006109fc82612710600954612f39565b60065473ffffffffffffffffffffffffffffffffffffffff163314611710576040517f08c379a000000000000000000000000000000000000000000000000000000000815260206004820181905260248201527f4f776e61626c653a2063616c6c6572206973206e6f7420746865206f776e65726044820152606401610a7f565b600e55565b3373ffffffffffffffffffffffffffffffffffffffff7f000000000000000000000000000000000000000000000000000000000000000016146117b4576040517f08c379a000000000000000000000000000000000000000000000000000000000815260206004820152601f60248201527f4f6e6c7920565246436f6f7264696e61746f722063616e2066756c66696c6c006044820152606401610a7f565b61107382826130b2565b606060028054610ade906142d5565b60065473ffffffffffffffffffffffffffffffffffffffff16331461184e576040517f08c379a000000000000000000000000000000000000000000000000000000000815260206004820181905260248201527f4f776e61626c653a2063616c6c6572206973206e6f7420746865206f776e65726044820152606401610a7f565b6040517f70a0823100000000000000000000000000000000000000000000000000000000815230600482015260009073ffffffffffffffffffffffffffffffffffffffff8316906370a0823190602401602060405180830381865afa1580156118bb573d6000803e3d6000fd5b505050506040513d601f19601f820116820180604052508101906118df91906143a8565b90508173ffffffffffffffffffffffffffffffffffffffff1663a9059cbb61191c60065473ffffffffffffffffffffffffffffffffffffffff1690565b6040517fffffffff0000000000000000000000000000000000000000000000000000000060e084901b16815273ffffffffffffffffffffffffffffffffffffffff9091166004820152602481018490526044016020604051808303816000875af115801561198e573d6000803e3d6000fd5b505050506040513d601f19601f82011682018060405250810190610dc391906143c1565b600c54610100900460ff16611a23576040517f08c379a000000000000000000000000000000000000000000000000000000000815260206004820152601460248201527f57484954454c4953545f4e4f545f4143544956450000000000000000000000006044820152606401610a7f565b80611a2f816045612be2565b611a95576040517f08c379a000000000000000000000000000000000000000000000000000000000815260206004820152600f60248201527f4e4f545f57484954454c495354454400000000000000000000000000000000006044820152606401610a7f565b3360009081526012602052604090205460ff1615611b0f576040517f08c379a000000000000000000000000000000000000000000000000000000000815260206004820152600e60248201527f57484954454c4953545f555345440000000000000000000000000000000000006044820152606401610a7f565b33600081815260126020526040902080547fffffffffffffffffffffffffffffffffffffffffffffffffffffffffffffff001660011790553214611baf576040517f08c379a000000000000000000000000000000000000000000000000000000000815260206004820152600d60248201527f434f4e54524143545f43414c4c000000000000000000000000000000000000006044820152606401610a7f565b601154831115611c1b576040517f08c379a000000000000000000000000000000000000000000000000000000000815260206004820152600d60248201527f455843454544535f4c494d4954000000000000000000000000000000000000006044820152606401610a7f565b82601054611c2991906143de565b3414611c91576040517f08c379a000000000000000000000000000000000000000000000000000000000815260206004820152600f60248201527f494e434f52524543545f56414c554500000000000000000000000000000000006044820152606401610a7f565b610dc33384612cd2565b600c5460ff16611d07576040517f08c379a000000000000000000000000000000000000000000000000000000000815260206004820152601660248201527f5055424c49435f53414c455f4e4f545f414354495645000000000000000000006044820152606401610a7f565b323314611d70576040517f08c379a000000000000000000000000000000000000000000000000000000000815260206004820152600d60248201527f434f4e54524143545f43414c4c000000000000000000000000000000000000006044820152606401610a7f565b600f54811115611ddc576040517f08c379a000000000000000000000000000000000000000000000000000000000815260206004820152600d60248201527f455843454544535f4c494d4954000000000000000000000000000000000000006044820152606401610a7f565b80600e54611dea91906143de565b3414611e52576040517f08c379a000000000000000000000000000000000000000000000000000000000815260206004820152600f60248201527f494e434f52524543545f56414c554500000000000000000000000000000000006044820152606401610a7f565b6111113382612cd2565b6110733383836130bb565b60606000611e7483611464565b67ffffffffffffffff811115611e8c57611e8c613f54565b604051908082528060200260200182016040528015611eb5578160200160208202803683370190505b5090506000805b600d54811015611f305760008181526003602052604090205473ffffffffffffffffffffffffffffffffffffffff86811691161415611f2057808383611f018161436f565b945081518110611f1357611f1361441b565b6020026020010181815250505b611f298161436f565b9050611ebc565b50909392505050565b60065473ffffffffffffffffffffffffffffffffffffffff163314611fba576040517f08c379a000000000000000000000000000000000000000000000000000000000815260206004820181905260248201527f4f776e61626c653a2063616c6c6572206973206e6f7420746865206f776e65726044820152606401610a7f565b600c805491151562010000027fffffffffffffffffffffffffffffffffffffffffffffffffffffffffff00ffff909216919091179055565b611ffc3383612881565b612088576040517f08c379a000000000000000000000000000000000000000000000000000000000815260206004820152603160248201527f4552433732313a207472616e736665722063616c6c6572206973206e6f74206f60448201527f776e6572206e6f7220617070726f7665640000000000000000000000000000006064820152608401610a7f565b6111dc848484846131e9565b60065473ffffffffffffffffffffffffffffffffffffffff163314612115576040517f08c379a000000000000000000000000000000000000000000000000000000000815260206004820181905260248201527f4f776e61626c653a2063616c6c6572206973206e6f7420746865206f776e65726044820152606401610a7f565b601155565b60065473ffffffffffffffffffffffffffffffffffffffff16331461219b576040517f08c379a000000000000000000000000000000000000000000000000000000000815260206004820181905260248201527f4f776e61626c653a2063616c6c6572206973206e6f7420746865206f776e65726044820152606401610a7f565b60005b81811015610dc3576121d78383838181106121bb576121bb61441b565b90506020020160208101906121d09190613e28565b6001612cd2565b806121e18161436f565b91505061219e565b60065473ffffffffffffffffffffffffffffffffffffffff16331461226a576040517f08c379a000000000000000000000000000000000000000000000000000000000815260206004820181905260248201527f4f776e61626c653a2063616c6c6572206973206e6f7420746865206f776e65726044820152606401610a7f565b600c8054911515610100027fffffffffffffffffffffffffffffffffffffffffffffffffffffffffffff00ff909216919091179055565b60008181526003602052604090205460609073ffffffffffffffffffffffffffffffffffffffff16612355576040517f08c379a000000000000000000000000000000000000000000000000000000000815260206004820152602f60248201527f4552433732314d657461646174613a2055524920717565727920666f72206e6f60448201527f6e6578697374656e7420746f6b656e00000000000000000000000000000000006064820152608401610a7f565b60095415806123705750600a805461236c906142d5565b1590505b1561240757600b8054612382906142d5565b80601f01602080910402602001604051908101604052809291908181526020018280546123ae906142d5565b80156123fb5780601f106123d0576101008083540402835291602001916123fb565b820191906000526020600020905b8154815290600101906020018083116123de57829003601f168201915b50505050509050919050565b60006124128361167e565b9050600a61241f8261328c565b604051602001612430929190614466565b604051602081830303815290604052915050919050565b60065473ffffffffffffffffffffffffffffffffffffffff1633146124c8576040517f08c379a000000000000000000000000000000000000000000000000000000000815260206004820181905260248201527f4f776e61626c653a2063616c6c6572206973206e6f7420746865206f776e65726044820152606401610a7f565b60095415612532576040517f08c379a000000000000000000000000000000000000000000000000000000000815260206004820152600f60248201527f52414e444f4d5f534545445f53455400000000000000000000000000000000006044820152606401610a7f565b6111116133be565b60065473ffffffffffffffffffffffffffffffffffffffff1633146125bb576040517f08c379a000000000000000000000000000000000000000000000000000000000815260206004820181905260248201527f4f776e61626c653a2063616c6c6572206973206e6f7420746865206f776e65726044820152606401610a7f565b600c80547fffffffffffffffffffffffffffffffffffffffffffffffffffffffffffffff00168215159081179091556040519081527f97f29479c7c44b7656bf427eb93a9dadcd6b4a3d900a3ac5df9de43a867de5d09060200160405180910390a150565b60065473ffffffffffffffffffffffffffffffffffffffff1633146126a1576040517f08c379a000000000000000000000000000000000000000000000000000000000815260206004820181905260248201527f4f776e61626c653a2063616c6c6572206973206e6f7420746865206f776e65726044820152606401610a7f565b73ffffffffffffffffffffffffffffffffffffffff8116612744576040517f08c379a000000000000000000000000000000000000000000000000000000000815260206004820152602660248201527f4f776e61626c653a206e6577206f776e657220697320746865207a65726f206160448201527f64647265737300000000000000000000000000000000000000000000000000006064820152608401610a7f565b61111181612ec2565b60065473ffffffffffffffffffffffffffffffffffffffff1633146127ce576040517f08c379a000000000000000000000000000000000000000000000000000000000815260206004820181905260248201527f4f776e61626c653a2063616c6c6572206973206e6f7420746865206f776e65726044820152606401610a7f565b805161107390600b906020840190613d1b565b600081815260046020526040902080547fffffffffffffffffffffffff00000000000000000000000000000000000000001673ffffffffffffffffffffffffffffffffffffffff8416908117909155819061283b82611291565b73ffffffffffffffffffffffffffffffffffffffff167f8c5be1e5ebec7d5bd14f71427d1e84f3dd0314c0f7b2291e5b200ac8c7c3b92560405160405180910390a45050565b60008181526003602052604081205473ffffffffffffffffffffffffffffffffffffffff16612932576040517f08c379a000000000000000000000000000000000000000000000000000000000815260206004820152602c60248201527f4552433732313a206f70657261746f7220717565727920666f72206e6f6e657860448201527f697374656e7420746f6b656e00000000000000000000000000000000000000006064820152608401610a7f565b600061293d83611291565b90508073ffffffffffffffffffffffffffffffffffffffff168473ffffffffffffffffffffffffffffffffffffffff1614806129ac57508373ffffffffffffffffffffffffffffffffffffffff1661299484610b61565b73ffffffffffffffffffffffffffffffffffffffff16145b806129e9575073ffffffffffffffffffffffffffffffffffffffff80821660009081526005602090815260408083209388168352929052205460ff165b949350505050565b8273ffffffffffffffffffffffffffffffffffffffff16612a1182611291565b73ffffffffffffffffffffffffffffffffffffffff1614612ab4576040517f08c379a000000000000000000000000000000000000000000000000000000000815260206004820152602960248201527f4552433732313a207472616e73666572206f6620746f6b656e2074686174206960448201527f73206e6f74206f776e00000000000000000000000000000000000000000000006064820152608401610a7f565b73ffffffffffffffffffffffffffffffffffffffff8216612b56576040517f08c379a0000000000000000000000000000000000000000000000000000000008152602060048201526024808201527f4552433732313a207472616e7366657220746f20746865207a65726f2061646460448201527f72657373000000000000000000000000000000000000000000000000000000006064820152608401610a7f565b612b616000826127e1565b60008181526003602052604080822080547fffffffffffffffffffffffff00000000000000000000000000000000000000001673ffffffffffffffffffffffffffffffffffffffff86811691821790925591518493918716917fddf252ad1be2c89b69c2b068fc378daa952ba7f163c4a11628f55a4df523b3ef91a4505050565b604080513060208201529081018290523360608201526000908190608001604080517fffffffffffffffffffffffffffffffffffffffffffffffffffffffffffffffe0818403018152919052805160209091012060145490915073ffffffffffffffffffffffffffffffffffffffff16612cb385612cad846040517f19457468657265756d205369676e6564204d6573736167653a0a3332000000006020820152603c8101829052600090605c01604051602081830303815290604052805190602001209050919050565b906133d3565b73ffffffffffffffffffffffffffffffffffffffff1614949350505050565b600d54612710612ce28383614544565b1115612d4a576040517f08c379a000000000000000000000000000000000000000000000000000000000815260206004820152601260248201527f4d41585f535550504c595f5245414348454400000000000000000000000000006044820152606401610a7f565b60008211612db4576040517f08c379a000000000000000000000000000000000000000000000000000000000815260206004820152601160248201527f4d5553545f42455f475245415445525f300000000000000000000000000000006044820152606401610a7f565b60005b82811015612de457612dd284612dcd8385614544565b6133f7565b80612ddc8161436f565b915050612db7565b5081600d6000828254612df79190614544565b9091555050505050565b60095415612e6b576040517f08c379a000000000000000000000000000000000000000000000000000000000815260206004820152600f60248201527f52414e444f4d5f534545445f53455400000000000000000000000000000000006044820152606401610a7f565b611111816009546040805160208101929092528101829052606001604080517fffffffffffffffffffffffffffffffffffffffffffffffffffffffffffffffe0818403018152919052805160209091012060095550565b6006805473ffffffffffffffffffffffffffffffffffffffff8381167fffffffffffffffffffffffff0000000000000000000000000000000000000000831681179093556040519116919082907f8be0079c531659141344cd1fd0a4f28419497f9722a3daafe3b4186f6b6457e090600090a35050565b6000808367ffffffffffffffff811115612f5557612f55613f54565b604051908082528060200260200182016040528015612f7e578160200160208202803683370190505b50905060005b84811015612fbc5780828281518110612f9f57612f9f61441b565b602090810291909101015280612fb48161436f565b915050612f84565b5060005b8481101561308d576000858583604051602001612fe7929190918252602082015260400190565b6040516020818303038152906040528051906020012060001c61300a919061458b565b905082818151811061301e5761301e61441b565b60200260200101518383815181106130385761303861441b565b60200260200101518484815181106130525761305261441b565b6020026020010185848151811061306b5761306b61441b565b60209081029190910101919091525250806130858161436f565b915050612fc0565b508085815181106130a0576130a061441b565b60200260200101519150509392505050565b61107381612e01565b8173ffffffffffffffffffffffffffffffffffffffff168373ffffffffffffffffffffffffffffffffffffffff161415613151576040517f08c379a000000000000000000000000000000000000000000000000000000000815260206004820152601960248201527f4552433732313a20617070726f766520746f2063616c6c6572000000000000006044820152606401610a7f565b73ffffffffffffffffffffffffffffffffffffffff83811660008181526005602090815260408083209487168084529482529182902080547fffffffffffffffffffffffffffffffffffffffffffffffffffffffffffffff001686151590811790915591519182527f17307eab39ab6107e8899845ad3d59bd9653f200f220920489ca2b5937696c31910160405180910390a3505050565b6131f48484846129f1565b6132008484848461357e565b6111dc576040517f08c379a000000000000000000000000000000000000000000000000000000000815260206004820152603260248201527f4552433732313a207472616e7366657220746f206e6f6e20455243373231526560448201527f63656976657220696d706c656d656e74657200000000000000000000000000006064820152608401610a7f565b6060816132cc57505060408051808201909152600181527f3000000000000000000000000000000000000000000000000000000000000000602082015290565b8160005b81156132f657806132e08161436f565b91506132ef9050600a8361459f565b91506132d0565b60008167ffffffffffffffff81111561331157613311613f54565b6040519080825280601f01601f19166020018201604052801561333b576020820181803683370190505b5090505b84156129e957613350600183614358565b915061335d600a8661458b565b613368906030614544565b60f81b81838151811061337d5761337d61441b565b60200101907effffffffffffffffffffffffffffffffffffffffffffffffffffffffffffff1916908160001a9053506133b7600a8661459f565b945061333f565b60006133ce60075460085461376e565b905090565b60008060006133e285856138f2565b915091506133ef81613962565b509392505050565b73ffffffffffffffffffffffffffffffffffffffff8216613474576040517f08c379a000000000000000000000000000000000000000000000000000000000815260206004820181905260248201527f4552433732313a206d696e7420746f20746865207a65726f20616464726573736044820152606401610a7f565b60008181526003602052604090205473ffffffffffffffffffffffffffffffffffffffff1615613500576040517f08c379a000000000000000000000000000000000000000000000000000000000815260206004820152601c60248201527f4552433732313a20746f6b656e20616c7265616479206d696e746564000000006044820152606401610a7f565b60008181526003602052604080822080547fffffffffffffffffffffffff00000000000000000000000000000000000000001673ffffffffffffffffffffffffffffffffffffffff861690811790915590518392907fddf252ad1be2c89b69c2b068fc378daa952ba7f163c4a11628f55a4df523b3ef908290a45050565b600073ffffffffffffffffffffffffffffffffffffffff84163b15613763576040517f150b7a0200000000000000000000000000000000000000000000000000000000815273ffffffffffffffffffffffffffffffffffffffff85169063150b7a02906135f59033908990889088906004016145b3565b6020604051808303816000875af192505050801561364e575060408051601f3d9081017fffffffffffffffffffffffffffffffffffffffffffffffffffffffffffffffe016820190925261364b918101906145fc565b60015b613718573d80801561367c576040519150601f19603f3d011682016040523d82523d6000602084013e613681565b606091505b508051613710576040517f08c379a000000000000000000000000000000000000000000000000000000000815260206004820152603260248201527f4552433732313a207472616e7366657220746f206e6f6e20455243373231526560448201527f63656976657220696d706c656d656e74657200000000000000000000000000006064820152608401610a7f565b805181602001fd5b7fffffffff00000000000000000000000000000000000000000000000000000000167f150b7a02000000000000000000000000000000000000000000000000000000001490506129e9565b506001949350505050565b60007f000000000000000000000000000000000000000000000000000000000000000073ffffffffffffffffffffffffffffffffffffffff16634000aea07f0000000000000000000000000000000000000000000000000000000000000000848660006040516020016137eb929190918252602082015260400190565b6040516020818303038152906040526040518463ffffffff1660e01b815260040161381893929190614619565b6020604051808303816000875af1158015613837573d6000803e3d6000fd5b505050506040513d601f19601f8201168201806040525081019061385b91906143c1565b5060008381526020818152604080832054815180840188905280830185905230606082015260808082018390528351808303909101815260a0909101909252815191830191909120868452929091526138b5906001614544565b60008581526020818152604091829020929092558051808301879052808201849052815180820383018152606090910190915280519101206129e9565b6000808251604114156139295760208301516040840151606085015160001a61391d87828585613bbb565b9450945050505061395b565b8251604014156139535760208301516040840151613948868383613cd3565b93509350505061395b565b506000905060025b9250929050565b60008160048111156139765761397661464e565b141561397f5750565b60018160048111156139935761399361464e565b14156139fb576040517f08c379a000000000000000000000000000000000000000000000000000000000815260206004820152601860248201527f45434453413a20696e76616c6964207369676e617475726500000000000000006044820152606401610a7f565b6002816004811115613a0f57613a0f61464e565b1415613a77576040517f08c379a000000000000000000000000000000000000000000000000000000000815260206004820152601f60248201527f45434453413a20696e76616c6964207369676e6174757265206c656e677468006044820152606401610a7f565b6003816004811115613a8b57613a8b61464e565b1415613b19576040517f08c379a000000000000000000000000000000000000000000000000000000000815260206004820152602260248201527f45434453413a20696e76616c6964207369676e6174757265202773272076616c60448201527f75650000000000000000000000000000000000000000000000000000000000006064820152608401610a7f565b6004816004811115613b2d57613b2d61464e565b1415611111576040517f08c379a000000000000000000000000000000000000000000000000000000000815260206004820152602260248201527f45434453413a20696e76616c6964207369676e6174757265202776272076616c60448201527f75650000000000000000000000000000000000000000000000000000000000006064820152608401610a7f565b6000807f7fffffffffffffffffffffffffffffff5d576e7357a4501ddfe92f46681b20a0831115613bf25750600090506003613cca565b8460ff16601b14158015613c0a57508460ff16601c14155b15613c1b5750600090506004613cca565b6040805160008082526020820180845289905260ff881692820192909252606081018690526080810185905260019060a0016020604051602081039080840390855afa158015613c6f573d6000803e3d6000fd5b50506040517fffffffffffffffffffffffffffffffffffffffffffffffffffffffffffffffe0015191505073ffffffffffffffffffffffffffffffffffffffff8116613cc357600060019250925050613cca565b9150600090505b94509492505050565b6000807f7fffffffffffffffffffffffffffffffffffffffffffffffffffffffffffffff831660ff84901c601b01613d0d87828885613bbb565b935093505050935093915050565b828054613d27906142d5565b90600052602060002090601f016020900481019282613d495760008555613d8f565b82601f10613d6257805160ff1916838001178555613d8f565b82800160010185558215613d8f579182015b82811115613d8f578251825591602001919060010190613d74565b50613d9b929150613d9f565b5090565b5b80821115613d9b5760008155600101613da0565b7fffffffff000000000000000000000000000000000000000000000000000000008116811461111157600080fd5b600060208284031215613df457600080fd5b8135613dff81613db4565b9392505050565b73ffffffffffffffffffffffffffffffffffffffff8116811461111157600080fd5b600060208284031215613e3a57600080fd5b8135613dff81613e06565b60005b83811015613e60578181015183820152602001613e48565b838111156111dc5750506000910152565b60008151808452613e89816020860160208601613e45565b601f017fffffffffffffffffffffffffffffffffffffffffffffffffffffffffffffffe0169290920160200192915050565b602081526000613dff6020830184613e71565b600060208284031215613ee057600080fd5b5035919050565b60008060408385031215613efa57600080fd5b8235613f0581613e06565b946020939093013593505050565b600080600060608486031215613f2857600080fd5b8335613f3381613e06565b92506020840135613f4381613e06565b929592945050506040919091013590565b7f4e487b7100000000000000000000000000000000000000000000000000000000600052604160045260246000fd5b600067ffffffffffffffff80841115613f9e57613f9e613f54565b604051601f85017fffffffffffffffffffffffffffffffffffffffffffffffffffffffffffffffe0908116603f01168101908282118183101715613fe457613fe4613f54565b81604052809350858152868686011115613ffd57600080fd5b858560208301376000602087830101525050509392505050565b600082601f83011261402857600080fd5b613dff83833560208501613f83565b60006020828403121561404957600080fd5b813567ffffffffffffffff81111561406057600080fd5b6129e984828501614017565b60006020828403121561407e57600080fd5b813567ffffffffffffffff81111561409557600080fd5b8201601f810184136140a657600080fd5b6129e984823560208401613f83565b600080604083850312156140c857600080fd5b50508035926020909101359150565b600080604083850312156140ea57600080fd5b82359150602083013567ffffffffffffffff81111561410857600080fd5b61411485828601614017565b9150509250929050565b801515811461111157600080fd5b6000806040838503121561413f57600080fd5b823561414a81613e06565b9150602083013561415a8161411e565b809150509250929050565b6020808252825182820181905260009190848201906040850190845b8181101561419d57835183529284019291840191600101614181565b50909695505050505050565b6000602082840312156141bb57600080fd5b8135613dff8161411e565b600080600080608085870312156141dc57600080fd5b84356141e781613e06565b935060208501356141f781613e06565b925060408501359150606085013567ffffffffffffffff81111561421a57600080fd5b61422687828801614017565b91505092959194509250565b6000806020838503121561424557600080fd5b823567ffffffffffffffff8082111561425d57600080fd5b818501915085601f83011261427157600080fd5b81358181111561428057600080fd5b8660208260051b850101111561429557600080fd5b60209290920196919550909350505050565b600080604083850312156142ba57600080fd5b82356142c581613e06565b9150602083013561415a81613e06565b600181811c908216806142e957607f821691505b60208210811415614323577f4e487b7100000000000000000000000000000000000000000000000000000000600052602260045260246000fd5b50919050565b7f4e487b7100000000000000000000000000000000000000000000000000000000600052601160045260246000fd5b60008282101561436a5761436a614329565b500390565b60007fffffffffffffffffffffffffffffffffffffffffffffffffffffffffffffffff8214156143a1576143a1614329565b5060010190565b6000602082840312156143ba57600080fd5b5051919050565b6000602082840312156143d357600080fd5b8151613dff8161411e565b6000817fffffffffffffffffffffffffffffffffffffffffffffffffffffffffffffffff048311821515161561441657614416614329565b500290565b7f4e487b7100000000000000000000000000000000000000000000000000000000600052603260045260246000fd5b6000815161445c818560208601613e45565b9290920192915050565b600080845481600182811c91508083168061448257607f831692505b60208084108214156144bb577f4e487b710000000000000000000000000000000000000000000000000000000086526022600452602486fd5b8180156144cf57600181146144fe5761452b565b7fffffffffffffffffffffffffffffffffffffffffffffffffffffffffffffff0086168952848901965061452b565b60008b81526020902060005b868110156145235781548b82015290850190830161450a565b505084890196505b50505050505061453b818561444a565b95945050505050565b6000821982111561455757614557614329565b500190565b7f4e487b7100000000000000000000000000000000000000000000000000000000600052601260045260246000fd5b60008261459a5761459a61455c565b500690565b6000826145ae576145ae61455c565b500490565b600073ffffffffffffffffffffffffffffffffffffffff8087168352808616602084015250836040830152608060608301526145f26080830184613e71565b9695505050505050565b60006020828403121561460e57600080fd5b8151613dff81613db4565b73ffffffffffffffffffffffffffffffffffffffff8416815282602082015260606040820152600061453b6060830184613e71565b7f4e487b7100000000000000000000000000000000000000000000000000000000600052602160045260246000fdfea264697066735822122016a4502ea333ade4e8413df1248b74dd64627ec0ac2137559a18ddcf3d5aa56564736f6c634300080b0033697066733a2f2f516d65536a53696e4870506e6d586d73704d6a776958794e367a533445397a63636172694752336a7863615774712f",
  "linkReferences": {},
  "deployedLinkReferences": {}
}