{
  "_format": "hh-sol-artifact-1",
  "contractName": "Serum",
  "sourceName": "contracts/Serum.sol",
  "abi": [
    {
      "inputs": [],
      "stateMutability": "nonpayable",
      "type": "constructor"
    },
    {
      "anonymous": false,
      "inputs": [
        {
          "indexed": true,
          "internalType": "address",
          "name": "account",
          "type": "address"
        },
        {
          "indexed": true,
          "internalType": "address",
          "name": "operator",
          "type": "address"
        },
        {
          "indexed": false,
          "internalType": "bool",
          "name": "approved",
          "type": "bool"
        }
      ],
      "name": "ApprovalForAll",
      "type": "event"
    },
    {
      "anonymous": false,
      "inputs": [
        {
          "indexed": true,
          "internalType": "address",
          "name": "previousOwner",
          "type": "address"
        },
        {
          "indexed": true,
          "internalType": "address",
          "name": "newOwner",
          "type": "address"
        }
      ],
      "name": "OwnershipTransferred",
      "type": "event"
    },
    {
      "anonymous": false,
      "inputs": [
        {
          "indexed": true,
          "internalType": "address",
          "name": "operator",
          "type": "address"
        },
        {
          "indexed": true,
          "internalType": "address",
          "name": "from",
          "type": "address"
        },
        {
          "indexed": true,
          "internalType": "address",
          "name": "to",
          "type": "address"
        },
        {
          "indexed": false,
          "internalType": "uint256[]",
          "name": "ids",
          "type": "uint256[]"
        },
        {
          "indexed": false,
          "internalType": "uint256[]",
          "name": "values",
          "type": "uint256[]"
        }
      ],
      "name": "TransferBatch",
      "type": "event"
    },
    {
      "anonymous": false,
      "inputs": [
        {
          "indexed": true,
          "internalType": "address",
          "name": "operator",
          "type": "address"
        },
        {
          "indexed": true,
          "internalType": "address",
          "name": "from",
          "type": "address"
        },
        {
          "indexed": true,
          "internalType": "address",
          "name": "to",
          "type": "address"
        },
        {
          "indexed": false,
          "internalType": "uint256",
          "name": "id",
          "type": "uint256"
        },
        {
          "indexed": false,
          "internalType": "uint256",
          "name": "value",
          "type": "uint256"
        }
      ],
      "name": "TransferSingle",
      "type": "event"
    },
    {
      "anonymous": false,
      "inputs": [
        {
          "indexed": false,
          "internalType": "string",
          "name": "value",
          "type": "string"
        },
        {
          "indexed": true,
          "internalType": "uint256",
          "name": "id",
          "type": "uint256"
        }
      ],
      "name": "URI",
      "type": "event"
    },
    {
      "inputs": [],
      "name": "M2_CHANCE_PER_CENT",
      "outputs": [
        {
          "internalType": "uint256",
          "name": "",
          "type": "uint256"
        }
      ],
      "stateMutability": "view",
      "type": "function"
    },
    {
      "inputs": [],
      "name": "MAX_SUPPLY_M3",
      "outputs": [
        {
          "internalType": "uint256",
          "name": "",
          "type": "uint256"
        }
      ],
      "stateMutability": "view",
      "type": "function"
    },
    {
      "inputs": [],
      "name": "MAX_SUPPLY_NFT",
      "outputs": [
        {
          "internalType": "uint256",
          "name": "",
          "type": "uint256"
        }
      ],
      "stateMutability": "view",
      "type": "function"
    },
    {
      "inputs": [
        {
          "internalType": "address",
          "name": "account",
          "type": "address"
        },
        {
          "internalType": "uint256",
          "name": "id",
          "type": "uint256"
        }
      ],
      "name": "balanceOf",
      "outputs": [
        {
          "internalType": "uint256",
          "name": "",
          "type": "uint256"
        }
      ],
      "stateMutability": "view",
      "type": "function"
    },
    {
      "inputs": [
        {
          "internalType": "address[]",
          "name": "accounts",
          "type": "address[]"
        },
        {
          "internalType": "uint256[]",
          "name": "ids",
          "type": "uint256[]"
        }
      ],
      "name": "balanceOfBatch",
      "outputs": [
        {
          "internalType": "uint256[]",
          "name": "",
          "type": "uint256[]"
        }
      ],
      "stateMutability": "view",
      "type": "function"
    },
    {
      "inputs": [],
      "name": "baseURI",
      "outputs": [
        {
          "internalType": "string",
          "name": "",
          "type": "string"
        }
      ],
      "stateMutability": "view",
      "type": "function"
    },
    {
      "inputs": [
        {
          "internalType": "address",
          "name": "owner",
          "type": "address"
        },
        {
          "internalType": "uint256",
          "name": "id",
          "type": "uint256"
        }
      ],
      "name": "burnSerumOf",
      "outputs": [],
      "stateMutability": "nonpayable",
      "type": "function"
    },
    {
      "inputs": [
        {
          "internalType": "uint256",
          "name": "tokenId",
          "type": "uint256"
        }
      ],
      "name": "claimSerum",
      "outputs": [],
      "stateMutability": "nonpayable",
      "type": "function"
    },
    {
      "inputs": [],
      "name": "forceFulfillRandomness",
      "outputs": [],
      "stateMutability": "nonpayable",
      "type": "function"
    },
    {
      "inputs": [
        {
          "internalType": "address",
          "name": "account",
          "type": "address"
        },
        {
          "internalType": "address",
          "name": "operator",
          "type": "address"
        }
      ],
      "name": "isApprovedForAll",
      "outputs": [
        {
          "internalType": "bool",
          "name": "",
          "type": "bool"
        }
      ],
      "stateMutability": "view",
      "type": "function"
    },
    {
      "inputs": [],
      "name": "owner",
      "outputs": [
        {
          "internalType": "address",
          "name": "",
          "type": "address"
        }
      ],
      "stateMutability": "view",
      "type": "function"
    },
    {
      "inputs": [
        {
          "internalType": "bytes32",
          "name": "requestId",
          "type": "bytes32"
        },
        {
          "internalType": "uint256",
          "name": "randomness",
          "type": "uint256"
        }
      ],
      "name": "rawFulfillRandomness",
      "outputs": [],
      "stateMutability": "nonpayable",
      "type": "function"
    },
    {
      "inputs": [],
      "name": "renounceOwnership",
      "outputs": [],
      "stateMutability": "nonpayable",
      "type": "function"
    },
    {
      "inputs": [],
      "name": "requestRandomSeed",
      "outputs": [],
      "stateMutability": "nonpayable",
      "type": "function"
    },
    {
      "inputs": [
        {
          "internalType": "address",
          "name": "from",
          "type": "address"
        },
        {
          "internalType": "address",
          "name": "to",
          "type": "address"
        },
        {
          "internalType": "uint256[]",
          "name": "ids",
          "type": "uint256[]"
        },
        {
          "internalType": "uint256[]",
          "name": "amounts",
          "type": "uint256[]"
        },
        {
          "internalType": "bytes",
          "name": "data",
          "type": "bytes"
        }
      ],
      "name": "safeBatchTransferFrom",
      "outputs": [],
      "stateMutability": "nonpayable",
      "type": "function"
    },
    {
      "inputs": [
        {
          "internalType": "address",
          "name": "from",
          "type": "address"
        },
        {
          "internalType": "address",
          "name": "to",
          "type": "address"
        },
        {
          "internalType": "uint256",
          "name": "id",
          "type": "uint256"
        },
        {
          "internalType": "uint256",
          "name": "amount",
          "type": "uint256"
        },
        {
          "internalType": "bytes",
          "name": "data",
          "type": "bytes"
        }
      ],
      "name": "safeTransferFrom",
      "outputs": [],
      "stateMutability": "nonpayable",
      "type": "function"
    },
    {
      "inputs": [
        {
          "internalType": "uint256",
          "name": "",
          "type": "uint256"
        }
      ],
      "name": "serumClaimed",
      "outputs": [
        {
          "internalType": "bool",
          "name": "",
          "type": "bool"
        }
      ],
      "stateMutability": "view",
      "type": "function"
    },
    {
      "inputs": [
        {
          "internalType": "address",
          "name": "operator",
          "type": "address"
        },
        {
          "internalType": "bool",
          "name": "approved",
          "type": "bool"
        }
      ],
      "name": "setApprovalForAll",
      "outputs": [],
      "stateMutability": "nonpayable",
      "type": "function"
    },
    {
      "inputs": [
        {
          "internalType": "string",
          "name": "_baseURI",
          "type": "string"
        }
      ],
      "name": "setBaseURI",
      "outputs": [],
      "stateMutability": "nonpayable",
      "type": "function"
    },
    {
      "inputs": [],
      "name": "setMegaSequence",
      "outputs": [],
      "stateMutability": "nonpayable",
      "type": "function"
    },
    {
      "inputs": [
        {
          "internalType": "address",
          "name": "_address",
          "type": "address"
        }
      ],
      "name": "setMutantsAddress",
      "outputs": [],
      "stateMutability": "nonpayable",
      "type": "function"
    },
    {
      "inputs": [
        {
          "internalType": "address",
          "name": "_address",
          "type": "address"
        }
      ],
      "name": "setNFTAddress",
      "outputs": [],
      "stateMutability": "nonpayable",
      "type": "function"
    },
    {
      "inputs": [
        {
          "internalType": "bytes4",
          "name": "interfaceId",
          "type": "bytes4"
        }
      ],
      "name": "supportsInterface",
      "outputs": [
        {
          "internalType": "bool",
          "name": "",
          "type": "bool"
        }
      ],
      "stateMutability": "view",
      "type": "function"
    },
    {
      "inputs": [
        {
          "internalType": "uint256",
          "name": "tokenId",
          "type": "uint256"
        }
      ],
      "name": "tokenIdToSerumType",
      "outputs": [
        {
          "internalType": "uint256",
          "name": "",
          "type": "uint256"
        }
      ],
      "stateMutability": "view",
      "type": "function"
    },
    {
      "inputs": [
        {
          "internalType": "address",
          "name": "newOwner",
          "type": "address"
        }
      ],
      "name": "transferOwnership",
      "outputs": [],
      "stateMutability": "nonpayable",
      "type": "function"
    },
    {
      "inputs": [
        {
          "internalType": "uint256",
          "name": "id",
          "type": "uint256"
        }
      ],
      "name": "uri",
      "outputs": [
        {
          "internalType": "string",
          "name": "",
          "type": "string"
        }
      ],
      "stateMutability": "view",
      "type": "function"
    }
  ],
  "bytecode": "0x7f2ed0feb3e7fd2022120aa84fab1945545a9f2ffc9076fd6156fa96eaff4c131160055567016345785d8a0000600655620186a0600755610100604052600b60c08190526a697066733a2f2f5858582f60a81b60e0908152620000669160099190620001c0565b503480156200007457600080fd5b5060098054620000849062000266565b80601f0160208091040260200160405190810160405280929190818152602001828054620000b29062000266565b8015620001035780601f10620000d75761010080835404028352916020019162000103565b820191906000526020600020905b815481529060010190602001808311620000e557829003601f168201915b505073dd3782915140c8f3b190b5d67eac6dc5760c46e960a05250507301be23585060835e02b77ef475b0cc51aa1e070960805250620001438162000155565b506200014f336200016e565b620002a3565b80516200016a906003906020840190620001c0565b5050565b600480546001600160a01b038381166001600160a01b0319831681179093556040519116919082907f8be0079c531659141344cd1fd0a4f28419497f9722a3daafe3b4186f6b6457e090600090a35050565b828054620001ce9062000266565b90600052602060002090601f016020900481019282620001f257600085556200023d565b82601f106200020d57805160ff19168380011785556200023d565b828001600101855582156200023d579182015b828111156200023d57825182559160200191906001019062000220565b506200024b9291506200024f565b5090565b5b808211156200024b576000815560010162000250565b600181811c908216806200027b57607f821691505b602082108114156200029d57634e487b7160e01b600052602260045260246000fd5b50919050565b60805160a051612e84620002d060003960008181610d9201526121be0152600061218f0152612e846000f3fe608060405234801561001057600080fd5b50600436106101ad5760003560e01c806369d03738116100ee578063c6ae087d11610097578063e985e9c511610071578063e985e9c51461035f578063f242432a1461039b578063f2fde38b146103ae578063fc8957b1146103c157600080fd5b8063c6ae087d1461033c578063d26464631461034f578063e1da26c61461035757600080fd5b80638da5cb5b116100c85780638da5cb5b146102fb57806394985ddd14610316578063a22cb4651461032957600080fd5b806369d03738146102d85780636c0360eb146102eb578063715018a6146102f357600080fd5b80632eb2c2d61161015b578063464d915e11610135578063464d915e1461027f5780634e1273f41461029257806350d5db28146102b257806355f804b3146102c557600080fd5b80632eb2c2d6146102595780633307dcfe1461026e5780633f0c31351461027657600080fd5b80630f36eecf1161018c5780630f36eecf1461021b5780631cf8af4314610223578063266b1dde1461024657600080fd5b8062fdd58e146101b257806301ffc9a7146101d85780630e89341c146101fb575b600080fd5b6101c56101c03660046123b0565b6103c9565b6040519081526020015b60405180910390f35b6101eb6101e636600461240a565b610474565b60405190151581526020016101cf565b61020e61020936600461242e565b610559565b6040516101cf91906124c1565b6101c5602181565b6101eb61023136600461242e565b600c6020526000908152604090205460ff1681565b6101c561025436600461242e565b6105dd565b61026c61026736600461267f565b6106b3565b005b61026c610755565b6101c56103e881565b61026c61028d36600461242e565b6107cb565b6102a56102a036600461272d565b6109c0565b6040516101cf9190612835565b61026c6102c0366004612848565b610afe565b61026c6102d3366004612865565b610b92565b61026c6102e6366004612848565b610bff565b61020e610c93565b61026c610d21565b6004546040516001600160a01b0390911681526020016101cf565b61026c6103243660046128ae565b610d87565b61026c6103373660046128de565b610e09565b61026c61034a3660046123b0565b610e14565b6101c5600a81565b61026c610ed2565b6101eb61036d366004612917565b6001600160a01b03918216600090815260026020908152604080832093909416825291909152205460ff1690565b61026c6103a9366004612945565b610f84565b61026c6103bc366004612848565b61101f565b61026c6110fe565b60006001600160a01b03831661044c5760405162461bcd60e51b815260206004820152602b60248201527f455243313135353a2062616c616e636520717565727920666f7220746865207a60448201527f65726f206164647265737300000000000000000000000000000000000000000060648201526084015b60405180910390fd5b5060009081526001602090815260408083206001600160a01b03949094168352929052205490565b60007fffffffff0000000000000000000000000000000000000000000000000000000082167fd9b67a2600000000000000000000000000000000000000000000000000000000148061050757507fffffffff0000000000000000000000000000000000000000000000000000000082167f0e89341c00000000000000000000000000000000000000000000000000000000145b8061055357507f01ffc9a7000000000000000000000000000000000000000000000000000000007fffffffff000000000000000000000000000000000000000000000000000000008316145b92915050565b6060600382106105ab5760405162461bcd60e51b815260206004820152600a60248201527f494e56414c49445f4944000000000000000000000000000000000000000000006044820152606401610443565b60096105b6836112ed565b6040516020016105c7929190612a1e565b6040516020818303038152906040529050919050565b600e5460009060ff166106325760405162461bcd60e51b815260206004820152601060248201527f4d4547415f4944535f4e4f545f534554000000000000000000000000000000006044820152606401610443565b6000828152600d602052604090205460ff161561065157506002919050565b6000606460085484604051602001610673929190918252602082015260400190565b6040516020818303038152906040528051906020012060001c6106969190612b57565b905060218110156106aa5750600192915050565b50600092915050565b6001600160a01b0385163314806106cf57506106cf853361036d565b6107415760405162461bcd60e51b815260206004820152603260248201527f455243313135353a207472616e736665722063616c6c6572206973206e6f742060448201527f6f776e6572206e6f7220617070726f76656400000000000000000000000000006064820152608401610443565b61074e8585858585611427565b5050505050565b6004546001600160a01b031633146107af5760405162461bcd60e51b815260206004820181905260248201527f4f776e61626c653a2063616c6c6572206973206e6f7420746865206f776e65726044820152606401610443565b60006107bc600143612b9a565b4090506107c8816116c8565b50565b600b546001600160a01b03166108235760405162461bcd60e51b815260206004820152601360248201527f4e46545f414444524553535f4e4f545f534554000000000000000000000000006044820152606401610443565b600b546040517f6352211e0000000000000000000000000000000000000000000000000000000081526004810183905233916001600160a01b031690636352211e90602401602060405180830381865afa158015610885573d6000803e3d6000fd5b505050506040513d601f19601f820116820180604052508101906108a99190612bb1565b6001600160a01b0316146108ff5760405162461bcd60e51b815260206004820152600f60248201527f4e4f545f43414c4c4552535f4e465400000000000000000000000000000000006044820152606401610443565b6000818152600c602052604090205460ff161561095e5760405162461bcd60e51b815260206004820152601560248201527f534552554d5f414c52454144595f434c41494d454400000000000000000000006044820152606401610443565b6000818152600c6020526040812080547fffffffffffffffffffffffffffffffffffffffffffffffffffffffffffffff0016600117905561099e826105dd565b90506109bc3382600160405180602001604052806000815250611763565b5050565b60608151835114610a395760405162461bcd60e51b815260206004820152602960248201527f455243313135353a206163636f756e747320616e6420696473206c656e67746860448201527f206d69736d6174636800000000000000000000000000000000000000000000006064820152608401610443565b6000835167ffffffffffffffff811115610a5557610a556124d4565b604051908082528060200260200182016040528015610a7e578160200160208202803683370190505b50905060005b8451811015610af657610ac9858281518110610aa257610aa2612bce565b6020026020010151858381518110610abc57610abc612bce565b60200260200101516103c9565b828281518110610adb57610adb612bce565b6020908102919091010152610aef81612bfd565b9050610a84565b509392505050565b6004546001600160a01b03163314610b585760405162461bcd60e51b815260206004820181905260248201527f4f776e61626c653a2063616c6c6572206973206e6f7420746865206f776e65726044820152606401610443565b600a80547fffffffffffffffffffffffff0000000000000000000000000000000000000000166001600160a01b0392909216919091179055565b6004546001600160a01b03163314610bec5760405162461bcd60e51b815260206004820181905260248201527f4f776e61626c653a2063616c6c6572206973206e6f7420746865206f776e65726044820152606401610443565b80516109bc906009906020840190612302565b6004546001600160a01b03163314610c595760405162461bcd60e51b815260206004820181905260248201527f4f776e61626c653a2063616c6c6572206973206e6f7420746865206f776e65726044820152606401610443565b600b80547fffffffffffffffffffffffff0000000000000000000000000000000000000000166001600160a01b0392909216919091179055565b60098054610ca0906129ae565b80601f0160208091040260200160405190810160405280929190818152602001828054610ccc906129ae565b8015610d195780601f10610cee57610100808354040283529160200191610d19565b820191906000526020600020905b815481529060010190602001808311610cfc57829003601f168201915b505050505081565b6004546001600160a01b03163314610d7b5760405162461bcd60e51b815260206004820181905260248201527f4f776e61626c653a2063616c6c6572206973206e6f7420746865206f776e65726044820152606401610443565b610d85600061188b565b565b336001600160a01b037f00000000000000000000000000000000000000000000000000000000000000001614610dff5760405162461bcd60e51b815260206004820152601f60248201527f4f6e6c7920565246436f6f7264696e61746f722063616e2066756c66696c6c006044820152606401610443565b6109bc82826118f5565b6109bc3383836118fe565b600a546001600160a01b0316610e6c5760405162461bcd60e51b815260206004820152601760248201527f4d5554414e54535f414444524553535f4e4f545f5345540000000000000000006044820152606401610443565b600a546001600160a01b03163314610ec65760405162461bcd60e51b815260206004820152601260248201527f43414c4c45525f4e4f545f414c4c4f57454400000000000000000000000000006044820152606401610443565b6109bc82826001611a11565b6004546001600160a01b03163314610f2c5760405162461bcd60e51b815260206004820181905260248201527f4f776e61626c653a2063616c6c6572206973206e6f7420746865206f776e65726044820152606401610443565b60085415610f7c5760405162461bcd60e51b815260206004820152600f60248201527f52414e444f4d5f534545445f53455400000000000000000000000000000000006044820152606401610443565b6107c8611bc2565b6001600160a01b038516331480610fa05750610fa0853361036d565b6110125760405162461bcd60e51b815260206004820152602960248201527f455243313135353a2063616c6c6572206973206e6f74206f776e6572206e6f7260448201527f20617070726f76656400000000000000000000000000000000000000000000006064820152608401610443565b61074e8585858585611bd7565b6004546001600160a01b031633146110795760405162461bcd60e51b815260206004820181905260248201527f4f776e61626c653a2063616c6c6572206973206e6f7420746865206f776e65726044820152606401610443565b6001600160a01b0381166110f55760405162461bcd60e51b815260206004820152602660248201527f4f776e61626c653a206e6577206f776e657220697320746865207a65726f206160448201527f64647265737300000000000000000000000000000000000000000000000000006064820152608401610443565b6107c88161188b565b6004546001600160a01b031633146111585760405162461bcd60e51b815260206004820181905260248201527f4f776e61626c653a2063616c6c6572206973206e6f7420746865206f776e65726044820152606401610443565b6008546111a75760405162461bcd60e51b815260206004820152601360248201527f52414e444f4d5f534545445f4e4f545f534554000000000000000000000000006044820152606401610443565b600e5460ff16156111fa5760405162461bcd60e51b815260206004820152600c60248201527f4d4547415f4944535f53455400000000000000000000000000000000000000006044820152606401610443565b6000805b600a8110156112be5760005b6103e86008548460405160200161122b929190918252602082015260400190565b6040516020818303038152906040528051906020012060001c61124e9190612b57565b90508261125a81612bfd565b6000838152600d602052604090205490945060ff16905061120a576000908152600d6020526040902080547fffffffffffffffffffffffffffffffffffffffffffffffffffffffffffffff00166001179055806112b681612bfd565b9150506111fe565b5050600e80547fffffffffffffffffffffffffffffffffffffffffffffffffffffffffffffff00166001179055565b60608161132d57505060408051808201909152600181527f3000000000000000000000000000000000000000000000000000000000000000602082015290565b8160005b8115611357578061134181612bfd565b91506113509050600a83612c36565b9150611331565b60008167ffffffffffffffff811115611372576113726124d4565b6040519080825280601f01601f19166020018201604052801561139c576020820181803683370190505b5090505b841561141f576113b1600183612b9a565b91506113be600a86612b57565b6113c9906030612c4a565b60f81b8183815181106113de576113de612bce565b60200101907effffffffffffffffffffffffffffffffffffffffffffffffffffffffffffff1916908160001a905350611418600a86612c36565b94506113a0565b949350505050565b815183511461149e5760405162461bcd60e51b815260206004820152602860248201527f455243313135353a2069647320616e6420616d6f756e7473206c656e6774682060448201527f6d69736d617463680000000000000000000000000000000000000000000000006064820152608401610443565b6001600160a01b03841661151a5760405162461bcd60e51b815260206004820152602560248201527f455243313135353a207472616e7366657220746f20746865207a65726f20616460448201527f64726573730000000000000000000000000000000000000000000000000000006064820152608401610443565b3360005b845181101561165a57600085828151811061153b5761153b612bce565b60200260200101519050600085838151811061155957611559612bce565b60209081029190910181015160008481526001835260408082206001600160a01b038e1683529093529190912054909150818110156116005760405162461bcd60e51b815260206004820152602a60248201527f455243313135353a20696e73756666696369656e742062616c616e636520666f60448201527f72207472616e73666572000000000000000000000000000000000000000000006064820152608401610443565b60008381526001602090815260408083206001600160a01b038e8116855292528083208585039055908b1682528120805484929061163f908490612c4a565b925050819055505050508061165390612bfd565b905061151e565b50846001600160a01b0316866001600160a01b0316826001600160a01b03167f4a39dc06d4c0dbc64b70af90fd698a233a518aa5d07e595d983b8c0526c8f7fb87876040516116aa929190612c62565b60405180910390a46116c0818787878787611da4565b505050505050565b600854156117185760405162461bcd60e51b815260206004820152600f60248201527f52414e444f4d5f534545445f53455400000000000000000000000000000000006044820152606401610443565b600754611745827fffffffffffffffffffffffffffffffffffffffffffffffffffffffffffffffff612b9a565b101561175e576007546117589082612b9a565b60085550565b600855565b6001600160a01b0384166117df5760405162461bcd60e51b815260206004820152602160248201527f455243313135353a206d696e7420746f20746865207a65726f2061646472657360448201527f73000000000000000000000000000000000000000000000000000000000000006064820152608401610443565b336117f9816000876117f088611fc7565b61074e88611fc7565b60008481526001602090815260408083206001600160a01b03891684529091528120805485929061182b908490612c4a565b909155505060408051858152602081018590526001600160a01b0380881692600092918516917fc3d58168c5ae7397731d063d5bbf3d657854427343f4c083240f7aacaa2d0f62910160405180910390a461074e81600087878787612012565b600480546001600160a01b038381167fffffffffffffffffffffffff0000000000000000000000000000000000000000831681179093556040519116919082907f8be0079c531659141344cd1fd0a4f28419497f9722a3daafe3b4186f6b6457e090600090a35050565b6109bc816116c8565b816001600160a01b0316836001600160a01b031614156119865760405162461bcd60e51b815260206004820152602960248201527f455243313135353a2073657474696e6720617070726f76616c2073746174757360448201527f20666f722073656c6600000000000000000000000000000000000000000000006064820152608401610443565b6001600160a01b0383811660008181526002602090815260408083209487168084529482529182902080547fffffffffffffffffffffffffffffffffffffffffffffffffffffffffffffff001686151590811790915591519182527f17307eab39ab6107e8899845ad3d59bd9653f200f220920489ca2b5937696c31910160405180910390a3505050565b6001600160a01b038316611a8d5760405162461bcd60e51b815260206004820152602360248201527f455243313135353a206275726e2066726f6d20746865207a65726f206164647260448201527f65737300000000000000000000000000000000000000000000000000000000006064820152608401610443565b33611abd81856000611a9e87611fc7565b611aa787611fc7565b5050604080516020810190915260009052505050565b60008381526001602090815260408083206001600160a01b038816845290915290205482811015611b555760405162461bcd60e51b8152602060048201526024808201527f455243313135353a206275726e20616d6f756e7420657863656564732062616c60448201527f616e6365000000000000000000000000000000000000000000000000000000006064820152608401610443565b60008481526001602090815260408083206001600160a01b03898116808652918452828520888703905582518981529384018890529092908616917fc3d58168c5ae7397731d063d5bbf3d657854427343f4c083240f7aacaa2d0f62910160405180910390a45050505050565b6000611bd260055460065461218b565b905090565b6001600160a01b038416611c535760405162461bcd60e51b815260206004820152602560248201527f455243313135353a207472616e7366657220746f20746865207a65726f20616460448201527f64726573730000000000000000000000000000000000000000000000000000006064820152608401610443565b33611c638187876117f088611fc7565b60008481526001602090815260408083206001600160a01b038a16845290915290205483811015611cfc5760405162461bcd60e51b815260206004820152602a60248201527f455243313135353a20696e73756666696369656e742062616c616e636520666f60448201527f72207472616e73666572000000000000000000000000000000000000000000006064820152608401610443565b60008581526001602090815260408083206001600160a01b038b8116855292528083208785039055908816825281208054869290611d3b908490612c4a565b909155505060408051868152602081018690526001600160a01b03808916928a821692918616917fc3d58168c5ae7397731d063d5bbf3d657854427343f4c083240f7aacaa2d0f62910160405180910390a4611d9b828888888888612012565b50505050505050565b6001600160a01b0384163b156116c0576040517fbc197c810000000000000000000000000000000000000000000000000000000081526001600160a01b0385169063bc197c8190611e019089908990889088908890600401612c87565b6020604051808303816000875af1925050508015611e5a575060408051601f3d9081017fffffffffffffffffffffffffffffffffffffffffffffffffffffffffffffffe0168201909252611e5791810190612ce5565b60015b611f1057611e66612d02565b806308c379a01415611ea05750611e7b612d1e565b80611e865750611ea2565b8060405162461bcd60e51b815260040161044391906124c1565b505b60405162461bcd60e51b815260206004820152603460248201527f455243313135353a207472616e7366657220746f206e6f6e204552433131353560448201527f526563656976657220696d706c656d656e7465720000000000000000000000006064820152608401610443565b7fffffffff0000000000000000000000000000000000000000000000000000000081167fbc197c810000000000000000000000000000000000000000000000000000000014611d9b5760405162461bcd60e51b815260206004820152602860248201527f455243313135353a204552433131353552656365697665722072656a6563746560448201527f6420746f6b656e730000000000000000000000000000000000000000000000006064820152608401610443565b6040805160018082528183019092526060916000919060208083019080368337019050509050828160008151811061200157612001612bce565b602090810291909101015292915050565b6001600160a01b0384163b156116c0576040517ff23a6e610000000000000000000000000000000000000000000000000000000081526001600160a01b0385169063f23a6e619061206f9089908990889088908890600401612dc6565b6020604051808303816000875af19250505080156120c8575060408051601f3d9081017fffffffffffffffffffffffffffffffffffffffffffffffffffffffffffffffe01682019092526120c591810190612ce5565b60015b6120d457611e66612d02565b7fffffffff0000000000000000000000000000000000000000000000000000000081167ff23a6e610000000000000000000000000000000000000000000000000000000014611d9b5760405162461bcd60e51b815260206004820152602860248201527f455243313135353a204552433131353552656365697665722072656a6563746560448201527f6420746f6b656e730000000000000000000000000000000000000000000000006064820152608401610443565b60007f00000000000000000000000000000000000000000000000000000000000000006001600160a01b0316634000aea07f0000000000000000000000000000000000000000000000000000000000000000848660006040516020016121fb929190918252602082015260400190565b6040516020818303038152906040526040518463ffffffff1660e01b815260040161222893929190612e09565b6020604051808303816000875af1158015612247573d6000803e3d6000fd5b505050506040513d601f19601f8201168201806040525081019061226b9190612e31565b5060008381526020818152604080832054815180840188905280830185905230606082015260808082018390528351808303909101815260a0909101909252815191830191909120868452929091526122c5906001612c4a565b600085815260208181526040918290209290925580518083018790528082018490528151808203830181526060909101909152805191012061141f565b82805461230e906129ae565b90600052602060002090601f0160209004810192826123305760008555612376565b82601f1061234957805160ff1916838001178555612376565b82800160010185558215612376579182015b8281111561237657825182559160200191906001019061235b565b50612382929150612386565b5090565b5b808211156123825760008155600101612387565b6001600160a01b03811681146107c857600080fd5b600080604083850312156123c357600080fd5b82356123ce8161239b565b946020939093013593505050565b7fffffffff00000000000000000000000000000000000000000000000000000000811681146107c857600080fd5b60006020828403121561241c57600080fd5b8135612427816123dc565b9392505050565b60006020828403121561244057600080fd5b5035919050565b60005b8381101561246257818101518382015260200161244a565b83811115612471576000848401525b50505050565b6000815180845261248f816020860160208601612447565b601f017fffffffffffffffffffffffffffffffffffffffffffffffffffffffffffffffe0169290920160200192915050565b6020815260006124276020830184612477565b7f4e487b7100000000000000000000000000000000000000000000000000000000600052604160045260246000fd5b7fffffffffffffffffffffffffffffffffffffffffffffffffffffffffffffffe0601f830116810181811067ffffffffffffffff82111715612547576125476124d4565b6040525050565b600067ffffffffffffffff821115612568576125686124d4565b5060051b60200190565b600082601f83011261258357600080fd5b813560206125908261254e565b60405161259d8282612503565b83815260059390931b85018201928281019150868411156125bd57600080fd5b8286015b848110156125d857803583529183019183016125c1565b509695505050505050565b600067ffffffffffffffff8311156125fd576125fd6124d4565b60405161263260207fffffffffffffffffffffffffffffffffffffffffffffffffffffffffffffffe0601f8701160182612503565b80915083815284848401111561264757600080fd5b83836020830137600060208583010152509392505050565b600082601f83011261267057600080fd5b612427838335602085016125e3565b600080600080600060a0868803121561269757600080fd5b85356126a28161239b565b945060208601356126b28161239b565b9350604086013567ffffffffffffffff808211156126cf57600080fd5b6126db89838a01612572565b945060608801359150808211156126f157600080fd5b6126fd89838a01612572565b9350608088013591508082111561271357600080fd5b506127208882890161265f565b9150509295509295909350565b6000806040838503121561274057600080fd5b823567ffffffffffffffff8082111561275857600080fd5b818501915085601f83011261276c57600080fd5b813560206127798261254e565b6040516127868282612503565b83815260059390931b85018201928281019150898411156127a657600080fd5b948201945b838610156127cd5785356127be8161239b565b825294820194908201906127ab565b965050860135925050808211156127e357600080fd5b506127f085828601612572565b9150509250929050565b600081518084526020808501945080840160005b8381101561282a5781518752958201959082019060010161280e565b509495945050505050565b60208152600061242760208301846127fa565b60006020828403121561285a57600080fd5b81356124278161239b565b60006020828403121561287757600080fd5b813567ffffffffffffffff81111561288e57600080fd5b8201601f8101841361289f57600080fd5b61141f848235602084016125e3565b600080604083850312156128c157600080fd5b50508035926020909101359150565b80151581146107c857600080fd5b600080604083850312156128f157600080fd5b82356128fc8161239b565b9150602083013561290c816128d0565b809150509250929050565b6000806040838503121561292a57600080fd5b82356129358161239b565b9150602083013561290c8161239b565b600080600080600060a0868803121561295d57600080fd5b85356129688161239b565b945060208601356129788161239b565b93506040860135925060608601359150608086013567ffffffffffffffff8111156129a257600080fd5b6127208882890161265f565b600181811c908216806129c257607f821691505b602082108114156129fc577f4e487b7100000000000000000000000000000000000000000000000000000000600052602260045260246000fd5b50919050565b60008151612a14818560208601612447565b9290920192915050565b600080845481600182811c915080831680612a3a57607f831692505b6020808410821415612a73577f4e487b710000000000000000000000000000000000000000000000000000000086526022600452602486fd5b818015612a875760018114612ab657612ae3565b7fffffffffffffffffffffffffffffffffffffffffffffffffffffffffffffff00861689528489019650612ae3565b60008b81526020902060005b86811015612adb5781548b820152908501908301612ac2565b505084890196505b505050505050612b1f612af68286612a02565b7f2e6a736f6e000000000000000000000000000000000000000000000000000000815260050190565b95945050505050565b7f4e487b7100000000000000000000000000000000000000000000000000000000600052601260045260246000fd5b600082612b6657612b66612b28565b500690565b7f4e487b7100000000000000000000000000000000000000000000000000000000600052601160045260246000fd5b600082821015612bac57612bac612b6b565b500390565b600060208284031215612bc357600080fd5b81516124278161239b565b7f4e487b7100000000000000000000000000000000000000000000000000000000600052603260045260246000fd5b60007fffffffffffffffffffffffffffffffffffffffffffffffffffffffffffffffff821415612c2f57612c2f612b6b565b5060010190565b600082612c4557612c45612b28565b500490565b60008219821115612c5d57612c5d612b6b565b500190565b604081526000612c7560408301856127fa565b8281036020840152612b1f81856127fa565b60006001600160a01b03808816835280871660208401525060a06040830152612cb360a08301866127fa565b8281036060840152612cc581866127fa565b90508281036080840152612cd98185612477565b98975050505050505050565b600060208284031215612cf757600080fd5b8151612427816123dc565b600060033d1115612d1b5760046000803e5060005160e01c5b90565b600060443d1015612d2c5790565b6040517ffffffffffffffffffffffffffffffffffffffffffffffffffffffffffffffffc803d016004833e81513d67ffffffffffffffff8160248401118184111715612d7a57505050505090565b8285019150815181811115612d925750505050505090565b843d8701016020828501011115612dac5750505050505090565b612dbb60208286010187612503565b509095945050505050565b60006001600160a01b03808816835280871660208401525084604083015283606083015260a06080830152612dfe60a0830184612477565b979650505050505050565b6001600160a01b0384168152826020820152606060408201526000612b1f6060830184612477565b600060208284031215612e4357600080fd5b8151612427816128d056fea264697066735822122041b9b3d23a7313c6df81f55f64f86dea54c62ff7620141c31181a12b2cfa5cf064736f6c634300080a0033",
  "linkReferences": {},
  "deployedLinkReferences": {}
}