{
  "_format": "hh-sol-artifact-1",
  "contractName": "Serum",
  "sourceName": "contracts/Serum.sol",
  "abi": [
    {
      "inputs": [],
      "stateMutability": "nonpayable",
      "type": "constructor"
    },
    {
      "anonymous": false,
      "inputs": [
        {
          "indexed": true,
          "internalType": "address",
          "name": "account",
          "type": "address"
        },
        {
          "indexed": true,
          "internalType": "address",
          "name": "operator",
          "type": "address"
        },
        {
          "indexed": false,
          "internalType": "bool",
          "name": "approved",
          "type": "bool"
        }
      ],
      "name": "ApprovalForAll",
      "type": "event"
    },
    {
      "anonymous": false,
      "inputs": [
        {
          "indexed": true,
          "internalType": "address",
          "name": "previousOwner",
          "type": "address"
        },
        {
          "indexed": true,
          "internalType": "address",
          "name": "newOwner",
          "type": "address"
        }
      ],
      "name": "OwnershipTransferred",
      "type": "event"
    },
    {
      "anonymous": false,
      "inputs": [
        {
          "indexed": true,
          "internalType": "address",
          "name": "operator",
          "type": "address"
        },
        {
          "indexed": true,
          "internalType": "address",
          "name": "from",
          "type": "address"
        },
        {
          "indexed": true,
          "internalType": "address",
          "name": "to",
          "type": "address"
        },
        {
          "indexed": false,
          "internalType": "uint256[]",
          "name": "ids",
          "type": "uint256[]"
        },
        {
          "indexed": false,
          "internalType": "uint256[]",
          "name": "values",
          "type": "uint256[]"
        }
      ],
      "name": "TransferBatch",
      "type": "event"
    },
    {
      "anonymous": false,
      "inputs": [
        {
          "indexed": true,
          "internalType": "address",
          "name": "operator",
          "type": "address"
        },
        {
          "indexed": true,
          "internalType": "address",
          "name": "from",
          "type": "address"
        },
        {
          "indexed": true,
          "internalType": "address",
          "name": "to",
          "type": "address"
        },
        {
          "indexed": false,
          "internalType": "uint256",
          "name": "id",
          "type": "uint256"
        },
        {
          "indexed": false,
          "internalType": "uint256",
          "name": "value",
          "type": "uint256"
        }
      ],
      "name": "TransferSingle",
      "type": "event"
    },
    {
      "anonymous": false,
      "inputs": [
        {
          "indexed": false,
          "internalType": "string",
          "name": "value",
          "type": "string"
        },
        {
          "indexed": true,
          "internalType": "uint256",
          "name": "id",
          "type": "uint256"
        }
      ],
      "name": "URI",
      "type": "event"
    },
    {
      "inputs": [],
      "name": "M2_CHANCE_PER_CENT",
      "outputs": [
        {
          "internalType": "uint256",
          "name": "",
          "type": "uint256"
        }
      ],
      "stateMutability": "view",
      "type": "function"
    },
    {
      "inputs": [],
      "name": "MAX_SUPPLY_M3",
      "outputs": [
        {
          "internalType": "uint256",
          "name": "",
          "type": "uint256"
        }
      ],
      "stateMutability": "view",
      "type": "function"
    },
    {
      "inputs": [],
      "name": "MAX_SUPPLY_NFT",
      "outputs": [
        {
          "internalType": "uint256",
          "name": "",
          "type": "uint256"
        }
      ],
      "stateMutability": "view",
      "type": "function"
    },
    {
      "inputs": [
        {
          "internalType": "address",
          "name": "account",
          "type": "address"
        },
        {
          "internalType": "uint256",
          "name": "id",
          "type": "uint256"
        }
      ],
      "name": "balanceOf",
      "outputs": [
        {
          "internalType": "uint256",
          "name": "",
          "type": "uint256"
        }
      ],
      "stateMutability": "view",
      "type": "function"
    },
    {
      "inputs": [
        {
          "internalType": "address[]",
          "name": "accounts",
          "type": "address[]"
        },
        {
          "internalType": "uint256[]",
          "name": "ids",
          "type": "uint256[]"
        }
      ],
      "name": "balanceOfBatch",
      "outputs": [
        {
          "internalType": "uint256[]",
          "name": "",
          "type": "uint256[]"
        }
      ],
      "stateMutability": "view",
      "type": "function"
    },
    {
      "inputs": [],
      "name": "baseURI",
      "outputs": [
        {
          "internalType": "string",
          "name": "",
          "type": "string"
        }
      ],
      "stateMutability": "view",
      "type": "function"
    },
    {
      "inputs": [
        {
          "internalType": "address",
          "name": "owner",
          "type": "address"
        },
        {
          "internalType": "uint256",
          "name": "id",
          "type": "uint256"
        }
      ],
      "name": "burnSerumOf",
      "outputs": [],
      "stateMutability": "nonpayable",
      "type": "function"
    },
    {
      "inputs": [],
      "name": "claimActive",
      "outputs": [
        {
          "internalType": "bool",
          "name": "",
          "type": "bool"
        }
      ],
      "stateMutability": "view",
      "type": "function"
    },
    {
      "inputs": [
        {
          "internalType": "uint256",
          "name": "tokenId",
          "type": "uint256"
        }
      ],
      "name": "claimSerum",
      "outputs": [],
      "stateMutability": "nonpayable",
      "type": "function"
    },
    {
      "inputs": [
        {
          "internalType": "uint256[]",
          "name": "tokenIds",
          "type": "uint256[]"
        }
      ],
      "name": "claimSerumBatch",
      "outputs": [],
      "stateMutability": "nonpayable",
      "type": "function"
    },
    {
      "inputs": [
        {
          "internalType": "uint256",
          "name": "",
          "type": "uint256"
        }
      ],
      "name": "claimed",
      "outputs": [
        {
          "internalType": "bool",
          "name": "",
          "type": "bool"
        }
      ],
      "stateMutability": "view",
      "type": "function"
    },
    {
      "inputs": [],
      "name": "forceFulfillRandomness",
      "outputs": [],
      "stateMutability": "nonpayable",
      "type": "function"
    },
    {
      "inputs": [
        {
          "internalType": "address",
          "name": "account",
          "type": "address"
        },
        {
          "internalType": "address",
          "name": "operator",
          "type": "address"
        }
      ],
      "name": "isApprovedForAll",
      "outputs": [
        {
          "internalType": "bool",
          "name": "",
          "type": "bool"
        }
      ],
      "stateMutability": "view",
      "type": "function"
    },
    {
      "inputs": [],
      "name": "megaIdsSet",
      "outputs": [
        {
          "internalType": "bool",
          "name": "",
          "type": "bool"
        }
      ],
      "stateMutability": "view",
      "type": "function"
    },
    {
      "inputs": [],
      "name": "owner",
      "outputs": [
        {
          "internalType": "address",
          "name": "",
          "type": "address"
        }
      ],
      "stateMutability": "view",
      "type": "function"
    },
    {
      "inputs": [],
      "name": "randomSeedSet",
      "outputs": [
        {
          "internalType": "bool",
          "name": "",
          "type": "bool"
        }
      ],
      "stateMutability": "view",
      "type": "function"
    },
    {
      "inputs": [
        {
          "internalType": "bytes32",
          "name": "requestId",
          "type": "bytes32"
        },
        {
          "internalType": "uint256",
          "name": "randomness",
          "type": "uint256"
        }
      ],
      "name": "rawFulfillRandomness",
      "outputs": [],
      "stateMutability": "nonpayable",
      "type": "function"
    },
    {
      "inputs": [],
      "name": "renounceOwnership",
      "outputs": [],
      "stateMutability": "nonpayable",
      "type": "function"
    },
    {
      "inputs": [],
      "name": "requestRandomSeed",
      "outputs": [],
      "stateMutability": "nonpayable",
      "type": "function"
    },
    {
      "inputs": [
        {
          "internalType": "address",
          "name": "from",
          "type": "address"
        },
        {
          "internalType": "address",
          "name": "to",
          "type": "address"
        },
        {
          "internalType": "uint256[]",
          "name": "ids",
          "type": "uint256[]"
        },
        {
          "internalType": "uint256[]",
          "name": "amounts",
          "type": "uint256[]"
        },
        {
          "internalType": "bytes",
          "name": "data",
          "type": "bytes"
        }
      ],
      "name": "safeBatchTransferFrom",
      "outputs": [],
      "stateMutability": "nonpayable",
      "type": "function"
    },
    {
      "inputs": [
        {
          "internalType": "address",
          "name": "from",
          "type": "address"
        },
        {
          "internalType": "address",
          "name": "to",
          "type": "address"
        },
        {
          "internalType": "uint256",
          "name": "id",
          "type": "uint256"
        },
        {
          "internalType": "uint256",
          "name": "amount",
          "type": "uint256"
        },
        {
          "internalType": "bytes",
          "name": "data",
          "type": "bytes"
        }
      ],
      "name": "safeTransferFrom",
      "outputs": [],
      "stateMutability": "nonpayable",
      "type": "function"
    },
    {
      "inputs": [
        {
          "internalType": "address",
          "name": "operator",
          "type": "address"
        },
        {
          "internalType": "bool",
          "name": "approved",
          "type": "bool"
        }
      ],
      "name": "setApprovalForAll",
      "outputs": [],
      "stateMutability": "nonpayable",
      "type": "function"
    },
    {
      "inputs": [
        {
          "internalType": "string",
          "name": "_baseURI",
          "type": "string"
        }
      ],
      "name": "setBaseURI",
      "outputs": [],
      "stateMutability": "nonpayable",
      "type": "function"
    },
    {
      "inputs": [],
      "name": "setMegaSequence",
      "outputs": [],
      "stateMutability": "nonpayable",
      "type": "function"
    },
    {
      "inputs": [
        {
          "internalType": "address",
          "name": "_address",
          "type": "address"
        }
      ],
      "name": "setMutantsAddress",
      "outputs": [],
      "stateMutability": "nonpayable",
      "type": "function"
    },
    {
      "inputs": [
        {
          "internalType": "address",
          "name": "_address",
          "type": "address"
        }
      ],
      "name": "setNFTAddress",
      "outputs": [],
      "stateMutability": "nonpayable",
      "type": "function"
    },
    {
      "inputs": [
        {
          "internalType": "bytes4",
          "name": "interfaceId",
          "type": "bytes4"
        }
      ],
      "name": "supportsInterface",
      "outputs": [
        {
          "internalType": "bool",
          "name": "",
          "type": "bool"
        }
      ],
      "stateMutability": "view",
      "type": "function"
    },
    {
      "inputs": [
        {
          "internalType": "uint256",
          "name": "tokenId",
          "type": "uint256"
        }
      ],
      "name": "tokenIdToSerumType",
      "outputs": [
        {
          "internalType": "uint256",
          "name": "",
          "type": "uint256"
        }
      ],
      "stateMutability": "view",
      "type": "function"
    },
    {
      "inputs": [
        {
          "internalType": "address",
          "name": "newOwner",
          "type": "address"
        }
      ],
      "name": "transferOwnership",
      "outputs": [],
      "stateMutability": "nonpayable",
      "type": "function"
    },
    {
      "inputs": [
        {
          "internalType": "uint256",
          "name": "id",
          "type": "uint256"
        }
      ],
      "name": "uri",
      "outputs": [
        {
          "internalType": "string",
          "name": "",
          "type": "string"
        }
      ],
      "stateMutability": "view",
      "type": "function"
    }
  ],
  "bytecode": "0x7f2ed0feb3e7fd2022120aa84fab1945545a9f2ffc9076fd6156fa96eaff4c131160055567016345785d8a0000600655620186a0600755610100604052600b60c08190526a697066733a2f2f5858582f60a81b60e090815262000066916009919062000539565b503480156200007457600080fd5b50600980546200008490620005df565b80601f0160208091040260200160405190810160405280929190818152602001828054620000b290620005df565b8015620001035780601f10620000d75761010080835404028352916020019162000103565b820191906000526020600020905b815481529060010190602001808311620000e557829003601f168201915b505073b3dccb4cf7a26f6cf6b120cf5a73875b7bbc655b60a05250507301be23585060835e02b77ef475b0cc51aa1e07096080525062000143816200017a565b506200014f3362000193565b62000174336002600560405180602001604052806000815250620001e560201b60201c565b6200081f565b80516200018f90600390602084019062000539565b5050565b600480546001600160a01b038381166001600160a01b0319831681179093556040519116919082907f8be0079c531659141344cd1fd0a4f28419497f9722a3daafe3b4186f6b6457e090600090a35050565b6001600160a01b0384166200024b5760405162461bcd60e51b815260206004820152602160248201527f455243313135353a206d696e7420746f20746865207a65726f206164647265736044820152607360f81b60648201526084015b60405180910390fd5b3362000271816000876200025f8862000307565b6200026a8862000307565b5050505050565b60008481526001602090815260408083206001600160a01b038916845290915281208054859290620002a59084906200061c565b909155505060408051858152602081018590526001600160a01b0380881692600092918516917fc3d58168c5ae7397731d063d5bbf3d657854427343f4c083240f7aacaa2d0f62910160405180910390a46200026a816000878787876200035d565b6040805160018082528183019092526060916000919060208083019080368337019050509050828160008151811062000344576200034462000643565b602090810291909101015292915050565b505050505050565b6200037c846001600160a01b03166200053360201b620017641760201c565b15620003555760405163f23a6e6160e01b81526001600160a01b0385169063f23a6e6190620003b89089908990889088908890600401620006a9565b6020604051808303816000875af1925050508015620003f6575060408051601f3d908101601f19168201909252620003f391810190620006f0565b60015b620004b7576200040562000723565b806308c379a014156200044657506200041d6200077b565b806200042a575062000448565b8060405162461bcd60e51b81526004016200024291906200080a565b505b60405162461bcd60e51b815260206004820152603460248201527f455243313135353a207472616e7366657220746f206e6f6e204552433131353560448201527f526563656976657220696d706c656d656e746572000000000000000000000000606482015260840162000242565b6001600160e01b0319811663f23a6e6160e01b146200052a5760405162461bcd60e51b815260206004820152602860248201527f455243313135353a204552433131353552656365697665722072656a656374656044820152676420746f6b656e7360c01b606482015260840162000242565b50505050505050565b3b151590565b8280546200054790620005df565b90600052602060002090601f0160209004810192826200056b5760008555620005b6565b82601f106200058657805160ff1916838001178555620005b6565b82800160010185558215620005b6579182015b82811115620005b657825182559160200191906001019062000599565b50620005c4929150620005c8565b5090565b5b80821115620005c45760008155600101620005c9565b600181811c90821680620005f457607f821691505b602082108114156200061657634e487b7160e01b600052602260045260246000fd5b50919050565b600082198211156200063e57634e487b7160e01b600052601160045260246000fd5b500190565b634e487b7160e01b600052603260045260246000fd5b6000815180845260005b81811015620006815760208185018101518683018201520162000663565b8181111562000694576000602083870101525b50601f01601f19169290920160200192915050565b6001600160a01b03868116825285166020820152604081018490526060810183905260a060808201819052600090620006e59083018462000659565b979650505050505050565b6000602082840312156200070357600080fd5b81516001600160e01b0319811681146200071c57600080fd5b9392505050565b600060033d11156200073d5760046000803e5060005160e01c5b90565b601f8201601f191681016001600160401b03811182821017156200077457634e487b7160e01b600052604160045260246000fd5b6040525050565b600060443d10156200078a5790565b6040516003193d81016004833e81513d6001600160401b038083116024840183101715620007ba57505050505090565b8285019150815181811115620007d35750505050505090565b843d8701016020828501011115620007ee5750505050505090565b620007ff6020828601018762000740565b509095945050505050565b6020815260006200071c602083018462000659565b60805160a05161368b6200084c60003960008181611055015261291c015260006128e0015261368b6000f3fe608060405234801561001057600080fd5b50600436106101d95760003560e01c8063715018a611610104578063d2646463116100a2578063e985e9c511610071578063e985e9c5146103ca578063f242432a14610413578063f2fde38b14610426578063fc8957b11461043957600080fd5b8063d26464631461038f578063d4a6a2fd14610397578063dbe7e3bd1461039f578063e1da26c6146103c257600080fd5b806394985ddd116100de57806394985ddd1461034c578063a22cb4651461035f578063aaab633914610372578063c6ae087d1461037c57600080fd5b8063715018a61461030f578063861c4ccb146103175780638da5cb5b1461032457600080fd5b80633307dcfe1161017c57806350d5db281161014b57806350d5db28146102ce57806355f804b3146102e157806369d03738146102f45780636c0360eb1461030757600080fd5b80633307dcfe1461028a5780633f0c313514610292578063464d915e1461029b5780634e1273f4146102ae57600080fd5b80630e89341c116101b85780630e89341c1461023c5780630f36eecf1461025c578063266b1dde146102645780632eb2c2d61461027757600080fd5b8062fdd58e146101de57806301ffc9a7146102045780630628d05c14610227575b600080fd5b6101f16101ec366004612b1b565b610441565b6040519081526020015b60405180910390f35b610217610212366004612b75565b610520565b60405190151581526020016101fb565b61023a610235366004612b99565b610605565b005b61024f61024a366004612c0e565b610648565b6040516101fb9190612ca1565b6101f1602181565b6101f1610272366004612c0e565b6106e6565b61023a610285366004612e5f565b6107d6565b61023a61089f565b6101f16103e881565b61023a6102a9366004612c0e565b61093c565b6102c16102bc366004612f0d565b610ba6565b6040516101fb9190613015565b61023a6102dc366004613028565b610cfe565b61023a6102ef366004613045565b610dc6565b61023a610302366004613028565b610e5a565b61024f610f22565b61023a610fb0565b600e546102179060ff1681565b60045460405173ffffffffffffffffffffffffffffffffffffffff90911681526020016101fb565b61023a61035a36600461308e565b61103d565b61023a61036d3660046130be565b6110e6565b6008541515610217565b61023a61038a366004612b1b565b6110f1565b6101f1600a81565b6102176111fd565b6102176103ad366004612c0e565b600c6020526000908152604090205460ff1681565b61023a61122e565b6102176103d83660046130f7565b73ffffffffffffffffffffffffffffffffffffffff918216600090815260026020908152604080832093909416825291909152205460ff1690565b61023a610421366004613125565b611321565b61023a610434366004613028565b6113e3565b61023a611510565b600073ffffffffffffffffffffffffffffffffffffffff83166104eb576040517f08c379a000000000000000000000000000000000000000000000000000000000815260206004820152602b60248201527f455243313135353a2062616c616e636520717565727920666f7220746865207a60448201527f65726f206164647265737300000000000000000000000000000000000000000060648201526084015b60405180910390fd5b50600090815260016020908152604080832073ffffffffffffffffffffffffffffffffffffffff949094168352929052205490565b60007fffffffff0000000000000000000000000000000000000000000000000000000082167fd9b67a260000000000000000000000000000000000000000000000000000000014806105b357507fffffffff0000000000000000000000000000000000000000000000000000000082167f0e89341c00000000000000000000000000000000000000000000000000000000145b806105ff57507f01ffc9a7000000000000000000000000000000000000000000000000000000007fffffffff000000000000000000000000000000000000000000000000000000008316145b92915050565b60005b81811015610643576106318383838181106106255761062561318e565b9050602002013561093c565b8061063b816131ec565b915050610608565b505050565b6060600382106106b4576040517f08c379a000000000000000000000000000000000000000000000000000000000815260206004820152600a60248201527f494e56414c49445f49440000000000000000000000000000000000000000000060448201526064016104e2565b60096106bf8361176a565b6040516020016106d0929190613295565b6040516020818303038152906040529050919050565b600e5460009060ff16610755576040517f08c379a000000000000000000000000000000000000000000000000000000000815260206004820152601060248201527f4d4547415f4944535f4e4f545f5345540000000000000000000000000000000060448201526064016104e2565b6000828152600d602052604090205460ff161561077457506002919050565b6000606460085484604051602001610796929190918252602082015260400190565b6040516020818303038152906040528051906020012060001c6107b991906133ce565b905060218110156107cd5750600192915050565b50600092915050565b73ffffffffffffffffffffffffffffffffffffffff85163314806107ff57506107ff85336103d8565b61088b576040517f08c379a000000000000000000000000000000000000000000000000000000000815260206004820152603260248201527f455243313135353a207472616e736665722063616c6c6572206973206e6f742060448201527f6f776e6572206e6f7220617070726f766564000000000000000000000000000060648201526084016104e2565b61089885858585856118a4565b5050505050565b60045473ffffffffffffffffffffffffffffffffffffffff163314610920576040517f08c379a000000000000000000000000000000000000000000000000000000000815260206004820181905260248201527f4f776e61626c653a2063616c6c6572206973206e6f7420746865206f776e657260448201526064016104e2565b600061092d6001436133e2565b40905061093981611be1565b50565b600b5473ffffffffffffffffffffffffffffffffffffffff166109bb576040517f08c379a000000000000000000000000000000000000000000000000000000000815260206004820152601360248201527f4e46545f414444524553535f4e4f545f5345540000000000000000000000000060448201526064016104e2565b600b546040517f6352211e00000000000000000000000000000000000000000000000000000000815260048101839052339173ffffffffffffffffffffffffffffffffffffffff1690636352211e90602401602060405180830381865afa158015610a2a573d6000803e3d6000fd5b505050506040513d601f19601f82011682018060405250810190610a4e91906133f9565b73ffffffffffffffffffffffffffffffffffffffff1614610acb576040517f08c379a000000000000000000000000000000000000000000000000000000000815260206004820152600f60248201527f4e4f545f43414c4c4552535f4e4654000000000000000000000000000000000060448201526064016104e2565b6000818152600c602052604090205460ff1615610b44576040517f08c379a000000000000000000000000000000000000000000000000000000000815260206004820152601560248201527f534552554d5f414c52454144595f434c41494d4544000000000000000000000060448201526064016104e2565b6000818152600c6020526040812080547fffffffffffffffffffffffffffffffffffffffffffffffffffffffffffffff00166001179055610b84826106e6565b9050610ba23382600160405180602001604052806000815250611c54565b5050565b60608151835114610c39576040517f08c379a000000000000000000000000000000000000000000000000000000000815260206004820152602960248201527f455243313135353a206163636f756e747320616e6420696473206c656e67746860448201527f206d69736d61746368000000000000000000000000000000000000000000000060648201526084016104e2565b6000835167ffffffffffffffff811115610c5557610c55612cb4565b604051908082528060200260200182016040528015610c7e578160200160208202803683370190505b50905060005b8451811015610cf657610cc9858281518110610ca257610ca261318e565b6020026020010151858381518110610cbc57610cbc61318e565b6020026020010151610441565b828281518110610cdb57610cdb61318e565b6020908102919091010152610cef816131ec565b9050610c84565b509392505050565b60045473ffffffffffffffffffffffffffffffffffffffff163314610d7f576040517f08c379a000000000000000000000000000000000000000000000000000000000815260206004820181905260248201527f4f776e61626c653a2063616c6c6572206973206e6f7420746865206f776e657260448201526064016104e2565b600a80547fffffffffffffffffffffffff00000000000000000000000000000000000000001673ffffffffffffffffffffffffffffffffffffffff92909216919091179055565b60045473ffffffffffffffffffffffffffffffffffffffff163314610e47576040517f08c379a000000000000000000000000000000000000000000000000000000000815260206004820181905260248201527f4f776e61626c653a2063616c6c6572206973206e6f7420746865206f776e657260448201526064016104e2565b8051610ba2906009906020840190612a60565b60045473ffffffffffffffffffffffffffffffffffffffff163314610edb576040517f08c379a000000000000000000000000000000000000000000000000000000000815260206004820181905260248201527f4f776e61626c653a2063616c6c6572206973206e6f7420746865206f776e657260448201526064016104e2565b600b80547fffffffffffffffffffffffff00000000000000000000000000000000000000001673ffffffffffffffffffffffffffffffffffffffff92909216919091179055565b60098054610f2f90613225565b80601f0160208091040260200160405190810160405280929190818152602001828054610f5b90613225565b8015610fa85780601f10610f7d57610100808354040283529160200191610fa8565b820191906000526020600020905b815481529060010190602001808311610f8b57829003601f168201915b505050505081565b60045473ffffffffffffffffffffffffffffffffffffffff163314611031576040517f08c379a000000000000000000000000000000000000000000000000000000000815260206004820181905260248201527f4f776e61626c653a2063616c6c6572206973206e6f7420746865206f776e657260448201526064016104e2565b61103b6000611dbd565b565b3373ffffffffffffffffffffffffffffffffffffffff7f000000000000000000000000000000000000000000000000000000000000000016146110dc576040517f08c379a000000000000000000000000000000000000000000000000000000000815260206004820152601f60248201527f4f6e6c7920565246436f6f7264696e61746f722063616e2066756c66696c6c0060448201526064016104e2565b610ba28282611e34565b610ba2338383611e3d565b600a5473ffffffffffffffffffffffffffffffffffffffff16611170576040517f08c379a000000000000000000000000000000000000000000000000000000000815260206004820152601760248201527f4d5554414e54535f414444524553535f4e4f545f53455400000000000000000060448201526064016104e2565b600a5473ffffffffffffffffffffffffffffffffffffffff1633146111f1576040517f08c379a000000000000000000000000000000000000000000000000000000000815260206004820152601260248201527f43414c4c45525f4e4f545f414c4c4f574544000000000000000000000000000060448201526064016104e2565b610ba282826001611f91565b600b5460009073ffffffffffffffffffffffffffffffffffffffff16158015906112295750600e5460ff165b905090565b60045473ffffffffffffffffffffffffffffffffffffffff1633146112af576040517f08c379a000000000000000000000000000000000000000000000000000000000815260206004820181905260248201527f4f776e61626c653a2063616c6c6572206973206e6f7420746865206f776e657260448201526064016104e2565b60085415611319576040517f08c379a000000000000000000000000000000000000000000000000000000000815260206004820152600f60248201527f52414e444f4d5f534545445f534554000000000000000000000000000000000060448201526064016104e2565b61093961219d565b73ffffffffffffffffffffffffffffffffffffffff851633148061134a575061134a85336103d8565b6113d6576040517f08c379a000000000000000000000000000000000000000000000000000000000815260206004820152602960248201527f455243313135353a2063616c6c6572206973206e6f74206f776e6572206e6f7260448201527f20617070726f766564000000000000000000000000000000000000000000000060648201526084016104e2565b61089885858585856121ad565b60045473ffffffffffffffffffffffffffffffffffffffff163314611464576040517f08c379a000000000000000000000000000000000000000000000000000000000815260206004820181905260248201527f4f776e61626c653a2063616c6c6572206973206e6f7420746865206f776e657260448201526064016104e2565b73ffffffffffffffffffffffffffffffffffffffff8116611507576040517f08c379a000000000000000000000000000000000000000000000000000000000815260206004820152602660248201527f4f776e61626c653a206e6577206f776e657220697320746865207a65726f206160448201527f646472657373000000000000000000000000000000000000000000000000000060648201526084016104e2565b61093981611dbd565b60045473ffffffffffffffffffffffffffffffffffffffff163314611591576040517f08c379a000000000000000000000000000000000000000000000000000000000815260206004820181905260248201527f4f776e61626c653a2063616c6c6572206973206e6f7420746865206f776e657260448201526064016104e2565b6008546115fa576040517f08c379a000000000000000000000000000000000000000000000000000000000815260206004820152601360248201527f52414e444f4d5f534545445f4e4f545f5345540000000000000000000000000060448201526064016104e2565b600e5460ff1615611667576040517f08c379a000000000000000000000000000000000000000000000000000000000815260206004820152600c60248201527f4d4547415f4944535f534554000000000000000000000000000000000000000060448201526064016104e2565b6000805b6116776005600a6133e2565b8110156117355760005b6103e8600854846040516020016116a2929190918252602082015260400190565b6040516020818303038152906040528051906020012060001c6116c591906133ce565b9050826116d1816131ec565b6000838152600d602052604090205490945060ff169050611681576000908152600d6020526040902080547fffffffffffffffffffffffffffffffffffffffffffffffffffffffffffffff001660011790558061172d816131ec565b91505061166b565b5050600e80547fffffffffffffffffffffffffffffffffffffffffffffffffffffffffffffff00166001179055565b3b151590565b6060816117aa57505060408051808201909152600181527f3000000000000000000000000000000000000000000000000000000000000000602082015290565b8160005b81156117d457806117be816131ec565b91506117cd9050600a83613416565b91506117ae565b60008167ffffffffffffffff8111156117ef576117ef612cb4565b6040519080825280601f01601f191660200182016040528015611819576020820181803683370190505b5090505b841561189c5761182e6001836133e2565b915061183b600a866133ce565b61184690603061342a565b60f81b81838151811061185b5761185b61318e565b60200101907effffffffffffffffffffffffffffffffffffffffffffffffffffffffffffff1916908160001a905350611895600a86613416565b945061181d565b949350505050565b8151835114611935576040517f08c379a000000000000000000000000000000000000000000000000000000000815260206004820152602860248201527f455243313135353a2069647320616e6420616d6f756e7473206c656e6774682060448201527f6d69736d6174636800000000000000000000000000000000000000000000000060648201526084016104e2565b73ffffffffffffffffffffffffffffffffffffffff84166119d8576040517f08c379a000000000000000000000000000000000000000000000000000000000815260206004820152602560248201527f455243313135353a207472616e7366657220746f20746865207a65726f20616460448201527f647265737300000000000000000000000000000000000000000000000000000060648201526084016104e2565b3360005b8451811015611b4c5760008582815181106119f9576119f961318e565b602002602001015190506000858381518110611a1757611a1761318e565b602090810291909101810151600084815260018352604080822073ffffffffffffffffffffffffffffffffffffffff8e168352909352919091205490915081811015611ae5576040517f08c379a000000000000000000000000000000000000000000000000000000000815260206004820152602a60248201527f455243313135353a20696e73756666696369656e742062616c616e636520666f60448201527f72207472616e736665720000000000000000000000000000000000000000000060648201526084016104e2565b600083815260016020908152604080832073ffffffffffffffffffffffffffffffffffffffff8e8116855292528083208585039055908b16825281208054849290611b3190849061342a565b9250508190555050505080611b45906131ec565b90506119dc565b508473ffffffffffffffffffffffffffffffffffffffff168673ffffffffffffffffffffffffffffffffffffffff168273ffffffffffffffffffffffffffffffffffffffff167f4a39dc06d4c0dbc64b70af90fd698a233a518aa5d07e595d983b8c0526c8f7fb8787604051611bc3929190613442565b60405180910390a4611bd98187878787876123e2565b505050505050565b60085415611c4b576040517f08c379a000000000000000000000000000000000000000000000000000000000815260206004820152600f60248201527f52414e444f4d5f534545445f534554000000000000000000000000000000000060448201526064016104e2565b6109398161266d565b73ffffffffffffffffffffffffffffffffffffffff8416611cf7576040517f08c379a000000000000000000000000000000000000000000000000000000000815260206004820152602160248201527f455243313135353a206d696e7420746f20746865207a65726f2061646472657360448201527f730000000000000000000000000000000000000000000000000000000000000060648201526084016104e2565b33611d1181600087611d08886126e4565b610898886126e4565b600084815260016020908152604080832073ffffffffffffffffffffffffffffffffffffffff8916845290915281208054859290611d5090849061342a565b9091555050604080518581526020810185905273ffffffffffffffffffffffffffffffffffffffff80881692600092918516917fc3d58168c5ae7397731d063d5bbf3d657854427343f4c083240f7aacaa2d0f62910160405180910390a46108988160008787878761272f565b6004805473ffffffffffffffffffffffffffffffffffffffff8381167fffffffffffffffffffffffff0000000000000000000000000000000000000000831681179093556040519116919082907f8be0079c531659141344cd1fd0a4f28419497f9722a3daafe3b4186f6b6457e090600090a35050565b610ba281611be1565b8173ffffffffffffffffffffffffffffffffffffffff168373ffffffffffffffffffffffffffffffffffffffff161415611ef9576040517f08c379a000000000000000000000000000000000000000000000000000000000815260206004820152602960248201527f455243313135353a2073657474696e6720617070726f76616c2073746174757360448201527f20666f722073656c66000000000000000000000000000000000000000000000060648201526084016104e2565b73ffffffffffffffffffffffffffffffffffffffff83811660008181526002602090815260408083209487168084529482529182902080547fffffffffffffffffffffffffffffffffffffffffffffffffffffffffffffff001686151590811790915591519182527f17307eab39ab6107e8899845ad3d59bd9653f200f220920489ca2b5937696c31910160405180910390a3505050565b73ffffffffffffffffffffffffffffffffffffffff8316612034576040517f08c379a000000000000000000000000000000000000000000000000000000000815260206004820152602360248201527f455243313135353a206275726e2066726f6d20746865207a65726f206164647260448201527f657373000000000000000000000000000000000000000000000000000000000060648201526084016104e2565b3361206481856000612045876126e4565b61204e876126e4565b5050604080516020810190915260009052505050565b600083815260016020908152604080832073ffffffffffffffffffffffffffffffffffffffff8816845290915290205482811015612123576040517f08c379a0000000000000000000000000000000000000000000000000000000008152602060048201526024808201527f455243313135353a206275726e20616d6f756e7420657863656564732062616c60448201527f616e63650000000000000000000000000000000000000000000000000000000060648201526084016104e2565b600084815260016020908152604080832073ffffffffffffffffffffffffffffffffffffffff898116808652918452828520888703905582518981529384018890529092908616917fc3d58168c5ae7397731d063d5bbf3d657854427343f4c083240f7aacaa2d0f62910160405180910390a45050505050565b60006112296005546006546128dc565b73ffffffffffffffffffffffffffffffffffffffff8416612250576040517f08c379a000000000000000000000000000000000000000000000000000000000815260206004820152602560248201527f455243313135353a207472616e7366657220746f20746865207a65726f20616460448201527f647265737300000000000000000000000000000000000000000000000000000060648201526084016104e2565b33612260818787611d08886126e4565b600084815260016020908152604080832073ffffffffffffffffffffffffffffffffffffffff8a16845290915290205483811015612320576040517f08c379a000000000000000000000000000000000000000000000000000000000815260206004820152602a60248201527f455243313135353a20696e73756666696369656e742062616c616e636520666f60448201527f72207472616e736665720000000000000000000000000000000000000000000060648201526084016104e2565b600085815260016020908152604080832073ffffffffffffffffffffffffffffffffffffffff8b811685529252808320878503905590881682528120805486929061236c90849061342a565b9091555050604080518681526020810186905273ffffffffffffffffffffffffffffffffffffffff808916928a821692918616917fc3d58168c5ae7397731d063d5bbf3d657854427343f4c083240f7aacaa2d0f62910160405180910390a46123d982888888888861272f565b50505050505050565b73ffffffffffffffffffffffffffffffffffffffff84163b15611bd9576040517fbc197c8100000000000000000000000000000000000000000000000000000000815273ffffffffffffffffffffffffffffffffffffffff85169063bc197c81906124599089908990889088908890600401613467565b6020604051808303816000875af19250505080156124b2575060408051601f3d9081017fffffffffffffffffffffffffffffffffffffffffffffffffffffffffffffffe01682019092526124af918101906134d2565b60015b61259c576124be6134ef565b806308c379a0141561251257506124d361350b565b806124de5750612514565b806040517f08c379a00000000000000000000000000000000000000000000000000000000081526004016104e29190612ca1565b505b6040517f08c379a000000000000000000000000000000000000000000000000000000000815260206004820152603460248201527f455243313135353a207472616e7366657220746f206e6f6e204552433131353560448201527f526563656976657220696d706c656d656e74657200000000000000000000000060648201526084016104e2565b7fffffffff0000000000000000000000000000000000000000000000000000000081167fbc197c8100000000000000000000000000000000000000000000000000000000146123d9576040517f08c379a000000000000000000000000000000000000000000000000000000000815260206004820152602860248201527f455243313135353a204552433131353552656365697665722072656a6563746560448201527f6420746f6b656e7300000000000000000000000000000000000000000000000060648201526084016104e2565b60085460408051602080820193909352808201939093528051808403820181526060909301905281519101206007546126c6827fffffffffffffffffffffffffffffffffffffffffffffffffffffffffffffffff6133e2565b10156126df576007546126d990826133e2565b60085550565b600855565b6040805160018082528183019092526060916000919060208083019080368337019050509050828160008151811061271e5761271e61318e565b602090810291909101015292915050565b73ffffffffffffffffffffffffffffffffffffffff84163b15611bd9576040517ff23a6e6100000000000000000000000000000000000000000000000000000000815273ffffffffffffffffffffffffffffffffffffffff85169063f23a6e61906127a690899089908890889088906004016135b3565b6020604051808303816000875af19250505080156127ff575060408051601f3d9081017fffffffffffffffffffffffffffffffffffffffffffffffffffffffffffffffe01682019092526127fc918101906134d2565b60015b61280b576124be6134ef565b7fffffffff0000000000000000000000000000000000000000000000000000000081167ff23a6e6100000000000000000000000000000000000000000000000000000000146123d9576040517f08c379a000000000000000000000000000000000000000000000000000000000815260206004820152602860248201527f455243313135353a204552433131353552656365697665722072656a6563746560448201527f6420746f6b656e7300000000000000000000000000000000000000000000000060648201526084016104e2565b60007f000000000000000000000000000000000000000000000000000000000000000073ffffffffffffffffffffffffffffffffffffffff16634000aea07f000000000000000000000000000000000000000000000000000000000000000084866000604051602001612959929190918252602082015260400190565b6040516020818303038152906040526040518463ffffffff1660e01b815260040161298693929190613603565b6020604051808303816000875af11580156129a5573d6000803e3d6000fd5b505050506040513d601f19601f820116820180604052508101906129c99190613638565b5060008381526020818152604080832054815180840188905280830185905230606082015260808082018390528351808303909101815260a090910190925281519183019190912086845292909152612a2390600161342a565b600085815260208181526040918290209290925580518083018790528082018490528151808203830181526060909101909152805191012061189c565b828054612a6c90613225565b90600052602060002090601f016020900481019282612a8e5760008555612ad4565b82601f10612aa757805160ff1916838001178555612ad4565b82800160010185558215612ad4579182015b82811115612ad4578251825591602001919060010190612ab9565b50612ae0929150612ae4565b5090565b5b80821115612ae05760008155600101612ae5565b73ffffffffffffffffffffffffffffffffffffffff8116811461093957600080fd5b60008060408385031215612b2e57600080fd5b8235612b3981612af9565b946020939093013593505050565b7fffffffff000000000000000000000000000000000000000000000000000000008116811461093957600080fd5b600060208284031215612b8757600080fd5b8135612b9281612b47565b9392505050565b60008060208385031215612bac57600080fd5b823567ffffffffffffffff80821115612bc457600080fd5b818501915085601f830112612bd857600080fd5b813581811115612be757600080fd5b8660208260051b8501011115612bfc57600080fd5b60209290920196919550909350505050565b600060208284031215612c2057600080fd5b5035919050565b60005b83811015612c42578181015183820152602001612c2a565b83811115612c51576000848401525b50505050565b60008151808452612c6f816020860160208601612c27565b601f017fffffffffffffffffffffffffffffffffffffffffffffffffffffffffffffffe0169290920160200192915050565b602081526000612b926020830184612c57565b7f4e487b7100000000000000000000000000000000000000000000000000000000600052604160045260246000fd5b7fffffffffffffffffffffffffffffffffffffffffffffffffffffffffffffffe0601f830116810181811067ffffffffffffffff82111715612d2757612d27612cb4565b6040525050565b600067ffffffffffffffff821115612d4857612d48612cb4565b5060051b60200190565b600082601f830112612d6357600080fd5b81356020612d7082612d2e565b604051612d7d8282612ce3565b83815260059390931b8501820192828101915086841115612d9d57600080fd5b8286015b84811015612db85780358352918301918301612da1565b509695505050505050565b600067ffffffffffffffff831115612ddd57612ddd612cb4565b604051612e1260207fffffffffffffffffffffffffffffffffffffffffffffffffffffffffffffffe0601f8701160182612ce3565b809150838152848484011115612e2757600080fd5b83836020830137600060208583010152509392505050565b600082601f830112612e5057600080fd5b612b9283833560208501612dc3565b600080600080600060a08688031215612e7757600080fd5b8535612e8281612af9565b94506020860135612e9281612af9565b9350604086013567ffffffffffffffff80821115612eaf57600080fd5b612ebb89838a01612d52565b94506060880135915080821115612ed157600080fd5b612edd89838a01612d52565b93506080880135915080821115612ef357600080fd5b50612f0088828901612e3f565b9150509295509295909350565b60008060408385031215612f2057600080fd5b823567ffffffffffffffff80821115612f3857600080fd5b818501915085601f830112612f4c57600080fd5b81356020612f5982612d2e565b604051612f668282612ce3565b83815260059390931b8501820192828101915089841115612f8657600080fd5b948201945b83861015612fad578535612f9e81612af9565b82529482019490820190612f8b565b96505086013592505080821115612fc357600080fd5b50612fd085828601612d52565b9150509250929050565b600081518084526020808501945080840160005b8381101561300a57815187529582019590820190600101612fee565b509495945050505050565b602081526000612b926020830184612fda565b60006020828403121561303a57600080fd5b8135612b9281612af9565b60006020828403121561305757600080fd5b813567ffffffffffffffff81111561306e57600080fd5b8201601f8101841361307f57600080fd5b61189c84823560208401612dc3565b600080604083850312156130a157600080fd5b50508035926020909101359150565b801515811461093957600080fd5b600080604083850312156130d157600080fd5b82356130dc81612af9565b915060208301356130ec816130b0565b809150509250929050565b6000806040838503121561310a57600080fd5b823561311581612af9565b915060208301356130ec81612af9565b600080600080600060a0868803121561313d57600080fd5b853561314881612af9565b9450602086013561315881612af9565b93506040860135925060608601359150608086013567ffffffffffffffff81111561318257600080fd5b612f0088828901612e3f565b7f4e487b7100000000000000000000000000000000000000000000000000000000600052603260045260246000fd5b7f4e487b7100000000000000000000000000000000000000000000000000000000600052601160045260246000fd5b60007fffffffffffffffffffffffffffffffffffffffffffffffffffffffffffffffff82141561321e5761321e6131bd565b5060010190565b600181811c9082168061323957607f821691505b60208210811415613273577f4e487b7100000000000000000000000000000000000000000000000000000000600052602260045260246000fd5b50919050565b6000815161328b818560208601612c27565b9290920192915050565b600080845481600182811c9150808316806132b157607f831692505b60208084108214156132ea577f4e487b710000000000000000000000000000000000000000000000000000000086526022600452602486fd5b8180156132fe576001811461332d5761335a565b7fffffffffffffffffffffffffffffffffffffffffffffffffffffffffffffff0086168952848901965061335a565b60008b81526020902060005b868110156133525781548b820152908501908301613339565b505084890196505b50505050505061339661336d8286613279565b7f2e6a736f6e000000000000000000000000000000000000000000000000000000815260050190565b95945050505050565b7f4e487b7100000000000000000000000000000000000000000000000000000000600052601260045260246000fd5b6000826133dd576133dd61339f565b500690565b6000828210156133f4576133f46131bd565b500390565b60006020828403121561340b57600080fd5b8151612b9281612af9565b6000826134255761342561339f565b500490565b6000821982111561343d5761343d6131bd565b500190565b6040815260006134556040830185612fda565b82810360208401526133968185612fda565b600073ffffffffffffffffffffffffffffffffffffffff808816835280871660208401525060a060408301526134a060a0830186612fda565b82810360608401526134b28186612fda565b905082810360808401526134c68185612c57565b98975050505050505050565b6000602082840312156134e457600080fd5b8151612b9281612b47565b600060033d11156135085760046000803e5060005160e01c5b90565b600060443d10156135195790565b6040517ffffffffffffffffffffffffffffffffffffffffffffffffffffffffffffffffc803d016004833e81513d67ffffffffffffffff816024840111818411171561356757505050505090565b828501915081518181111561357f5750505050505090565b843d87010160208285010111156135995750505050505090565b6135a860208286010187612ce3565b509095945050505050565b600073ffffffffffffffffffffffffffffffffffffffff808816835280871660208401525084604083015283606083015260a060808301526135f860a0830184612c57565b979650505050505050565b73ffffffffffffffffffffffffffffffffffffffff841681528260208201526060604082015260006133966060830184612c57565b60006020828403121561364a57600080fd5b8151612b92816130b056fea264697066735822122037f8ee80a450051c0c9a1cbf390e4757e43aa8e1dc97c1e73725a180c8e5f42d64736f6c634300080b0033",
  "linkReferences": {},
  "deployedLinkReferences": {}
}