{
  "_format": "hh-sol-artifact-1",
  "contractName": "Serum",
  "sourceName": "contracts/Serum.sol",
  "abi": [
    {
      "inputs": [],
      "stateMutability": "nonpayable",
      "type": "constructor"
    },
    {
      "anonymous": false,
      "inputs": [
        {
          "indexed": true,
          "internalType": "address",
          "name": "account",
          "type": "address"
        },
        {
          "indexed": true,
          "internalType": "address",
          "name": "operator",
          "type": "address"
        },
        {
          "indexed": false,
          "internalType": "bool",
          "name": "approved",
          "type": "bool"
        }
      ],
      "name": "ApprovalForAll",
      "type": "event"
    },
    {
      "anonymous": false,
      "inputs": [
        {
          "indexed": true,
          "internalType": "address",
          "name": "previousOwner",
          "type": "address"
        },
        {
          "indexed": true,
          "internalType": "address",
          "name": "newOwner",
          "type": "address"
        }
      ],
      "name": "OwnershipTransferred",
      "type": "event"
    },
    {
      "anonymous": false,
      "inputs": [
        {
          "indexed": true,
          "internalType": "address",
          "name": "operator",
          "type": "address"
        },
        {
          "indexed": true,
          "internalType": "address",
          "name": "from",
          "type": "address"
        },
        {
          "indexed": true,
          "internalType": "address",
          "name": "to",
          "type": "address"
        },
        {
          "indexed": false,
          "internalType": "uint256[]",
          "name": "ids",
          "type": "uint256[]"
        },
        {
          "indexed": false,
          "internalType": "uint256[]",
          "name": "values",
          "type": "uint256[]"
        }
      ],
      "name": "TransferBatch",
      "type": "event"
    },
    {
      "anonymous": false,
      "inputs": [
        {
          "indexed": true,
          "internalType": "address",
          "name": "operator",
          "type": "address"
        },
        {
          "indexed": true,
          "internalType": "address",
          "name": "from",
          "type": "address"
        },
        {
          "indexed": true,
          "internalType": "address",
          "name": "to",
          "type": "address"
        },
        {
          "indexed": false,
          "internalType": "uint256",
          "name": "id",
          "type": "uint256"
        },
        {
          "indexed": false,
          "internalType": "uint256",
          "name": "value",
          "type": "uint256"
        }
      ],
      "name": "TransferSingle",
      "type": "event"
    },
    {
      "anonymous": false,
      "inputs": [
        {
          "indexed": false,
          "internalType": "string",
          "name": "value",
          "type": "string"
        },
        {
          "indexed": true,
          "internalType": "uint256",
          "name": "id",
          "type": "uint256"
        }
      ],
      "name": "URI",
      "type": "event"
    },
    {
      "inputs": [],
      "name": "M2_CHANCE_PER_CENT",
      "outputs": [
        {
          "internalType": "uint256",
          "name": "",
          "type": "uint256"
        }
      ],
      "stateMutability": "view",
      "type": "function"
    },
    {
      "inputs": [],
      "name": "MAX_SUPPLY_M3",
      "outputs": [
        {
          "internalType": "uint256",
          "name": "",
          "type": "uint256"
        }
      ],
      "stateMutability": "view",
      "type": "function"
    },
    {
      "inputs": [],
      "name": "MAX_SUPPLY_NFT",
      "outputs": [
        {
          "internalType": "uint256",
          "name": "",
          "type": "uint256"
        }
      ],
      "stateMutability": "view",
      "type": "function"
    },
    {
      "inputs": [
        {
          "internalType": "address",
          "name": "account",
          "type": "address"
        },
        {
          "internalType": "uint256",
          "name": "id",
          "type": "uint256"
        }
      ],
      "name": "balanceOf",
      "outputs": [
        {
          "internalType": "uint256",
          "name": "",
          "type": "uint256"
        }
      ],
      "stateMutability": "view",
      "type": "function"
    },
    {
      "inputs": [
        {
          "internalType": "address[]",
          "name": "accounts",
          "type": "address[]"
        },
        {
          "internalType": "uint256[]",
          "name": "ids",
          "type": "uint256[]"
        }
      ],
      "name": "balanceOfBatch",
      "outputs": [
        {
          "internalType": "uint256[]",
          "name": "",
          "type": "uint256[]"
        }
      ],
      "stateMutability": "view",
      "type": "function"
    },
    {
      "inputs": [],
      "name": "baseURI",
      "outputs": [
        {
          "internalType": "string",
          "name": "",
          "type": "string"
        }
      ],
      "stateMutability": "view",
      "type": "function"
    },
    {
      "inputs": [
        {
          "internalType": "address",
          "name": "owner",
          "type": "address"
        },
        {
          "internalType": "uint256",
          "name": "id",
          "type": "uint256"
        }
      ],
      "name": "burnSerumOf",
      "outputs": [],
      "stateMutability": "nonpayable",
      "type": "function"
    },
    {
      "inputs": [],
      "name": "claimActive",
      "outputs": [
        {
          "internalType": "bool",
          "name": "",
          "type": "bool"
        }
      ],
      "stateMutability": "view",
      "type": "function"
    },
    {
      "inputs": [
        {
          "internalType": "uint256",
          "name": "tokenId",
          "type": "uint256"
        }
      ],
      "name": "claimSerum",
      "outputs": [],
      "stateMutability": "nonpayable",
      "type": "function"
    },
    {
      "inputs": [
        {
          "internalType": "uint256[]",
          "name": "tokenIds",
          "type": "uint256[]"
        }
      ],
      "name": "claimSerumBatch",
      "outputs": [],
      "stateMutability": "nonpayable",
      "type": "function"
    },
    {
      "inputs": [
        {
          "internalType": "uint256",
          "name": "",
          "type": "uint256"
        }
      ],
      "name": "claimed",
      "outputs": [
        {
          "internalType": "bool",
          "name": "",
          "type": "bool"
        }
      ],
      "stateMutability": "view",
      "type": "function"
    },
    {
      "inputs": [],
      "name": "forceFulfillRandomness",
      "outputs": [],
      "stateMutability": "nonpayable",
      "type": "function"
    },
    {
      "inputs": [
        {
          "internalType": "address",
          "name": "account",
          "type": "address"
        },
        {
          "internalType": "address",
          "name": "operator",
          "type": "address"
        }
      ],
      "name": "isApprovedForAll",
      "outputs": [
        {
          "internalType": "bool",
          "name": "",
          "type": "bool"
        }
      ],
      "stateMutability": "view",
      "type": "function"
    },
    {
      "inputs": [],
      "name": "megaIdsSet",
      "outputs": [
        {
          "internalType": "bool",
          "name": "",
          "type": "bool"
        }
      ],
      "stateMutability": "view",
      "type": "function"
    },
    {
      "inputs": [],
      "name": "owner",
      "outputs": [
        {
          "internalType": "address",
          "name": "",
          "type": "address"
        }
      ],
      "stateMutability": "view",
      "type": "function"
    },
    {
      "inputs": [],
      "name": "randomSeedSet",
      "outputs": [
        {
          "internalType": "bool",
          "name": "",
          "type": "bool"
        }
      ],
      "stateMutability": "view",
      "type": "function"
    },
    {
      "inputs": [
        {
          "internalType": "bytes32",
          "name": "requestId",
          "type": "bytes32"
        },
        {
          "internalType": "uint256",
          "name": "randomness",
          "type": "uint256"
        }
      ],
      "name": "rawFulfillRandomness",
      "outputs": [],
      "stateMutability": "nonpayable",
      "type": "function"
    },
    {
      "inputs": [],
      "name": "renounceOwnership",
      "outputs": [],
      "stateMutability": "nonpayable",
      "type": "function"
    },
    {
      "inputs": [],
      "name": "requestRandomSeed",
      "outputs": [],
      "stateMutability": "nonpayable",
      "type": "function"
    },
    {
      "inputs": [
        {
          "internalType": "address",
          "name": "from",
          "type": "address"
        },
        {
          "internalType": "address",
          "name": "to",
          "type": "address"
        },
        {
          "internalType": "uint256[]",
          "name": "ids",
          "type": "uint256[]"
        },
        {
          "internalType": "uint256[]",
          "name": "amounts",
          "type": "uint256[]"
        },
        {
          "internalType": "bytes",
          "name": "data",
          "type": "bytes"
        }
      ],
      "name": "safeBatchTransferFrom",
      "outputs": [],
      "stateMutability": "nonpayable",
      "type": "function"
    },
    {
      "inputs": [
        {
          "internalType": "address",
          "name": "from",
          "type": "address"
        },
        {
          "internalType": "address",
          "name": "to",
          "type": "address"
        },
        {
          "internalType": "uint256",
          "name": "id",
          "type": "uint256"
        },
        {
          "internalType": "uint256",
          "name": "amount",
          "type": "uint256"
        },
        {
          "internalType": "bytes",
          "name": "data",
          "type": "bytes"
        }
      ],
      "name": "safeTransferFrom",
      "outputs": [],
      "stateMutability": "nonpayable",
      "type": "function"
    },
    {
      "inputs": [
        {
          "internalType": "address",
          "name": "operator",
          "type": "address"
        },
        {
          "internalType": "bool",
          "name": "approved",
          "type": "bool"
        }
      ],
      "name": "setApprovalForAll",
      "outputs": [],
      "stateMutability": "nonpayable",
      "type": "function"
    },
    {
      "inputs": [
        {
          "internalType": "string",
          "name": "_baseURI",
          "type": "string"
        }
      ],
      "name": "setBaseURI",
      "outputs": [],
      "stateMutability": "nonpayable",
      "type": "function"
    },
    {
      "inputs": [],
      "name": "setMegaSequence",
      "outputs": [],
      "stateMutability": "nonpayable",
      "type": "function"
    },
    {
      "inputs": [
        {
          "internalType": "address",
          "name": "_address",
          "type": "address"
        }
      ],
      "name": "setMutantsAddress",
      "outputs": [],
      "stateMutability": "nonpayable",
      "type": "function"
    },
    {
      "inputs": [
        {
          "internalType": "address",
          "name": "_address",
          "type": "address"
        }
      ],
      "name": "setNFTAddress",
      "outputs": [],
      "stateMutability": "nonpayable",
      "type": "function"
    },
    {
      "inputs": [
        {
          "internalType": "bytes4",
          "name": "interfaceId",
          "type": "bytes4"
        }
      ],
      "name": "supportsInterface",
      "outputs": [
        {
          "internalType": "bool",
          "name": "",
          "type": "bool"
        }
      ],
      "stateMutability": "view",
      "type": "function"
    },
    {
      "inputs": [
        {
          "internalType": "uint256",
          "name": "tokenId",
          "type": "uint256"
        }
      ],
      "name": "tokenIdToSerumType",
      "outputs": [
        {
          "internalType": "uint256",
          "name": "",
          "type": "uint256"
        }
      ],
      "stateMutability": "view",
      "type": "function"
    },
    {
      "inputs": [
        {
          "internalType": "address",
          "name": "newOwner",
          "type": "address"
        }
      ],
      "name": "transferOwnership",
      "outputs": [],
      "stateMutability": "nonpayable",
      "type": "function"
    },
    {
      "inputs": [
        {
          "internalType": "uint256",
          "name": "id",
          "type": "uint256"
        }
      ],
      "name": "uri",
      "outputs": [
        {
          "internalType": "string",
          "name": "",
          "type": "string"
        }
      ],
      "stateMutability": "view",
      "type": "function"
    }
  ],
  "bytecode": "0x7f2ed0feb3e7fd2022120aa84fab1945545a9f2ffc9076fd6156fa96eaff4c131160055567016345785d8a0000600655620186a0600755610100604052600b60c08190526a697066733a2f2f5858582f60a81b60e0908152620000669160099190620001c0565b503480156200007457600080fd5b5060098054620000849062000266565b80601f0160208091040260200160405190810160405280929190818152602001828054620000b29062000266565b8015620001035780601f10620000d75761010080835404028352916020019162000103565b820191906000526020600020905b815481529060010190602001808311620000e557829003601f168201915b505073dd3782915140c8f3b190b5d67eac6dc5760c46e960a05250507301be23585060835e02b77ef475b0cc51aa1e070960805250620001438162000155565b506200014f336200016e565b620002a3565b80516200016a906003906020840190620001c0565b5050565b600480546001600160a01b038381166001600160a01b0319831681179093556040519116919082907f8be0079c531659141344cd1fd0a4f28419497f9722a3daafe3b4186f6b6457e090600090a35050565b828054620001ce9062000266565b90600052602060002090601f016020900481019282620001f257600085556200023d565b82601f106200020d57805160ff19168380011785556200023d565b828001600101855582156200023d579182015b828111156200023d57825182559160200191906001019062000220565b506200024b9291506200024f565b5090565b5b808211156200024b576000815560010162000250565b600181811c908216806200027b57607f821691505b602082108114156200029d57634e487b7160e01b600052602260045260246000fd5b50919050565b60805160a051613646620002d06000396000818161105501526128d70152600061289b01526136466000f3fe608060405234801561001057600080fd5b50600436106101d95760003560e01c8063715018a611610104578063d2646463116100a2578063e985e9c511610071578063e985e9c5146103ca578063f242432a14610413578063f2fde38b14610426578063fc8957b11461043957600080fd5b8063d26464631461038f578063d4a6a2fd14610397578063dbe7e3bd1461039f578063e1da26c6146103c257600080fd5b806394985ddd116100de57806394985ddd1461034c578063a22cb4651461035f578063aaab633914610372578063c6ae087d1461037c57600080fd5b8063715018a61461030f578063861c4ccb146103175780638da5cb5b1461032457600080fd5b80633307dcfe1161017c57806350d5db281161014b57806350d5db28146102ce57806355f804b3146102e157806369d03738146102f45780636c0360eb1461030757600080fd5b80633307dcfe1461028a5780633f0c313514610292578063464d915e1461029b5780634e1273f4146102ae57600080fd5b80630e89341c116101b85780630e89341c1461023c5780630f36eecf1461025c578063266b1dde146102645780632eb2c2d61461027757600080fd5b8062fdd58e146101de57806301ffc9a7146102045780630628d05c14610227575b600080fd5b6101f16101ec366004612ad6565b610441565b6040519081526020015b60405180910390f35b610217610212366004612b30565b610520565b60405190151581526020016101fb565b61023a610235366004612b54565b610605565b005b61024f61024a366004612bc9565b610648565b6040516101fb9190612c5c565b6101f1602181565b6101f1610272366004612bc9565b6106e6565b61023a610285366004612e1a565b6107d6565b61023a61089f565b6101f16103e881565b61023a6102a9366004612bc9565b61093c565b6102c16102bc366004612ec8565b610ba6565b6040516101fb9190612fd0565b61023a6102dc366004612fe3565b610cfe565b61023a6102ef366004613000565b610dc6565b61023a610302366004612fe3565b610e5a565b61024f610f22565b61023a610fb0565b600e546102179060ff1681565b60045460405173ffffffffffffffffffffffffffffffffffffffff90911681526020016101fb565b61023a61035a366004613049565b61103d565b61023a61036d366004613079565b6110e6565b6008541515610217565b61023a61038a366004612ad6565b6110f1565b6101f1600a81565b6102176111fd565b6102176103ad366004612bc9565b600c6020526000908152604090205460ff1681565b61023a61122e565b6102176103d83660046130b2565b73ffffffffffffffffffffffffffffffffffffffff918216600090815260026020908152604080832093909416825291909152205460ff1690565b61023a6104213660046130e0565b611321565b61023a610434366004612fe3565b6113e3565b61023a611510565b600073ffffffffffffffffffffffffffffffffffffffff83166104eb576040517f08c379a000000000000000000000000000000000000000000000000000000000815260206004820152602b60248201527f455243313135353a2062616c616e636520717565727920666f7220746865207a60448201527f65726f206164647265737300000000000000000000000000000000000000000060648201526084015b60405180910390fd5b50600090815260016020908152604080832073ffffffffffffffffffffffffffffffffffffffff949094168352929052205490565b60007fffffffff0000000000000000000000000000000000000000000000000000000082167fd9b67a260000000000000000000000000000000000000000000000000000000014806105b357507fffffffff0000000000000000000000000000000000000000000000000000000082167f0e89341c00000000000000000000000000000000000000000000000000000000145b806105ff57507f01ffc9a7000000000000000000000000000000000000000000000000000000007fffffffff000000000000000000000000000000000000000000000000000000008316145b92915050565b60005b818110156106435761063183838381811061062557610625613149565b9050602002013561093c565b8061063b816131a7565b915050610608565b505050565b6060600382106106b4576040517f08c379a000000000000000000000000000000000000000000000000000000000815260206004820152600a60248201527f494e56414c49445f49440000000000000000000000000000000000000000000060448201526064016104e2565b60096106bf8361175a565b6040516020016106d0929190613250565b6040516020818303038152906040529050919050565b600e5460009060ff16610755576040517f08c379a000000000000000000000000000000000000000000000000000000000815260206004820152601060248201527f4d4547415f4944535f4e4f545f5345540000000000000000000000000000000060448201526064016104e2565b6000828152600d602052604090205460ff161561077457506002919050565b6000606460085484604051602001610796929190918252602082015260400190565b6040516020818303038152906040528051906020012060001c6107b99190613389565b905060218110156107cd5750600192915050565b50600092915050565b73ffffffffffffffffffffffffffffffffffffffff85163314806107ff57506107ff85336103d8565b61088b576040517f08c379a000000000000000000000000000000000000000000000000000000000815260206004820152603260248201527f455243313135353a207472616e736665722063616c6c6572206973206e6f742060448201527f6f776e6572206e6f7220617070726f766564000000000000000000000000000060648201526084016104e2565b6108988585858585611894565b5050505050565b60045473ffffffffffffffffffffffffffffffffffffffff163314610920576040517f08c379a000000000000000000000000000000000000000000000000000000000815260206004820181905260248201527f4f776e61626c653a2063616c6c6572206973206e6f7420746865206f776e657260448201526064016104e2565b600061092d60014361339d565b40905061093981611bd1565b50565b600b5473ffffffffffffffffffffffffffffffffffffffff166109bb576040517f08c379a000000000000000000000000000000000000000000000000000000000815260206004820152601360248201527f4e46545f414444524553535f4e4f545f5345540000000000000000000000000060448201526064016104e2565b600b546040517f6352211e00000000000000000000000000000000000000000000000000000000815260048101839052339173ffffffffffffffffffffffffffffffffffffffff1690636352211e90602401602060405180830381865afa158015610a2a573d6000803e3d6000fd5b505050506040513d601f19601f82011682018060405250810190610a4e91906133b4565b73ffffffffffffffffffffffffffffffffffffffff1614610acb576040517f08c379a000000000000000000000000000000000000000000000000000000000815260206004820152600f60248201527f4e4f545f43414c4c4552535f4e4654000000000000000000000000000000000060448201526064016104e2565b6000818152600c602052604090205460ff1615610b44576040517f08c379a000000000000000000000000000000000000000000000000000000000815260206004820152601560248201527f534552554d5f414c52454144595f434c41494d4544000000000000000000000060448201526064016104e2565b6000818152600c6020526040812080547fffffffffffffffffffffffffffffffffffffffffffffffffffffffffffffff00166001179055610b84826106e6565b9050610ba23382600160405180602001604052806000815250611c86565b5050565b60608151835114610c39576040517f08c379a000000000000000000000000000000000000000000000000000000000815260206004820152602960248201527f455243313135353a206163636f756e747320616e6420696473206c656e67746860448201527f206d69736d61746368000000000000000000000000000000000000000000000060648201526084016104e2565b6000835167ffffffffffffffff811115610c5557610c55612c6f565b604051908082528060200260200182016040528015610c7e578160200160208202803683370190505b50905060005b8451811015610cf657610cc9858281518110610ca257610ca2613149565b6020026020010151858381518110610cbc57610cbc613149565b6020026020010151610441565b828281518110610cdb57610cdb613149565b6020908102919091010152610cef816131a7565b9050610c84565b509392505050565b60045473ffffffffffffffffffffffffffffffffffffffff163314610d7f576040517f08c379a000000000000000000000000000000000000000000000000000000000815260206004820181905260248201527f4f776e61626c653a2063616c6c6572206973206e6f7420746865206f776e657260448201526064016104e2565b600a80547fffffffffffffffffffffffff00000000000000000000000000000000000000001673ffffffffffffffffffffffffffffffffffffffff92909216919091179055565b60045473ffffffffffffffffffffffffffffffffffffffff163314610e47576040517f08c379a000000000000000000000000000000000000000000000000000000000815260206004820181905260248201527f4f776e61626c653a2063616c6c6572206973206e6f7420746865206f776e657260448201526064016104e2565b8051610ba2906009906020840190612a1b565b60045473ffffffffffffffffffffffffffffffffffffffff163314610edb576040517f08c379a000000000000000000000000000000000000000000000000000000000815260206004820181905260248201527f4f776e61626c653a2063616c6c6572206973206e6f7420746865206f776e657260448201526064016104e2565b600b80547fffffffffffffffffffffffff00000000000000000000000000000000000000001673ffffffffffffffffffffffffffffffffffffffff92909216919091179055565b60098054610f2f906131e0565b80601f0160208091040260200160405190810160405280929190818152602001828054610f5b906131e0565b8015610fa85780601f10610f7d57610100808354040283529160200191610fa8565b820191906000526020600020905b815481529060010190602001808311610f8b57829003601f168201915b505050505081565b60045473ffffffffffffffffffffffffffffffffffffffff163314611031576040517f08c379a000000000000000000000000000000000000000000000000000000000815260206004820181905260248201527f4f776e61626c653a2063616c6c6572206973206e6f7420746865206f776e657260448201526064016104e2565b61103b6000611def565b565b3373ffffffffffffffffffffffffffffffffffffffff7f000000000000000000000000000000000000000000000000000000000000000016146110dc576040517f08c379a000000000000000000000000000000000000000000000000000000000815260206004820152601f60248201527f4f6e6c7920565246436f6f7264696e61746f722063616e2066756c66696c6c0060448201526064016104e2565b610ba28282611e66565b610ba2338383611e6f565b600a5473ffffffffffffffffffffffffffffffffffffffff16611170576040517f08c379a000000000000000000000000000000000000000000000000000000000815260206004820152601760248201527f4d5554414e54535f414444524553535f4e4f545f53455400000000000000000060448201526064016104e2565b600a5473ffffffffffffffffffffffffffffffffffffffff1633146111f1576040517f08c379a000000000000000000000000000000000000000000000000000000000815260206004820152601260248201527f43414c4c45525f4e4f545f414c4c4f574544000000000000000000000000000060448201526064016104e2565b610ba282826001611fc3565b600b5460009073ffffffffffffffffffffffffffffffffffffffff16158015906112295750600e5460ff165b905090565b60045473ffffffffffffffffffffffffffffffffffffffff1633146112af576040517f08c379a000000000000000000000000000000000000000000000000000000000815260206004820181905260248201527f4f776e61626c653a2063616c6c6572206973206e6f7420746865206f776e657260448201526064016104e2565b60085415611319576040517f08c379a000000000000000000000000000000000000000000000000000000000815260206004820152600f60248201527f52414e444f4d5f534545445f534554000000000000000000000000000000000060448201526064016104e2565b6109396121cf565b73ffffffffffffffffffffffffffffffffffffffff851633148061134a575061134a85336103d8565b6113d6576040517f08c379a000000000000000000000000000000000000000000000000000000000815260206004820152602960248201527f455243313135353a2063616c6c6572206973206e6f74206f776e6572206e6f7260448201527f20617070726f766564000000000000000000000000000000000000000000000060648201526084016104e2565b61089885858585856121df565b60045473ffffffffffffffffffffffffffffffffffffffff163314611464576040517f08c379a000000000000000000000000000000000000000000000000000000000815260206004820181905260248201527f4f776e61626c653a2063616c6c6572206973206e6f7420746865206f776e657260448201526064016104e2565b73ffffffffffffffffffffffffffffffffffffffff8116611507576040517f08c379a000000000000000000000000000000000000000000000000000000000815260206004820152602660248201527f4f776e61626c653a206e6577206f776e657220697320746865207a65726f206160448201527f646472657373000000000000000000000000000000000000000000000000000060648201526084016104e2565b61093981611def565b60045473ffffffffffffffffffffffffffffffffffffffff163314611591576040517f08c379a000000000000000000000000000000000000000000000000000000000815260206004820181905260248201527f4f776e61626c653a2063616c6c6572206973206e6f7420746865206f776e657260448201526064016104e2565b6008546115fa576040517f08c379a000000000000000000000000000000000000000000000000000000000815260206004820152601360248201527f52414e444f4d5f534545445f4e4f545f5345540000000000000000000000000060448201526064016104e2565b600e5460ff1615611667576040517f08c379a000000000000000000000000000000000000000000000000000000000815260206004820152600c60248201527f4d4547415f4944535f534554000000000000000000000000000000000000000060448201526064016104e2565b6000805b600a81101561172b5760005b6103e860085484604051602001611698929190918252602082015260400190565b6040516020818303038152906040528051906020012060001c6116bb9190613389565b9050826116c7816131a7565b6000838152600d602052604090205490945060ff169050611677576000908152600d6020526040902080547fffffffffffffffffffffffffffffffffffffffffffffffffffffffffffffff0016600117905580611723816131a7565b91505061166b565b5050600e80547fffffffffffffffffffffffffffffffffffffffffffffffffffffffffffffff00166001179055565b60608161179a57505060408051808201909152600181527f3000000000000000000000000000000000000000000000000000000000000000602082015290565b8160005b81156117c457806117ae816131a7565b91506117bd9050600a836133d1565b915061179e565b60008167ffffffffffffffff8111156117df576117df612c6f565b6040519080825280601f01601f191660200182016040528015611809576020820181803683370190505b5090505b841561188c5761181e60018361339d565b915061182b600a86613389565b6118369060306133e5565b60f81b81838151811061184b5761184b613149565b60200101907effffffffffffffffffffffffffffffffffffffffffffffffffffffffffffff1916908160001a905350611885600a866133d1565b945061180d565b949350505050565b8151835114611925576040517f08c379a000000000000000000000000000000000000000000000000000000000815260206004820152602860248201527f455243313135353a2069647320616e6420616d6f756e7473206c656e6774682060448201527f6d69736d6174636800000000000000000000000000000000000000000000000060648201526084016104e2565b73ffffffffffffffffffffffffffffffffffffffff84166119c8576040517f08c379a000000000000000000000000000000000000000000000000000000000815260206004820152602560248201527f455243313135353a207472616e7366657220746f20746865207a65726f20616460448201527f647265737300000000000000000000000000000000000000000000000000000060648201526084016104e2565b3360005b8451811015611b3c5760008582815181106119e9576119e9613149565b602002602001015190506000858381518110611a0757611a07613149565b602090810291909101810151600084815260018352604080822073ffffffffffffffffffffffffffffffffffffffff8e168352909352919091205490915081811015611ad5576040517f08c379a000000000000000000000000000000000000000000000000000000000815260206004820152602a60248201527f455243313135353a20696e73756666696369656e742062616c616e636520666f60448201527f72207472616e736665720000000000000000000000000000000000000000000060648201526084016104e2565b600083815260016020908152604080832073ffffffffffffffffffffffffffffffffffffffff8e8116855292528083208585039055908b16825281208054849290611b219084906133e5565b9250508190555050505080611b35906131a7565b90506119cc565b508473ffffffffffffffffffffffffffffffffffffffff168673ffffffffffffffffffffffffffffffffffffffff168273ffffffffffffffffffffffffffffffffffffffff167f4a39dc06d4c0dbc64b70af90fd698a233a518aa5d07e595d983b8c0526c8f7fb8787604051611bb39291906133fd565b60405180910390a4611bc9818787878787612414565b505050505050565b60085415611c3b576040517f08c379a000000000000000000000000000000000000000000000000000000000815260206004820152600f60248201527f52414e444f4d5f534545445f534554000000000000000000000000000000000060448201526064016104e2565b600754611c68827fffffffffffffffffffffffffffffffffffffffffffffffffffffffffffffffff61339d565b1015611c8157600754611c7b908261339d565b60085550565b600855565b73ffffffffffffffffffffffffffffffffffffffff8416611d29576040517f08c379a000000000000000000000000000000000000000000000000000000000815260206004820152602160248201527f455243313135353a206d696e7420746f20746865207a65726f2061646472657360448201527f730000000000000000000000000000000000000000000000000000000000000060648201526084016104e2565b33611d4381600087611d3a8861269f565b6108988861269f565b600084815260016020908152604080832073ffffffffffffffffffffffffffffffffffffffff8916845290915281208054859290611d829084906133e5565b9091555050604080518581526020810185905273ffffffffffffffffffffffffffffffffffffffff80881692600092918516917fc3d58168c5ae7397731d063d5bbf3d657854427343f4c083240f7aacaa2d0f62910160405180910390a4610898816000878787876126ea565b6004805473ffffffffffffffffffffffffffffffffffffffff8381167fffffffffffffffffffffffff0000000000000000000000000000000000000000831681179093556040519116919082907f8be0079c531659141344cd1fd0a4f28419497f9722a3daafe3b4186f6b6457e090600090a35050565b610ba281611bd1565b8173ffffffffffffffffffffffffffffffffffffffff168373ffffffffffffffffffffffffffffffffffffffff161415611f2b576040517f08c379a000000000000000000000000000000000000000000000000000000000815260206004820152602960248201527f455243313135353a2073657474696e6720617070726f76616c2073746174757360448201527f20666f722073656c66000000000000000000000000000000000000000000000060648201526084016104e2565b73ffffffffffffffffffffffffffffffffffffffff83811660008181526002602090815260408083209487168084529482529182902080547fffffffffffffffffffffffffffffffffffffffffffffffffffffffffffffff001686151590811790915591519182527f17307eab39ab6107e8899845ad3d59bd9653f200f220920489ca2b5937696c31910160405180910390a3505050565b73ffffffffffffffffffffffffffffffffffffffff8316612066576040517f08c379a000000000000000000000000000000000000000000000000000000000815260206004820152602360248201527f455243313135353a206275726e2066726f6d20746865207a65726f206164647260448201527f657373000000000000000000000000000000000000000000000000000000000060648201526084016104e2565b33612096818560006120778761269f565b6120808761269f565b5050604080516020810190915260009052505050565b600083815260016020908152604080832073ffffffffffffffffffffffffffffffffffffffff8816845290915290205482811015612155576040517f08c379a0000000000000000000000000000000000000000000000000000000008152602060048201526024808201527f455243313135353a206275726e20616d6f756e7420657863656564732062616c60448201527f616e63650000000000000000000000000000000000000000000000000000000060648201526084016104e2565b600084815260016020908152604080832073ffffffffffffffffffffffffffffffffffffffff898116808652918452828520888703905582518981529384018890529092908616917fc3d58168c5ae7397731d063d5bbf3d657854427343f4c083240f7aacaa2d0f62910160405180910390a45050505050565b6000611229600554600654612897565b73ffffffffffffffffffffffffffffffffffffffff8416612282576040517f08c379a000000000000000000000000000000000000000000000000000000000815260206004820152602560248201527f455243313135353a207472616e7366657220746f20746865207a65726f20616460448201527f647265737300000000000000000000000000000000000000000000000000000060648201526084016104e2565b33612292818787611d3a8861269f565b600084815260016020908152604080832073ffffffffffffffffffffffffffffffffffffffff8a16845290915290205483811015612352576040517f08c379a000000000000000000000000000000000000000000000000000000000815260206004820152602a60248201527f455243313135353a20696e73756666696369656e742062616c616e636520666f60448201527f72207472616e736665720000000000000000000000000000000000000000000060648201526084016104e2565b600085815260016020908152604080832073ffffffffffffffffffffffffffffffffffffffff8b811685529252808320878503905590881682528120805486929061239e9084906133e5565b9091555050604080518681526020810186905273ffffffffffffffffffffffffffffffffffffffff808916928a821692918616917fc3d58168c5ae7397731d063d5bbf3d657854427343f4c083240f7aacaa2d0f62910160405180910390a461240b8288888888886126ea565b50505050505050565b73ffffffffffffffffffffffffffffffffffffffff84163b15611bc9576040517fbc197c8100000000000000000000000000000000000000000000000000000000815273ffffffffffffffffffffffffffffffffffffffff85169063bc197c819061248b9089908990889088908890600401613422565b6020604051808303816000875af19250505080156124e4575060408051601f3d9081017fffffffffffffffffffffffffffffffffffffffffffffffffffffffffffffffe01682019092526124e19181019061348d565b60015b6125ce576124f06134aa565b806308c379a0141561254457506125056134c6565b806125105750612546565b806040517f08c379a00000000000000000000000000000000000000000000000000000000081526004016104e29190612c5c565b505b6040517f08c379a000000000000000000000000000000000000000000000000000000000815260206004820152603460248201527f455243313135353a207472616e7366657220746f206e6f6e204552433131353560448201527f526563656976657220696d706c656d656e74657200000000000000000000000060648201526084016104e2565b7fffffffff0000000000000000000000000000000000000000000000000000000081167fbc197c81000000000000000000000000000000000000000000000000000000001461240b576040517f08c379a000000000000000000000000000000000000000000000000000000000815260206004820152602860248201527f455243313135353a204552433131353552656365697665722072656a6563746560448201527f6420746f6b656e7300000000000000000000000000000000000000000000000060648201526084016104e2565b604080516001808252818301909252606091600091906020808301908036833701905050905082816000815181106126d9576126d9613149565b602090810291909101015292915050565b73ffffffffffffffffffffffffffffffffffffffff84163b15611bc9576040517ff23a6e6100000000000000000000000000000000000000000000000000000000815273ffffffffffffffffffffffffffffffffffffffff85169063f23a6e6190612761908990899088908890889060040161356e565b6020604051808303816000875af19250505080156127ba575060408051601f3d9081017fffffffffffffffffffffffffffffffffffffffffffffffffffffffffffffffe01682019092526127b79181019061348d565b60015b6127c6576124f06134aa565b7fffffffff0000000000000000000000000000000000000000000000000000000081167ff23a6e61000000000000000000000000000000000000000000000000000000001461240b576040517f08c379a000000000000000000000000000000000000000000000000000000000815260206004820152602860248201527f455243313135353a204552433131353552656365697665722072656a6563746560448201527f6420746f6b656e7300000000000000000000000000000000000000000000000060648201526084016104e2565b60007f000000000000000000000000000000000000000000000000000000000000000073ffffffffffffffffffffffffffffffffffffffff16634000aea07f000000000000000000000000000000000000000000000000000000000000000084866000604051602001612914929190918252602082015260400190565b6040516020818303038152906040526040518463ffffffff1660e01b8152600401612941939291906135be565b6020604051808303816000875af1158015612960573d6000803e3d6000fd5b505050506040513d601f19601f8201168201806040525081019061298491906135f3565b5060008381526020818152604080832054815180840188905280830185905230606082015260808082018390528351808303909101815260a0909101909252815191830191909120868452929091526129de9060016133e5565b600085815260208181526040918290209290925580518083018790528082018490528151808203830181526060909101909152805191012061188c565b828054612a27906131e0565b90600052602060002090601f016020900481019282612a495760008555612a8f565b82601f10612a6257805160ff1916838001178555612a8f565b82800160010185558215612a8f579182015b82811115612a8f578251825591602001919060010190612a74565b50612a9b929150612a9f565b5090565b5b80821115612a9b5760008155600101612aa0565b73ffffffffffffffffffffffffffffffffffffffff8116811461093957600080fd5b60008060408385031215612ae957600080fd5b8235612af481612ab4565b946020939093013593505050565b7fffffffff000000000000000000000000000000000000000000000000000000008116811461093957600080fd5b600060208284031215612b4257600080fd5b8135612b4d81612b02565b9392505050565b60008060208385031215612b6757600080fd5b823567ffffffffffffffff80821115612b7f57600080fd5b818501915085601f830112612b9357600080fd5b813581811115612ba257600080fd5b8660208260051b8501011115612bb757600080fd5b60209290920196919550909350505050565b600060208284031215612bdb57600080fd5b5035919050565b60005b83811015612bfd578181015183820152602001612be5565b83811115612c0c576000848401525b50505050565b60008151808452612c2a816020860160208601612be2565b601f017fffffffffffffffffffffffffffffffffffffffffffffffffffffffffffffffe0169290920160200192915050565b602081526000612b4d6020830184612c12565b7f4e487b7100000000000000000000000000000000000000000000000000000000600052604160045260246000fd5b7fffffffffffffffffffffffffffffffffffffffffffffffffffffffffffffffe0601f830116810181811067ffffffffffffffff82111715612ce257612ce2612c6f565b6040525050565b600067ffffffffffffffff821115612d0357612d03612c6f565b5060051b60200190565b600082601f830112612d1e57600080fd5b81356020612d2b82612ce9565b604051612d388282612c9e565b83815260059390931b8501820192828101915086841115612d5857600080fd5b8286015b84811015612d735780358352918301918301612d5c565b509695505050505050565b600067ffffffffffffffff831115612d9857612d98612c6f565b604051612dcd60207fffffffffffffffffffffffffffffffffffffffffffffffffffffffffffffffe0601f8701160182612c9e565b809150838152848484011115612de257600080fd5b83836020830137600060208583010152509392505050565b600082601f830112612e0b57600080fd5b612b4d83833560208501612d7e565b600080600080600060a08688031215612e3257600080fd5b8535612e3d81612ab4565b94506020860135612e4d81612ab4565b9350604086013567ffffffffffffffff80821115612e6a57600080fd5b612e7689838a01612d0d565b94506060880135915080821115612e8c57600080fd5b612e9889838a01612d0d565b93506080880135915080821115612eae57600080fd5b50612ebb88828901612dfa565b9150509295509295909350565b60008060408385031215612edb57600080fd5b823567ffffffffffffffff80821115612ef357600080fd5b818501915085601f830112612f0757600080fd5b81356020612f1482612ce9565b604051612f218282612c9e565b83815260059390931b8501820192828101915089841115612f4157600080fd5b948201945b83861015612f68578535612f5981612ab4565b82529482019490820190612f46565b96505086013592505080821115612f7e57600080fd5b50612f8b85828601612d0d565b9150509250929050565b600081518084526020808501945080840160005b83811015612fc557815187529582019590820190600101612fa9565b509495945050505050565b602081526000612b4d6020830184612f95565b600060208284031215612ff557600080fd5b8135612b4d81612ab4565b60006020828403121561301257600080fd5b813567ffffffffffffffff81111561302957600080fd5b8201601f8101841361303a57600080fd5b61188c84823560208401612d7e565b6000806040838503121561305c57600080fd5b50508035926020909101359150565b801515811461093957600080fd5b6000806040838503121561308c57600080fd5b823561309781612ab4565b915060208301356130a78161306b565b809150509250929050565b600080604083850312156130c557600080fd5b82356130d081612ab4565b915060208301356130a781612ab4565b600080600080600060a086880312156130f857600080fd5b853561310381612ab4565b9450602086013561311381612ab4565b93506040860135925060608601359150608086013567ffffffffffffffff81111561313d57600080fd5b612ebb88828901612dfa565b7f4e487b7100000000000000000000000000000000000000000000000000000000600052603260045260246000fd5b7f4e487b7100000000000000000000000000000000000000000000000000000000600052601160045260246000fd5b60007fffffffffffffffffffffffffffffffffffffffffffffffffffffffffffffffff8214156131d9576131d9613178565b5060010190565b600181811c908216806131f457607f821691505b6020821081141561322e577f4e487b7100000000000000000000000000000000000000000000000000000000600052602260045260246000fd5b50919050565b60008151613246818560208601612be2565b9290920192915050565b600080845481600182811c91508083168061326c57607f831692505b60208084108214156132a5577f4e487b710000000000000000000000000000000000000000000000000000000086526022600452602486fd5b8180156132b957600181146132e857613315565b7fffffffffffffffffffffffffffffffffffffffffffffffffffffffffffffff00861689528489019650613315565b60008b81526020902060005b8681101561330d5781548b8201529085019083016132f4565b505084890196505b5050505050506133516133288286613234565b7f2e6a736f6e000000000000000000000000000000000000000000000000000000815260050190565b95945050505050565b7f4e487b7100000000000000000000000000000000000000000000000000000000600052601260045260246000fd5b6000826133985761339861335a565b500690565b6000828210156133af576133af613178565b500390565b6000602082840312156133c657600080fd5b8151612b4d81612ab4565b6000826133e0576133e061335a565b500490565b600082198211156133f8576133f8613178565b500190565b6040815260006134106040830185612f95565b82810360208401526133518185612f95565b600073ffffffffffffffffffffffffffffffffffffffff808816835280871660208401525060a0604083015261345b60a0830186612f95565b828103606084015261346d8186612f95565b905082810360808401526134818185612c12565b98975050505050505050565b60006020828403121561349f57600080fd5b8151612b4d81612b02565b600060033d11156134c35760046000803e5060005160e01c5b90565b600060443d10156134d45790565b6040517ffffffffffffffffffffffffffffffffffffffffffffffffffffffffffffffffc803d016004833e81513d67ffffffffffffffff816024840111818411171561352257505050505090565b828501915081518181111561353a5750505050505090565b843d87010160208285010111156135545750505050505090565b61356360208286010187612c9e565b509095945050505050565b600073ffffffffffffffffffffffffffffffffffffffff808816835280871660208401525084604083015283606083015260a060808301526135b360a0830184612c12565b979650505050505050565b73ffffffffffffffffffffffffffffffffffffffff841681528260208201526060604082015260006133516060830184612c12565b60006020828403121561360557600080fd5b8151612b4d8161306b56fea26469706673582212204c724d745a240f2c1f7ec504c03be6e27cceb1d95415d74936c37a18fdc6df3c64736f6c634300080b0033",
  "linkReferences": {},
  "deployedLinkReferences": {}
}